Archive member included to satisfy reference by file (symbol)

c:/program files (x86)/atmel/studio/7.0/toolchain/arm/arm-gnu-toolchain/bin/../lib/gcc/arm-none-eabi/6.3.1/thumb/v6-m\libgcc.a(_aeabi_uldivmod.o)
                              hpl/sercom/hpl_sercom.o (__aeabi_uldivmod)
c:/program files (x86)/atmel/studio/7.0/toolchain/arm/arm-gnu-toolchain/bin/../lib/gcc/arm-none-eabi/6.3.1/thumb/v6-m\libgcc.a(_muldi3.o)
                              hpl/sercom/hpl_sercom.o (__aeabi_lmul)
c:/program files (x86)/atmel/studio/7.0/toolchain/arm/arm-gnu-toolchain/bin/../lib/gcc/arm-none-eabi/6.3.1/thumb/v6-m\libgcc.a(_fixunsdfsi.o)
                              hpl/sercom/hpl_sercom.o (__aeabi_d2uiz)
c:/program files (x86)/atmel/studio/7.0/toolchain/arm/arm-gnu-toolchain/bin/../lib/gcc/arm-none-eabi/6.3.1/thumb/v6-m\libgcc.a(_udivmoddi4.o)
                              c:/program files (x86)/atmel/studio/7.0/toolchain/arm/arm-gnu-toolchain/bin/../lib/gcc/arm-none-eabi/6.3.1/thumb/v6-m\libgcc.a(_aeabi_uldivmod.o) (__udivmoddi4)
c:/program files (x86)/atmel/studio/7.0/toolchain/arm/arm-gnu-toolchain/bin/../lib/gcc/arm-none-eabi/6.3.1/thumb/v6-m\libgcc.a(divdf3.o)
                              hpl/sercom/hpl_sercom.o (__aeabi_ddiv)
c:/program files (x86)/atmel/studio/7.0/toolchain/arm/arm-gnu-toolchain/bin/../lib/gcc/arm-none-eabi/6.3.1/thumb/v6-m\libgcc.a(muldf3.o)
                              hpl/sercom/hpl_sercom.o (__aeabi_dmul)
c:/program files (x86)/atmel/studio/7.0/toolchain/arm/arm-gnu-toolchain/bin/../lib/gcc/arm-none-eabi/6.3.1/thumb/v6-m\libgcc.a(subdf3.o)
                              hpl/sercom/hpl_sercom.o (__aeabi_dsub)
c:/program files (x86)/atmel/studio/7.0/toolchain/arm/arm-gnu-toolchain/bin/../lib/gcc/arm-none-eabi/6.3.1/thumb/v6-m\libgcc.a(fixdfsi.o)
                              c:/program files (x86)/atmel/studio/7.0/toolchain/arm/arm-gnu-toolchain/bin/../lib/gcc/arm-none-eabi/6.3.1/thumb/v6-m\libgcc.a(_fixunsdfsi.o) (__aeabi_d2iz)
c:/program files (x86)/atmel/studio/7.0/toolchain/arm/arm-gnu-toolchain/bin/../lib/gcc/arm-none-eabi/6.3.1/thumb/v6-m\libgcc.a(floatsidf.o)
                              hpl/sercom/hpl_sercom.o (__aeabi_i2d)
c:/program files (x86)/atmel/studio/7.0/toolchain/arm/arm-gnu-toolchain/bin/../lib/gcc/arm-none-eabi/6.3.1/thumb/v6-m\libgcc.a(floatunsidf.o)
                              hpl/sercom/hpl_sercom.o (__aeabi_ui2d)
c:/program files (x86)/atmel/studio/7.0/toolchain/arm/arm-gnu-toolchain/bin/../lib/gcc/arm-none-eabi/6.3.1/thumb/v6-m\libgcc.a(_dvmd_tls.o)
                              c:/program files (x86)/atmel/studio/7.0/toolchain/arm/arm-gnu-toolchain/bin/../lib/gcc/arm-none-eabi/6.3.1/thumb/v6-m\libgcc.a(_aeabi_uldivmod.o) (__aeabi_ldiv0)
c:/program files (x86)/atmel/studio/7.0/toolchain/arm/arm-gnu-toolchain/bin/../lib/gcc/arm-none-eabi/6.3.1/thumb/v6-m\libgcc.a(_arm_cmpdf2.o)
                              c:/program files (x86)/atmel/studio/7.0/toolchain/arm/arm-gnu-toolchain/bin/../lib/gcc/arm-none-eabi/6.3.1/thumb/v6-m\libgcc.a(_fixunsdfsi.o) (__aeabi_dcmpge)
c:/program files (x86)/atmel/studio/7.0/toolchain/arm/arm-gnu-toolchain/bin/../lib/gcc/arm-none-eabi/6.3.1/thumb/v6-m\libgcc.a(_clzsi2.o)
                              c:/program files (x86)/atmel/studio/7.0/toolchain/arm/arm-gnu-toolchain/bin/../lib/gcc/arm-none-eabi/6.3.1/thumb/v6-m\libgcc.a(divdf3.o) (__clzsi2)
c:/program files (x86)/atmel/studio/7.0/toolchain/arm/arm-gnu-toolchain/bin/../lib/gcc/arm-none-eabi/6.3.1/thumb/v6-m\libgcc.a(_clzdi2.o)
                              c:/program files (x86)/atmel/studio/7.0/toolchain/arm/arm-gnu-toolchain/bin/../lib/gcc/arm-none-eabi/6.3.1/thumb/v6-m\libgcc.a(_udivmoddi4.o) (__clzdi2)
c:/program files (x86)/atmel/studio/7.0/toolchain/arm/arm-gnu-toolchain/bin/../lib/gcc/arm-none-eabi/6.3.1/thumb/v6-m\libgcc.a(eqdf2.o)
                              c:/program files (x86)/atmel/studio/7.0/toolchain/arm/arm-gnu-toolchain/bin/../lib/gcc/arm-none-eabi/6.3.1/thumb/v6-m\libgcc.a(_arm_cmpdf2.o) (__eqdf2)
c:/program files (x86)/atmel/studio/7.0/toolchain/arm/arm-gnu-toolchain/bin/../lib/gcc/arm-none-eabi/6.3.1/thumb/v6-m\libgcc.a(gedf2.o)
                              c:/program files (x86)/atmel/studio/7.0/toolchain/arm/arm-gnu-toolchain/bin/../lib/gcc/arm-none-eabi/6.3.1/thumb/v6-m\libgcc.a(_arm_cmpdf2.o) (__gedf2)
c:/program files (x86)/atmel/studio/7.0/toolchain/arm/arm-gnu-toolchain/bin/../lib/gcc/arm-none-eabi/6.3.1/thumb/v6-m\libgcc.a(ledf2.o)
                              c:/program files (x86)/atmel/studio/7.0/toolchain/arm/arm-gnu-toolchain/bin/../lib/gcc/arm-none-eabi/6.3.1/thumb/v6-m\libgcc.a(_arm_cmpdf2.o) (__ledf2)
c:/program files (x86)/atmel/studio/7.0/toolchain/arm/arm-gnu-toolchain/bin/../lib/gcc/arm-none-eabi/6.3.1/../../../../arm-none-eabi/lib/thumb/v6-m\libc_nano.a(lib_a-exit.o)
                              c:/program files (x86)/atmel/studio/7.0/toolchain/arm/arm-gnu-toolchain/bin/../lib/gcc/arm-none-eabi/6.3.1/../../../../arm-none-eabi/lib/thumb/v6-m/crt0.o (exit)
c:/program files (x86)/atmel/studio/7.0/toolchain/arm/arm-gnu-toolchain/bin/../lib/gcc/arm-none-eabi/6.3.1/../../../../arm-none-eabi/lib/thumb/v6-m\libc_nano.a(lib_a-impure.o)
                              c:/program files (x86)/atmel/studio/7.0/toolchain/arm/arm-gnu-toolchain/bin/../lib/gcc/arm-none-eabi/6.3.1/../../../../arm-none-eabi/lib/thumb/v6-m\libc_nano.a(lib_a-exit.o) (_global_impure_ptr)
c:/program files (x86)/atmel/studio/7.0/toolchain/arm/arm-gnu-toolchain/bin/../lib/gcc/arm-none-eabi/6.3.1/../../../../arm-none-eabi/lib/thumb/v6-m\libc_nano.a(lib_a-init.o)
                              c:/program files (x86)/atmel/studio/7.0/toolchain/arm/arm-gnu-toolchain/bin/../lib/gcc/arm-none-eabi/6.3.1/../../../../arm-none-eabi/lib/thumb/v6-m/crt0.o (__libc_init_array)
c:/program files (x86)/atmel/studio/7.0/toolchain/arm/arm-gnu-toolchain/bin/../lib/gcc/arm-none-eabi/6.3.1/../../../../arm-none-eabi/lib/thumb/v6-m\libc_nano.a(lib_a-memcpy-stub.o)
                              thirdparty/RTOS/freertos/FreeRTOSV8.2.3/Source/queue.o (memcpy)
c:/program files (x86)/atmel/studio/7.0/toolchain/arm/arm-gnu-toolchain/bin/../lib/gcc/arm-none-eabi/6.3.1/../../../../arm-none-eabi/lib/thumb/v6-m\libc_nano.a(lib_a-memset.o)
                              c:/program files (x86)/atmel/studio/7.0/toolchain/arm/arm-gnu-toolchain/bin/../lib/gcc/arm-none-eabi/6.3.1/../../../../arm-none-eabi/lib/thumb/v6-m/crt0.o (memset)
c:/program files (x86)/atmel/studio/7.0/toolchain/arm/arm-gnu-toolchain/bin/../lib/gcc/arm-none-eabi/6.3.1/../../../../arm-none-eabi/lib/thumb/v6-m\libc_nano.a(lib_a-printf.o)
                              hal/utils/src/utils_syscalls.o (printf)
c:/program files (x86)/atmel/studio/7.0/toolchain/arm/arm-gnu-toolchain/bin/../lib/gcc/arm-none-eabi/6.3.1/../../../../arm-none-eabi/lib/thumb/v6-m\libc_nano.a(lib_a-strcpy.o)
                              thirdparty/RTOS/freertos/FreeRTOSV8.2.3/Source/tasks.o (strcpy)
c:/program files (x86)/atmel/studio/7.0/toolchain/arm/arm-gnu-toolchain/bin/../lib/gcc/arm-none-eabi/6.3.1/../../../../arm-none-eabi/lib/thumb/v6-m\libc_nano.a(lib_a-strlen.o)
                              thirdparty/RTOS/freertos/FreeRTOSV8.2.3/Source/tasks.o (strlen)
c:/program files (x86)/atmel/studio/7.0/toolchain/arm/arm-gnu-toolchain/bin/../lib/gcc/arm-none-eabi/6.3.1/../../../../arm-none-eabi/lib/thumb/v6-m\libc_nano.a(lib_a-findfp.o)
                              c:/program files (x86)/atmel/studio/7.0/toolchain/arm/arm-gnu-toolchain/bin/../lib/gcc/arm-none-eabi/6.3.1/../../../../arm-none-eabi/lib/thumb/v6-m\libc_nano.a(lib_a-printf.o) (__sinit)
c:/program files (x86)/atmel/studio/7.0/toolchain/arm/arm-gnu-toolchain/bin/../lib/gcc/arm-none-eabi/6.3.1/../../../../arm-none-eabi/lib/thumb/v6-m\libc_nano.a(lib_a-fwalk.o)
                              c:/program files (x86)/atmel/studio/7.0/toolchain/arm/arm-gnu-toolchain/bin/../lib/gcc/arm-none-eabi/6.3.1/../../../../arm-none-eabi/lib/thumb/v6-m\libc_nano.a(lib_a-findfp.o) (_fwalk)
c:/program files (x86)/atmel/studio/7.0/toolchain/arm/arm-gnu-toolchain/bin/../lib/gcc/arm-none-eabi/6.3.1/../../../../arm-none-eabi/lib/thumb/v6-m\libc_nano.a(lib_a-nano-mallocr.o)
                              c:/program files (x86)/atmel/studio/7.0/toolchain/arm/arm-gnu-toolchain/bin/../lib/gcc/arm-none-eabi/6.3.1/../../../../arm-none-eabi/lib/thumb/v6-m\libc_nano.a(lib_a-findfp.o) (_malloc_r)
c:/program files (x86)/atmel/studio/7.0/toolchain/arm/arm-gnu-toolchain/bin/../lib/gcc/arm-none-eabi/6.3.1/../../../../arm-none-eabi/lib/thumb/v6-m\libc_nano.a(lib_a-nano-vfprintf.o)
                              c:/program files (x86)/atmel/studio/7.0/toolchain/arm/arm-gnu-toolchain/bin/../lib/gcc/arm-none-eabi/6.3.1/../../../../arm-none-eabi/lib/thumb/v6-m\libc_nano.a(lib_a-printf.o) (_vfprintf_r)
c:/program files (x86)/atmel/studio/7.0/toolchain/arm/arm-gnu-toolchain/bin/../lib/gcc/arm-none-eabi/6.3.1/../../../../arm-none-eabi/lib/thumb/v6-m\libc_nano.a(lib_a-nano-vfprintf_i.o)
                              c:/program files (x86)/atmel/studio/7.0/toolchain/arm/arm-gnu-toolchain/bin/../lib/gcc/arm-none-eabi/6.3.1/../../../../arm-none-eabi/lib/thumb/v6-m\libc_nano.a(lib_a-nano-vfprintf.o) (_printf_i)
c:/program files (x86)/atmel/studio/7.0/toolchain/arm/arm-gnu-toolchain/bin/../lib/gcc/arm-none-eabi/6.3.1/../../../../arm-none-eabi/lib/thumb/v6-m\libc_nano.a(lib_a-sbrkr.o)
                              c:/program files (x86)/atmel/studio/7.0/toolchain/arm/arm-gnu-toolchain/bin/../lib/gcc/arm-none-eabi/6.3.1/../../../../arm-none-eabi/lib/thumb/v6-m\libc_nano.a(lib_a-nano-mallocr.o) (_sbrk_r)
c:/program files (x86)/atmel/studio/7.0/toolchain/arm/arm-gnu-toolchain/bin/../lib/gcc/arm-none-eabi/6.3.1/../../../../arm-none-eabi/lib/thumb/v6-m\libc_nano.a(lib_a-stdio.o)
                              c:/program files (x86)/atmel/studio/7.0/toolchain/arm/arm-gnu-toolchain/bin/../lib/gcc/arm-none-eabi/6.3.1/../../../../arm-none-eabi/lib/thumb/v6-m\libc_nano.a(lib_a-findfp.o) (__sread)
c:/program files (x86)/atmel/studio/7.0/toolchain/arm/arm-gnu-toolchain/bin/../lib/gcc/arm-none-eabi/6.3.1/../../../../arm-none-eabi/lib/thumb/v6-m\libc_nano.a(lib_a-wbuf.o)
                              c:/program files (x86)/atmel/studio/7.0/toolchain/arm/arm-gnu-toolchain/bin/../lib/gcc/arm-none-eabi/6.3.1/../../../../arm-none-eabi/lib/thumb/v6-m\libc_nano.a(lib_a-nano-vfprintf.o) (__swbuf_r)
c:/program files (x86)/atmel/studio/7.0/toolchain/arm/arm-gnu-toolchain/bin/../lib/gcc/arm-none-eabi/6.3.1/../../../../arm-none-eabi/lib/thumb/v6-m\libc_nano.a(lib_a-writer.o)
                              c:/program files (x86)/atmel/studio/7.0/toolchain/arm/arm-gnu-toolchain/bin/../lib/gcc/arm-none-eabi/6.3.1/../../../../arm-none-eabi/lib/thumb/v6-m\libc_nano.a(lib_a-stdio.o) (_write_r)
c:/program files (x86)/atmel/studio/7.0/toolchain/arm/arm-gnu-toolchain/bin/../lib/gcc/arm-none-eabi/6.3.1/../../../../arm-none-eabi/lib/thumb/v6-m\libc_nano.a(lib_a-wsetup.o)
                              c:/program files (x86)/atmel/studio/7.0/toolchain/arm/arm-gnu-toolchain/bin/../lib/gcc/arm-none-eabi/6.3.1/../../../../arm-none-eabi/lib/thumb/v6-m\libc_nano.a(lib_a-nano-vfprintf.o) (__swsetup_r)
c:/program files (x86)/atmel/studio/7.0/toolchain/arm/arm-gnu-toolchain/bin/../lib/gcc/arm-none-eabi/6.3.1/../../../../arm-none-eabi/lib/thumb/v6-m\libc_nano.a(lib_a-closer.o)
                              c:/program files (x86)/atmel/studio/7.0/toolchain/arm/arm-gnu-toolchain/bin/../lib/gcc/arm-none-eabi/6.3.1/../../../../arm-none-eabi/lib/thumb/v6-m\libc_nano.a(lib_a-stdio.o) (_close_r)
c:/program files (x86)/atmel/studio/7.0/toolchain/arm/arm-gnu-toolchain/bin/../lib/gcc/arm-none-eabi/6.3.1/../../../../arm-none-eabi/lib/thumb/v6-m\libc_nano.a(lib_a-fflush.o)
                              c:/program files (x86)/atmel/studio/7.0/toolchain/arm/arm-gnu-toolchain/bin/../lib/gcc/arm-none-eabi/6.3.1/../../../../arm-none-eabi/lib/thumb/v6-m\libc_nano.a(lib_a-findfp.o) (_fflush_r)
c:/program files (x86)/atmel/studio/7.0/toolchain/arm/arm-gnu-toolchain/bin/../lib/gcc/arm-none-eabi/6.3.1/../../../../arm-none-eabi/lib/thumb/v6-m\libc_nano.a(lib_a-fvwrite.o)
                              c:/program files (x86)/atmel/studio/7.0/toolchain/arm/arm-gnu-toolchain/bin/../lib/gcc/arm-none-eabi/6.3.1/../../../../arm-none-eabi/lib/thumb/v6-m\libc_nano.a(lib_a-nano-vfprintf.o) (__sfvwrite_r)
c:/program files (x86)/atmel/studio/7.0/toolchain/arm/arm-gnu-toolchain/bin/../lib/gcc/arm-none-eabi/6.3.1/../../../../arm-none-eabi/lib/thumb/v6-m\libc_nano.a(lib_a-lseekr.o)
                              c:/program files (x86)/atmel/studio/7.0/toolchain/arm/arm-gnu-toolchain/bin/../lib/gcc/arm-none-eabi/6.3.1/../../../../arm-none-eabi/lib/thumb/v6-m\libc_nano.a(lib_a-stdio.o) (_lseek_r)
c:/program files (x86)/atmel/studio/7.0/toolchain/arm/arm-gnu-toolchain/bin/../lib/gcc/arm-none-eabi/6.3.1/../../../../arm-none-eabi/lib/thumb/v6-m\libc_nano.a(lib_a-makebuf.o)
                              c:/program files (x86)/atmel/studio/7.0/toolchain/arm/arm-gnu-toolchain/bin/../lib/gcc/arm-none-eabi/6.3.1/../../../../arm-none-eabi/lib/thumb/v6-m\libc_nano.a(lib_a-wsetup.o) (__smakebuf_r)
c:/program files (x86)/atmel/studio/7.0/toolchain/arm/arm-gnu-toolchain/bin/../lib/gcc/arm-none-eabi/6.3.1/../../../../arm-none-eabi/lib/thumb/v6-m\libc_nano.a(lib_a-memchr-stub.o)
                              c:/program files (x86)/atmel/studio/7.0/toolchain/arm/arm-gnu-toolchain/bin/../lib/gcc/arm-none-eabi/6.3.1/../../../../arm-none-eabi/lib/thumb/v6-m\libc_nano.a(lib_a-nano-vfprintf.o) (memchr)
c:/program files (x86)/atmel/studio/7.0/toolchain/arm/arm-gnu-toolchain/bin/../lib/gcc/arm-none-eabi/6.3.1/../../../../arm-none-eabi/lib/thumb/v6-m\libc_nano.a(lib_a-memmove.o)
                              c:/program files (x86)/atmel/studio/7.0/toolchain/arm/arm-gnu-toolchain/bin/../lib/gcc/arm-none-eabi/6.3.1/../../../../arm-none-eabi/lib/thumb/v6-m\libc_nano.a(lib_a-fvwrite.o) (memmove)
c:/program files (x86)/atmel/studio/7.0/toolchain/arm/arm-gnu-toolchain/bin/../lib/gcc/arm-none-eabi/6.3.1/../../../../arm-none-eabi/lib/thumb/v6-m\libc_nano.a(lib_a-mlock.o)
                              c:/program files (x86)/atmel/studio/7.0/toolchain/arm/arm-gnu-toolchain/bin/../lib/gcc/arm-none-eabi/6.3.1/../../../../arm-none-eabi/lib/thumb/v6-m\libc_nano.a(lib_a-nano-mallocr.o) (__malloc_lock)
c:/program files (x86)/atmel/studio/7.0/toolchain/arm/arm-gnu-toolchain/bin/../lib/gcc/arm-none-eabi/6.3.1/../../../../arm-none-eabi/lib/thumb/v6-m\libc_nano.a(lib_a-nano-freer.o)
                              c:/program files (x86)/atmel/studio/7.0/toolchain/arm/arm-gnu-toolchain/bin/../lib/gcc/arm-none-eabi/6.3.1/../../../../arm-none-eabi/lib/thumb/v6-m\libc_nano.a(lib_a-wsetup.o) (_free_r)
c:/program files (x86)/atmel/studio/7.0/toolchain/arm/arm-gnu-toolchain/bin/../lib/gcc/arm-none-eabi/6.3.1/../../../../arm-none-eabi/lib/thumb/v6-m\libc_nano.a(lib_a-nano-reallocr.o)
                              c:/program files (x86)/atmel/studio/7.0/toolchain/arm/arm-gnu-toolchain/bin/../lib/gcc/arm-none-eabi/6.3.1/../../../../arm-none-eabi/lib/thumb/v6-m\libc_nano.a(lib_a-fvwrite.o) (_realloc_r)
c:/program files (x86)/atmel/studio/7.0/toolchain/arm/arm-gnu-toolchain/bin/../lib/gcc/arm-none-eabi/6.3.1/../../../../arm-none-eabi/lib/thumb/v6-m\libc_nano.a(lib_a-readr.o)
                              c:/program files (x86)/atmel/studio/7.0/toolchain/arm/arm-gnu-toolchain/bin/../lib/gcc/arm-none-eabi/6.3.1/../../../../arm-none-eabi/lib/thumb/v6-m\libc_nano.a(lib_a-stdio.o) (_read_r)
c:/program files (x86)/atmel/studio/7.0/toolchain/arm/arm-gnu-toolchain/bin/../lib/gcc/arm-none-eabi/6.3.1/../../../../arm-none-eabi/lib/thumb/v6-m\libc_nano.a(lib_a-reent.o)
                              c:/program files (x86)/atmel/studio/7.0/toolchain/arm/arm-gnu-toolchain/bin/../lib/gcc/arm-none-eabi/6.3.1/../../../../arm-none-eabi/lib/thumb/v6-m\libc_nano.a(lib_a-sbrkr.o) (errno)
c:/program files (x86)/atmel/studio/7.0/toolchain/arm/arm-gnu-toolchain/bin/../lib/gcc/arm-none-eabi/6.3.1/../../../../arm-none-eabi/lib/thumb/v6-m\libc_nano.a(lib_a-fstatr.o)
                              c:/program files (x86)/atmel/studio/7.0/toolchain/arm/arm-gnu-toolchain/bin/../lib/gcc/arm-none-eabi/6.3.1/../../../../arm-none-eabi/lib/thumb/v6-m\libc_nano.a(lib_a-makebuf.o) (_fstat_r)
c:/program files (x86)/atmel/studio/7.0/toolchain/arm/arm-gnu-toolchain/bin/../lib/gcc/arm-none-eabi/6.3.1/../../../../arm-none-eabi/lib/thumb/v6-m\libc_nano.a(lib_a-isattyr.o)
                              c:/program files (x86)/atmel/studio/7.0/toolchain/arm/arm-gnu-toolchain/bin/../lib/gcc/arm-none-eabi/6.3.1/../../../../arm-none-eabi/lib/thumb/v6-m\libc_nano.a(lib_a-makebuf.o) (_isatty_r)
c:/program files (x86)/atmel/studio/7.0/toolchain/arm/arm-gnu-toolchain/bin/../lib/gcc/arm-none-eabi/6.3.1/../../../../arm-none-eabi/lib/thumb/v6-m\libc_nano.a(lib_a-nano-msizer.o)
                              c:/program files (x86)/atmel/studio/7.0/toolchain/arm/arm-gnu-toolchain/bin/../lib/gcc/arm-none-eabi/6.3.1/../../../../arm-none-eabi/lib/thumb/v6-m\libc_nano.a(lib_a-nano-reallocr.o) (_malloc_usable_size_r)

Allocating common symbols
Common symbol       size              file

errno               0x4               c:/program files (x86)/atmel/studio/7.0/toolchain/arm/arm-gnu-toolchain/bin/../lib/gcc/arm-none-eabi/6.3.1/../../../../arm-none-eabi/lib/thumb/v6-m\libc_nano.a(lib_a-reent.o)
EDBG_COM_buffer     0x10              driver_init.o
EDBG_COM            0x4c              driver_init.o
_irq_table          0x7c              hpl/core/hpl_core_m0plus_base.o

Discarded input sections

 .text          0x00000000        0x0 c:/program files (x86)/atmel/studio/7.0/toolchain/arm/arm-gnu-toolchain/bin/../lib/gcc/arm-none-eabi/6.3.1/thumb/v6-m/crti.o
 .data          0x00000000        0x0 c:/program files (x86)/atmel/studio/7.0/toolchain/arm/arm-gnu-toolchain/bin/../lib/gcc/arm-none-eabi/6.3.1/thumb/v6-m/crti.o
 .bss           0x00000000        0x0 c:/program files (x86)/atmel/studio/7.0/toolchain/arm/arm-gnu-toolchain/bin/../lib/gcc/arm-none-eabi/6.3.1/thumb/v6-m/crti.o
 .data          0x00000000        0x4 c:/program files (x86)/atmel/studio/7.0/toolchain/arm/arm-gnu-toolchain/bin/../lib/gcc/arm-none-eabi/6.3.1/thumb/v6-m/crtbegin.o
 .text          0x00000000       0x78 c:/program files (x86)/atmel/studio/7.0/toolchain/arm/arm-gnu-toolchain/bin/../lib/gcc/arm-none-eabi/6.3.1/../../../../arm-none-eabi/lib/thumb/v6-m/crt0.o
 .data          0x00000000        0x0 c:/program files (x86)/atmel/studio/7.0/toolchain/arm/arm-gnu-toolchain/bin/../lib/gcc/arm-none-eabi/6.3.1/../../../../arm-none-eabi/lib/thumb/v6-m/crt0.o
 .bss           0x00000000        0x0 c:/program files (x86)/atmel/studio/7.0/toolchain/arm/arm-gnu-toolchain/bin/../lib/gcc/arm-none-eabi/6.3.1/../../../../arm-none-eabi/lib/thumb/v6-m/crt0.o
 .ARM.extab     0x00000000        0x0 c:/program files (x86)/atmel/studio/7.0/toolchain/arm/arm-gnu-toolchain/bin/../lib/gcc/arm-none-eabi/6.3.1/../../../../arm-none-eabi/lib/thumb/v6-m/crt0.o
 .ARM.exidx     0x00000000        0x8 c:/program files (x86)/atmel/studio/7.0/toolchain/arm/arm-gnu-toolchain/bin/../lib/gcc/arm-none-eabi/6.3.1/../../../../arm-none-eabi/lib/thumb/v6-m/crt0.o
 .ARM.attributes
                0x00000000       0x1b c:/program files (x86)/atmel/studio/7.0/toolchain/arm/arm-gnu-toolchain/bin/../lib/gcc/arm-none-eabi/6.3.1/../../../../arm-none-eabi/lib/thumb/v6-m/crt0.o
 .group         0x00000000        0x8 atmel_start.o
 .group         0x00000000        0x8 atmel_start.o
 .group         0x00000000        0x8 atmel_start.o
 .group         0x00000000        0x8 atmel_start.o
 .group         0x00000000        0x8 atmel_start.o
 .group         0x00000000        0x8 atmel_start.o
 .group         0x00000000        0x8 atmel_start.o
Memory Configuration

Name             Origin             Length             Attributes
rom              0x00000000         0x00040000         xr
ram              0x20000000         0x00008000         xrw
*default*        0x00000000         0xffffffff

Linker script and memory map

LOAD c:/program files (x86)/atmel/studio/7.0/toolchain/arm/arm-gnu-toolchain/bin/../lib/gcc/arm-none-eabi/6.3.1/thumb/v6-m/crti.o
LOAD c:/program files (x86)/atmel/studio/7.0/toolchain/arm/arm-gnu-toolchain/bin/../lib/gcc/arm-none-eabi/6.3.1/thumb/v6-m/crtbegin.o
LOAD c:/program files (x86)/atmel/studio/7.0/toolchain/arm/arm-gnu-toolchain/bin/../lib/gcc/arm-none-eabi/6.3.1/../../../../arm-none-eabi/lib/thumb/v6-m/crt0.o
LOAD atmel_start.o
LOAD Device_Startup/startup_samc21.o
LOAD Device_Startup/system_samc21.o
LOAD driver_init.o
LOAD examples/driver_examples.o
LOAD hal/src/hal_atomic.o
LOAD hal/src/hal_delay.o
LOAD hal/src/hal_gpio.o
LOAD hal/src/hal_init.o
LOAD hal/src/hal_io.o
LOAD hal/src/hal_sleep.o
LOAD hal/src/hal_usart_os.o
LOAD hal/utils/src/utils_assert.o
LOAD hal/utils/src/utils_event.o
LOAD hal/utils/src/utils_list.o
LOAD hal/utils/src/utils_ringbuffer.o
LOAD hal/utils/src/utils_syscalls.o
LOAD hpl/core/hpl_core_m0plus_base.o
LOAD hpl/core/hpl_init.o
LOAD hpl/divas/hpl_divas.o
LOAD hpl/dmac/hpl_dmac.o
LOAD hpl/gclk/hpl_gclk.o
LOAD hpl/mclk/hpl_mclk.o
LOAD hpl/osc32kctrl/hpl_osc32kctrl.o
LOAD hpl/oscctrl/hpl_oscctrl.o
LOAD hpl/pm/hpl_pm.o
LOAD hpl/sercom/hpl_sercom.o
LOAD main.o
LOAD rtos_start.o
LOAD thirdparty/RTOS/freertos/FreeRTOSV8.2.3/rtos_port.o
LOAD thirdparty/RTOS/freertos/FreeRTOSV8.2.3/Source/croutine.o
LOAD thirdparty/RTOS/freertos/FreeRTOSV8.2.3/Source/event_groups.o
LOAD thirdparty/RTOS/freertos/FreeRTOSV8.2.3/Source/list.o
LOAD thirdparty/RTOS/freertos/FreeRTOSV8.2.3/Source/portable/GCC/ARM_CM0/port.o
LOAD thirdparty/RTOS/freertos/FreeRTOSV8.2.3/Source/portable/MemMang/heap_2.o
LOAD thirdparty/RTOS/freertos/FreeRTOSV8.2.3/Source/queue.o
LOAD thirdparty/RTOS/freertos/FreeRTOSV8.2.3/Source/tasks.o
LOAD thirdparty/RTOS/freertos/FreeRTOSV8.2.3/Source/timers.o
LOAD Z_APP/app.o
LOAD Z_APP/uart_helps.o
START GROUP
LOAD c:/program files (x86)/atmel/studio/7.0/toolchain/arm/arm-gnu-toolchain/bin/../lib/gcc/arm-none-eabi/6.3.1/../../../../arm-none-eabi/lib/thumb/v6-m\libm.a
END GROUP
START GROUP
LOAD c:/program files (x86)/atmel/studio/7.0/toolchain/arm/arm-gnu-toolchain/bin/../lib/gcc/arm-none-eabi/6.3.1/thumb/v6-m\libgcc.a
LOAD c:/program files (x86)/atmel/studio/7.0/toolchain/arm/arm-gnu-toolchain/bin/../lib/gcc/arm-none-eabi/6.3.1/../../../../arm-none-eabi/lib/thumb/v6-m\libc_nano.a
END GROUP
START GROUP
LOAD c:/program files (x86)/atmel/studio/7.0/toolchain/arm/arm-gnu-toolchain/bin/../lib/gcc/arm-none-eabi/6.3.1/thumb/v6-m\libgcc.a
LOAD c:/program files (x86)/atmel/studio/7.0/toolchain/arm/arm-gnu-toolchain/bin/../lib/gcc/arm-none-eabi/6.3.1/../../../../arm-none-eabi/lib/thumb/v6-m\libc_nano.a
END GROUP
LOAD c:/program files (x86)/atmel/studio/7.0/toolchain/arm/arm-gnu-toolchain/bin/../lib/gcc/arm-none-eabi/6.3.1/thumb/v6-m/crtend.o
LOAD c:/program files (x86)/atmel/studio/7.0/toolchain/arm/arm-gnu-toolchain/bin/../lib/gcc/arm-none-eabi/6.3.1/thumb/v6-m/crtn.o
                0x00002000                STACK_SIZE = DEFINED (STACK_SIZE)?STACK_SIZE:DEFINED (__stack_size__)?__stack_size__:0x2000

.text           0x00000000     0x2b3c
                0x00000000                . = ALIGN (0x4)
                0x00000000                _sfixed = .
 *(.vectors .vectors.*)
 .vectors       0x00000000       0xbc Device_Startup/startup_samc21.o
                0x00000000                exception_table
 *(.text .text.* .gnu.linkonce.t.*)
 .text          0x000000bc       0x60 c:/program files (x86)/atmel/studio/7.0/toolchain/arm/arm-gnu-toolchain/bin/../lib/gcc/arm-none-eabi/6.3.1/thumb/v6-m/crtbegin.o
 .text.atmel_start_init
                0x0000011c        0xc atmel_start.o
                0x0000011c                atmel_start_init
 .text.Dummy_Handler
                0x00000128        0x2 Device_Startup/startup_samc21.o
                0x00000128                DMAC_Handler
                0x00000128                HardFault_Handler
                0x00000128                AC_Handler
                0x00000128                NonMaskableInt_Handler
                0x00000128                TCC1_Handler
                0x00000128                SERCOM2_Handler
                0x00000128                TCC0_Handler
                0x00000128                RTC_Handler
                0x00000128                ADC1_Handler
                0x00000128                INT22_Handler
                0x00000128                EIC_Handler
                0x00000128                INT20_Handler
                0x00000128                WDT_Handler
                0x00000128                CAN0_Handler
                0x00000128                TC4_Handler
                0x00000128                TC3_Handler
                0x00000128                SDADC_Handler
                0x00000128                Dummy_Handler
                0x00000128                INT21_Handler
                0x00000128                SERCOM5_Handler
                0x00000128                INT10_Handler
                0x00000128                CAN1_Handler
                0x00000128                ADC0_Handler
                0x00000128                TSENS_Handler
                0x00000128                TCC2_Handler
                0x00000128                EVSYS_Handler
                0x00000128                SERCOM3_Handler
                0x00000128                NVMCTRL_Handler
                0x00000128                SYSTEM_Handler
                0x00000128                DAC_Handler
                0x00000128                PTC_Handler
                0x00000128                INT9_Handler
                0x00000128                FREQM_Handler
 *fill*         0x0000012a        0x2 
 .text.Reset_Handler
                0x0000012c       0x88 Device_Startup/startup_samc21.o
                0x0000012c                Reset_Handler
 .text.EDBG_COM_PORT_init
                0x000001b4       0x3e driver_init.o
                0x000001b4                EDBG_COM_PORT_init
 *fill*         0x000001f2        0x2 
 .text.EDBG_COM_CLOCK_init
                0x000001f4       0x24 driver_init.o
                0x000001f4                EDBG_COM_CLOCK_init
 .text.EDBG_COM_init
                0x00000218       0x44 driver_init.o
                0x00000218                EDBG_COM_init
 .text.system_init
                0x0000025c       0x48 driver_init.o
                0x0000025c                system_init
 .text.atomic_enter_critical
                0x000002a4        0xe hal/src/hal_atomic.o
                0x000002a4                atomic_enter_critical
 .text.atomic_leave_critical
                0x000002b2        0xc hal/src/hal_atomic.o
                0x000002b2                atomic_leave_critical
 *fill*         0x000002be        0x2 
 .text.io_write
                0x000002c0       0x34 hal/src/hal_io.o
                0x000002c0                io_write
 .text.usart_os_error
                0x000002f4       0x10 hal/src/hal_usart_os.o
 .text.usart_os_transmission_complete
                0x00000304       0x10 hal/src/hal_usart_os.o
 .text.usart_os_fill_rx_buffer
                0x00000314       0x3c hal/src/hal_usart_os.o
 .text.usart_os_process_byte_sent
                0x00000350       0x3c hal/src/hal_usart_os.o
 .text.usart_os_write
                0x0000038c       0x3c hal/src/hal_usart_os.o
 .text.usart_os_read
                0x000003c8       0xb8 hal/src/hal_usart_os.o
 .text.usart_os_init
                0x00000480      0x108 hal/src/hal_usart_os.o
                0x00000480                usart_os_init
 .text.usart_os_enable
                0x00000588       0x2c hal/src/hal_usart_os.o
                0x00000588                usart_os_enable
 .text.assert   0x000005b4        0x8 hal/utils/src/utils_assert.o
                0x000005b4                assert
 .text.ringbuffer_init
                0x000005bc       0x54 hal/utils/src/utils_ringbuffer.o
                0x000005bc                ringbuffer_init
 .text.ringbuffer_get
                0x00000610       0x48 hal/utils/src/utils_ringbuffer.o
                0x00000610                ringbuffer_get
 .text.ringbuffer_put
                0x00000658       0x40 hal/utils/src/utils_ringbuffer.o
                0x00000658                ringbuffer_put
 .text.ringbuffer_num
                0x00000698       0x24 hal/utils/src/utils_ringbuffer.o
                0x00000698                ringbuffer_num
 .text._init_chip
                0x000006bc       0x40 hpl/core/hpl_init.o
                0x000006bc                _init_chip
 .text._div_init
                0x000006fc        0xe hpl/divas/hpl_divas.o
                0x000006fc                _div_init
 *fill*         0x0000070a        0x2 
 .text._gclk_init_generators_by_fref
                0x0000070c       0x24 hpl/gclk/hpl_gclk.o
                0x0000070c                _gclk_init_generators_by_fref
 .text._mclk_init
                0x00000730        0xc hpl/mclk/hpl_mclk.o
                0x00000730                _mclk_init
 .text._osc32kctrl_init_sources
                0x0000073c       0x18 hpl/osc32kctrl/hpl_osc32kctrl.o
                0x0000073c                _osc32kctrl_init_sources
 .text._oscctrl_init_sources
                0x00000754       0x40 hpl/oscctrl/hpl_oscctrl.o
                0x00000754                _oscctrl_init_sources
 .text._oscctrl_init_referenced_generators
                0x00000794        0x2 hpl/oscctrl/hpl_oscctrl.o
                0x00000794                _oscctrl_init_referenced_generators
 *fill*         0x00000796        0x2 
 .text._sercom_get_hardware_index
                0x00000798       0x3c hpl/sercom/hpl_sercom.o
 .text._sercom_get_irq_num
                0x000007d4       0x34 hpl/sercom/hpl_sercom.o
 .text._usart_init
                0x00000808       0x98 hpl/sercom/hpl_sercom.o
 .text._usart_async_init
                0x000008a0       0x78 hpl/sercom/hpl_sercom.o
                0x000008a0                _usart_async_init
 .text._usart_async_enable
                0x00000918       0x14 hpl/sercom/hpl_sercom.o
                0x00000918                _usart_async_enable
 .text._usart_async_write_byte
                0x0000092c        0x8 hpl/sercom/hpl_sercom.o
                0x0000092c                _usart_async_write_byte
 .text._usart_async_enable_byte_sent_irq
                0x00000934        0x8 hpl/sercom/hpl_sercom.o
                0x00000934                _usart_async_enable_byte_sent_irq
 .text._usart_async_enable_tx_done_irq
                0x0000093c        0x8 hpl/sercom/hpl_sercom.o
                0x0000093c                _usart_async_enable_tx_done_irq
 .text._usart_async_set_irq_state
                0x00000944       0x74 hpl/sercom/hpl_sercom.o
                0x00000944                _usart_async_set_irq_state
 .text.SERCOM4_Handler
                0x000009b8       0x6c hpl/sercom/hpl_sercom.o
                0x000009b8                SERCOM4_Handler
 .text.main     0x00000a24       0x30 main.o
                0x00000a24                main
 .text.sem_init
                0x00000a54       0x3c thirdparty/RTOS/freertos/FreeRTOSV8.2.3/rtos_port.o
                0x00000a54                sem_init
 .text.sem_up   0x00000a90       0x44 thirdparty/RTOS/freertos/FreeRTOSV8.2.3/rtos_port.o
                0x00000a90                sem_up
 .text.sem_down
                0x00000ad4       0x20 thirdparty/RTOS/freertos/FreeRTOSV8.2.3/rtos_port.o
                0x00000ad4                sem_down
 .text.sem_deinit
                0x00000af4       0x1c thirdparty/RTOS/freertos/FreeRTOSV8.2.3/rtos_port.o
                0x00000af4                sem_deinit
 .text.vListInitialise
                0x00000b10       0x16 thirdparty/RTOS/freertos/FreeRTOSV8.2.3/Source/list.o
                0x00000b10                vListInitialise
 .text.vListInitialiseItem
                0x00000b26        0x6 thirdparty/RTOS/freertos/FreeRTOSV8.2.3/Source/list.o
                0x00000b26                vListInitialiseItem
 .text.vListInsertEnd
                0x00000b2c       0x18 thirdparty/RTOS/freertos/FreeRTOSV8.2.3/Source/list.o
                0x00000b2c                vListInsertEnd
 .text.vListInsert
                0x00000b44       0x2e thirdparty/RTOS/freertos/FreeRTOSV8.2.3/Source/list.o
                0x00000b44                vListInsert
 .text.uxListRemove
                0x00000b72       0x26 thirdparty/RTOS/freertos/FreeRTOSV8.2.3/Source/list.o
                0x00000b72                uxListRemove
 .text.prvTaskExitError
                0x00000b98       0x14 thirdparty/RTOS/freertos/FreeRTOSV8.2.3/Source/portable/GCC/ARM_CM0/port.o
 .text.vPortStartFirstTask
                0x00000bac       0x20 thirdparty/RTOS/freertos/FreeRTOSV8.2.3/Source/portable/GCC/ARM_CM0/port.o
 .text.pxPortInitialiseStack
                0x00000bcc       0x20 thirdparty/RTOS/freertos/FreeRTOSV8.2.3/Source/portable/GCC/ARM_CM0/port.o
                0x00000bcc                pxPortInitialiseStack
 .text.SVCall_Handler
                0x00000bec        0x2 thirdparty/RTOS/freertos/FreeRTOSV8.2.3/Source/portable/GCC/ARM_CM0/port.o
                0x00000bec                SVCall_Handler
 *fill*         0x00000bee        0x2 
 .text.xPortStartScheduler
                0x00000bf0       0x50 thirdparty/RTOS/freertos/FreeRTOSV8.2.3/Source/portable/GCC/ARM_CM0/port.o
                0x00000bf0                xPortStartScheduler
 .text.vPortYield
                0x00000c40       0x18 thirdparty/RTOS/freertos/FreeRTOSV8.2.3/Source/portable/GCC/ARM_CM0/port.o
                0x00000c40                vPortYield
 .text.vPortEnterCritical
                0x00000c58       0x18 thirdparty/RTOS/freertos/FreeRTOSV8.2.3/Source/portable/GCC/ARM_CM0/port.o
                0x00000c58                vPortEnterCritical
 .text.vPortExitCritical
                0x00000c70       0x20 thirdparty/RTOS/freertos/FreeRTOSV8.2.3/Source/portable/GCC/ARM_CM0/port.o
                0x00000c70                vPortExitCritical
 .text.ulSetInterruptMaskFromISR
                0x00000c90        0xa thirdparty/RTOS/freertos/FreeRTOSV8.2.3/Source/portable/GCC/ARM_CM0/port.o
                0x00000c90                ulSetInterruptMaskFromISR
 .text.vClearInterruptMaskFromISR
                0x00000c9a        0x6 thirdparty/RTOS/freertos/FreeRTOSV8.2.3/Source/portable/GCC/ARM_CM0/port.o
                0x00000c9a                vClearInterruptMaskFromISR
 .text.PendSV_Handler
                0x00000ca0       0x44 thirdparty/RTOS/freertos/FreeRTOSV8.2.3/Source/portable/GCC/ARM_CM0/port.o
                0x00000ca0                PendSV_Handler
 .text.SysTick_Handler
                0x00000ce4       0x30 thirdparty/RTOS/freertos/FreeRTOSV8.2.3/Source/portable/GCC/ARM_CM0/port.o
                0x00000ce4                SysTick_Handler
 .text.pvPortMalloc
                0x00000d14       0xcc thirdparty/RTOS/freertos/FreeRTOSV8.2.3/Source/portable/MemMang/heap_2.o
                0x00000d14                pvPortMalloc
 .text.vPortFree
                0x00000de0       0x48 thirdparty/RTOS/freertos/FreeRTOSV8.2.3/Source/portable/MemMang/heap_2.o
                0x00000de0                vPortFree
 .text.prvCopyDataToQueue
                0x00000e28       0x84 thirdparty/RTOS/freertos/FreeRTOSV8.2.3/Source/queue.o
 .text.prvNotifyQueueSetContainer
                0x00000eac       0x64 thirdparty/RTOS/freertos/FreeRTOSV8.2.3/Source/queue.o
 .text.prvCopyDataFromQueue
                0x00000f10       0x28 thirdparty/RTOS/freertos/FreeRTOSV8.2.3/Source/queue.o
 .text.prvUnlockQueue
                0x00000f38       0xb0 thirdparty/RTOS/freertos/FreeRTOSV8.2.3/Source/queue.o
 .text.xQueueGenericReset
                0x00000fe8       0x7c thirdparty/RTOS/freertos/FreeRTOSV8.2.3/Source/queue.o
                0x00000fe8                xQueueGenericReset
 .text.xQueueGenericCreate
                0x00001064       0x5c thirdparty/RTOS/freertos/FreeRTOSV8.2.3/Source/queue.o
                0x00001064                xQueueGenericCreate
 .text.xQueueCreateCountingSemaphore
                0x000010c0       0x2c thirdparty/RTOS/freertos/FreeRTOSV8.2.3/Source/queue.o
                0x000010c0                xQueueCreateCountingSemaphore
 .text.xQueueGenericSend
                0x000010ec      0x180 thirdparty/RTOS/freertos/FreeRTOSV8.2.3/Source/queue.o
                0x000010ec                xQueueGenericSend
 .text.xQueueCreateMutex
                0x0000126c       0x54 thirdparty/RTOS/freertos/FreeRTOSV8.2.3/Source/queue.o
                0x0000126c                xQueueCreateMutex
 .text.xQueueGenericSendFromISR
                0x000012c0       0xc8 thirdparty/RTOS/freertos/FreeRTOSV8.2.3/Source/queue.o
                0x000012c0                xQueueGenericSendFromISR
 .text.xQueueGiveFromISR
                0x00001388       0xac thirdparty/RTOS/freertos/FreeRTOSV8.2.3/Source/queue.o
                0x00001388                xQueueGiveFromISR
 .text.xQueueGenericReceive
                0x00001434      0x188 thirdparty/RTOS/freertos/FreeRTOSV8.2.3/Source/queue.o
                0x00001434                xQueueGenericReceive
 .text.vQueueDelete
                0x000015bc       0x14 thirdparty/RTOS/freertos/FreeRTOSV8.2.3/Source/queue.o
                0x000015bc                vQueueDelete
 .text.vQueueWaitForMessageRestricted
                0x000015d0       0x54 thirdparty/RTOS/freertos/FreeRTOSV8.2.3/Source/queue.o
                0x000015d0                vQueueWaitForMessageRestricted
 .text.prvListTaskWithinSingleList
                0x00001624       0xb0 thirdparty/RTOS/freertos/FreeRTOSV8.2.3/Source/tasks.o
 .text.prvResetNextTaskUnblockTime
                0x000016d4       0x28 thirdparty/RTOS/freertos/FreeRTOSV8.2.3/Source/tasks.o
 .text.prvIdleTask
                0x000016fc       0x18 thirdparty/RTOS/freertos/FreeRTOSV8.2.3/Source/tasks.o
 .text.prvAddCurrentTaskToDelayedList
                0x00001714       0x44 thirdparty/RTOS/freertos/FreeRTOSV8.2.3/Source/tasks.o
 .text.xTaskGenericCreate
                0x00001758      0x1ec thirdparty/RTOS/freertos/FreeRTOSV8.2.3/Source/tasks.o
                0x00001758                xTaskGenericCreate
 .text.vTaskStartScheduler
                0x00001944       0x64 thirdparty/RTOS/freertos/FreeRTOSV8.2.3/Source/tasks.o
                0x00001944                vTaskStartScheduler
 .text.vTaskSuspendAll
                0x000019a8       0x10 thirdparty/RTOS/freertos/FreeRTOSV8.2.3/Source/tasks.o
                0x000019a8                vTaskSuspendAll
 .text.xTaskGetTickCount
                0x000019b8        0xc thirdparty/RTOS/freertos/FreeRTOSV8.2.3/Source/tasks.o
                0x000019b8                xTaskGetTickCount
 .text.uxTaskGetNumberOfTasks
                0x000019c4        0xc thirdparty/RTOS/freertos/FreeRTOSV8.2.3/Source/tasks.o
                0x000019c4                uxTaskGetNumberOfTasks
 .text.xTaskIncrementTick
                0x000019d0      0x10c thirdparty/RTOS/freertos/FreeRTOSV8.2.3/Source/tasks.o
                0x000019d0                xTaskIncrementTick
 .text.xTaskResumeAll
                0x00001adc       0xf0 thirdparty/RTOS/freertos/FreeRTOSV8.2.3/Source/tasks.o
                0x00001adc                xTaskResumeAll
 .text.vTaskDelay
                0x00001bcc       0x50 thirdparty/RTOS/freertos/FreeRTOSV8.2.3/Source/tasks.o
                0x00001bcc                vTaskDelay
 .text.uxTaskGetSystemState
                0x00001c1c       0x98 thirdparty/RTOS/freertos/FreeRTOSV8.2.3/Source/tasks.o
                0x00001c1c                uxTaskGetSystemState
 .text.vTaskSwitchContext
                0x00001cb4       0xa0 thirdparty/RTOS/freertos/FreeRTOSV8.2.3/Source/tasks.o
                0x00001cb4                vTaskSwitchContext
 .text.vTaskPlaceOnEventList
                0x00001d54       0x54 thirdparty/RTOS/freertos/FreeRTOSV8.2.3/Source/tasks.o
                0x00001d54                vTaskPlaceOnEventList
 .text.vTaskPlaceOnEventListRestricted
                0x00001da8       0x54 thirdparty/RTOS/freertos/FreeRTOSV8.2.3/Source/tasks.o
                0x00001da8                vTaskPlaceOnEventListRestricted
 .text.xTaskRemoveFromEventList
                0x00001dfc       0x7c thirdparty/RTOS/freertos/FreeRTOSV8.2.3/Source/tasks.o
                0x00001dfc                xTaskRemoveFromEventList
 .text.vTaskSetTimeOutState
                0x00001e78       0x18 thirdparty/RTOS/freertos/FreeRTOSV8.2.3/Source/tasks.o
                0x00001e78                vTaskSetTimeOutState
 .text.xTaskCheckForTimeOut
                0x00001e90       0x6c thirdparty/RTOS/freertos/FreeRTOSV8.2.3/Source/tasks.o
                0x00001e90                xTaskCheckForTimeOut
 .text.vTaskMissedYield
                0x00001efc        0xc thirdparty/RTOS/freertos/FreeRTOSV8.2.3/Source/tasks.o
                0x00001efc                vTaskMissedYield
 .text.xTaskGetSchedulerState
                0x00001f08       0x1c thirdparty/RTOS/freertos/FreeRTOSV8.2.3/Source/tasks.o
                0x00001f08                xTaskGetSchedulerState
 .text.vTaskPriorityInherit
                0x00001f24       0x80 thirdparty/RTOS/freertos/FreeRTOSV8.2.3/Source/tasks.o
                0x00001f24                vTaskPriorityInherit
 .text.xTaskPriorityDisinherit
                0x00001fa4       0x7c thirdparty/RTOS/freertos/FreeRTOSV8.2.3/Source/tasks.o
                0x00001fa4                xTaskPriorityDisinherit
 .text.vTaskList
                0x00002020      0x108 thirdparty/RTOS/freertos/FreeRTOSV8.2.3/Source/tasks.o
                0x00002020                vTaskList
 .text.pvTaskIncrementMutexHeldCount
                0x00002128       0x1c thirdparty/RTOS/freertos/FreeRTOSV8.2.3/Source/tasks.o
                0x00002128                pvTaskIncrementMutexHeldCount
 .text.prvInsertTimerInActiveList
                0x00002144       0x44 thirdparty/RTOS/freertos/FreeRTOSV8.2.3/Source/timers.o
 .text.prvCheckForValidListAndQueue
                0x00002188       0x58 thirdparty/RTOS/freertos/FreeRTOSV8.2.3/Source/timers.o
 .text.xTimerCreateTimerTask
                0x000021e0       0x48 thirdparty/RTOS/freertos/FreeRTOSV8.2.3/Source/timers.o
                0x000021e0                xTimerCreateTimerTask
 .text.xTimerGenericCommand
                0x00002228       0x6c thirdparty/RTOS/freertos/FreeRTOSV8.2.3/Source/timers.o
                0x00002228                xTimerGenericCommand
 .text.prvSampleTimeNow
                0x00002294       0xb0 thirdparty/RTOS/freertos/FreeRTOSV8.2.3/Source/timers.o
 .text.prvTimerTask
                0x00002344      0x184 thirdparty/RTOS/freertos/FreeRTOSV8.2.3/Source/timers.o
 .text.task_led
                0x000024c8       0x1c Z_APP/app.o
                0x000024c8                task_led
 .text.disp_mutex_create
                0x000024e4       0x1c Z_APP/app.o
                0x000024e4                disp_mutex_create
 .text.disp_mutex_take
                0x00002500       0x24 Z_APP/app.o
                0x00002500                disp_mutex_take
 .text.disp_mutex_give
                0x00002524       0x1c Z_APP/app.o
                0x00002524                disp_mutex_give
 .text._os_show_statistics
                0x00002540       0x6c Z_APP/app.o
                0x00002540                _os_show_statistics
 .text.task_monitor
                0x000025ac       0x30 Z_APP/app.o
                0x000025ac                task_monitor
 .text.task_led_create
                0x000025dc       0x3c Z_APP/app.o
                0x000025dc                task_led_create
 .text.task_monitor_create
                0x00002618       0x3c Z_APP/app.o
                0x00002618                task_monitor_create
 .text.tasks_run
                0x00002654        0xc Z_APP/app.o
                0x00002654                tasks_run
 .text.str_write
                0x00002660       0x2c Z_APP/uart_helps.o
                0x00002660                str_write
 .text.sprintu  0x0000268c       0x7c Z_APP/uart_helps.o
                0x0000268c                sprintu
 .text.sprintf  0x00002708       0xd4 Z_APP/uart_helps.o
                0x00002708                sprintf
 .text.__libc_init_array
                0x000027dc       0x48 c:/program files (x86)/atmel/studio/7.0/toolchain/arm/arm-gnu-toolchain/bin/../lib/gcc/arm-none-eabi/6.3.1/../../../../arm-none-eabi/lib/thumb/v6-m\libc_nano.a(lib_a-init.o)
                0x000027dc                __libc_init_array
 .text.memcpy   0x00002824       0x12 c:/program files (x86)/atmel/studio/7.0/toolchain/arm/arm-gnu-toolchain/bin/../lib/gcc/arm-none-eabi/6.3.1/../../../../arm-none-eabi/lib/thumb/v6-m\libc_nano.a(lib_a-memcpy-stub.o)
                0x00002824                memcpy
 .text.memset   0x00002836       0x10 c:/program files (x86)/atmel/studio/7.0/toolchain/arm/arm-gnu-toolchain/bin/../lib/gcc/arm-none-eabi/6.3.1/../../../../arm-none-eabi/lib/thumb/v6-m\libc_nano.a(lib_a-memset.o)
                0x00002836                memset
 .text.strcpy   0x00002846       0x10 c:/program files (x86)/atmel/studio/7.0/toolchain/arm/arm-gnu-toolchain/bin/../lib/gcc/arm-none-eabi/6.3.1/../../../../arm-none-eabi/lib/thumb/v6-m\libc_nano.a(lib_a-strcpy.o)
                0x00002846                strcpy
 .text          0x00002856        0xe c:/program files (x86)/atmel/studio/7.0/toolchain/arm/arm-gnu-toolchain/bin/../lib/gcc/arm-none-eabi/6.3.1/../../../../arm-none-eabi/lib/thumb/v6-m\libc_nano.a(lib_a-strlen.o)
                0x00002856                strlen
 *(.glue_7t)
 .glue_7t       0x00002864        0x0 linker stubs
 *(.glue_7)
 .glue_7        0x00002864        0x0 linker stubs
 *(.rodata .rodata* .gnu.linkonce.r.*)
 .rodata.str1.4
                0x00002864       0x14 hal/src/hal_io.o
 .rodata.str1.4
                0x00002878       0x1a hal/src/hal_usart_os.o
 *fill*         0x00002892        0x2 
 .rodata.str1.4
                0x00002894       0x24 hal/utils/src/utils_ringbuffer.o
 .rodata        0x000028b8       0x38 hpl/sercom/hpl_sercom.o
 .rodata.str1.4
                0x000028f0       0x1b hpl/sercom/hpl_sercom.o
 *fill*         0x0000290b        0x1 
 .rodata.str1.4
                0x0000290c       0x37 thirdparty/RTOS/freertos/FreeRTOSV8.2.3/rtos_port.o
 *fill*         0x00002943        0x1 
 .rodata.str1.4
                0x00002944       0x17 thirdparty/RTOS/freertos/FreeRTOSV8.2.3/Source/tasks.o
 *fill*         0x0000295b        0x1 
 .rodata        0x0000295c       0x28 thirdparty/RTOS/freertos/FreeRTOSV8.2.3/Source/timers.o
 .rodata.str1.4
                0x00002984        0x8 thirdparty/RTOS/freertos/FreeRTOSV8.2.3/Source/timers.o
 .rodata.str1.4
                0x0000298c      0x168 Z_APP/app.o
                                0x16c (size before relaxing)
 .rodata        0x00002af4       0x28 Z_APP/uart_helps.o
 *(.ARM.extab* .gnu.linkonce.armextab.*)
                0x00002b1c                . = ALIGN (0x4)
 *(.init)
 .init          0x00002b1c        0x4 c:/program files (x86)/atmel/studio/7.0/toolchain/arm/arm-gnu-toolchain/bin/../lib/gcc/arm-none-eabi/6.3.1/thumb/v6-m/crti.o
                0x00002b1c                _init
 .init          0x00002b20        0x8 c:/program files (x86)/atmel/studio/7.0/toolchain/arm/arm-gnu-toolchain/bin/../lib/gcc/arm-none-eabi/6.3.1/thumb/v6-m/crtn.o
                0x00002b28                . = ALIGN (0x4)
                0x00002b28                __preinit_array_start = .
 *(.preinit_array)
                0x00002b28                __preinit_array_end = .
                0x00002b28                . = ALIGN (0x4)
                0x00002b28                __init_array_start = .
 *(SORT(.init_array.*))
 *(.init_array)
 .init_array    0x00002b28        0x4 c:/program files (x86)/atmel/studio/7.0/toolchain/arm/arm-gnu-toolchain/bin/../lib/gcc/arm-none-eabi/6.3.1/thumb/v6-m/crtbegin.o
                0x00002b2c                __init_array_end = .
                0x00002b2c                . = ALIGN (0x4)
 *crtbegin.o(.ctors)
 *(EXCLUDE_FILE(*crtend.o) .ctors)
 *(SORT(.ctors.*))
 *crtend.o(.ctors)
                0x00002b2c                . = ALIGN (0x4)
 *(.fini)
 .fini          0x00002b2c        0x4 c:/program files (x86)/atmel/studio/7.0/toolchain/arm/arm-gnu-toolchain/bin/../lib/gcc/arm-none-eabi/6.3.1/thumb/v6-m/crti.o
                0x00002b2c                _fini
 .fini          0x00002b30        0x8 c:/program files (x86)/atmel/studio/7.0/toolchain/arm/arm-gnu-toolchain/bin/../lib/gcc/arm-none-eabi/6.3.1/thumb/v6-m/crtn.o
                0x00002b38                . = ALIGN (0x4)
                0x00002b38                __fini_array_start = .
 *(.fini_array)
 .fini_array    0x00002b38        0x4 c:/program files (x86)/atmel/studio/7.0/toolchain/arm/arm-gnu-toolchain/bin/../lib/gcc/arm-none-eabi/6.3.1/thumb/v6-m/crtbegin.o
 *(SORT(.fini_array.*))
                0x00002b3c                __fini_array_end = .
 *crtbegin.o(.dtors)
 *(EXCLUDE_FILE(*crtend.o) .dtors)
 *(SORT(.dtors.*))
 *crtend.o(.dtors)
                0x00002b3c                . = ALIGN (0x4)
                0x00002b3c                _efixed = .
                [!provide]                PROVIDE (__exidx_start, .)

.vfp11_veneer   0x00002b3c        0x0
 .vfp11_veneer  0x00002b3c        0x0 linker stubs

.v4_bx          0x00002b3c        0x0
 .v4_bx         0x00002b3c        0x0 linker stubs

.iplt           0x00002b3c        0x0
 .iplt          0x00002b3c        0x0 c:/program files (x86)/atmel/studio/7.0/toolchain/arm/arm-gnu-toolchain/bin/../lib/gcc/arm-none-eabi/6.3.1/thumb/v6-m/crtbegin.o

.eh_frame       0x00002b3c        0x0
 .eh_frame      0x00002b3c        0x0 c:/program files (x86)/atmel/studio/7.0/toolchain/arm/arm-gnu-toolchain/bin/../lib/gcc/arm-none-eabi/6.3.1/thumb/v6-m/crtbegin.o

.rel.dyn        0x00002b3c        0x0
 .rel.iplt      0x00002b3c        0x0 c:/program files (x86)/atmel/studio/7.0/toolchain/arm/arm-gnu-toolchain/bin/../lib/gcc/arm-none-eabi/6.3.1/thumb/v6-m/crtbegin.o

.jcr            0x00002b3c        0x0
 .jcr           0x00002b3c        0x0 c:/program files (x86)/atmel/studio/7.0/toolchain/arm/arm-gnu-toolchain/bin/../lib/gcc/arm-none-eabi/6.3.1/thumb/v6-m/crtbegin.o

.igot.plt       0x00002b3c        0x0
 .igot.plt      0x00002b3c        0x0 c:/program files (x86)/atmel/studio/7.0/toolchain/arm/arm-gnu-toolchain/bin/../lib/gcc/arm-none-eabi/6.3.1/thumb/v6-m/crtbegin.o

.ARM.exidx
 *(.ARM.exidx* .gnu.linkonce.armexidx.*)
                [!provide]                PROVIDE (__exidx_end, .)
                0x00002b3c                . = ALIGN (0x4)
                0x00002b3c                _etext = .

.relocate       0x20000000        0x8 load address 0x00002b3c
                0x20000000                . = ALIGN (0x4)
                0x20000000                _srelocate = .
 *(.ramfunc .ramfunc.*)
 *(.data .data.*)
 .data          0x20000000        0x4 thirdparty/RTOS/freertos/FreeRTOSV8.2.3/Source/portable/GCC/ARM_CM0/port.o
 .data          0x20000004        0x4 thirdparty/RTOS/freertos/FreeRTOSV8.2.3/Source/portable/MemMang/heap_2.o
                0x20000008                . = ALIGN (0x4)
                0x20000008                _erelocate = .

.bss            0x20000008      0xb20 load address 0x00002b44
                0x20000008                . = ALIGN (0x4)
                0x20000008                _sbss = .
                0x20000008                _szero = .
 *(.bss .bss.*)
 .bss           0x20000008       0x1c c:/program files (x86)/atmel/studio/7.0/toolchain/arm/arm-gnu-toolchain/bin/../lib/gcc/arm-none-eabi/6.3.1/thumb/v6-m/crtbegin.o
 .bss           0x20000024        0x4 hpl/sercom/hpl_sercom.o
 .bss           0x20000028      0x974 thirdparty/RTOS/freertos/FreeRTOSV8.2.3/Source/portable/MemMang/heap_2.o
 .bss           0x2000099c       0xe8 thirdparty/RTOS/freertos/FreeRTOSV8.2.3/Source/tasks.o
                0x20000a30                pxCurrentTCB
 .bss           0x20000a84       0x38 thirdparty/RTOS/freertos/FreeRTOSV8.2.3/Source/timers.o
 .bss           0x20000abc       0x10 Z_APP/app.o
 *(COMMON)
 COMMON         0x20000acc       0x5c driver_init.o
                0x20000acc                EDBG_COM_buffer
                0x20000adc                EDBG_COM
                0x20000b28                . = ALIGN (0x4)
                0x20000b28                _ebss = .
                0x20000b28                _ezero = .

.stack          0x20000b28     0x2000 load address 0x00003664
                0x20000b28                . = ALIGN (0x8)
                0x20000b28                _sstack = .
                0x20002b28                . = (. + STACK_SIZE)
 *fill*         0x20000b28     0x2000 
                0x20002b28                . = ALIGN (0x8)
                0x20002b28                _estack = .
                0x20002b28                . = ALIGN (0x4)
                0x20002b28                _end = .
OUTPUT(C21N_RTOS_UART.elf elf32-littlearm)

.ARM.attributes
                0x00000000       0x28
 .ARM.attributes
                0x00000000       0x1e c:/program files (x86)/atmel/studio/7.0/toolchain/arm/arm-gnu-toolchain/bin/../lib/gcc/arm-none-eabi/6.3.1/thumb/v6-m/crti.o
 .ARM.attributes
                0x0000001e       0x2c c:/program files (x86)/atmel/studio/7.0/toolchain/arm/arm-gnu-toolchain/bin/../lib/gcc/arm-none-eabi/6.3.1/thumb/v6-m/crtbegin.o
 .ARM.attributes
                0x0000004a       0x32 atmel_start.o
 .ARM.attributes
                0x0000007c       0x32 Device_Startup/startup_samc21.o
 .ARM.attributes
                0x000000ae       0x32 driver_init.o
 .ARM.attributes
                0x000000e0       0x32 hal/src/hal_atomic.o
 .ARM.attributes
                0x00000112       0x32 hal/src/hal_io.o
 .ARM.attributes
                0x00000144       0x32 hal/src/hal_usart_os.o
 .ARM.attributes
                0x00000176       0x32 hal/utils/src/utils_assert.o
 .ARM.attributes
                0x000001a8       0x32 hal/utils/src/utils_ringbuffer.o
 .ARM.attributes
                0x000001da       0x32 hpl/core/hpl_init.o
 .ARM.attributes
                0x0000020c       0x32 hpl/divas/hpl_divas.o
 .ARM.attributes
                0x0000023e       0x32 hpl/gclk/hpl_gclk.o
 .ARM.attributes
                0x00000270       0x32 hpl/mclk/hpl_mclk.o
 .ARM.attributes
                0x000002a2       0x32 hpl/osc32kctrl/hpl_osc32kctrl.o
 .ARM.attributes
                0x000002d4       0x32 hpl/oscctrl/hpl_oscctrl.o
 .ARM.attributes
                0x00000306       0x32 hpl/sercom/hpl_sercom.o
 .ARM.attributes
                0x00000338       0x32 main.o
 .ARM.attributes
                0x0000036a       0x32 thirdparty/RTOS/freertos/FreeRTOSV8.2.3/rtos_port.o
 .ARM.attributes
                0x0000039c       0x32 thirdparty/RTOS/freertos/FreeRTOSV8.2.3/Source/list.o
 .ARM.attributes
                0x000003ce       0x32 thirdparty/RTOS/freertos/FreeRTOSV8.2.3/Source/portable/GCC/ARM_CM0/port.o
 .ARM.attributes
                0x00000400       0x32 thirdparty/RTOS/freertos/FreeRTOSV8.2.3/Source/portable/MemMang/heap_2.o
 .ARM.attributes
                0x00000432       0x32 thirdparty/RTOS/freertos/FreeRTOSV8.2.3/Source/queue.o
 .ARM.attributes
                0x00000464       0x32 thirdparty/RTOS/freertos/FreeRTOSV8.2.3/Source/tasks.o
 .ARM.attributes
                0x00000496       0x32 thirdparty/RTOS/freertos/FreeRTOSV8.2.3/Source/timers.o
 .ARM.attributes
                0x000004c8       0x32 Z_APP/app.o
 .ARM.attributes
                0x000004fa       0x32 Z_APP/uart_helps.o
 .ARM.attributes
                0x0000052c       0x2c c:/program files (x86)/atmel/studio/7.0/toolchain/arm/arm-gnu-toolchain/bin/../lib/gcc/arm-none-eabi/6.3.1/../../../../arm-none-eabi/lib/thumb/v6-m\libc_nano.a(lib_a-init.o)
 .ARM.attributes
                0x00000558       0x2c c:/program files (x86)/atmel/studio/7.0/toolchain/arm/arm-gnu-toolchain/bin/../lib/gcc/arm-none-eabi/6.3.1/../../../../arm-none-eabi/lib/thumb/v6-m\libc_nano.a(lib_a-memcpy-stub.o)
 .ARM.attributes
                0x00000584       0x2c c:/program files (x86)/atmel/studio/7.0/toolchain/arm/arm-gnu-toolchain/bin/../lib/gcc/arm-none-eabi/6.3.1/../../../../arm-none-eabi/lib/thumb/v6-m\libc_nano.a(lib_a-memset.o)
 .ARM.attributes
                0x000005b0       0x2c c:/program files (x86)/atmel/studio/7.0/toolchain/arm/arm-gnu-toolchain/bin/../lib/gcc/arm-none-eabi/6.3.1/../../../../arm-none-eabi/lib/thumb/v6-m\libc_nano.a(lib_a-strcpy.o)
 .ARM.attributes
                0x000005dc       0x1c c:/program files (x86)/atmel/studio/7.0/toolchain/arm/arm-gnu-toolchain/bin/../lib/gcc/arm-none-eabi/6.3.1/../../../../arm-none-eabi/lib/thumb/v6-m\libc_nano.a(lib_a-strlen.o)
 .ARM.attributes
                0x000005f8       0x1e c:/program files (x86)/atmel/studio/7.0/toolchain/arm/arm-gnu-toolchain/bin/../lib/gcc/arm-none-eabi/6.3.1/thumb/v6-m/crtn.o

.comment        0x00000000       0x59
 .comment       0x00000000       0x59 atmel_start.o
                                 0x5a (size before relaxing)
 .comment       0x00000059       0x5a Device_Startup/startup_samc21.o
 .comment       0x00000059       0x5a driver_init.o
 .comment       0x00000059       0x5a hal/src/hal_atomic.o
 .comment       0x00000059       0x5a hal/src/hal_io.o
 .comment       0x00000059       0x5a hal/src/hal_usart_os.o
 .comment       0x00000059       0x5a hal/utils/src/utils_assert.o
 .comment       0x00000059       0x5a hal/utils/src/utils_ringbuffer.o
 .comment       0x00000059       0x5a hpl/core/hpl_init.o
 .comment       0x00000059       0x5a hpl/divas/hpl_divas.o
 .comment       0x00000059       0x5a hpl/gclk/hpl_gclk.o
 .comment       0x00000059       0x5a hpl/mclk/hpl_mclk.o
 .comment       0x00000059       0x5a hpl/osc32kctrl/hpl_osc32kctrl.o
 .comment       0x00000059       0x5a hpl/oscctrl/hpl_oscctrl.o
 .comment       0x00000059       0x5a hpl/sercom/hpl_sercom.o
 .comment       0x00000059       0x5a main.o
 .comment       0x00000059       0x5a thirdparty/RTOS/freertos/FreeRTOSV8.2.3/rtos_port.o
 .comment       0x00000059       0x5a thirdparty/RTOS/freertos/FreeRTOSV8.2.3/Source/list.o
 .comment       0x00000059       0x5a thirdparty/RTOS/freertos/FreeRTOSV8.2.3/Source/portable/GCC/ARM_CM0/port.o
 .comment       0x00000059       0x5a thirdparty/RTOS/freertos/FreeRTOSV8.2.3/Source/portable/MemMang/heap_2.o
 .comment       0x00000059       0x5a thirdparty/RTOS/freertos/FreeRTOSV8.2.3/Source/queue.o
 .comment       0x00000059       0x5a thirdparty/RTOS/freertos/FreeRTOSV8.2.3/Source/tasks.o
 .comment       0x00000059       0x5a thirdparty/RTOS/freertos/FreeRTOSV8.2.3/Source/timers.o
 .comment       0x00000059       0x5a Z_APP/app.o
 .comment       0x00000059       0x5a Z_APP/uart_helps.o

.debug_info     0x00000000    0x1fd25
 .debug_info    0x00000000      0x3d9 atmel_start.o
 .debug_info    0x000003d9      0x523 Device_Startup/startup_samc21.o
 .debug_info    0x000008fc     0x3b15 driver_init.o
 .debug_info    0x00004411      0x1d1 hal/src/hal_atomic.o
 .debug_info    0x000045e2      0x2b2 hal/src/hal_io.o
 .debug_info    0x00004894     0x1150 hal/src/hal_usart_os.o
 .debug_info    0x000059e4      0x107 hal/utils/src/utils_assert.o
 .debug_info    0x00005aeb      0x313 hal/utils/src/utils_ringbuffer.o
 .debug_info    0x00005dfe      0x75c hpl/core/hpl_init.o
 .debug_info    0x0000655a      0x854 hpl/divas/hpl_divas.o
 .debug_info    0x00006dae      0x582 hpl/gclk/hpl_gclk.o
 .debug_info    0x00007330      0x879 hpl/mclk/hpl_mclk.o
 .debug_info    0x00007ba9      0x770 hpl/osc32kctrl/hpl_osc32kctrl.o
 .debug_info    0x00008319      0xdd6 hpl/oscctrl/hpl_oscctrl.o
 .debug_info    0x000090ef     0xb5ff hpl/sercom/hpl_sercom.o
 .debug_info    0x000146ee      0xd65 main.o
 .debug_info    0x00015453      0x399 thirdparty/RTOS/freertos/FreeRTOSV8.2.3/rtos_port.o
 .debug_info    0x000157ec      0xbd1 thirdparty/RTOS/freertos/FreeRTOSV8.2.3/Source/list.o
 .debug_info    0x000163bd      0x2d5 thirdparty/RTOS/freertos/FreeRTOSV8.2.3/Source/portable/GCC/ARM_CM0/port.o
 .debug_info    0x00016692      0xc6f thirdparty/RTOS/freertos/FreeRTOSV8.2.3/Source/portable/MemMang/heap_2.o
 .debug_info    0x00017301     0x2008 thirdparty/RTOS/freertos/FreeRTOSV8.2.3/Source/queue.o
 .debug_info    0x00019309     0x28b1 thirdparty/RTOS/freertos/FreeRTOSV8.2.3/Source/tasks.o
 .debug_info    0x0001bbba     0x1715 thirdparty/RTOS/freertos/FreeRTOSV8.2.3/Source/timers.o
 .debug_info    0x0001d2cf     0x1af9 Z_APP/app.o
 .debug_info    0x0001edc8      0xf5d Z_APP/uart_helps.o

.debug_abbrev   0x00000000     0x375e
 .debug_abbrev  0x00000000       0xf1 atmel_start.o
 .debug_abbrev  0x000000f1      0x14f Device_Startup/startup_samc21.o
 .debug_abbrev  0x00000240      0x33f driver_init.o
 .debug_abbrev  0x0000057f      0x144 hal/src/hal_atomic.o
 .debug_abbrev  0x000006c3      0x115 hal/src/hal_io.o
 .debug_abbrev  0x000007d8      0x27a hal/src/hal_usart_os.o
 .debug_abbrev  0x00000a52       0x86 hal/utils/src/utils_assert.o
 .debug_abbrev  0x00000ad8      0x101 hal/utils/src/utils_ringbuffer.o
 .debug_abbrev  0x00000bd9      0x1ce hpl/core/hpl_init.o
 .debug_abbrev  0x00000da7      0x232 hpl/divas/hpl_divas.o
 .debug_abbrev  0x00000fd9      0x19a hpl/gclk/hpl_gclk.o
 .debug_abbrev  0x00001173      0x1ac hpl/mclk/hpl_mclk.o
 .debug_abbrev  0x0000131f      0x1d1 hpl/osc32kctrl/hpl_osc32kctrl.o
 .debug_abbrev  0x000014f0      0x209 hpl/oscctrl/hpl_oscctrl.o
 .debug_abbrev  0x000016f9      0x5e2 hpl/sercom/hpl_sercom.o
 .debug_abbrev  0x00001cdb      0x1c1 main.o
 .debug_abbrev  0x00001e9c      0x162 thirdparty/RTOS/freertos/FreeRTOSV8.2.3/rtos_port.o
 .debug_abbrev  0x00001ffe      0x21a thirdparty/RTOS/freertos/FreeRTOSV8.2.3/Source/list.o
 .debug_abbrev  0x00002218      0x1a9 thirdparty/RTOS/freertos/FreeRTOSV8.2.3/Source/portable/GCC/ARM_CM0/port.o
 .debug_abbrev  0x000023c1      0x2aa thirdparty/RTOS/freertos/FreeRTOSV8.2.3/Source/portable/MemMang/heap_2.o
 .debug_abbrev  0x0000266b      0x325 thirdparty/RTOS/freertos/FreeRTOSV8.2.3/Source/queue.o
 .debug_abbrev  0x00002990      0x444 thirdparty/RTOS/freertos/FreeRTOSV8.2.3/Source/tasks.o
 .debug_abbrev  0x00002dd4      0x37e thirdparty/RTOS/freertos/FreeRTOSV8.2.3/Source/timers.o
 .debug_abbrev  0x00003152      0x392 Z_APP/app.o
 .debug_abbrev  0x000034e4      0x27a Z_APP/uart_helps.o

.debug_loc      0x00000000     0xe7dc
 .debug_loc     0x00000000       0x20 atmel_start.o
 .debug_loc     0x00000020       0x40 Device_Startup/startup_samc21.o
 .debug_loc     0x00000060      0x3cb driver_init.o
 .debug_loc     0x0000042b       0x13 hal/src/hal_atomic.o
 .debug_loc     0x0000043e      0x18a hal/src/hal_io.o
 .debug_loc     0x000005c8      0xce3 hal/src/hal_usart_os.o
 .debug_loc     0x000012ab      0x2d1 hal/utils/src/utils_ringbuffer.o
 .debug_loc     0x0000157c       0x4c hpl/core/hpl_init.o
 .debug_loc     0x000015c8      0x2a5 hpl/divas/hpl_divas.o
 .debug_loc     0x0000186d       0x72 hpl/gclk/hpl_gclk.o
 .debug_loc     0x000018df       0x2c hpl/mclk/hpl_mclk.o
 .debug_loc     0x0000190b       0x94 hpl/osc32kctrl/hpl_osc32kctrl.o
 .debug_loc     0x0000199f       0x74 hpl/oscctrl/hpl_oscctrl.o
 .debug_loc     0x00001a13     0x8078 hpl/sercom/hpl_sercom.o
 .debug_loc     0x00009a8b       0x20 main.o
 .debug_loc     0x00009aab      0x1a1 thirdparty/RTOS/freertos/FreeRTOSV8.2.3/rtos_port.o
 .debug_loc     0x00009c4c       0x72 thirdparty/RTOS/freertos/FreeRTOSV8.2.3/Source/list.o
 .debug_loc     0x00009cbe      0x113 thirdparty/RTOS/freertos/FreeRTOSV8.2.3/Source/portable/GCC/ARM_CM0/port.o
 .debug_loc     0x00009dd1      0x264 thirdparty/RTOS/freertos/FreeRTOSV8.2.3/Source/portable/MemMang/heap_2.o
 .debug_loc     0x0000a035     0x1931 thirdparty/RTOS/freertos/FreeRTOSV8.2.3/Source/queue.o
 .debug_loc     0x0000b966     0x1c1c thirdparty/RTOS/freertos/FreeRTOSV8.2.3/Source/tasks.o
 .debug_loc     0x0000d582      0xb02 thirdparty/RTOS/freertos/FreeRTOSV8.2.3/Source/timers.o
 .debug_loc     0x0000e084      0x3fe Z_APP/app.o
 .debug_loc     0x0000e482      0x35a Z_APP/uart_helps.o

.debug_aranges  0x00000000      0xcc8
 .debug_aranges
                0x00000000       0x20 atmel_start.o
 .debug_aranges
                0x00000020       0x28 Device_Startup/startup_samc21.o
 .debug_aranges
                0x00000048       0x38 driver_init.o
 .debug_aranges
                0x00000080       0x30 hal/src/hal_atomic.o
 .debug_aranges
                0x000000b0       0x30 hal/src/hal_io.o
 .debug_aranges
                0x000000e0       0xc0 hal/src/hal_usart_os.o
 .debug_aranges
                0x000001a0       0x20 hal/utils/src/utils_assert.o
 .debug_aranges
                0x000001c0       0x40 hal/utils/src/utils_ringbuffer.o
 .debug_aranges
                0x00000200       0x20 hpl/core/hpl_init.o
 .debug_aranges
                0x00000220       0x40 hpl/divas/hpl_divas.o
 .debug_aranges
                0x00000260       0x28 hpl/gclk/hpl_gclk.o
 .debug_aranges
                0x00000288       0x20 hpl/mclk/hpl_mclk.o
 .debug_aranges
                0x000002a8       0x20 hpl/osc32kctrl/hpl_osc32kctrl.o
 .debug_aranges
                0x000002c8       0x28 hpl/oscctrl/hpl_oscctrl.o
 .debug_aranges
                0x000002f0      0x4e0 hpl/sercom/hpl_sercom.o
 .debug_aranges
                0x000007d0       0x20 main.o
 .debug_aranges
                0x000007f0       0x38 thirdparty/RTOS/freertos/FreeRTOSV8.2.3/rtos_port.o
 .debug_aranges
                0x00000828       0x40 thirdparty/RTOS/freertos/FreeRTOSV8.2.3/Source/list.o
 .debug_aranges
                0x00000868       0x80 thirdparty/RTOS/freertos/FreeRTOSV8.2.3/Source/portable/GCC/ARM_CM0/port.o
 .debug_aranges
                0x000008e8       0x38 thirdparty/RTOS/freertos/FreeRTOSV8.2.3/Source/portable/MemMang/heap_2.o
 .debug_aranges
                0x00000920      0x110 thirdparty/RTOS/freertos/FreeRTOSV8.2.3/Source/queue.o
 .debug_aranges
                0x00000a30      0x170 thirdparty/RTOS/freertos/FreeRTOSV8.2.3/Source/tasks.o
 .debug_aranges
                0x00000ba0       0x70 thirdparty/RTOS/freertos/FreeRTOSV8.2.3/Source/timers.o
 .debug_aranges
                0x00000c10       0x80 Z_APP/app.o
 .debug_aranges
                0x00000c90       0x38 Z_APP/uart_helps.o

.debug_ranges   0x00000000     0x11f0
 .debug_ranges  0x00000000       0x10 atmel_start.o
 .debug_ranges  0x00000010       0x18 Device_Startup/startup_samc21.o
 .debug_ranges  0x00000028       0x28 driver_init.o
 .debug_ranges  0x00000050       0x20 hal/src/hal_atomic.o
 .debug_ranges  0x00000070       0x20 hal/src/hal_io.o
 .debug_ranges  0x00000090       0xb0 hal/src/hal_usart_os.o
 .debug_ranges  0x00000140       0x10 hal/utils/src/utils_assert.o
 .debug_ranges  0x00000150       0x30 hal/utils/src/utils_ringbuffer.o
 .debug_ranges  0x00000180       0x10 hpl/core/hpl_init.o
 .debug_ranges  0x00000190       0x30 hpl/divas/hpl_divas.o
 .debug_ranges  0x000001c0       0x18 hpl/gclk/hpl_gclk.o
 .debug_ranges  0x000001d8       0x10 hpl/mclk/hpl_mclk.o
 .debug_ranges  0x000001e8       0x10 hpl/osc32kctrl/hpl_osc32kctrl.o
 .debug_ranges  0x000001f8       0x48 hpl/oscctrl/hpl_oscctrl.o
 .debug_ranges  0x00000240      0xa10 hpl/sercom/hpl_sercom.o
 .debug_ranges  0x00000c50       0x10 main.o
 .debug_ranges  0x00000c60       0x28 thirdparty/RTOS/freertos/FreeRTOSV8.2.3/rtos_port.o
 .debug_ranges  0x00000c88       0x30 thirdparty/RTOS/freertos/FreeRTOSV8.2.3/Source/list.o
 .debug_ranges  0x00000cb8       0x70 thirdparty/RTOS/freertos/FreeRTOSV8.2.3/Source/portable/GCC/ARM_CM0/port.o
 .debug_ranges  0x00000d28       0x28 thirdparty/RTOS/freertos/FreeRTOSV8.2.3/Source/portable/MemMang/heap_2.o
 .debug_ranges  0x00000d50      0x100 thirdparty/RTOS/freertos/FreeRTOSV8.2.3/Source/queue.o
 .debug_ranges  0x00000e50      0x258 thirdparty/RTOS/freertos/FreeRTOSV8.2.3/Source/tasks.o
 .debug_ranges  0x000010a8       0x98 thirdparty/RTOS/freertos/FreeRTOSV8.2.3/Source/timers.o
 .debug_ranges  0x00001140       0x88 Z_APP/app.o
 .debug_ranges  0x000011c8       0x28 Z_APP/uart_helps.o

.debug_macro    0x00000000    0x20a5a
 .debug_macro   0x00000000      0x728 atmel_start.o
 .debug_macro   0x00000728      0x89e atmel_start.o
 .debug_macro   0x00000fc6      0x16d atmel_start.o
 .debug_macro   0x00001133       0x22 atmel_start.o
 .debug_macro   0x00001155       0x87 atmel_start.o
 .debug_macro   0x000011dc       0x51 atmel_start.o
 .debug_macro   0x0000122d       0xef atmel_start.o
 .debug_macro   0x0000131c       0x6a atmel_start.o
 .debug_macro   0x00001386      0x1df atmel_start.o
 .debug_macro   0x00001565       0x22 atmel_start.o
 .debug_macro   0x00001587       0x85 atmel_start.o
 .debug_macro   0x0000160c       0x28 atmel_start.o
 .debug_macro   0x00001634       0x85 atmel_start.o
 .debug_macro   0x000016b9      0x49b atmel_start.o
 .debug_macro   0x00001b54      0x897 atmel_start.o
 .debug_macro   0x000023eb      0x8ce atmel_start.o
 .debug_macro   0x00002cb9     0x2d61 atmel_start.o
 .debug_macro   0x00005a1a      0x23a atmel_start.o
 .debug_macro   0x00005c54      0x282 atmel_start.o
 .debug_macro   0x00005ed6      0x130 atmel_start.o
 .debug_macro   0x00006006      0xc36 atmel_start.o
 .debug_macro   0x00006c3c      0x5f5 atmel_start.o
 .debug_macro   0x00007231      0x67b atmel_start.o
 .debug_macro   0x000078ac      0x824 atmel_start.o
 .debug_macro   0x000080d0      0x17e atmel_start.o
 .debug_macro   0x0000824e      0x306 atmel_start.o
 .debug_macro   0x00008554      0x55f atmel_start.o
 .debug_macro   0x00008ab3      0x48a atmel_start.o
 .debug_macro   0x00008f3d      0x21c atmel_start.o
 .debug_macro   0x00009159      0x72e atmel_start.o
 .debug_macro   0x00009887      0x5ab atmel_start.o
 .debug_macro   0x00009e32      0x335 atmel_start.o
 .debug_macro   0x0000a167      0x751 atmel_start.o
 .debug_macro   0x0000a8b8       0xdc atmel_start.o
 .debug_macro   0x0000a994      0x340 atmel_start.o
 .debug_macro   0x0000acd4       0x6a atmel_start.o
 .debug_macro   0x0000ad3e     0x124b atmel_start.o
 .debug_macro   0x0000bf89      0x5a5 atmel_start.o
 .debug_macro   0x0000c52e      0xfc4 atmel_start.o
 .debug_macro   0x0000d4f2      0x622 atmel_start.o
 .debug_macro   0x0000db14      0x930 atmel_start.o
 .debug_macro   0x0000e444     0x19be atmel_start.o
 .debug_macro   0x0000fe02      0x39c atmel_start.o
 .debug_macro   0x0001019e      0x36a atmel_start.o
 .debug_macro   0x00010508       0x94 atmel_start.o
 .debug_macro   0x0001059c       0xac atmel_start.o
 .debug_macro   0x00010648       0xac atmel_start.o
 .debug_macro   0x000106f4      0x149 atmel_start.o
 .debug_macro   0x0001083d      0x149 atmel_start.o
 .debug_macro   0x00010986       0x46 atmel_start.o
 .debug_macro   0x000109cc       0x58 atmel_start.o
 .debug_macro   0x00010a24       0x3a atmel_start.o
 .debug_macro   0x00010a5e       0xd0 atmel_start.o
 .debug_macro   0x00010b2e       0xb2 atmel_start.o
 .debug_macro   0x00010be0       0x7c atmel_start.o
 .debug_macro   0x00010c5c      0x643 atmel_start.o
 .debug_macro   0x0001129f       0x46 atmel_start.o
 .debug_macro   0x000112e5      0x1e6 atmel_start.o
 .debug_macro   0x000114cb      0x184 atmel_start.o
 .debug_macro   0x0001164f       0x58 atmel_start.o
 .debug_macro   0x000116a7       0xa0 atmel_start.o
 .debug_macro   0x00011747       0xd6 atmel_start.o
 .debug_macro   0x0001181d       0x94 atmel_start.o
 .debug_macro   0x000118b1       0x4c atmel_start.o
 .debug_macro   0x000118fd       0x70 atmel_start.o
 .debug_macro   0x0001196d       0x22 atmel_start.o
 .debug_macro   0x0001198f      0x1da atmel_start.o
 .debug_macro   0x00011b69       0x2e atmel_start.o
 .debug_macro   0x00011b97       0x16 atmel_start.o
 .debug_macro   0x00011bad       0xd6 atmel_start.o
 .debug_macro   0x00011c83       0xa0 atmel_start.o
 .debug_macro   0x00011d23      0x133 atmel_start.o
 .debug_macro   0x00011e56      0x133 atmel_start.o
 .debug_macro   0x00011f89      0x133 atmel_start.o
 .debug_macro   0x000120bc      0x133 atmel_start.o
 .debug_macro   0x000121ef      0x133 atmel_start.o
 .debug_macro   0x00012322      0x133 atmel_start.o
 .debug_macro   0x00012455      0x133 atmel_start.o
 .debug_macro   0x00012588      0x133 atmel_start.o
 .debug_macro   0x000126bb       0x52 atmel_start.o
 .debug_macro   0x0001270d       0xfa atmel_start.o
 .debug_macro   0x00012807       0xfa atmel_start.o
 .debug_macro   0x00012901       0xfa atmel_start.o
 .debug_macro   0x000129fb       0xfa atmel_start.o
 .debug_macro   0x00012af5       0xfa atmel_start.o
 .debug_macro   0x00012bef       0xfa atmel_start.o
 .debug_macro   0x00012ce9       0xfa atmel_start.o
 .debug_macro   0x00012de3       0xfa atmel_start.o
 .debug_macro   0x00012edd      0x124 atmel_start.o
 .debug_macro   0x00013001       0xfa atmel_start.o
 .debug_macro   0x000130fb       0xee atmel_start.o
 .debug_macro   0x000131e9       0x76 atmel_start.o
 .debug_macro   0x0001325f       0x3a atmel_start.o
 .debug_macro   0x00013299      0x4db atmel_start.o
 .debug_macro   0x00013774     0x329c atmel_start.o
 .debug_macro   0x00016a10       0x89 atmel_start.o
 .debug_macro   0x00016a99       0x10 atmel_start.o
 .debug_macro   0x00016aa9       0x10 atmel_start.o
 .debug_macro   0x00016ab9       0x16 atmel_start.o
 .debug_macro   0x00016acf       0x16 atmel_start.o
 .debug_macro   0x00016ae5       0x16 atmel_start.o
 .debug_macro   0x00016afb       0x16 atmel_start.o
 .debug_macro   0x00016b11       0x16 atmel_start.o
 .debug_macro   0x00016b27       0x16 atmel_start.o
 .debug_macro   0x00016b3d       0x16 atmel_start.o
 .debug_macro   0x00016b53       0x16 atmel_start.o
 .debug_macro   0x00016b69       0x16 atmel_start.o
 .debug_macro   0x00016b7f       0x16 atmel_start.o
 .debug_macro   0x00016b95       0x16 atmel_start.o
 .debug_macro   0x00016bab       0x16 atmel_start.o
 .debug_macro   0x00016bc1       0x16 atmel_start.o
 .debug_macro   0x00016bd7       0x16 atmel_start.o
 .debug_macro   0x00016bed       0x16 atmel_start.o
 .debug_macro   0x00016c03       0x16 atmel_start.o
 .debug_macro   0x00016c19       0x16 atmel_start.o
 .debug_macro   0x00016c2f       0x16 atmel_start.o
 .debug_macro   0x00016c45       0x16 atmel_start.o
 .debug_macro   0x00016c5b       0x16 atmel_start.o
 .debug_macro   0x00016c71       0x16 atmel_start.o
 .debug_macro   0x00016c87      0x262 atmel_start.o
 .debug_macro   0x00016ee9       0x16 atmel_start.o
 .debug_macro   0x00016eff       0x94 atmel_start.o
 .debug_macro   0x00016f93       0x16 atmel_start.o
 .debug_macro   0x00016fa9       0xbe atmel_start.o
 .debug_macro   0x00017067      0x28c atmel_start.o
 .debug_macro   0x000172f3       0x16 atmel_start.o
 .debug_macro   0x00017309       0x16 atmel_start.o
 .debug_macro   0x0001731f       0xca atmel_start.o
 .debug_macro   0x000173e9       0x1c atmel_start.o
 .debug_macro   0x00017405       0x16 atmel_start.o
 .debug_macro   0x0001741b      0x12a atmel_start.o
 .debug_macro   0x00017545       0x4c atmel_start.o
 .debug_macro   0x00017591       0x28 atmel_start.o
 .debug_macro   0x000175b9      0x188 atmel_start.o
 .debug_macro   0x00017741      0x15e atmel_start.o
 .debug_macro   0x0001789f       0xaf atmel_start.o
 .debug_macro   0x0001794e       0x10 atmel_start.o
 .debug_macro   0x0001795e       0x1f atmel_start.o
 .debug_macro   0x0001797d      0x38b atmel_start.o
 .debug_macro   0x00017d08       0xb0 atmel_start.o
 .debug_macro   0x00017db8       0x7f atmel_start.o
 .debug_macro   0x00017e37       0xc0 atmel_start.o
 .debug_macro   0x00017ef7       0x9a atmel_start.o
 .debug_macro   0x00017f91       0x1c atmel_start.o
 .debug_macro   0x00017fad      0x3d3 Device_Startup/startup_samc21.o
 .debug_macro   0x00018380       0x7f Device_Startup/startup_samc21.o
 .debug_macro   0x000183ff      0x71c driver_init.o
 .debug_macro   0x00018b1b       0xc9 driver_init.o
 .debug_macro   0x00018be4      0x556 hal/src/hal_atomic.o
 .debug_macro   0x0001913a      0x56b hal/src/hal_io.o
 .debug_macro   0x000196a5      0x68d hal/src/hal_usart_os.o
 .debug_macro   0x00019d32      0x560 hal/utils/src/utils_assert.o
 .debug_macro   0x0001a292       0x10 hal/utils/src/utils_assert.o
 .debug_macro   0x0001a2a2      0x565 hal/utils/src/utils_ringbuffer.o
 .debug_macro   0x0001a807      0x5e5 hpl/core/hpl_init.o
 .debug_macro   0x0001adec       0x1c hpl/core/hpl_init.o
 .debug_macro   0x0001ae08      0x75b hpl/core/hpl_init.o
 .debug_macro   0x0001b563      0x57e hpl/divas/hpl_divas.o
 .debug_macro   0x0001bae1      0x56f hpl/gclk/hpl_gclk.o
 .debug_macro   0x0001c050      0x1f4 hpl/gclk/hpl_gclk.o
 .debug_macro   0x0001c244      0x56a hpl/mclk/hpl_mclk.o
 .debug_macro   0x0001c7ae      0x565 hpl/osc32kctrl/hpl_osc32kctrl.o
 .debug_macro   0x0001cd13       0xb8 hpl/osc32kctrl/hpl_osc32kctrl.o
 .debug_macro   0x0001cdcb      0x565 hpl/oscctrl/hpl_oscctrl.o
 .debug_macro   0x0001d330      0x130 hpl/oscctrl/hpl_oscctrl.o
 .debug_macro   0x0001d460      0x7b9 hpl/sercom/hpl_sercom.o
 .debug_macro   0x0001dc19       0x70 hpl/sercom/hpl_sercom.o
 .debug_macro   0x0001dc89       0xba hpl/sercom/hpl_sercom.o
 .debug_macro   0x0001dd43       0x10 hpl/sercom/hpl_sercom.o
 .debug_macro   0x0001dd53       0x1c hpl/sercom/hpl_sercom.o
 .debug_macro   0x0001dd6f       0x22 hpl/sercom/hpl_sercom.o
 .debug_macro   0x0001dd91       0x10 hpl/sercom/hpl_sercom.o
 .debug_macro   0x0001dda1      0x90b main.o
 .debug_macro   0x0001e6ac       0x16 main.o
 .debug_macro   0x0001e6c2       0x28 main.o
 .debug_macro   0x0001e6ea      0x62d thirdparty/RTOS/freertos/FreeRTOSV8.2.3/rtos_port.o
 .debug_macro   0x0001ed17      0x18b thirdparty/RTOS/freertos/FreeRTOSV8.2.3/Source/list.o
 .debug_macro   0x0001eea2      0x12e thirdparty/RTOS/freertos/FreeRTOSV8.2.3/Source/portable/GCC/ARM_CM0/port.o
 .debug_macro   0x0001efd0      0x1b8 thirdparty/RTOS/freertos/FreeRTOSV8.2.3/Source/portable/MemMang/heap_2.o
 .debug_macro   0x0001f188      0x207 thirdparty/RTOS/freertos/FreeRTOSV8.2.3/Source/queue.o
 .debug_macro   0x0001f38f      0x301 thirdparty/RTOS/freertos/FreeRTOSV8.2.3/Source/tasks.o
 .debug_macro   0x0001f690       0x11 thirdparty/RTOS/freertos/FreeRTOSV8.2.3/Source/tasks.o
 .debug_macro   0x0001f6a1       0x1c thirdparty/RTOS/freertos/FreeRTOSV8.2.3/Source/tasks.o
 .debug_macro   0x0001f6bd      0x1c8 thirdparty/RTOS/freertos/FreeRTOSV8.2.3/Source/timers.o
 .debug_macro   0x0001f885      0x8f0 Z_APP/app.o
 .debug_macro   0x00020175      0x8e5 Z_APP/uart_helps.o

.debug_line     0x00000000    0x138c3
 .debug_line    0x00000000      0xe16 atmel_start.o
 .debug_line    0x00000e16      0x7d5 Device_Startup/startup_samc21.o
 .debug_line    0x000015eb      0xe7b driver_init.o
 .debug_line    0x00002466      0xb26 hal/src/hal_atomic.o
 .debug_line    0x00002f8c      0xb3b hal/src/hal_io.o
 .debug_line    0x00003ac7      0xf36 hal/src/hal_usart_os.o
 .debug_line    0x000049fd      0xaf1 hal/utils/src/utils_assert.o
 .debug_line    0x000054ee      0xb90 hal/utils/src/utils_ringbuffer.o
 .debug_line    0x0000607e      0xbde hpl/core/hpl_init.o
 .debug_line    0x00006c5c      0xbf3 hpl/divas/hpl_divas.o
 .debug_line    0x0000784f      0xb43 hpl/gclk/hpl_gclk.o
 .debug_line    0x00008392      0xb19 hpl/mclk/hpl_mclk.o
 .debug_line    0x00008eab      0xb2e hpl/osc32kctrl/hpl_osc32kctrl.o
 .debug_line    0x000099d9      0xb80 hpl/oscctrl/hpl_oscctrl.o
 .debug_line    0x0000a559     0x2a31 hpl/sercom/hpl_sercom.o
 .debug_line    0x0000cf8a      0xfb1 main.o
 .debug_line    0x0000df3b      0xd01 thirdparty/RTOS/freertos/FreeRTOSV8.2.3/rtos_port.o
 .debug_line    0x0000ec3c      0x49b thirdparty/RTOS/freertos/FreeRTOSV8.2.3/Source/list.o
 .debug_line    0x0000f0d7      0x47c thirdparty/RTOS/freertos/FreeRTOSV8.2.3/Source/portable/GCC/ARM_CM0/port.o
 .debug_line    0x0000f553      0x4dc thirdparty/RTOS/freertos/FreeRTOSV8.2.3/Source/portable/MemMang/heap_2.o
 .debug_line    0x0000fa2f      0x9e8 thirdparty/RTOS/freertos/FreeRTOSV8.2.3/Source/queue.o
 .debug_line    0x00010417      0xd8e thirdparty/RTOS/freertos/FreeRTOSV8.2.3/Source/tasks.o
 .debug_line    0x000111a5      0x5fa thirdparty/RTOS/freertos/FreeRTOSV8.2.3/Source/timers.o
 .debug_line    0x0001179f     0x10c8 Z_APP/app.o
 .debug_line    0x00012867     0x105c Z_APP/uart_helps.o

.debug_str      0x00000000    0xa5cad
 .debug_str     0x00000000    0x952cf atmel_start.o
                              0x95e55 (size before relaxing)
 .debug_str     0x000952cf      0x3e3 Device_Startup/startup_samc21.o
                              0x8bf5d (size before relaxing)
 .debug_str     0x000956b2     0x12f4 driver_init.o
                              0x971b5 (size before relaxing)
 .debug_str     0x000969a6       0x9c hal/src/hal_atomic.o
                              0x906ec (size before relaxing)
 .debug_str     0x00096a42       0x44 hal/src/hal_io.o
                              0x90799 (size before relaxing)
 .debug_str     0x00096a86      0x6a7 hal/src/hal_usart_os.o
                              0x95b6f (size before relaxing)
 .debug_str     0x0009712d       0x2a hal/utils/src/utils_assert.o
                              0x906fc (size before relaxing)
 .debug_str     0x00097157       0x24 hal/utils/src/utils_ringbuffer.o
                              0x907a2 (size before relaxing)
 .debug_str     0x0009717b     0x1a7f hpl/core/hpl_init.o
                              0x92f70 (size before relaxing)
 .debug_str     0x00098bfa      0x27b hpl/divas/hpl_divas.o
                              0x9096d (size before relaxing)
 .debug_str     0x00098e75      0x830 hpl/gclk/hpl_gclk.o
                              0x91046 (size before relaxing)
 .debug_str     0x000996a5       0x47 hpl/mclk/hpl_mclk.o
                              0x90a8f (size before relaxing)
 .debug_str     0x000996ec      0x528 hpl/osc32kctrl/hpl_osc32kctrl.o
                              0x90c0c (size before relaxing)
 .debug_str     0x00099c14      0x8db hpl/oscctrl/hpl_oscctrl.o
                              0x9102c (size before relaxing)
 .debug_str     0x0009a4ef     0x4a0c hpl/sercom/hpl_sercom.o
                              0x96460 (size before relaxing)
 .debug_str     0x0009eefb     0x409e main.o
                              0x99f8e (size before relaxing)
 .debug_str     0x000a2f99       0xa6 thirdparty/RTOS/freertos/FreeRTOSV8.2.3/rtos_port.o
                              0x94eab (size before relaxing)
 .debug_str     0x000a303f      0x247 thirdparty/RTOS/freertos/FreeRTOSV8.2.3/Source/list.o
                               0x93aa (size before relaxing)
 .debug_str     0x000a3286      0x3b7 thirdparty/RTOS/freertos/FreeRTOSV8.2.3/Source/portable/GCC/ARM_CM0/port.o
                               0x6fd3 (size before relaxing)
 .debug_str     0x000a363d      0x3d9 thirdparty/RTOS/freertos/FreeRTOSV8.2.3/Source/portable/MemMang/heap_2.o
                               0x9d56 (size before relaxing)
 .debug_str     0x000a3a16      0x7f9 thirdparty/RTOS/freertos/FreeRTOSV8.2.3/Source/queue.o
                               0xad98 (size before relaxing)
 .debug_str     0x000a420f     0x1589 thirdparty/RTOS/freertos/FreeRTOSV8.2.3/Source/tasks.o
                               0xc520 (size before relaxing)
 .debug_str     0x000a5798      0x3c3 thirdparty/RTOS/freertos/FreeRTOSV8.2.3/Source/timers.o
                               0xb0db (size before relaxing)
 .debug_str     0x000a5b5b       0xf8 Z_APP/app.o
                              0x9a3ec (size before relaxing)
 .debug_str     0x000a5c53       0x5a Z_APP/uart_helps.o
                              0x99e54 (size before relaxing)

.debug_frame    0x00000000     0x21f0
 .debug_frame   0x00000000       0x28 atmel_start.o
 .debug_frame   0x00000028       0x38 Device_Startup/startup_samc21.o
 .debug_frame   0x00000060       0x70 driver_init.o
 .debug_frame   0x000000d0       0x40 hal/src/hal_atomic.o
 .debug_frame   0x00000110       0x58 hal/src/hal_io.o
 .debug_frame   0x00000168      0x244 hal/src/hal_usart_os.o
 .debug_frame   0x000003ac       0x20 hal/utils/src/utils_assert.o
 .debug_frame   0x000003cc       0x94 hal/utils/src/utils_ringbuffer.o
 .debug_frame   0x00000460       0x28 hpl/core/hpl_init.o
 .debug_frame   0x00000488       0x90 hpl/divas/hpl_divas.o
 .debug_frame   0x00000518       0x30 hpl/gclk/hpl_gclk.o
 .debug_frame   0x00000548       0x20 hpl/mclk/hpl_mclk.o
 .debug_frame   0x00000568       0x20 hpl/osc32kctrl/hpl_osc32kctrl.o
 .debug_frame   0x00000588       0x30 hpl/oscctrl/hpl_oscctrl.o
 .debug_frame   0x000005b8      0xe48 hpl/sercom/hpl_sercom.o
 .debug_frame   0x00001400       0x28 main.o
 .debug_frame   0x00001428       0x74 thirdparty/RTOS/freertos/FreeRTOSV8.2.3/rtos_port.o
 .debug_frame   0x0000149c       0x6c thirdparty/RTOS/freertos/FreeRTOSV8.2.3/Source/list.o
 .debug_frame   0x00001508       0xf8 thirdparty/RTOS/freertos/FreeRTOSV8.2.3/Source/portable/GCC/ARM_CM0/port.o
 .debug_frame   0x00001600       0x68 thirdparty/RTOS/freertos/FreeRTOSV8.2.3/Source/portable/MemMang/heap_2.o
 .debug_frame   0x00001668      0x340 thirdparty/RTOS/freertos/FreeRTOSV8.2.3/Source/queue.o
 .debug_frame   0x000019a8      0x468 thirdparty/RTOS/freertos/FreeRTOSV8.2.3/Source/tasks.o
 .debug_frame   0x00001e10      0x14c thirdparty/RTOS/freertos/FreeRTOSV8.2.3/Source/timers.o
 .debug_frame   0x00001f5c      0x170 Z_APP/app.o
 .debug_frame   0x000020cc       0x90 Z_APP/uart_helps.o
 .debug_frame   0x0000215c       0x2c c:/program files (x86)/atmel/studio/7.0/toolchain/arm/arm-gnu-toolchain/bin/../lib/gcc/arm-none-eabi/6.3.1/../../../../arm-none-eabi/lib/thumb/v6-m\libc_nano.a(lib_a-init.o)
 .debug_frame   0x00002188       0x28 c:/program files (x86)/atmel/studio/7.0/toolchain/arm/arm-gnu-toolchain/bin/../lib/gcc/arm-none-eabi/6.3.1/../../../../arm-none-eabi/lib/thumb/v6-m\libc_nano.a(lib_a-memcpy-stub.o)
 .debug_frame   0x000021b0       0x20 c:/program files (x86)/atmel/studio/7.0/toolchain/arm/arm-gnu-toolchain/bin/../lib/gcc/arm-none-eabi/6.3.1/../../../../arm-none-eabi/lib/thumb/v6-m\libc_nano.a(lib_a-memset.o)
 .debug_frame   0x000021d0       0x20 c:/program files (x86)/atmel/studio/7.0/toolchain/arm/arm-gnu-toolchain/bin/../lib/gcc/arm-none-eabi/6.3.1/../../../../arm-none-eabi/lib/thumb/v6-m\libc_nano.a(lib_a-strcpy.o)
