
C21N_RTOS_UART_CAN.elf:     file format elf32-littlearm

Sections:
Idx Name          Size      VMA       LMA       File off  Algn
  0 .text         00002a2c  00000000  00000000  00010000  2**2
                  CONTENTS, ALLOC, LOAD, READONLY, CODE
  1 .relocate     0000001c  20000000  00002a2c  00020000  2**2
                  CONTENTS, ALLOC, LOAD, DATA
  2 .bss          00000c38  2000001c  00002a48  0002001c  2**2
                  ALLOC
  3 .stack        00002004  20000c54  00003680  0002001c  2**0
                  ALLOC
  4 .ARM.attributes 00000028  00000000  00000000  0002001c  2**0
                  CONTENTS, READONLY
  5 .comment      00000059  00000000  00000000  00020044  2**0
                  CONTENTS, READONLY
  6 .debug_info   0002a40f  00000000  00000000  0002009d  2**0
                  CONTENTS, READONLY, DEBUGGING
  7 .debug_abbrev 00004153  00000000  00000000  0004a4ac  2**0
                  CONTENTS, READONLY, DEBUGGING
  8 .debug_loc    0000f1cd  00000000  00000000  0004e5ff  2**0
                  CONTENTS, READONLY, DEBUGGING
  9 .debug_aranges 00000e00  00000000  00000000  0005d7cc  2**0
                  CONTENTS, READONLY, DEBUGGING
 10 .debug_ranges 00001370  00000000  00000000  0005e5cc  2**0
                  CONTENTS, READONLY, DEBUGGING
 11 .debug_macro  00022c32  00000000  00000000  0005f93c  2**0
                  CONTENTS, READONLY, DEBUGGING
 12 .debug_line   00017876  00000000  00000000  0008256e  2**0
                  CONTENTS, READONLY, DEBUGGING
 13 .debug_str    000a7bbd  00000000  00000000  00099de4  2**0
                  CONTENTS, READONLY, DEBUGGING
 14 .debug_frame  00002414  00000000  00000000  001419a4  2**2
                  CONTENTS, READONLY, DEBUGGING

Disassembly of section .text:

00000000 <exception_table>:
       0:	58 2c 00 20 2d 01 00 00 29 01 00 00 29 01 00 00     X,. -...)...)...
	...
      2c:	c1 11 00 00 00 00 00 00 00 00 00 00 75 12 00 00     ............u...
      3c:	b9 12 00 00 29 01 00 00 29 01 00 00 29 01 00 00     ....)...)...)...
      4c:	29 01 00 00 29 01 00 00 29 01 00 00 29 01 00 00     )...)...)...)...
      5c:	29 01 00 00 29 01 00 00 29 01 00 00 29 01 00 00     )...)...)...)...
      6c:	29 01 00 00 29 01 00 00 95 0f 00 00 29 01 00 00     )...).......)...
      7c:	d1 0b 00 00 29 01 00 00 29 01 00 00 29 01 00 00     ....)...)...)...
      8c:	29 01 00 00 29 01 00 00 29 01 00 00 29 01 00 00     )...)...)...)...
      9c:	29 01 00 00 29 01 00 00 29 01 00 00 29 01 00 00     )...)...)...)...
      ac:	29 01 00 00 29 01 00 00 29 01 00 00 29 01 00 00     )...)...)...)...

000000bc <__do_global_dtors_aux>:
      bc:	b510      	push	{r4, lr}
      be:	4c06      	ldr	r4, [pc, #24]	; (d8 <__do_global_dtors_aux+0x1c>)
      c0:	7823      	ldrb	r3, [r4, #0]
      c2:	2b00      	cmp	r3, #0
      c4:	d107      	bne.n	d6 <__do_global_dtors_aux+0x1a>
      c6:	4b05      	ldr	r3, [pc, #20]	; (dc <__do_global_dtors_aux+0x20>)
      c8:	2b00      	cmp	r3, #0
      ca:	d002      	beq.n	d2 <__do_global_dtors_aux+0x16>
      cc:	4804      	ldr	r0, [pc, #16]	; (e0 <__do_global_dtors_aux+0x24>)
      ce:	e000      	b.n	d2 <__do_global_dtors_aux+0x16>
      d0:	bf00      	nop
      d2:	2301      	movs	r3, #1
      d4:	7023      	strb	r3, [r4, #0]
      d6:	bd10      	pop	{r4, pc}
      d8:	2000001c 	.word	0x2000001c
      dc:	00000000 	.word	0x00000000
      e0:	00002a2c 	.word	0x00002a2c

000000e4 <frame_dummy>:
      e4:	4b08      	ldr	r3, [pc, #32]	; (108 <frame_dummy+0x24>)
      e6:	b510      	push	{r4, lr}
      e8:	2b00      	cmp	r3, #0
      ea:	d003      	beq.n	f4 <frame_dummy+0x10>
      ec:	4907      	ldr	r1, [pc, #28]	; (10c <frame_dummy+0x28>)
      ee:	4808      	ldr	r0, [pc, #32]	; (110 <frame_dummy+0x2c>)
      f0:	e000      	b.n	f4 <frame_dummy+0x10>
      f2:	bf00      	nop
      f4:	4807      	ldr	r0, [pc, #28]	; (114 <frame_dummy+0x30>)
      f6:	6803      	ldr	r3, [r0, #0]
      f8:	2b00      	cmp	r3, #0
      fa:	d100      	bne.n	fe <frame_dummy+0x1a>
      fc:	bd10      	pop	{r4, pc}
      fe:	4b06      	ldr	r3, [pc, #24]	; (118 <frame_dummy+0x34>)
     100:	2b00      	cmp	r3, #0
     102:	d0fb      	beq.n	fc <frame_dummy+0x18>
     104:	4798      	blx	r3
     106:	e7f9      	b.n	fc <frame_dummy+0x18>
     108:	00000000 	.word	0x00000000
     10c:	20000020 	.word	0x20000020
     110:	00002a2c 	.word	0x00002a2c
     114:	00002a2c 	.word	0x00002a2c
     118:	00000000 	.word	0x00000000

0000011c <atmel_start_init>:

/**
 * Initializes MCU, drivers and middleware in the project
 **/
void atmel_start_init(void)
{
     11c:	b510      	push	{r4, lr}
	system_init();
     11e:	4b01      	ldr	r3, [pc, #4]	; (124 <atmel_start_init+0x8>)
     120:	4798      	blx	r3
}
     122:	bd10      	pop	{r4, pc}
     124:	000002d9 	.word	0x000002d9

00000128 <Dummy_Handler>:

/**
 * \brief Default interrupt handler for unused IRQs.
 */
void Dummy_Handler(void)
{
     128:	e7fe      	b.n	128 <Dummy_Handler>
	...

0000012c <Reset_Handler>:
{
     12c:	b510      	push	{r4, lr}
        if (pSrc != pDest) {
     12e:	4a17      	ldr	r2, [pc, #92]	; (18c <Reset_Handler+0x60>)
     130:	4b17      	ldr	r3, [pc, #92]	; (190 <Reset_Handler+0x64>)
     132:	429a      	cmp	r2, r3
     134:	d011      	beq.n	15a <Reset_Handler+0x2e>
                for (; pDest < &_erelocate;) {
     136:	001a      	movs	r2, r3
     138:	4b16      	ldr	r3, [pc, #88]	; (194 <Reset_Handler+0x68>)
     13a:	429a      	cmp	r2, r3
     13c:	d20d      	bcs.n	15a <Reset_Handler+0x2e>
     13e:	4a16      	ldr	r2, [pc, #88]	; (198 <Reset_Handler+0x6c>)
     140:	3303      	adds	r3, #3
     142:	1a9b      	subs	r3, r3, r2
     144:	089b      	lsrs	r3, r3, #2
     146:	3301      	adds	r3, #1
     148:	009b      	lsls	r3, r3, #2
     14a:	2200      	movs	r2, #0
                        *pDest++ = *pSrc++;
     14c:	4810      	ldr	r0, [pc, #64]	; (190 <Reset_Handler+0x64>)
     14e:	490f      	ldr	r1, [pc, #60]	; (18c <Reset_Handler+0x60>)
     150:	588c      	ldr	r4, [r1, r2]
     152:	5084      	str	r4, [r0, r2]
     154:	3204      	adds	r2, #4
                for (; pDest < &_erelocate;) {
     156:	429a      	cmp	r2, r3
     158:	d1fa      	bne.n	150 <Reset_Handler+0x24>
        for (pDest = &_szero; pDest < &_ezero;) {
     15a:	4a10      	ldr	r2, [pc, #64]	; (19c <Reset_Handler+0x70>)
     15c:	4b10      	ldr	r3, [pc, #64]	; (1a0 <Reset_Handler+0x74>)
     15e:	429a      	cmp	r2, r3
     160:	d20a      	bcs.n	178 <Reset_Handler+0x4c>
     162:	43d3      	mvns	r3, r2
     164:	490e      	ldr	r1, [pc, #56]	; (1a0 <Reset_Handler+0x74>)
     166:	185b      	adds	r3, r3, r1
     168:	2103      	movs	r1, #3
     16a:	438b      	bics	r3, r1
     16c:	3304      	adds	r3, #4
     16e:	189b      	adds	r3, r3, r2
                *pDest++ = 0;
     170:	2100      	movs	r1, #0
     172:	c202      	stmia	r2!, {r1}
        for (pDest = &_szero; pDest < &_ezero;) {
     174:	4293      	cmp	r3, r2
     176:	d1fc      	bne.n	172 <Reset_Handler+0x46>
        SCB->VTOR = ((uint32_t) pSrc & SCB_VTOR_TBLOFF_Msk);
     178:	4a0a      	ldr	r2, [pc, #40]	; (1a4 <Reset_Handler+0x78>)
     17a:	21ff      	movs	r1, #255	; 0xff
     17c:	4b0a      	ldr	r3, [pc, #40]	; (1a8 <Reset_Handler+0x7c>)
     17e:	438b      	bics	r3, r1
     180:	6093      	str	r3, [r2, #8]
        __libc_init_array();
     182:	4b0a      	ldr	r3, [pc, #40]	; (1ac <Reset_Handler+0x80>)
     184:	4798      	blx	r3
        main();
     186:	4b0a      	ldr	r3, [pc, #40]	; (1b0 <Reset_Handler+0x84>)
     188:	4798      	blx	r3
     18a:	e7fe      	b.n	18a <Reset_Handler+0x5e>
     18c:	00002a2c 	.word	0x00002a2c
     190:	20000000 	.word	0x20000000
     194:	2000001c 	.word	0x2000001c
     198:	20000004 	.word	0x20000004
     19c:	2000001c 	.word	0x2000001c
     1a0:	20000c54 	.word	0x20000c54
     1a4:	e000ed00 	.word	0xe000ed00
     1a8:	00000000 	.word	0x00000000
     1ac:	000027e9 	.word	0x000027e9
     1b0:	00001001 	.word	0x00001001

000001b4 <EDBG_COM_PORT_init>:

struct usart_os_descriptor EDBG_COM;
uint8_t                    EDBG_COM_buffer[EDBG_COM_BUFFER_SIZE];

void EDBG_COM_PORT_init(void)
{
     1b4:	b530      	push	{r4, r5, lr}
static inline void hri_port_write_PINCFG_PMUXEN_bit(const void *const hw, uint8_t submodule_index, uint8_t index,
                                                    bool value)
{
	uint8_t tmp;
	PORT_CRITICAL_SECTION_ENTER();
	tmp = ((Port *)hw)->Group[submodule_index].PINCFG[index].reg;
     1b6:	2382      	movs	r3, #130	; 0x82
     1b8:	05db      	lsls	r3, r3, #23
     1ba:	22ca      	movs	r2, #202	; 0xca
     1bc:	5c99      	ldrb	r1, [r3, r2]
	tmp &= ~PORT_PINCFG_PMUXEN;
     1be:	2501      	movs	r5, #1
     1c0:	43a9      	bics	r1, r5
	tmp |= value << PORT_PINCFG_PMUXEN_Pos;
     1c2:	2401      	movs	r4, #1
     1c4:	4321      	orrs	r1, r4
     1c6:	b2c9      	uxtb	r1, r1
	((Port *)hw)->Group[submodule_index].PINCFG[index].reg = tmp;
     1c8:	5499      	strb	r1, [r3, r2]
	tmp = ((Port *)hw)->Group[submodule_index].PMUX[index].reg;
     1ca:	20b5      	movs	r0, #181	; 0xb5
     1cc:	5c19      	ldrb	r1, [r3, r0]
	tmp &= ~PORT_PMUX_PMUXE_Msk;
     1ce:	3abb      	subs	r2, #187	; 0xbb
     1d0:	4391      	bics	r1, r2
	tmp |= PORT_PMUX_PMUXE(data);
     1d2:	3a0c      	subs	r2, #12
     1d4:	4311      	orrs	r1, r2
	((Port *)hw)->Group[submodule_index].PMUX[index].reg = tmp;
     1d6:	5419      	strb	r1, [r3, r0]
	tmp = ((Port *)hw)->Group[submodule_index].PINCFG[index].reg;
     1d8:	21cb      	movs	r1, #203	; 0xcb
     1da:	5c5a      	ldrb	r2, [r3, r1]
	tmp &= ~PORT_PINCFG_PMUXEN;
     1dc:	43aa      	bics	r2, r5
	tmp |= value << PORT_PINCFG_PMUXEN_Pos;
     1de:	4322      	orrs	r2, r4
     1e0:	b2d2      	uxtb	r2, r2
	((Port *)hw)->Group[submodule_index].PINCFG[index].reg = tmp;
     1e2:	545a      	strb	r2, [r3, r1]
	tmp = ((Port *)hw)->Group[submodule_index].PMUX[index].reg;
     1e4:	5c1a      	ldrb	r2, [r3, r0]
	tmp &= ~PORT_PMUX_PMUXO_Msk;
     1e6:	39bc      	subs	r1, #188	; 0xbc
     1e8:	400a      	ands	r2, r1
	tmp |= PORT_PMUX_PMUXO(data);
     1ea:	3121      	adds	r1, #33	; 0x21
     1ec:	430a      	orrs	r2, r1
	((Port *)hw)->Group[submodule_index].PMUX[index].reg = tmp;
     1ee:	541a      	strb	r2, [r3, r0]

	gpio_set_pin_function(EDBG_COM_TX, PINMUX_PB10D_SERCOM4_PAD2);

	gpio_set_pin_function(EDBG_COM_RX, PINMUX_PB11D_SERCOM4_PAD3);
}
     1f0:	bd30      	pop	{r4, r5, pc}
	...

000001f4 <EDBG_COM_CLOCK_init>:
}

static inline void hri_gclk_write_PCHCTRL_reg(const void *const hw, uint8_t index, hri_gclk_pchctrl_reg_t data)
{
	GCLK_CRITICAL_SECTION_ENTER();
	((Gclk *)hw)->PCHCTRL[index].reg = data;
     1f4:	4b06      	ldr	r3, [pc, #24]	; (210 <EDBG_COM_CLOCK_init+0x1c>)
     1f6:	2140      	movs	r1, #64	; 0x40
     1f8:	22dc      	movs	r2, #220	; 0xdc
     1fa:	5099      	str	r1, [r3, r2]
     1fc:	3103      	adds	r1, #3
     1fe:	3a14      	subs	r2, #20
     200:	5099      	str	r1, [r3, r2]
}

static inline void hri_mclk_set_APBCMASK_SERCOM4_bit(const void *const hw)
{
	MCLK_CRITICAL_SECTION_ENTER();
	((Mclk *)hw)->APBCMASK.reg |= MCLK_APBCMASK_SERCOM4;
     202:	4a04      	ldr	r2, [pc, #16]	; (214 <EDBG_COM_CLOCK_init+0x20>)
     204:	69d3      	ldr	r3, [r2, #28]
     206:	3923      	subs	r1, #35	; 0x23
     208:	430b      	orrs	r3, r1
     20a:	61d3      	str	r3, [r2, #28]
{
	hri_gclk_write_PCHCTRL_reg(GCLK, SERCOM4_GCLK_ID_CORE, CONF_GCLK_SERCOM4_CORE_SRC | (1 << GCLK_PCHCTRL_CHEN_Pos));
	hri_gclk_write_PCHCTRL_reg(GCLK, SERCOM4_GCLK_ID_SLOW, CONF_GCLK_SERCOM4_SLOW_SRC | (1 << GCLK_PCHCTRL_CHEN_Pos));

	hri_mclk_set_APBCMASK_SERCOM4_bit(MCLK);
}
     20c:	4770      	bx	lr
     20e:	46c0      	nop			; (mov r8, r8)
     210:	40001c00 	.word	0x40001c00
     214:	40000800 	.word	0x40000800

00000218 <EDBG_COM_init>:

void EDBG_COM_init(void)
{
     218:	b530      	push	{r4, r5, lr}
     21a:	b083      	sub	sp, #12

	EDBG_COM_CLOCK_init();
     21c:	4b08      	ldr	r3, [pc, #32]	; (240 <EDBG_COM_init+0x28>)
     21e:	4798      	blx	r3
	usart_os_init(&EDBG_COM, SERCOM4, EDBG_COM_buffer, EDBG_COM_BUFFER_SIZE, (void *)NULL);
     220:	4c08      	ldr	r4, [pc, #32]	; (244 <EDBG_COM_init+0x2c>)
     222:	2300      	movs	r3, #0
     224:	9300      	str	r3, [sp, #0]
     226:	3310      	adds	r3, #16
     228:	4a07      	ldr	r2, [pc, #28]	; (248 <EDBG_COM_init+0x30>)
     22a:	4908      	ldr	r1, [pc, #32]	; (24c <EDBG_COM_init+0x34>)
     22c:	0020      	movs	r0, r4
     22e:	4d08      	ldr	r5, [pc, #32]	; (250 <EDBG_COM_init+0x38>)
     230:	47a8      	blx	r5
	usart_os_enable(&EDBG_COM);
     232:	0020      	movs	r0, r4
     234:	4b07      	ldr	r3, [pc, #28]	; (254 <EDBG_COM_init+0x3c>)
     236:	4798      	blx	r3
	EDBG_COM_PORT_init();
     238:	4b07      	ldr	r3, [pc, #28]	; (258 <EDBG_COM_init+0x40>)
     23a:	4798      	blx	r3
}
     23c:	b003      	add	sp, #12
     23e:	bd30      	pop	{r4, r5, pc}
     240:	000001f5 	.word	0x000001f5
     244:	20000bc0 	.word	0x20000bc0
     248:	20000bb0 	.word	0x20000bb0
     24c:	42001400 	.word	0x42001400
     250:	00000679 	.word	0x00000679
     254:	00000781 	.word	0x00000781
     258:	000001b5 	.word	0x000001b5

0000025c <CAN_0_PORT_init>:

void CAN_0_PORT_init(void)
{
     25c:	b530      	push	{r4, r5, lr}
	tmp = ((Port *)hw)->Group[submodule_index].PINCFG[index].reg;
     25e:	2382      	movs	r3, #130	; 0x82
     260:	05db      	lsls	r3, r3, #23
     262:	2259      	movs	r2, #89	; 0x59
     264:	5c99      	ldrb	r1, [r3, r2]
	tmp &= ~PORT_PINCFG_PMUXEN;
     266:	2501      	movs	r5, #1
     268:	43a9      	bics	r1, r5
	tmp |= value << PORT_PINCFG_PMUXEN_Pos;
     26a:	2401      	movs	r4, #1
     26c:	4321      	orrs	r1, r4
     26e:	b2c9      	uxtb	r1, r1
	((Port *)hw)->Group[submodule_index].PINCFG[index].reg = tmp;
     270:	5499      	strb	r1, [r3, r2]
	tmp = ((Port *)hw)->Group[submodule_index].PMUX[index].reg;
     272:	203c      	movs	r0, #60	; 0x3c
     274:	5c19      	ldrb	r1, [r3, r0]
	tmp &= ~PORT_PMUX_PMUXO_Msk;
     276:	3a4a      	subs	r2, #74	; 0x4a
     278:	4011      	ands	r1, r2
	tmp |= PORT_PMUX_PMUXO(data);
     27a:	3251      	adds	r2, #81	; 0x51
     27c:	4311      	orrs	r1, r2
	((Port *)hw)->Group[submodule_index].PMUX[index].reg = tmp;
     27e:	5419      	strb	r1, [r3, r0]
	tmp = ((Port *)hw)->Group[submodule_index].PINCFG[index].reg;
     280:	2158      	movs	r1, #88	; 0x58
     282:	5c5a      	ldrb	r2, [r3, r1]
	tmp &= ~PORT_PINCFG_PMUXEN;
     284:	43aa      	bics	r2, r5
	tmp |= value << PORT_PINCFG_PMUXEN_Pos;
     286:	4322      	orrs	r2, r4
     288:	b2d2      	uxtb	r2, r2
	((Port *)hw)->Group[submodule_index].PINCFG[index].reg = tmp;
     28a:	545a      	strb	r2, [r3, r1]
	tmp = ((Port *)hw)->Group[submodule_index].PMUX[index].reg;
     28c:	5c1a      	ldrb	r2, [r3, r0]
	tmp &= ~PORT_PMUX_PMUXE_Msk;
     28e:	3949      	subs	r1, #73	; 0x49
     290:	438a      	bics	r2, r1
	tmp |= PORT_PMUX_PMUXE(data);
     292:	3909      	subs	r1, #9
     294:	430a      	orrs	r2, r1
	((Port *)hw)->Group[submodule_index].PMUX[index].reg = tmp;
     296:	541a      	strb	r2, [r3, r0]

	gpio_set_pin_function(PA25, PINMUX_PA25G_CAN0_RX);

	gpio_set_pin_function(PA24, PINMUX_PA24G_CAN0_TX);
}
     298:	bd30      	pop	{r4, r5, pc}
	...

0000029c <CAN_0_init>:
 * \brief CAN initialization function
 *
 * Enables CAN peripheral, clocks and initializes CAN driver
 */
void CAN_0_init(void)
{
     29c:	b510      	push	{r4, lr}
	((Mclk *)hw)->AHBMASK.reg |= MCLK_AHBMASK_CAN0;
     29e:	4a08      	ldr	r2, [pc, #32]	; (2c0 <CAN_0_init+0x24>)
     2a0:	6911      	ldr	r1, [r2, #16]
     2a2:	2380      	movs	r3, #128	; 0x80
     2a4:	005b      	lsls	r3, r3, #1
     2a6:	430b      	orrs	r3, r1
     2a8:	6113      	str	r3, [r2, #16]
     2aa:	2140      	movs	r1, #64	; 0x40
     2ac:	23e8      	movs	r3, #232	; 0xe8
     2ae:	4a05      	ldr	r2, [pc, #20]	; (2c4 <CAN_0_init+0x28>)
     2b0:	50d1      	str	r1, [r2, r3]
	hri_mclk_set_AHBMASK_CAN0_bit(MCLK);
	hri_gclk_write_PCHCTRL_reg(GCLK, CAN0_GCLK_ID, CONF_GCLK_CAN0_SRC | (1 << GCLK_PCHCTRL_CHEN_Pos));
	can_async_init(&CAN_0, CAN0);
     2b2:	4905      	ldr	r1, [pc, #20]	; (2c8 <CAN_0_init+0x2c>)
     2b4:	4805      	ldr	r0, [pc, #20]	; (2cc <CAN_0_init+0x30>)
     2b6:	4b06      	ldr	r3, [pc, #24]	; (2d0 <CAN_0_init+0x34>)
     2b8:	4798      	blx	r3
	CAN_0_PORT_init();
     2ba:	4b06      	ldr	r3, [pc, #24]	; (2d4 <CAN_0_init+0x38>)
     2bc:	4798      	blx	r3
}
     2be:	bd10      	pop	{r4, pc}
     2c0:	40000800 	.word	0x40000800
     2c4:	40001c00 	.word	0x40001c00
     2c8:	42001c00 	.word	0x42001c00
     2cc:	20000b88 	.word	0x20000b88
     2d0:	00000369 	.word	0x00000369
     2d4:	0000025d 	.word	0x0000025d

000002d8 <system_init>:

void system_init(void)
{
     2d8:	b510      	push	{r4, lr}
 * Currently the following initialization functions are supported:
 *  - System clock initialization
 */
static inline void init_mcu(void)
{
	_init_chip();
     2da:	4b0f      	ldr	r3, [pc, #60]	; (318 <system_init+0x40>)
     2dc:	4798      	blx	r3
	((Port *)hw)->Group[submodule_index].OUTSET.reg = mask;
     2de:	23c0      	movs	r3, #192	; 0xc0
     2e0:	05db      	lsls	r3, r3, #23
     2e2:	2220      	movs	r2, #32
     2e4:	218c      	movs	r1, #140	; 0x8c
     2e6:	0049      	lsls	r1, r1, #1
     2e8:	505a      	str	r2, [r3, r1]
	((Port *)hw)->Group[submodule_index].DIRSET.reg = mask;
     2ea:	3910      	subs	r1, #16
     2ec:	505a      	str	r2, [r3, r1]

static inline void hri_port_write_WRCONFIG_reg(const void *const hw, uint8_t submodule_index,
                                               hri_port_wrconfig_reg_t data)
{
	PORT_CRITICAL_SECTION_ENTER();
	((Port *)hw)->Group[submodule_index].WRCONFIG.reg = data;
     2ee:	2382      	movs	r3, #130	; 0x82
     2f0:	05db      	lsls	r3, r3, #23
     2f2:	3209      	adds	r2, #9
     2f4:	32ff      	adds	r2, #255	; 0xff
     2f6:	4909      	ldr	r1, [pc, #36]	; (31c <system_init+0x44>)
     2f8:	5099      	str	r1, [r3, r2]
     2fa:	21c0      	movs	r1, #192	; 0xc0
     2fc:	0609      	lsls	r1, r1, #24
     2fe:	5099      	str	r1, [r3, r2]
	tmp = ((Port *)hw)->Group[submodule_index].PINCFG[index].reg;
     300:	2146      	movs	r1, #70	; 0x46
     302:	31ff      	adds	r1, #255	; 0xff
     304:	5c5a      	ldrb	r2, [r3, r1]
	tmp &= ~PORT_PINCFG_PMUXEN;
     306:	2001      	movs	r0, #1
     308:	4382      	bics	r2, r0
	((Port *)hw)->Group[submodule_index].PINCFG[index].reg = tmp;
     30a:	545a      	strb	r2, [r3, r1]
	// Set pin direction to output
	gpio_set_pin_direction(LED0, GPIO_DIRECTION_OUT);

	gpio_set_pin_function(LED0, GPIO_PIN_FUNCTION_OFF);

	EDBG_COM_init();
     30c:	4b04      	ldr	r3, [pc, #16]	; (320 <system_init+0x48>)
     30e:	4798      	blx	r3
	CAN_0_init();
     310:	4b04      	ldr	r3, [pc, #16]	; (324 <system_init+0x4c>)
     312:	4798      	blx	r3
}
     314:	bd10      	pop	{r4, pc}
     316:	46c0      	nop			; (mov r8, r8)
     318:	00000c65 	.word	0x00000c65
     31c:	40000020 	.word	0x40000020
     320:	00000219 	.word	0x00000219
     324:	0000029d 	.word	0x0000029d

00000328 <atomic_enter_critical>:
 */
__attribute__((always_inline)) __STATIC_INLINE uint32_t __get_PRIMASK(void)
{
  uint32_t result;

  __ASM volatile ("MRS %0, primask" : "=r" (result) );
     328:	f3ef 8310 	mrs	r3, PRIMASK
/**
 * \brief Disable interrupts, enter critical section
 */
void atomic_enter_critical(hal_atomic_t volatile *atomic)
{
	*atomic = __get_PRIMASK();
     32c:	6003      	str	r3, [r0, #0]
  __ASM volatile ("cpsid i" : : : "memory");
     32e:	b672      	cpsid	i
  \details Ensures the apparent order of the explicit memory operations before
           and after the instruction, without ensuring their completion.
 */
__attribute__((always_inline)) __STATIC_INLINE void __DMB(void)
{
  __ASM volatile ("dmb 0xF":::"memory");
     330:	f3bf 8f5f 	dmb	sy
	__disable_irq();
	__DMB();
}
     334:	4770      	bx	lr

00000336 <atomic_leave_critical>:
     336:	f3bf 8f5f 	dmb	sy
 * \brief Exit atomic section
 */
void atomic_leave_critical(hal_atomic_t volatile *atomic)
{
	__DMB();
	__set_PRIMASK(*atomic);
     33a:	6803      	ldr	r3, [r0, #0]
  __ASM volatile ("MSR primask, %0" : : "r" (priMask) : "memory");
     33c:	f383 8810 	msr	PRIMASK, r3
}
     340:	4770      	bx	lr

00000342 <can_tx_done>:

/**
 * \internal Callback of CAN Message Write finished
 */
static void can_tx_done(struct _can_async_device *dev)
{
     342:	b510      	push	{r4, lr}
	struct can_async_descriptor *const descr = CONTAINER_OF(dev, struct can_async_descriptor, dev);

	if (descr->cb.tx_done) {
     344:	69c3      	ldr	r3, [r0, #28]
     346:	2b00      	cmp	r3, #0
     348:	d000      	beq.n	34c <can_tx_done+0xa>
		descr->cb.tx_done(descr);
     34a:	4798      	blx	r3
	}
}
     34c:	bd10      	pop	{r4, pc}

0000034e <can_rx_done>:

/**
 * \internal Callback of CAN Message Read finished
 */
static void can_rx_done(struct _can_async_device *dev)
{
     34e:	b510      	push	{r4, lr}
	struct can_async_descriptor *const descr = CONTAINER_OF(dev, struct can_async_descriptor, dev);

	if (descr->cb.rx_done) {
     350:	6a03      	ldr	r3, [r0, #32]
     352:	2b00      	cmp	r3, #0
     354:	d000      	beq.n	358 <can_rx_done+0xa>
		descr->cb.rx_done(descr);
     356:	4798      	blx	r3
	}
}
     358:	bd10      	pop	{r4, pc}

0000035a <can_irq_handler>:

/**
 * \internal Callback of CAN Interrupt
 */
static void can_irq_handler(struct _can_async_device *dev, enum can_async_interrupt_type type)
{
     35a:	b510      	push	{r4, lr}
	struct can_async_descriptor *const descr = CONTAINER_OF(dev, struct can_async_descriptor, dev);

	if (descr->cb.irq_handler) {
     35c:	6a43      	ldr	r3, [r0, #36]	; 0x24
     35e:	2b00      	cmp	r3, #0
     360:	d000      	beq.n	364 <can_irq_handler+0xa>
		descr->cb.irq_handler(descr, type);
     362:	4798      	blx	r3
	}
}
     364:	bd10      	pop	{r4, pc}
	...

00000368 <can_async_init>:
{
     368:	b570      	push	{r4, r5, r6, lr}
     36a:	0005      	movs	r5, r0
     36c:	000c      	movs	r4, r1
	ASSERT(descr && hw);
     36e:	2800      	cmp	r0, #0
     370:	d014      	beq.n	39c <can_async_init+0x34>
     372:	0008      	movs	r0, r1
     374:	1e43      	subs	r3, r0, #1
     376:	4198      	sbcs	r0, r3
     378:	b2c0      	uxtb	r0, r0
     37a:	2241      	movs	r2, #65	; 0x41
     37c:	4908      	ldr	r1, [pc, #32]	; (3a0 <can_async_init+0x38>)
     37e:	4b09      	ldr	r3, [pc, #36]	; (3a4 <can_async_init+0x3c>)
     380:	4798      	blx	r3
	rc = _can_async_init(&descr->dev, hw);
     382:	0021      	movs	r1, r4
     384:	0028      	movs	r0, r5
     386:	4b08      	ldr	r3, [pc, #32]	; (3a8 <can_async_init+0x40>)
     388:	4798      	blx	r3
	if (rc) {
     38a:	2800      	cmp	r0, #0
     38c:	d105      	bne.n	39a <can_async_init+0x32>
	descr->dev.cb.tx_done     = can_tx_done;
     38e:	4b07      	ldr	r3, [pc, #28]	; (3ac <can_async_init+0x44>)
     390:	606b      	str	r3, [r5, #4]
	descr->dev.cb.rx_done     = can_rx_done;
     392:	4b07      	ldr	r3, [pc, #28]	; (3b0 <can_async_init+0x48>)
     394:	60ab      	str	r3, [r5, #8]
	descr->dev.cb.irq_handler = can_irq_handler;
     396:	4b07      	ldr	r3, [pc, #28]	; (3b4 <can_async_init+0x4c>)
     398:	60eb      	str	r3, [r5, #12]
}
     39a:	bd70      	pop	{r4, r5, r6, pc}
     39c:	2000      	movs	r0, #0
     39e:	e7ec      	b.n	37a <can_async_init+0x12>
     3a0:	00002860 	.word	0x00002860
     3a4:	000007ad 	.word	0x000007ad
     3a8:	000008b5 	.word	0x000008b5
     3ac:	00000343 	.word	0x00000343
     3b0:	0000034f 	.word	0x0000034f
     3b4:	0000035b 	.word	0x0000035b

000003b8 <can_async_enable>:
{
     3b8:	b510      	push	{r4, lr}
     3ba:	0004      	movs	r4, r0
	ASSERT(descr);
     3bc:	1e43      	subs	r3, r0, #1
     3be:	4198      	sbcs	r0, r3
     3c0:	b2c0      	uxtb	r0, r0
     3c2:	225c      	movs	r2, #92	; 0x5c
     3c4:	4903      	ldr	r1, [pc, #12]	; (3d4 <can_async_enable+0x1c>)
     3c6:	4b04      	ldr	r3, [pc, #16]	; (3d8 <can_async_enable+0x20>)
     3c8:	4798      	blx	r3
	return _can_async_enable(&descr->dev);
     3ca:	0020      	movs	r0, r4
     3cc:	4b03      	ldr	r3, [pc, #12]	; (3dc <can_async_enable+0x24>)
     3ce:	4798      	blx	r3
}
     3d0:	bd10      	pop	{r4, pc}
     3d2:	46c0      	nop			; (mov r8, r8)
     3d4:	00002860 	.word	0x00002860
     3d8:	000007ad 	.word	0x000007ad
     3dc:	000009c5 	.word	0x000009c5

000003e0 <can_async_write>:
{
     3e0:	b570      	push	{r4, r5, r6, lr}
     3e2:	0004      	movs	r4, r0
     3e4:	000d      	movs	r5, r1
	ASSERT(descr && msg);
     3e6:	2800      	cmp	r0, #0
     3e8:	d00c      	beq.n	404 <can_async_write+0x24>
     3ea:	0008      	movs	r0, r1
     3ec:	1e43      	subs	r3, r0, #1
     3ee:	4198      	sbcs	r0, r3
     3f0:	b2c0      	uxtb	r0, r0
     3f2:	2277      	movs	r2, #119	; 0x77
     3f4:	4904      	ldr	r1, [pc, #16]	; (408 <can_async_write+0x28>)
     3f6:	4b05      	ldr	r3, [pc, #20]	; (40c <can_async_write+0x2c>)
     3f8:	4798      	blx	r3
	return _can_async_write(&descr->dev, msg);
     3fa:	0029      	movs	r1, r5
     3fc:	0020      	movs	r0, r4
     3fe:	4b04      	ldr	r3, [pc, #16]	; (410 <can_async_write+0x30>)
     400:	4798      	blx	r3
}
     402:	bd70      	pop	{r4, r5, r6, pc}
     404:	2000      	movs	r0, #0
     406:	e7f4      	b.n	3f2 <can_async_write+0x12>
     408:	00002860 	.word	0x00002860
     40c:	000007ad 	.word	0x000007ad
     410:	000009d5 	.word	0x000009d5

00000414 <can_async_register_callback>:
{
     414:	b570      	push	{r4, r5, r6, lr}
     416:	0006      	movs	r6, r0
     418:	000d      	movs	r5, r1
     41a:	0014      	movs	r4, r2
	ASSERT(descr);
     41c:	1e43      	subs	r3, r0, #1
     41e:	4198      	sbcs	r0, r3
     420:	b2c0      	uxtb	r0, r0
     422:	2281      	movs	r2, #129	; 0x81
     424:	490c      	ldr	r1, [pc, #48]	; (458 <can_async_register_callback+0x44>)
     426:	4b0d      	ldr	r3, [pc, #52]	; (45c <can_async_register_callback+0x48>)
     428:	4798      	blx	r3
	switch (type) {
     42a:	2d01      	cmp	r5, #1
     42c:	d010      	beq.n	450 <can_async_register_callback+0x3c>
     42e:	2d00      	cmp	r5, #0
     430:	d004      	beq.n	43c <can_async_register_callback+0x28>
     432:	2d02      	cmp	r5, #2
     434:	d00e      	beq.n	454 <can_async_register_callback+0x40>
		return ERR_INVALID_ARG;
     436:	200d      	movs	r0, #13
     438:	4240      	negs	r0, r0
     43a:	e008      	b.n	44e <can_async_register_callback+0x3a>
		descr->cb.rx_done = (cb != NULL) ? (can_cb_t)cb : NULL;
     43c:	6234      	str	r4, [r6, #32]
	_can_async_set_irq_state(&descr->dev, type, NULL != cb);
     43e:	1e62      	subs	r2, r4, #1
     440:	4194      	sbcs	r4, r2
     442:	b2e2      	uxtb	r2, r4
     444:	0029      	movs	r1, r5
     446:	0030      	movs	r0, r6
     448:	4b05      	ldr	r3, [pc, #20]	; (460 <can_async_register_callback+0x4c>)
     44a:	4798      	blx	r3
	return ERR_NONE;
     44c:	2000      	movs	r0, #0
}
     44e:	bd70      	pop	{r4, r5, r6, pc}
		descr->cb.tx_done = (cb != NULL) ? (can_cb_t)cb : NULL;
     450:	61f4      	str	r4, [r6, #28]
		break;
     452:	e7f4      	b.n	43e <can_async_register_callback+0x2a>
		    = (cb != NULL) ? (void (*)(struct can_async_descriptor *const, enum can_async_interrupt_type))cb : NULL;
     454:	6274      	str	r4, [r6, #36]	; 0x24
		break;
     456:	e7f2      	b.n	43e <can_async_register_callback+0x2a>
     458:	00002860 	.word	0x00002860
     45c:	000007ad 	.word	0x000007ad
     460:	00000afd 	.word	0x00000afd

00000464 <can_async_set_filter>:
{
     464:	b5f8      	push	{r3, r4, r5, r6, r7, lr}
     466:	0004      	movs	r4, r0
     468:	000d      	movs	r5, r1
     46a:	0016      	movs	r6, r2
     46c:	001f      	movs	r7, r3
	ASSERT(descr);
     46e:	1e43      	subs	r3, r0, #1
     470:	4198      	sbcs	r0, r3
     472:	b2c0      	uxtb	r0, r0
     474:	22b8      	movs	r2, #184	; 0xb8
     476:	4905      	ldr	r1, [pc, #20]	; (48c <can_async_set_filter+0x28>)
     478:	4b05      	ldr	r3, [pc, #20]	; (490 <can_async_set_filter+0x2c>)
     47a:	4798      	blx	r3
	return _can_async_set_filter(&descr->dev, index, fmt, filter);
     47c:	003b      	movs	r3, r7
     47e:	0032      	movs	r2, r6
     480:	0029      	movs	r1, r5
     482:	0020      	movs	r0, r4
     484:	4c03      	ldr	r4, [pc, #12]	; (494 <can_async_set_filter+0x30>)
     486:	47a0      	blx	r4
}
     488:	bdf8      	pop	{r3, r4, r5, r6, r7, pc}
     48a:	46c0      	nop			; (mov r8, r8)
     48c:	00002860 	.word	0x00002860
     490:	000007ad 	.word	0x000007ad
     494:	00000b49 	.word	0x00000b49

00000498 <delay_ms>:

/**
 * \brief Perform delay in ms
 */
void delay_ms(const uint16_t ms)
{
     498:	b510      	push	{r4, lr}
	_delay_cycles(hardware, _get_cycles_for_ms(ms));
     49a:	4b04      	ldr	r3, [pc, #16]	; (4ac <delay_ms+0x14>)
     49c:	681c      	ldr	r4, [r3, #0]
     49e:	4b04      	ldr	r3, [pc, #16]	; (4b0 <delay_ms+0x18>)
     4a0:	4798      	blx	r3
     4a2:	0001      	movs	r1, r0
     4a4:	0020      	movs	r0, r4
     4a6:	4b03      	ldr	r3, [pc, #12]	; (4b4 <delay_ms+0x1c>)
     4a8:	4798      	blx	r3
}
     4aa:	bd10      	pop	{r4, pc}
     4ac:	20000038 	.word	0x20000038
     4b0:	00000c3d 	.word	0x00000c3d
     4b4:	00000c5d 	.word	0x00000c5d

000004b8 <io_write>:

/**
 * \brief I/O write interface
 */
int32_t io_write(struct io_descriptor *const io_descr, const uint8_t *const buf, const uint16_t length)
{
     4b8:	b570      	push	{r4, r5, r6, lr}
     4ba:	0006      	movs	r6, r0
     4bc:	000c      	movs	r4, r1
     4be:	0015      	movs	r5, r2
	ASSERT(io_descr && buf);
     4c0:	2800      	cmp	r0, #0
     4c2:	d00d      	beq.n	4e0 <io_write+0x28>
     4c4:	0008      	movs	r0, r1
     4c6:	1e43      	subs	r3, r0, #1
     4c8:	4198      	sbcs	r0, r3
     4ca:	b2c0      	uxtb	r0, r0
     4cc:	2234      	movs	r2, #52	; 0x34
     4ce:	4905      	ldr	r1, [pc, #20]	; (4e4 <io_write+0x2c>)
     4d0:	4b05      	ldr	r3, [pc, #20]	; (4e8 <io_write+0x30>)
     4d2:	4798      	blx	r3
	return io_descr->write(io_descr, buf, length);
     4d4:	6833      	ldr	r3, [r6, #0]
     4d6:	002a      	movs	r2, r5
     4d8:	0021      	movs	r1, r4
     4da:	0030      	movs	r0, r6
     4dc:	4798      	blx	r3
}
     4de:	bd70      	pop	{r4, r5, r6, pc}
     4e0:	2000      	movs	r0, #0
     4e2:	e7f3      	b.n	4cc <io_write+0x14>
     4e4:	0000287c 	.word	0x0000287c
     4e8:	000007ad 	.word	0x000007ad

000004ec <usart_os_error>:
 * \brief Process error interrupt
 *
 * \param[in] device The pointer to device structure
 */
static void usart_os_error(struct _usart_async_device *device)
{
     4ec:	b510      	push	{r4, lr}
	struct usart_os_descriptor *descr = CONTAINER_OF(device, struct usart_os_descriptor, device);

	sem_up(&descr->rx_sem);
     4ee:	303c      	adds	r0, #60	; 0x3c
     4f0:	4b01      	ldr	r3, [pc, #4]	; (4f8 <usart_os_error+0xc>)
     4f2:	4798      	blx	r3
}
     4f4:	bd10      	pop	{r4, pc}
     4f6:	46c0      	nop			; (mov r8, r8)
     4f8:	00001065 	.word	0x00001065

000004fc <usart_os_transmission_complete>:
{
     4fc:	b510      	push	{r4, lr}
	sem_up(&descr->tx_sem);
     4fe:	3040      	adds	r0, #64	; 0x40
     500:	4b01      	ldr	r3, [pc, #4]	; (508 <usart_os_transmission_complete+0xc>)
     502:	4798      	blx	r3
}
     504:	bd10      	pop	{r4, pc}
     506:	46c0      	nop			; (mov r8, r8)
     508:	00001065 	.word	0x00001065

0000050c <usart_os_fill_rx_buffer>:
{
     50c:	b570      	push	{r4, r5, r6, lr}
	if (descr->rx_buffer == NULL) {
     50e:	6ac2      	ldr	r2, [r0, #44]	; 0x2c
     510:	2a00      	cmp	r2, #0
     512:	d00a      	beq.n	52a <usart_os_fill_rx_buffer+0x1e>
		descr->rx_buffer[descr->rx_size++] = data;
     514:	0003      	movs	r3, r0
     516:	8e04      	ldrh	r4, [r0, #48]	; 0x30
     518:	1c65      	adds	r5, r4, #1
     51a:	8605      	strh	r5, [r0, #48]	; 0x30
     51c:	5511      	strb	r1, [r2, r4]
		if (descr->rx_size >= descr->rx_length) {
     51e:	8e02      	ldrh	r2, [r0, #48]	; 0x30
		descr->rx_buffer[descr->rx_size++] = data;
     520:	3b08      	subs	r3, #8
		if (descr->rx_size >= descr->rx_length) {
     522:	8f5b      	ldrh	r3, [r3, #58]	; 0x3a
     524:	429a      	cmp	r2, r3
     526:	d204      	bcs.n	532 <usart_os_fill_rx_buffer+0x26>
}
     528:	bd70      	pop	{r4, r5, r6, pc}
		ringbuffer_put(&descr->rx, data);
     52a:	301c      	adds	r0, #28
     52c:	4b04      	ldr	r3, [pc, #16]	; (540 <usart_os_fill_rx_buffer+0x34>)
     52e:	4798      	blx	r3
     530:	e7fa      	b.n	528 <usart_os_fill_rx_buffer+0x1c>
			descr->rx_buffer = NULL;
     532:	2200      	movs	r2, #0
     534:	62c2      	str	r2, [r0, #44]	; 0x2c
			sem_up(&descr->rx_sem);
     536:	303c      	adds	r0, #60	; 0x3c
     538:	4b02      	ldr	r3, [pc, #8]	; (544 <usart_os_fill_rx_buffer+0x38>)
     53a:	4798      	blx	r3
}
     53c:	e7f4      	b.n	528 <usart_os_fill_rx_buffer+0x1c>
     53e:	46c0      	nop			; (mov r8, r8)
     540:	00000851 	.word	0x00000851
     544:	00001065 	.word	0x00001065

00000548 <usart_os_process_byte_sent>:
{
     548:	b570      	push	{r4, r5, r6, lr}
     54a:	0004      	movs	r4, r0
	if (descr->tx_por != descr->tx_buffer_length) {
     54c:	8f03      	ldrh	r3, [r0, #56]	; 0x38
     54e:	8f42      	ldrh	r2, [r0, #58]	; 0x3a
     550:	429a      	cmp	r2, r3
     552:	d00d      	beq.n	570 <usart_os_process_byte_sent+0x28>
		_usart_async_write_byte(&descr->device, descr->tx_buffer[descr->tx_por++]);
     554:	0002      	movs	r2, r0
     556:	6b41      	ldr	r1, [r0, #52]	; 0x34
     558:	3a08      	subs	r2, #8
     55a:	1c5d      	adds	r5, r3, #1
     55c:	2040      	movs	r0, #64	; 0x40
     55e:	5215      	strh	r5, [r2, r0]
     560:	5cc9      	ldrb	r1, [r1, r3]
     562:	0020      	movs	r0, r4
     564:	4b04      	ldr	r3, [pc, #16]	; (578 <usart_os_process_byte_sent+0x30>)
     566:	4798      	blx	r3
		_usart_async_enable_byte_sent_irq(&descr->device);
     568:	0020      	movs	r0, r4
     56a:	4b04      	ldr	r3, [pc, #16]	; (57c <usart_os_process_byte_sent+0x34>)
     56c:	4798      	blx	r3
}
     56e:	bd70      	pop	{r4, r5, r6, pc}
		_usart_async_enable_tx_done_irq(&descr->device);
     570:	4b03      	ldr	r3, [pc, #12]	; (580 <usart_os_process_byte_sent+0x38>)
     572:	4798      	blx	r3
}
     574:	e7fb      	b.n	56e <usart_os_process_byte_sent+0x26>
     576:	46c0      	nop			; (mov r8, r8)
     578:	00000f09 	.word	0x00000f09
     57c:	00000f11 	.word	0x00000f11
     580:	00000f19 	.word	0x00000f19

00000584 <usart_os_write>:
{
     584:	b570      	push	{r4, r5, r6, lr}
     586:	0004      	movs	r4, r0
     588:	0015      	movs	r5, r2
	descr->tx_buffer        = (uint8_t *)buf;
     58a:	63c1      	str	r1, [r0, #60]	; 0x3c
	descr->tx_buffer_length = length;
     58c:	2342      	movs	r3, #66	; 0x42
     58e:	52e2      	strh	r2, [r4, r3]
	descr->tx_por           = 0;
     590:	2200      	movs	r2, #0
     592:	3b02      	subs	r3, #2
     594:	52c2      	strh	r2, [r0, r3]
	_usart_async_enable_byte_sent_irq(&descr->device);
     596:	3008      	adds	r0, #8
     598:	4b07      	ldr	r3, [pc, #28]	; (5b8 <usart_os_write+0x34>)
     59a:	4798      	blx	r3
	return sem_down(&descr->tx_sem, ~0) == 0 ? length : ERR_TIMEOUT;
     59c:	0020      	movs	r0, r4
     59e:	3048      	adds	r0, #72	; 0x48
     5a0:	2101      	movs	r1, #1
     5a2:	4249      	negs	r1, r1
     5a4:	4b05      	ldr	r3, [pc, #20]	; (5bc <usart_os_write+0x38>)
     5a6:	4798      	blx	r3
     5a8:	2800      	cmp	r0, #0
     5aa:	d101      	bne.n	5b0 <usart_os_write+0x2c>
     5ac:	0028      	movs	r0, r5
}
     5ae:	bd70      	pop	{r4, r5, r6, pc}
	return sem_down(&descr->tx_sem, ~0) == 0 ? length : ERR_TIMEOUT;
     5b0:	2008      	movs	r0, #8
     5b2:	4240      	negs	r0, r0
     5b4:	e7fb      	b.n	5ae <usart_os_write+0x2a>
     5b6:	46c0      	nop			; (mov r8, r8)
     5b8:	00000f11 	.word	0x00000f11
     5bc:	000010a9 	.word	0x000010a9

000005c0 <usart_os_read>:
{
     5c0:	b5f0      	push	{r4, r5, r6, r7, lr}
     5c2:	b085      	sub	sp, #20
     5c4:	0004      	movs	r4, r0
     5c6:	000e      	movs	r6, r1
     5c8:	0017      	movs	r7, r2
	ASSERT(buf);
     5ca:	0008      	movs	r0, r1
     5cc:	1e43      	subs	r3, r0, #1
     5ce:	4198      	sbcs	r0, r3
     5d0:	b2c0      	uxtb	r0, r0
     5d2:	2292      	movs	r2, #146	; 0x92
     5d4:	0052      	lsls	r2, r2, #1
     5d6:	4921      	ldr	r1, [pc, #132]	; (65c <usart_os_read+0x9c>)
     5d8:	4b21      	ldr	r3, [pc, #132]	; (660 <usart_os_read+0xa0>)
     5da:	4798      	blx	r3
	if (ringbuffer_num(&descr->rx) < length) {
     5dc:	2324      	movs	r3, #36	; 0x24
     5de:	469c      	mov	ip, r3
     5e0:	44a4      	add	ip, r4
     5e2:	4663      	mov	r3, ip
     5e4:	9301      	str	r3, [sp, #4]
     5e6:	4660      	mov	r0, ip
     5e8:	4b1e      	ldr	r3, [pc, #120]	; (664 <usart_os_read+0xa4>)
     5ea:	4798      	blx	r3
     5ec:	42b8      	cmp	r0, r7
     5ee:	d310      	bcc.n	612 <usart_os_read+0x52>
		while (was_read < length) {
     5f0:	2f00      	cmp	r7, #0
     5f2:	d00b      	beq.n	60c <usart_os_read+0x4c>
     5f4:	0034      	movs	r4, r6
     5f6:	1e7b      	subs	r3, r7, #1
     5f8:	b29b      	uxth	r3, r3
     5fa:	3301      	adds	r3, #1
     5fc:	18f6      	adds	r6, r6, r3
			ringbuffer_get(&descr->rx, &buf[was_read++]);
     5fe:	4d1a      	ldr	r5, [pc, #104]	; (668 <usart_os_read+0xa8>)
     600:	0021      	movs	r1, r4
     602:	9801      	ldr	r0, [sp, #4]
     604:	47a8      	blx	r5
     606:	3401      	adds	r4, #1
		while (was_read < length) {
     608:	42b4      	cmp	r4, r6
     60a:	d1f9      	bne.n	600 <usart_os_read+0x40>
	return (int32_t)length;
     60c:	0038      	movs	r0, r7
}
     60e:	b005      	add	sp, #20
     610:	bdf0      	pop	{r4, r5, r6, r7, pc}
		CRITICAL_SECTION_ENTER()
     612:	a803      	add	r0, sp, #12
     614:	4b15      	ldr	r3, [pc, #84]	; (66c <usart_os_read+0xac>)
     616:	4798      	blx	r3
		descr->rx_size   = 0;
     618:	2300      	movs	r3, #0
     61a:	8723      	strh	r3, [r4, #56]	; 0x38
		descr->rx_length = length;
     61c:	8767      	strh	r7, [r4, #58]	; 0x3a
		descr->rx_buffer = buf;
     61e:	6366      	str	r6, [r4, #52]	; 0x34
		while (ringbuffer_num(&descr->rx) > 0) {
     620:	4e10      	ldr	r6, [pc, #64]	; (664 <usart_os_read+0xa4>)
			ringbuffer_get(&descr->rx, &descr->rx_buffer[descr->rx_size++]);
     622:	4d11      	ldr	r5, [pc, #68]	; (668 <usart_os_read+0xa8>)
		while (ringbuffer_num(&descr->rx) > 0) {
     624:	e007      	b.n	636 <usart_os_read+0x76>
			ringbuffer_get(&descr->rx, &descr->rx_buffer[descr->rx_size++]);
     626:	8f21      	ldrh	r1, [r4, #56]	; 0x38
     628:	1c4b      	adds	r3, r1, #1
     62a:	8723      	strh	r3, [r4, #56]	; 0x38
     62c:	6b63      	ldr	r3, [r4, #52]	; 0x34
     62e:	469c      	mov	ip, r3
     630:	4461      	add	r1, ip
     632:	9801      	ldr	r0, [sp, #4]
     634:	47a8      	blx	r5
		while (ringbuffer_num(&descr->rx) > 0) {
     636:	9801      	ldr	r0, [sp, #4]
     638:	47b0      	blx	r6
     63a:	2800      	cmp	r0, #0
     63c:	d1f3      	bne.n	626 <usart_os_read+0x66>
		CRITICAL_SECTION_LEAVE()
     63e:	a803      	add	r0, sp, #12
     640:	4b0b      	ldr	r3, [pc, #44]	; (670 <usart_os_read+0xb0>)
     642:	4798      	blx	r3
		if (sem_down(&descr->rx_sem, timeout) != 0) {
     644:	0020      	movs	r0, r4
     646:	3044      	adds	r0, #68	; 0x44
     648:	2101      	movs	r1, #1
     64a:	4249      	negs	r1, r1
     64c:	4b09      	ldr	r3, [pc, #36]	; (674 <usart_os_read+0xb4>)
     64e:	4798      	blx	r3
     650:	2800      	cmp	r0, #0
     652:	d0db      	beq.n	60c <usart_os_read+0x4c>
			return ERR_TIMEOUT;
     654:	2008      	movs	r0, #8
     656:	4240      	negs	r0, r0
     658:	e7d9      	b.n	60e <usart_os_read+0x4e>
     65a:	46c0      	nop			; (mov r8, r8)
     65c:	00002890 	.word	0x00002890
     660:	000007ad 	.word	0x000007ad
     664:	00000891 	.word	0x00000891
     668:	00000809 	.word	0x00000809
     66c:	00000329 	.word	0x00000329
     670:	00000337 	.word	0x00000337
     674:	000010a9 	.word	0x000010a9

00000678 <usart_os_init>:
{
     678:	b5f0      	push	{r4, r5, r6, r7, lr}
     67a:	b083      	sub	sp, #12
     67c:	0007      	movs	r7, r0
     67e:	000d      	movs	r5, r1
     680:	0014      	movs	r4, r2
     682:	001e      	movs	r6, r3
	ASSERT(descr && hw && rx_buffer && rx_buffer_length);
     684:	2800      	cmp	r0, #0
     686:	d04d      	beq.n	724 <usart_os_init+0xac>
     688:	2900      	cmp	r1, #0
     68a:	d04d      	beq.n	728 <usart_os_init+0xb0>
     68c:	2a00      	cmp	r2, #0
     68e:	d04d      	beq.n	72c <usart_os_init+0xb4>
     690:	0018      	movs	r0, r3
     692:	1e43      	subs	r3, r0, #1
     694:	4198      	sbcs	r0, r3
     696:	2240      	movs	r2, #64	; 0x40
     698:	492c      	ldr	r1, [pc, #176]	; (74c <usart_os_init+0xd4>)
     69a:	4b2d      	ldr	r3, [pc, #180]	; (750 <usart_os_init+0xd8>)
     69c:	4798      	blx	r3
	if (ERR_NONE != ringbuffer_init(&descr->rx, rx_buffer, rx_buffer_length)) {
     69e:	0038      	movs	r0, r7
     6a0:	3024      	adds	r0, #36	; 0x24
     6a2:	0032      	movs	r2, r6
     6a4:	0021      	movs	r1, r4
     6a6:	4b2b      	ldr	r3, [pc, #172]	; (754 <usart_os_init+0xdc>)
     6a8:	4798      	blx	r3
     6aa:	2800      	cmp	r0, #0
     6ac:	d14a      	bne.n	744 <usart_os_init+0xcc>
	rc = sem_init(&descr->rx_sem, 0);
     6ae:	003e      	movs	r6, r7
     6b0:	3644      	adds	r6, #68	; 0x44
     6b2:	2100      	movs	r1, #0
     6b4:	0030      	movs	r0, r6
     6b6:	4b28      	ldr	r3, [pc, #160]	; (758 <usart_os_init+0xe0>)
     6b8:	4798      	blx	r3
     6ba:	1e04      	subs	r4, r0, #0
	if (rc < 0) {
     6bc:	db2f      	blt.n	71e <usart_os_init+0xa6>
	rc = sem_init(&descr->tx_sem, 0);
     6be:	2348      	movs	r3, #72	; 0x48
     6c0:	469c      	mov	ip, r3
     6c2:	44bc      	add	ip, r7
     6c4:	4663      	mov	r3, ip
     6c6:	9300      	str	r3, [sp, #0]
     6c8:	2100      	movs	r1, #0
     6ca:	4660      	mov	r0, ip
     6cc:	4b22      	ldr	r3, [pc, #136]	; (758 <usart_os_init+0xe0>)
     6ce:	4798      	blx	r3
     6d0:	1e04      	subs	r4, r0, #0
	if (rc < 0) {
     6d2:	db2d      	blt.n	730 <usart_os_init+0xb8>
	rc = _usart_async_init(&descr->device, hw);
     6d4:	2308      	movs	r3, #8
     6d6:	469c      	mov	ip, r3
     6d8:	44bc      	add	ip, r7
     6da:	4663      	mov	r3, ip
     6dc:	9301      	str	r3, [sp, #4]
     6de:	0029      	movs	r1, r5
     6e0:	4660      	mov	r0, ip
     6e2:	4b1e      	ldr	r3, [pc, #120]	; (75c <usart_os_init+0xe4>)
     6e4:	4798      	blx	r3
     6e6:	1e04      	subs	r4, r0, #0
	if (rc) {
     6e8:	d126      	bne.n	738 <usart_os_init+0xc0>
	descr->rx_buffer = NULL;
     6ea:	2300      	movs	r3, #0
     6ec:	637b      	str	r3, [r7, #52]	; 0x34
	descr->rx_size   = 0;
     6ee:	873b      	strh	r3, [r7, #56]	; 0x38
	descr->rx_length = 0;
     6f0:	877b      	strh	r3, [r7, #58]	; 0x3a
	descr->io.read  = usart_os_read;
     6f2:	4b1b      	ldr	r3, [pc, #108]	; (760 <usart_os_init+0xe8>)
     6f4:	607b      	str	r3, [r7, #4]
	descr->io.write = usart_os_write;
     6f6:	4b1b      	ldr	r3, [pc, #108]	; (764 <usart_os_init+0xec>)
     6f8:	603b      	str	r3, [r7, #0]
	descr->device.usart_cb.tx_byte_sent = usart_os_process_byte_sent;
     6fa:	4b1b      	ldr	r3, [pc, #108]	; (768 <usart_os_init+0xf0>)
     6fc:	60bb      	str	r3, [r7, #8]
	descr->device.usart_cb.rx_done_cb   = usart_os_fill_rx_buffer;
     6fe:	4b1b      	ldr	r3, [pc, #108]	; (76c <usart_os_init+0xf4>)
     700:	60fb      	str	r3, [r7, #12]
	descr->device.usart_cb.tx_done_cb   = usart_os_transmission_complete;
     702:	4b1b      	ldr	r3, [pc, #108]	; (770 <usart_os_init+0xf8>)
     704:	613b      	str	r3, [r7, #16]
	descr->device.usart_cb.error_cb     = usart_os_error;
     706:	4b1b      	ldr	r3, [pc, #108]	; (774 <usart_os_init+0xfc>)
     708:	617b      	str	r3, [r7, #20]
	_usart_async_set_irq_state(&descr->device, USART_ASYNC_RX_DONE, true);
     70a:	2201      	movs	r2, #1
     70c:	2101      	movs	r1, #1
     70e:	9e01      	ldr	r6, [sp, #4]
     710:	0030      	movs	r0, r6
     712:	4d19      	ldr	r5, [pc, #100]	; (778 <usart_os_init+0x100>)
     714:	47a8      	blx	r5
	_usart_async_set_irq_state(&descr->device, USART_ASYNC_ERROR, true);
     716:	2201      	movs	r2, #1
     718:	2103      	movs	r1, #3
     71a:	0030      	movs	r0, r6
     71c:	47a8      	blx	r5
}
     71e:	0020      	movs	r0, r4
     720:	b003      	add	sp, #12
     722:	bdf0      	pop	{r4, r5, r6, r7, pc}
	ASSERT(descr && hw && rx_buffer && rx_buffer_length);
     724:	2000      	movs	r0, #0
     726:	e7b6      	b.n	696 <usart_os_init+0x1e>
     728:	2000      	movs	r0, #0
     72a:	e7b4      	b.n	696 <usart_os_init+0x1e>
     72c:	2000      	movs	r0, #0
     72e:	e7b2      	b.n	696 <usart_os_init+0x1e>
		sem_deinit(&descr->tx_sem);
     730:	9800      	ldr	r0, [sp, #0]
     732:	4b12      	ldr	r3, [pc, #72]	; (77c <usart_os_init+0x104>)
     734:	4798      	blx	r3
		return rc;
     736:	e7f2      	b.n	71e <usart_os_init+0xa6>
		sem_deinit(&descr->tx_sem);
     738:	9800      	ldr	r0, [sp, #0]
     73a:	4d10      	ldr	r5, [pc, #64]	; (77c <usart_os_init+0x104>)
     73c:	47a8      	blx	r5
		sem_deinit(&descr->rx_sem);
     73e:	0030      	movs	r0, r6
     740:	47a8      	blx	r5
		return rc;
     742:	e7ec      	b.n	71e <usart_os_init+0xa6>
		return ERR_INVALID_ARG;
     744:	240d      	movs	r4, #13
     746:	4264      	negs	r4, r4
     748:	e7e9      	b.n	71e <usart_os_init+0xa6>
     74a:	46c0      	nop			; (mov r8, r8)
     74c:	00002890 	.word	0x00002890
     750:	000007ad 	.word	0x000007ad
     754:	000007b5 	.word	0x000007b5
     758:	00001029 	.word	0x00001029
     75c:	00000e7d 	.word	0x00000e7d
     760:	000005c1 	.word	0x000005c1
     764:	00000585 	.word	0x00000585
     768:	00000549 	.word	0x00000549
     76c:	0000050d 	.word	0x0000050d
     770:	000004fd 	.word	0x000004fd
     774:	000004ed 	.word	0x000004ed
     778:	00000f21 	.word	0x00000f21
     77c:	000010c9 	.word	0x000010c9

00000780 <usart_os_enable>:
{
     780:	b510      	push	{r4, lr}
     782:	0004      	movs	r4, r0
	ASSERT(descr);
     784:	1e43      	subs	r3, r0, #1
     786:	4198      	sbcs	r0, r3
     788:	b2c0      	uxtb	r0, r0
     78a:	227b      	movs	r2, #123	; 0x7b
     78c:	4904      	ldr	r1, [pc, #16]	; (7a0 <usart_os_enable+0x20>)
     78e:	4b05      	ldr	r3, [pc, #20]	; (7a4 <usart_os_enable+0x24>)
     790:	4798      	blx	r3
	_usart_async_enable(&descr->device);
     792:	0020      	movs	r0, r4
     794:	3008      	adds	r0, #8
     796:	4b04      	ldr	r3, [pc, #16]	; (7a8 <usart_os_enable+0x28>)
     798:	4798      	blx	r3
}
     79a:	2000      	movs	r0, #0
     79c:	bd10      	pop	{r4, pc}
     79e:	46c0      	nop			; (mov r8, r8)
     7a0:	00002890 	.word	0x00002890
     7a4:	000007ad 	.word	0x000007ad
     7a8:	00000ef5 	.word	0x00000ef5

000007ac <assert>:
/**
 * \brief Assert function
 */
void assert(const bool condition, const char *const file, const int line)
{
	if (!(condition)) {
     7ac:	2800      	cmp	r0, #0
     7ae:	d100      	bne.n	7b2 <assert+0x6>
		__asm("BKPT #0");
     7b0:	be00      	bkpt	0x0000
	}
	(void)file;
	(void)line;
}
     7b2:	4770      	bx	lr

000007b4 <ringbuffer_init>:

/**
 * \brief Ringbuffer init
 */
int32_t ringbuffer_init(struct ringbuffer *const rb, void *buf, uint32_t size)
{
     7b4:	b570      	push	{r4, r5, r6, lr}
     7b6:	0004      	movs	r4, r0
     7b8:	000e      	movs	r6, r1
     7ba:	0015      	movs	r5, r2
	ASSERT(rb && buf && size);
     7bc:	2800      	cmp	r0, #0
     7be:	d00b      	beq.n	7d8 <ringbuffer_init+0x24>
     7c0:	2900      	cmp	r1, #0
     7c2:	d018      	beq.n	7f6 <ringbuffer_init+0x42>
     7c4:	2001      	movs	r0, #1
     7c6:	2a00      	cmp	r2, #0
     7c8:	d107      	bne.n	7da <ringbuffer_init+0x26>
     7ca:	2228      	movs	r2, #40	; 0x28
     7cc:	490c      	ldr	r1, [pc, #48]	; (800 <ringbuffer_init+0x4c>)
     7ce:	2000      	movs	r0, #0
     7d0:	4b0c      	ldr	r3, [pc, #48]	; (804 <ringbuffer_init+0x50>)
     7d2:	4798      	blx	r3

	/*
	 * buf size must be aligned to power of 2
	 */
	if ((size & (size - 1)) != 0) {
     7d4:	1e6b      	subs	r3, r5, #1
     7d6:	e007      	b.n	7e8 <ringbuffer_init+0x34>
	ASSERT(rb && buf && size);
     7d8:	2000      	movs	r0, #0
     7da:	2228      	movs	r2, #40	; 0x28
     7dc:	4908      	ldr	r1, [pc, #32]	; (800 <ringbuffer_init+0x4c>)
     7de:	4b09      	ldr	r3, [pc, #36]	; (804 <ringbuffer_init+0x50>)
     7e0:	4798      	blx	r3
	if ((size & (size - 1)) != 0) {
     7e2:	1e6b      	subs	r3, r5, #1
     7e4:	422b      	tst	r3, r5
     7e6:	d108      	bne.n	7fa <ringbuffer_init+0x46>
		return ERR_INVALID_ARG;
	}

	/* size - 1 is faster in calculation */
	rb->size        = size - 1;
     7e8:	6063      	str	r3, [r4, #4]
	rb->read_index  = 0;
     7ea:	2300      	movs	r3, #0
     7ec:	60a3      	str	r3, [r4, #8]
	rb->write_index = rb->read_index;
     7ee:	60e3      	str	r3, [r4, #12]
	rb->buf         = (uint8_t *)buf;
     7f0:	6026      	str	r6, [r4, #0]

	return ERR_NONE;
     7f2:	2000      	movs	r0, #0
}
     7f4:	bd70      	pop	{r4, r5, r6, pc}
	ASSERT(rb && buf && size);
     7f6:	2000      	movs	r0, #0
     7f8:	e7ef      	b.n	7da <ringbuffer_init+0x26>
		return ERR_INVALID_ARG;
     7fa:	200d      	movs	r0, #13
     7fc:	4240      	negs	r0, r0
     7fe:	e7f9      	b.n	7f4 <ringbuffer_init+0x40>
     800:	000028ac 	.word	0x000028ac
     804:	000007ad 	.word	0x000007ad

00000808 <ringbuffer_get>:
/**
 * \brief Get one byte from ringbuffer
 *
 */
int32_t ringbuffer_get(struct ringbuffer *const rb, uint8_t *data)
{
     808:	b570      	push	{r4, r5, r6, lr}
     80a:	0004      	movs	r4, r0
     80c:	000d      	movs	r5, r1
	ASSERT(rb && data);
     80e:	2800      	cmp	r0, #0
     810:	d015      	beq.n	83e <ringbuffer_get+0x36>
     812:	0008      	movs	r0, r1
     814:	1e43      	subs	r3, r0, #1
     816:	4198      	sbcs	r0, r3
     818:	b2c0      	uxtb	r0, r0
     81a:	2240      	movs	r2, #64	; 0x40
     81c:	490a      	ldr	r1, [pc, #40]	; (848 <ringbuffer_get+0x40>)
     81e:	4b0b      	ldr	r3, [pc, #44]	; (84c <ringbuffer_get+0x44>)
     820:	4798      	blx	r3

	if (rb->write_index != rb->read_index) {
     822:	68a3      	ldr	r3, [r4, #8]
     824:	68e2      	ldr	r2, [r4, #12]
     826:	429a      	cmp	r2, r3
     828:	d00b      	beq.n	842 <ringbuffer_get+0x3a>
		*data = rb->buf[rb->read_index & rb->size];
     82a:	6862      	ldr	r2, [r4, #4]
     82c:	4013      	ands	r3, r2
     82e:	6822      	ldr	r2, [r4, #0]
     830:	5cd3      	ldrb	r3, [r2, r3]
     832:	702b      	strb	r3, [r5, #0]
		rb->read_index++;
     834:	68a3      	ldr	r3, [r4, #8]
     836:	3301      	adds	r3, #1
     838:	60a3      	str	r3, [r4, #8]
		return ERR_NONE;
     83a:	2000      	movs	r0, #0
	}

	return ERR_NOT_FOUND;
}
     83c:	bd70      	pop	{r4, r5, r6, pc}
     83e:	2000      	movs	r0, #0
     840:	e7eb      	b.n	81a <ringbuffer_get+0x12>
	return ERR_NOT_FOUND;
     842:	200a      	movs	r0, #10
     844:	4240      	negs	r0, r0
     846:	e7f9      	b.n	83c <ringbuffer_get+0x34>
     848:	000028ac 	.word	0x000028ac
     84c:	000007ad 	.word	0x000007ad

00000850 <ringbuffer_put>:
/**
 * \brief Put one byte to ringbuffer
 *
 */
int32_t ringbuffer_put(struct ringbuffer *const rb, uint8_t data)
{
     850:	b570      	push	{r4, r5, r6, lr}
     852:	0004      	movs	r4, r0
     854:	000d      	movs	r5, r1
	ASSERT(rb);
     856:	1e43      	subs	r3, r0, #1
     858:	4198      	sbcs	r0, r3
     85a:	b2c0      	uxtb	r0, r0
     85c:	2251      	movs	r2, #81	; 0x51
     85e:	490a      	ldr	r1, [pc, #40]	; (888 <ringbuffer_put+0x38>)
     860:	4b0a      	ldr	r3, [pc, #40]	; (88c <ringbuffer_put+0x3c>)
     862:	4798      	blx	r3

	rb->buf[rb->write_index & rb->size] = data;
     864:	6863      	ldr	r3, [r4, #4]
     866:	68e2      	ldr	r2, [r4, #12]
     868:	4013      	ands	r3, r2
     86a:	6822      	ldr	r2, [r4, #0]
     86c:	54d5      	strb	r5, [r2, r3]

	/*
	 * buffer full strategy: new data will overwrite the oldest data in
	 * the buffer
	 */
	if ((rb->write_index - rb->read_index) > rb->size) {
     86e:	68e3      	ldr	r3, [r4, #12]
     870:	6861      	ldr	r1, [r4, #4]
     872:	68a2      	ldr	r2, [r4, #8]
     874:	1a9a      	subs	r2, r3, r2
     876:	428a      	cmp	r2, r1
     878:	d901      	bls.n	87e <ringbuffer_put+0x2e>
		rb->read_index = rb->write_index - rb->size;
     87a:	1a59      	subs	r1, r3, r1
     87c:	60a1      	str	r1, [r4, #8]
	}

	rb->write_index++;
     87e:	3301      	adds	r3, #1
     880:	60e3      	str	r3, [r4, #12]

	return ERR_NONE;
}
     882:	2000      	movs	r0, #0
     884:	bd70      	pop	{r4, r5, r6, pc}
     886:	46c0      	nop			; (mov r8, r8)
     888:	000028ac 	.word	0x000028ac
     88c:	000007ad 	.word	0x000007ad

00000890 <ringbuffer_num>:

/**
 * \brief Return the element number of ringbuffer
 */
uint32_t ringbuffer_num(const struct ringbuffer *const rb)
{
     890:	b510      	push	{r4, lr}
     892:	0004      	movs	r4, r0
	ASSERT(rb);
     894:	1e43      	subs	r3, r0, #1
     896:	4198      	sbcs	r0, r3
     898:	b2c0      	uxtb	r0, r0
     89a:	2267      	movs	r2, #103	; 0x67
     89c:	4903      	ldr	r1, [pc, #12]	; (8ac <ringbuffer_num+0x1c>)
     89e:	4b04      	ldr	r3, [pc, #16]	; (8b0 <ringbuffer_num+0x20>)
     8a0:	4798      	blx	r3

	return rb->write_index - rb->read_index;
     8a2:	68e0      	ldr	r0, [r4, #12]
     8a4:	68a3      	ldr	r3, [r4, #8]
     8a6:	1ac0      	subs	r0, r0, r3
}
     8a8:	bd10      	pop	{r4, pc}
     8aa:	46c0      	nop			; (mov r8, r8)
     8ac:	000028ac 	.word	0x000028ac
     8b0:	000007ad 	.word	0x000007ad

000008b4 <_can_async_init>:

/**
 * \brief Initialize CAN.
 */
int32_t _can_async_init(struct _can_async_device *const dev, void *const hw)
{
     8b4:	b5f0      	push	{r4, r5, r6, r7, lr}
	dev->hw = hw;
     8b6:	6001      	str	r1, [r0, #0]
}

static inline void hri_can_set_CCCR_INIT_bit(const void *const hw)
{
	CAN_CRITICAL_SECTION_ENTER();
	((Can *)hw)->CCCR.reg |= CAN_CCCR_INIT;
     8b8:	698b      	ldr	r3, [r1, #24]
     8ba:	2201      	movs	r2, #1
     8bc:	4313      	orrs	r3, r2
     8be:	618b      	str	r3, [r1, #24]
	hri_can_set_CCCR_INIT_bit(dev->hw);
	while (hri_can_get_CCCR_INIT_bit(dev->hw) == 0)
     8c0:	6802      	ldr	r2, [r0, #0]

static inline bool hri_can_get_CCCR_INIT_bit(const void *const hw)
{
	uint32_t tmp;
	tmp = ((Can *)hw)->CCCR.reg;
	tmp = (tmp & CAN_CCCR_INIT) >> CAN_CCCR_INIT_Pos;
     8c2:	2401      	movs	r4, #1
	tmp = ((Can *)hw)->CCCR.reg;
     8c4:	6993      	ldr	r3, [r2, #24]
     8c6:	421c      	tst	r4, r3
     8c8:	d0fc      	beq.n	8c4 <_can_async_init+0x10>
}

static inline void hri_can_set_CCCR_CCE_bit(const void *const hw)
{
	CAN_CRITICAL_SECTION_ENTER();
	((Can *)hw)->CCCR.reg |= CAN_CCCR_CCE;
     8ca:	6993      	ldr	r3, [r2, #24]
     8cc:	2402      	movs	r4, #2
     8ce:	4323      	orrs	r3, r4
     8d0:	6193      	str	r3, [r2, #24]
		;
	hri_can_set_CCCR_CCE_bit(dev->hw);

#ifdef CONF_CAN0_ENABLED
	if (hw == CAN0) {
     8d2:	4b34      	ldr	r3, [pc, #208]	; (9a4 <_can_async_init+0xf0>)
     8d4:	4299      	cmp	r1, r3
     8d6:	d010      	beq.n	8fa <_can_async_init+0x46>
		hri_can_write_ILE_reg(dev->hw, CAN_ILE_EINT0);
	}
#endif

	/* Disable CCE to prevent Configuration Change */
	hri_can_clear_CCCR_CCE_bit(dev->hw);
     8d8:	6802      	ldr	r2, [r0, #0]
}

static inline void hri_can_clear_CCCR_CCE_bit(const void *const hw)
{
	CAN_CRITICAL_SECTION_ENTER();
	((Can *)hw)->CCCR.reg &= ~CAN_CCCR_CCE;
     8da:	6993      	ldr	r3, [r2, #24]
     8dc:	2102      	movs	r1, #2
     8de:	438b      	bics	r3, r1
     8e0:	6193      	str	r3, [r2, #24]
	hri_can_clear_CCCR_INIT_bit(dev->hw);
     8e2:	6802      	ldr	r2, [r0, #0]
	((Can *)hw)->CCCR.reg &= ~CAN_CCCR_INIT;
     8e4:	6993      	ldr	r3, [r2, #24]
     8e6:	3901      	subs	r1, #1
     8e8:	438b      	bics	r3, r1
     8ea:	6193      	str	r3, [r2, #24]
	while (hri_can_get_CCCR_INIT_bit(dev->hw)) {
     8ec:	6801      	ldr	r1, [r0, #0]
	tmp = (tmp & CAN_CCCR_INIT) >> CAN_CCCR_INIT_Pos;
     8ee:	2201      	movs	r2, #1
	tmp = ((Can *)hw)->CCCR.reg;
     8f0:	698b      	ldr	r3, [r1, #24]
     8f2:	421a      	tst	r2, r3
     8f4:	d1fc      	bne.n	8f0 <_can_async_init+0x3c>
	};

	return ERR_NONE;
}
     8f6:	2000      	movs	r0, #0
     8f8:	bdf0      	pop	{r4, r5, r6, r7, pc}
		_can0_dev    = dev;
     8fa:	4b2b      	ldr	r3, [pc, #172]	; (9a8 <_can_async_init+0xf4>)
     8fc:	001a      	movs	r2, r3
     8fe:	c201      	stmia	r2!, {r0}
		dev->context = (void *)&_can0_context;
     900:	492a      	ldr	r1, [pc, #168]	; (9ac <_can_async_init+0xf8>)
     902:	6181      	str	r1, [r0, #24]
		hri_can_set_CCCR_reg(dev->hw, CONF_CAN0_CCCR_REG);
     904:	6801      	ldr	r1, [r0, #0]
}

static inline void hri_can_set_CCCR_reg(const void *const hw, hri_can_cccr_reg_t mask)
{
	CAN_CRITICAL_SECTION_ENTER();
	((Can *)hw)->CCCR.reg |= mask;
     906:	698c      	ldr	r4, [r1, #24]
     908:	618c      	str	r4, [r1, #24]
		hri_can_write_MRCFG_reg(dev->hw, CONF_CAN0_MRCFG_REG);
     90a:	6801      	ldr	r1, [r0, #0]
	((Can *)hw)->MRCFG.reg = data;
     90c:	2400      	movs	r4, #0
     90e:	608c      	str	r4, [r1, #8]
		hri_can_write_NBTP_reg(dev->hw, CONF_CAN0_BTP_REG);
     910:	6801      	ldr	r1, [r0, #0]
}

static inline void hri_can_write_NBTP_reg(const void *const hw, hri_can_nbtp_reg_t data)
{
	CAN_CRITICAL_SECTION_ENTER();
	((Can *)hw)->NBTP.reg = data;
     912:	4d27      	ldr	r5, [pc, #156]	; (9b0 <_can_async_init+0xfc>)
     914:	61cd      	str	r5, [r1, #28]
		hri_can_write_DBTP_reg(dev->hw, CONF_CAN0_DBTP_REG);
     916:	6801      	ldr	r1, [r0, #0]
	((Can *)hw)->DBTP.reg = data;
     918:	4d26      	ldr	r5, [pc, #152]	; (9b4 <_can_async_init+0x100>)
     91a:	60cd      	str	r5, [r1, #12]
		hri_can_write_RXF0C_reg(dev->hw, CONF_CAN0_RXF0C_REG | CAN_RXF0C_F0SA((uint32_t)can0_rx_fifo));
     91c:	4926      	ldr	r1, [pc, #152]	; (9b8 <_can_async_init+0x104>)
     91e:	0409      	lsls	r1, r1, #16
     920:	0c09      	lsrs	r1, r1, #16
     922:	2580      	movs	r5, #128	; 0x80
     924:	02ad      	lsls	r5, r5, #10
     926:	4329      	orrs	r1, r5
}

static inline void hri_can_write_RXF0C_reg(const void *const hw, hri_can_rxf0c_reg_t data)
{
	CAN_CRITICAL_SECTION_ENTER();
	((Can *)hw)->RXF0C.reg = data;
     928:	26a0      	movs	r6, #160	; 0xa0
     92a:	6807      	ldr	r7, [r0, #0]
     92c:	51b9      	str	r1, [r7, r6]
}

static inline void hri_can_write_RXESC_reg(const void *const hw, hri_can_rxesc_reg_t data)
{
	CAN_CRITICAL_SECTION_ENTER();
	((Can *)hw)->RXESC.reg = data;
     92e:	21bc      	movs	r1, #188	; 0xbc
     930:	6806      	ldr	r6, [r0, #0]
     932:	5074      	str	r4, [r6, r1]
}

static inline void hri_can_write_TXESC_reg(const void *const hw, hri_can_txesc_reg_t data)
{
	CAN_CRITICAL_SECTION_ENTER();
	((Can *)hw)->TXESC.reg = data;
     934:	310c      	adds	r1, #12
     936:	6806      	ldr	r6, [r0, #0]
     938:	5074      	str	r4, [r6, r1]
		hri_can_write_TXBC_reg(dev->hw, CONF_CAN0_TXBC_REG | CAN_TXBC_TBSA((uint32_t)can0_tx_fifo));
     93a:	4920      	ldr	r1, [pc, #128]	; (9bc <_can_async_init+0x108>)
     93c:	0409      	lsls	r1, r1, #16
     93e:	0c09      	lsrs	r1, r1, #16
     940:	2680      	movs	r6, #128	; 0x80
     942:	04b6      	lsls	r6, r6, #18
     944:	4331      	orrs	r1, r6
	((Can *)hw)->TXBC.reg = data;
     946:	26c0      	movs	r6, #192	; 0xc0
     948:	6807      	ldr	r7, [r0, #0]
     94a:	51b9      	str	r1, [r7, r6]
		hri_can_write_TXEFC_reg(dev->hw, CONF_CAN0_TXEFC_REG | CAN_TXEFC_EFSA((uint32_t)can0_tx_event_fifo));
     94c:	0412      	lsls	r2, r2, #16
     94e:	0c12      	lsrs	r2, r2, #16
     950:	432a      	orrs	r2, r5
}

static inline void hri_can_write_TXEFC_reg(const void *const hw, hri_can_txefc_reg_t data)
{
	CAN_CRITICAL_SECTION_ENTER();
	((Can *)hw)->TXEFC.reg = data;
     952:	21f0      	movs	r1, #240	; 0xf0
     954:	6806      	ldr	r6, [r0, #0]
     956:	5072      	str	r2, [r6, r1]
	((Can *)hw)->GFC.reg = data;
     958:	3970      	subs	r1, #112	; 0x70
     95a:	2229      	movs	r2, #41	; 0x29
     95c:	6806      	ldr	r6, [r0, #0]
     95e:	5072      	str	r2, [r6, r1]
		hri_can_write_SIDFC_reg(dev->hw, CONF_CAN0_SIDFC_REG | CAN_SIDFC_FLSSA((uint32_t)can0_rx_std_filter));
     960:	001a      	movs	r2, r3
     962:	3214      	adds	r2, #20
     964:	0412      	lsls	r2, r2, #16
     966:	0c12      	lsrs	r2, r2, #16
     968:	4315      	orrs	r5, r2
	((Can *)hw)->SIDFC.reg = data;
     96a:	2284      	movs	r2, #132	; 0x84
     96c:	6806      	ldr	r6, [r0, #0]
     96e:	50b5      	str	r5, [r6, r2]
		hri_can_write_XIDFC_reg(dev->hw, CONF_CAN0_XIDFC_REG | CAN_XIDFC_FLESA((uint32_t)can0_rx_ext_filter));
     970:	331c      	adds	r3, #28
     972:	041b      	lsls	r3, r3, #16
     974:	0c1b      	lsrs	r3, r3, #16
	((Can *)hw)->XIDFC.reg = data;
     976:	3204      	adds	r2, #4
     978:	6805      	ldr	r5, [r0, #0]
     97a:	50ab      	str	r3, [r5, r2]
	((Can *)hw)->XIDAM.reg = data;
     97c:	2390      	movs	r3, #144	; 0x90
     97e:	6802      	ldr	r2, [r0, #0]
     980:	50d4      	str	r4, [r2, r3]
 */
__STATIC_INLINE void __NVIC_DisableIRQ(IRQn_Type IRQn)
{
  if ((int32_t)(IRQn) >= 0)
  {
    NVIC->ICER[0U] = (uint32_t)(1UL << (((uint32_t)(int32_t)IRQn) & 0x1FUL));
     982:	4b0f      	ldr	r3, [pc, #60]	; (9c0 <_can_async_init+0x10c>)
     984:	2280      	movs	r2, #128	; 0x80
     986:	0212      	lsls	r2, r2, #8
     988:	505a      	str	r2, [r3, r1]
  __ASM volatile ("dsb 0xF":::"memory");
     98a:	f3bf 8f4f 	dsb	sy
  __ASM volatile ("isb 0xF":::"memory");
     98e:	f3bf 8f6f 	isb	sy
 */
__STATIC_INLINE void __NVIC_ClearPendingIRQ(IRQn_Type IRQn)
{
  if ((int32_t)(IRQn) >= 0)
  {
    NVIC->ICPR[0U] = (uint32_t)(1UL << (((uint32_t)(int32_t)IRQn) & 0x1FUL));
     992:	3101      	adds	r1, #1
     994:	31ff      	adds	r1, #255	; 0xff
     996:	505a      	str	r2, [r3, r1]
    NVIC->ISER[0U] = (uint32_t)(1UL << (((uint32_t)(int32_t)IRQn) & 0x1FUL));
     998:	601a      	str	r2, [r3, #0]
		hri_can_write_ILE_reg(dev->hw, CAN_ILE_EINT0);
     99a:	6803      	ldr	r3, [r0, #0]
	((Can *)hw)->ILE.reg = data;
     99c:	2201      	movs	r2, #1
     99e:	65da      	str	r2, [r3, #92]	; 0x5c
     9a0:	e79a      	b.n	8d8 <_can_async_init+0x24>
     9a2:	46c0      	nop			; (mov r8, r8)
     9a4:	42001c00 	.word	0x42001c00
     9a8:	2000003c 	.word	0x2000003c
     9ac:	20000000 	.word	0x20000000
     9b0:	06020a07 	.word	0x06020a07
     9b4:	00000a33 	.word	0x00000a33
     9b8:	20000c0c 	.word	0x20000c0c
     9bc:	20000c2c 	.word	0x20000c2c
     9c0:	e000e100 	.word	0xe000e100

000009c4 <_can_async_enable>:
/**
 * \brief Enable CAN
 */
int32_t _can_async_enable(struct _can_async_device *const dev)
{
	hri_can_clear_CCCR_INIT_bit(dev->hw);
     9c4:	6802      	ldr	r2, [r0, #0]
	((Can *)hw)->CCCR.reg &= ~CAN_CCCR_INIT;
     9c6:	6993      	ldr	r3, [r2, #24]
     9c8:	2101      	movs	r1, #1
     9ca:	438b      	bics	r3, r1
     9cc:	6193      	str	r3, [r2, #24]
	return ERR_NONE;
}
     9ce:	2000      	movs	r0, #0
     9d0:	4770      	bx	lr
	...

000009d4 <_can_async_write>:

/**
 * \brief Write a CAN message
 */
int32_t _can_async_write(struct _can_async_device *const dev, struct can_message *msg)
{
     9d4:	b570      	push	{r4, r5, r6, lr}
     9d6:	0004      	movs	r4, r0
	struct _can_tx_fifo_entry *f = NULL;
	if (hri_can_get_TXFQS_TFQF_bit(dev->hw)) {
     9d8:	6803      	ldr	r3, [r0, #0]
	return (((Can *)hw)->TXFQS.reg & CAN_TXFQS_TFQF) >> CAN_TXFQS_TFQF_Pos;
     9da:	22c4      	movs	r2, #196	; 0xc4
     9dc:	589a      	ldr	r2, [r3, r2]
     9de:	0292      	lsls	r2, r2, #10
     9e0:	d500      	bpl.n	9e4 <_can_async_write+0x10>
     9e2:	e07d      	b.n	ae0 <_can_async_write+0x10c>
		return ERR_NO_RESOURCE;
	}
#ifdef CONF_CAN0_ENABLED
	if (dev->hw == CAN0) {
     9e4:	4a41      	ldr	r2, [pc, #260]	; (aec <_can_async_write+0x118>)
     9e6:	4293      	cmp	r3, r2
     9e8:	d002      	beq.n	9f0 <_can_async_write+0x1c>
	if (dev->hw == CAN1) {
		f = (struct _can_tx_fifo_entry *)(can1_tx_fifo + hri_can_read_TXFQS_TFQPI_bf(dev->hw) * CONF_CAN1_TBDS);
	}
#endif
	if (f == NULL) {
		return ERR_NO_RESOURCE;
     9ea:	201c      	movs	r0, #28
     9ec:	4240      	negs	r0, r0
     9ee:	e02a      	b.n	a46 <_can_async_write+0x72>
	return (((Can *)hw)->TXFQS.reg & CAN_TXFQS_TFQPI_Msk) >> CAN_TXFQS_TFQPI_Pos;
     9f0:	23c4      	movs	r3, #196	; 0xc4
     9f2:	58d0      	ldr	r0, [r2, r3]
     9f4:	02c0      	lsls	r0, r0, #11
     9f6:	0ec0      	lsrs	r0, r0, #27
		f = (struct _can_tx_fifo_entry *)(can0_tx_fifo + hri_can_read_TXFQS_TFQPI_bf(dev->hw) * CONF_CAN0_TBDS);
     9f8:	0100      	lsls	r0, r0, #4
     9fa:	4b3d      	ldr	r3, [pc, #244]	; (af0 <_can_async_write+0x11c>)
     9fc:	18c0      	adds	r0, r0, r3
	if (f == NULL) {
     9fe:	2800      	cmp	r0, #0
     a00:	d100      	bne.n	a04 <_can_async_write+0x30>
     a02:	e070      	b.n	ae6 <_can_async_write+0x112>
	}

	if (msg->fmt == CAN_FMT_EXTID) {
     a04:	7b4b      	ldrb	r3, [r1, #13]
     a06:	2b01      	cmp	r3, #1
     a08:	d01e      	beq.n	a48 <_can_async_write+0x74>
		f->R0.val     = msg->id;
		f->R0.bit.XTD = 1;
	} else {
		/* A standard identifier is stored into ID[28:18] */
		f->R0.val = msg->id << 18;
     a0a:	680b      	ldr	r3, [r1, #0]
     a0c:	049b      	lsls	r3, r3, #18
     a0e:	6003      	str	r3, [r0, #0]
	}

	if (msg->len <= 8) {
     a10:	7b0b      	ldrb	r3, [r1, #12]
     a12:	2b08      	cmp	r3, #8
     a14:	d820      	bhi.n	a58 <_can_async_write+0x84>
		f->R1.bit.DLC = msg->len;
     a16:	6842      	ldr	r2, [r0, #4]
     a18:	250f      	movs	r5, #15
     a1a:	401d      	ands	r5, r3
     a1c:	042d      	lsls	r5, r5, #16
     a1e:	4b35      	ldr	r3, [pc, #212]	; (af4 <_can_async_write+0x120>)
     a20:	4013      	ands	r3, r2
     a22:	432b      	orrs	r3, r5
     a24:	6043      	str	r3, [r0, #4]
		f->R1.bit.DLC = 0xE;
	} else if (msg->len <= 64) {
		f->R1.bit.DLC = 0xF;
	}

	memcpy(f->data, msg->data, msg->len);
     a26:	3008      	adds	r0, #8
     a28:	7b0a      	ldrb	r2, [r1, #12]
     a2a:	6889      	ldr	r1, [r1, #8]
     a2c:	4b32      	ldr	r3, [pc, #200]	; (af8 <_can_async_write+0x124>)
     a2e:	4798      	blx	r3

	hri_can_write_TXBAR_reg(dev->hw, 1 << hri_can_read_TXFQS_TFQPI_bf(dev->hw));
     a30:	6821      	ldr	r1, [r4, #0]
     a32:	23c4      	movs	r3, #196	; 0xc4
     a34:	58cb      	ldr	r3, [r1, r3]
     a36:	02db      	lsls	r3, r3, #11
     a38:	0edb      	lsrs	r3, r3, #27
     a3a:	2201      	movs	r2, #1
     a3c:	409a      	lsls	r2, r3
     a3e:	0013      	movs	r3, r2
	((Can *)hw)->TXBAR.reg = data;
     a40:	22d0      	movs	r2, #208	; 0xd0
     a42:	508b      	str	r3, [r1, r2]
	return ERR_NONE;
     a44:	2000      	movs	r0, #0
}
     a46:	bd70      	pop	{r4, r5, r6, pc}
		f->R0.val     = msg->id;
     a48:	680b      	ldr	r3, [r1, #0]
     a4a:	6003      	str	r3, [r0, #0]
		f->R0.bit.XTD = 1;
     a4c:	6802      	ldr	r2, [r0, #0]
     a4e:	2380      	movs	r3, #128	; 0x80
     a50:	05db      	lsls	r3, r3, #23
     a52:	4313      	orrs	r3, r2
     a54:	6003      	str	r3, [r0, #0]
     a56:	e7db      	b.n	a10 <_can_async_write+0x3c>
	} else if (msg->len <= 12) {
     a58:	2b0c      	cmp	r3, #12
     a5a:	d807      	bhi.n	a6c <_can_async_write+0x98>
		f->R1.bit.DLC = 0x9;
     a5c:	6843      	ldr	r3, [r0, #4]
     a5e:	4a25      	ldr	r2, [pc, #148]	; (af4 <_can_async_write+0x120>)
     a60:	401a      	ands	r2, r3
     a62:	2390      	movs	r3, #144	; 0x90
     a64:	031b      	lsls	r3, r3, #12
     a66:	4313      	orrs	r3, r2
     a68:	6043      	str	r3, [r0, #4]
     a6a:	e7dc      	b.n	a26 <_can_async_write+0x52>
	} else if (msg->len <= 16) {
     a6c:	2b10      	cmp	r3, #16
     a6e:	d807      	bhi.n	a80 <_can_async_write+0xac>
		f->R1.bit.DLC = 0xA;
     a70:	6843      	ldr	r3, [r0, #4]
     a72:	4a20      	ldr	r2, [pc, #128]	; (af4 <_can_async_write+0x120>)
     a74:	401a      	ands	r2, r3
     a76:	23a0      	movs	r3, #160	; 0xa0
     a78:	031b      	lsls	r3, r3, #12
     a7a:	4313      	orrs	r3, r2
     a7c:	6043      	str	r3, [r0, #4]
     a7e:	e7d2      	b.n	a26 <_can_async_write+0x52>
	} else if (msg->len <= 20) {
     a80:	2b14      	cmp	r3, #20
     a82:	d807      	bhi.n	a94 <_can_async_write+0xc0>
		f->R1.bit.DLC = 0xB;
     a84:	6843      	ldr	r3, [r0, #4]
     a86:	4a1b      	ldr	r2, [pc, #108]	; (af4 <_can_async_write+0x120>)
     a88:	401a      	ands	r2, r3
     a8a:	23b0      	movs	r3, #176	; 0xb0
     a8c:	031b      	lsls	r3, r3, #12
     a8e:	4313      	orrs	r3, r2
     a90:	6043      	str	r3, [r0, #4]
     a92:	e7c8      	b.n	a26 <_can_async_write+0x52>
	} else if (msg->len <= 24) {
     a94:	2b18      	cmp	r3, #24
     a96:	d807      	bhi.n	aa8 <_can_async_write+0xd4>
		f->R1.bit.DLC = 0xC;
     a98:	6843      	ldr	r3, [r0, #4]
     a9a:	4a16      	ldr	r2, [pc, #88]	; (af4 <_can_async_write+0x120>)
     a9c:	401a      	ands	r2, r3
     a9e:	23c0      	movs	r3, #192	; 0xc0
     aa0:	031b      	lsls	r3, r3, #12
     aa2:	4313      	orrs	r3, r2
     aa4:	6043      	str	r3, [r0, #4]
     aa6:	e7be      	b.n	a26 <_can_async_write+0x52>
	} else if (msg->len <= 32) {
     aa8:	2b20      	cmp	r3, #32
     aaa:	d807      	bhi.n	abc <_can_async_write+0xe8>
		f->R1.bit.DLC = 0xD;
     aac:	6843      	ldr	r3, [r0, #4]
     aae:	4a11      	ldr	r2, [pc, #68]	; (af4 <_can_async_write+0x120>)
     ab0:	401a      	ands	r2, r3
     ab2:	23d0      	movs	r3, #208	; 0xd0
     ab4:	031b      	lsls	r3, r3, #12
     ab6:	4313      	orrs	r3, r2
     ab8:	6043      	str	r3, [r0, #4]
     aba:	e7b4      	b.n	a26 <_can_async_write+0x52>
	} else if (msg->len <= 48) {
     abc:	2b30      	cmp	r3, #48	; 0x30
     abe:	d807      	bhi.n	ad0 <_can_async_write+0xfc>
		f->R1.bit.DLC = 0xE;
     ac0:	6843      	ldr	r3, [r0, #4]
     ac2:	4a0c      	ldr	r2, [pc, #48]	; (af4 <_can_async_write+0x120>)
     ac4:	401a      	ands	r2, r3
     ac6:	23e0      	movs	r3, #224	; 0xe0
     ac8:	031b      	lsls	r3, r3, #12
     aca:	4313      	orrs	r3, r2
     acc:	6043      	str	r3, [r0, #4]
     ace:	e7aa      	b.n	a26 <_can_async_write+0x52>
	} else if (msg->len <= 64) {
     ad0:	2b40      	cmp	r3, #64	; 0x40
     ad2:	d8a8      	bhi.n	a26 <_can_async_write+0x52>
		f->R1.bit.DLC = 0xF;
     ad4:	6842      	ldr	r2, [r0, #4]
     ad6:	23f0      	movs	r3, #240	; 0xf0
     ad8:	031b      	lsls	r3, r3, #12
     ada:	4313      	orrs	r3, r2
     adc:	6043      	str	r3, [r0, #4]
     ade:	e7a2      	b.n	a26 <_can_async_write+0x52>
		return ERR_NO_RESOURCE;
     ae0:	201c      	movs	r0, #28
     ae2:	4240      	negs	r0, r0
     ae4:	e7af      	b.n	a46 <_can_async_write+0x72>
		return ERR_NO_RESOURCE;
     ae6:	201c      	movs	r0, #28
     ae8:	4240      	negs	r0, r0
     aea:	e7ac      	b.n	a46 <_can_async_write+0x72>
     aec:	42001c00 	.word	0x42001c00
     af0:	20000c2c 	.word	0x20000c2c
     af4:	fff0ffff 	.word	0xfff0ffff
     af8:	00002831 	.word	0x00002831

00000afc <_can_async_set_irq_state>:

/**
 * \brief Set CAN Interrupt State
 */
void _can_async_set_irq_state(struct _can_async_device *const dev, enum can_async_callback_type type, bool state)
{
     afc:	b510      	push	{r4, lr}
	uint32_t ie;

	if (type == CAN_ASYNC_RX_CB) {
     afe:	2900      	cmp	r1, #0
     b00:	d009      	beq.n	b16 <_can_async_set_irq_state+0x1a>
		hri_can_write_IE_RF0NE_bit(dev->hw, state);
	} else if (type == CAN_ASYNC_TX_CB) {
     b02:	2901      	cmp	r1, #1
     b04:	d00e      	beq.n	b24 <_can_async_set_irq_state+0x28>
		hri_can_write_IE_TCE_bit(dev->hw, state);
		hri_can_write_TXBTIE_reg(dev->hw, CAN_TXBTIE_MASK);
	} else if (type == CAN_ASYNC_IRQ_CB) {
     b06:	2902      	cmp	r1, #2
     b08:	d10b      	bne.n	b22 <_can_async_set_irq_state+0x26>
		ie = hri_can_get_IE_reg(dev->hw, CAN_IE_RF0NE | CAN_IE_TCE);
     b0a:	6802      	ldr	r2, [r0, #0]
	tmp = ((Can *)hw)->IE.reg;
     b0c:	6d53      	ldr	r3, [r2, #84]	; 0x54
	tmp &= mask;
     b0e:	490c      	ldr	r1, [pc, #48]	; (b40 <_can_async_set_irq_state+0x44>)
     b10:	400b      	ands	r3, r1
	((Can *)hw)->IE.reg = data;
     b12:	6553      	str	r3, [r2, #84]	; 0x54
		hri_can_write_IE_reg(dev->hw, ie | CONF_CAN0_IE_REG);
	}

	return;
     b14:	e005      	b.n	b22 <_can_async_set_irq_state+0x26>
		hri_can_write_IE_RF0NE_bit(dev->hw, state);
     b16:	6801      	ldr	r1, [r0, #0]
	tmp = ((Can *)hw)->IE.reg;
     b18:	6d4b      	ldr	r3, [r1, #84]	; 0x54
	tmp &= ~CAN_IE_RF0NE;
     b1a:	2001      	movs	r0, #1
     b1c:	4383      	bics	r3, r0
	tmp |= value << CAN_IE_RF0NE_Pos;
     b1e:	431a      	orrs	r2, r3
	((Can *)hw)->IE.reg = tmp;
     b20:	654a      	str	r2, [r1, #84]	; 0x54
}
     b22:	bd10      	pop	{r4, pc}
		hri_can_write_IE_TCE_bit(dev->hw, state);
     b24:	6801      	ldr	r1, [r0, #0]
	tmp = ((Can *)hw)->IE.reg;
     b26:	6d4b      	ldr	r3, [r1, #84]	; 0x54
	tmp &= ~CAN_IE_TCE;
     b28:	4c06      	ldr	r4, [pc, #24]	; (b44 <_can_async_set_irq_state+0x48>)
     b2a:	4023      	ands	r3, r4
	tmp |= value << CAN_IE_TCE_Pos;
     b2c:	0252      	lsls	r2, r2, #9
     b2e:	431a      	orrs	r2, r3
	((Can *)hw)->IE.reg = tmp;
     b30:	654a      	str	r2, [r1, #84]	; 0x54
		hri_can_write_TXBTIE_reg(dev->hw, CAN_TXBTIE_MASK);
     b32:	6802      	ldr	r2, [r0, #0]
	((Can *)hw)->TXBTIE.reg = data;
     b34:	2101      	movs	r1, #1
     b36:	4249      	negs	r1, r1
     b38:	23e0      	movs	r3, #224	; 0xe0
     b3a:	50d1      	str	r1, [r2, r3]
     b3c:	e7f1      	b.n	b22 <_can_async_set_irq_state+0x26>
     b3e:	46c0      	nop			; (mov r8, r8)
     b40:	00000201 	.word	0x00000201
     b44:	fffffdff 	.word	0xfffffdff

00000b48 <_can_async_set_filter>:
                              struct can_filter *filter)
{
	struct _can_standard_message_filter_element *sf;
	struct _can_extended_message_filter_element *ef;

	sf = &((struct _can_context *)dev->context)->rx_std_filter[index];
     b48:	6980      	ldr	r0, [r0, #24]
	ef = &((struct _can_context *)dev->context)->rx_ext_filter[index];

	if (fmt == CAN_FMT_STDID) {
     b4a:	2a00      	cmp	r2, #0
     b4c:	d120      	bne.n	b90 <_can_async_set_filter+0x48>
	sf = &((struct _can_context *)dev->context)->rx_std_filter[index];
     b4e:	0089      	lsls	r1, r1, #2
     b50:	68c2      	ldr	r2, [r0, #12]
     b52:	1851      	adds	r1, r2, r1
		if (filter == NULL) {
     b54:	2b00      	cmp	r3, #0
     b56:	d019      	beq.n	b8c <_can_async_set_filter+0x44>
			sf->S0.val = 0;
			return ERR_NONE;
		}
		sf->S0.val       = filter->mask;
     b58:	685a      	ldr	r2, [r3, #4]
     b5a:	600a      	str	r2, [r1, #0]
		sf->S0.bit.SFID1 = filter->id;
     b5c:	681a      	ldr	r2, [r3, #0]
     b5e:	680b      	ldr	r3, [r1, #0]
     b60:	0552      	lsls	r2, r2, #21
     b62:	0952      	lsrs	r2, r2, #5
     b64:	4818      	ldr	r0, [pc, #96]	; (bc8 <_can_async_set_filter+0x80>)
     b66:	4003      	ands	r3, r0
     b68:	4313      	orrs	r3, r2
     b6a:	600b      	str	r3, [r1, #0]
		sf->S0.bit.SFT   = _CAN_SFT_CLASSIC;
     b6c:	680b      	ldr	r3, [r1, #0]
     b6e:	009b      	lsls	r3, r3, #2
     b70:	089b      	lsrs	r3, r3, #2
     b72:	2280      	movs	r2, #128	; 0x80
     b74:	0612      	lsls	r2, r2, #24
     b76:	4313      	orrs	r3, r2
     b78:	600b      	str	r3, [r1, #0]
		sf->S0.bit.SFEC  = _CAN_SFEC_STF0M;
     b7a:	680b      	ldr	r3, [r1, #0]
     b7c:	4a13      	ldr	r2, [pc, #76]	; (bcc <_can_async_set_filter+0x84>)
     b7e:	401a      	ands	r2, r3
     b80:	2380      	movs	r3, #128	; 0x80
     b82:	051b      	lsls	r3, r3, #20
     b84:	4313      	orrs	r3, r2
     b86:	600b      	str	r3, [r1, #0]
		ef->F1.val      = filter->mask;
		ef->F1.bit.EFT  = _CAN_EFT_CLASSIC;
	}

	return ERR_NONE;
}
     b88:	2000      	movs	r0, #0
     b8a:	4770      	bx	lr
			sf->S0.val = 0;
     b8c:	600b      	str	r3, [r1, #0]
			return ERR_NONE;
     b8e:	e7fb      	b.n	b88 <_can_async_set_filter+0x40>
	} else if (fmt == CAN_FMT_EXTID) {
     b90:	2a01      	cmp	r2, #1
     b92:	d1f9      	bne.n	b88 <_can_async_set_filter+0x40>
	ef = &((struct _can_context *)dev->context)->rx_ext_filter[index];
     b94:	00c9      	lsls	r1, r1, #3
     b96:	6902      	ldr	r2, [r0, #16]
     b98:	1851      	adds	r1, r2, r1
		if (filter == NULL) {
     b9a:	2b00      	cmp	r3, #0
     b9c:	d012      	beq.n	bc4 <_can_async_set_filter+0x7c>
		ef->F0.val      = filter->id;
     b9e:	681a      	ldr	r2, [r3, #0]
     ba0:	600a      	str	r2, [r1, #0]
		ef->F0.bit.EFEC = _CAN_EFEC_STF0M;
     ba2:	680a      	ldr	r2, [r1, #0]
     ba4:	00d2      	lsls	r2, r2, #3
     ba6:	08d2      	lsrs	r2, r2, #3
     ba8:	2080      	movs	r0, #128	; 0x80
     baa:	0580      	lsls	r0, r0, #22
     bac:	4302      	orrs	r2, r0
     bae:	600a      	str	r2, [r1, #0]
		ef->F1.val      = filter->mask;
     bb0:	685b      	ldr	r3, [r3, #4]
     bb2:	604b      	str	r3, [r1, #4]
		ef->F1.bit.EFT  = _CAN_EFT_CLASSIC;
     bb4:	684b      	ldr	r3, [r1, #4]
     bb6:	009b      	lsls	r3, r3, #2
     bb8:	089b      	lsrs	r3, r3, #2
     bba:	2280      	movs	r2, #128	; 0x80
     bbc:	0612      	lsls	r2, r2, #24
     bbe:	4313      	orrs	r3, r2
     bc0:	604b      	str	r3, [r1, #4]
     bc2:	e7e1      	b.n	b88 <_can_async_set_filter+0x40>
			ef->F0.val = 0;
     bc4:	600b      	str	r3, [r1, #0]
			return ERR_NONE;
     bc6:	e7df      	b.n	b88 <_can_async_set_filter+0x40>
     bc8:	f800ffff 	.word	0xf800ffff
     bcc:	c7ffffff 	.word	0xc7ffffff

00000bd0 <CAN0_Handler>:

/*
 * \brief CAN interrupt handler
 */
void CAN0_Handler(void)
{
     bd0:	b570      	push	{r4, r5, r6, lr}
	struct _can_async_device *dev = _can0_dev;
     bd2:	4b19      	ldr	r3, [pc, #100]	; (c38 <CAN0_Handler+0x68>)
     bd4:	681d      	ldr	r5, [r3, #0]
	uint32_t                  ir;
	ir = hri_can_read_IR_reg(dev->hw);
     bd6:	682b      	ldr	r3, [r5, #0]
	return ((Can *)hw)->IR.reg;
     bd8:	6d1c      	ldr	r4, [r3, #80]	; 0x50

	if (ir & CAN_IR_RF0N) {
     bda:	07e3      	lsls	r3, r4, #31
     bdc:	d414      	bmi.n	c08 <CAN0_Handler+0x38>
		dev->cb.rx_done(dev);
	}

	if (ir & CAN_IR_TC) {
     bde:	05a3      	lsls	r3, r4, #22
     be0:	d416      	bmi.n	c10 <CAN0_Handler+0x40>
		dev->cb.tx_done(dev);
	}

	if (ir & CAN_IR_BO) {
     be2:	01a3      	lsls	r3, r4, #6
     be4:	d418      	bmi.n	c18 <CAN0_Handler+0x48>
		dev->cb.irq_handler(dev, CAN_IRQ_BO);
	}

	if (ir & CAN_IR_EW) {
     be6:	01e3      	lsls	r3, r4, #7
     be8:	d41b      	bmi.n	c22 <CAN0_Handler+0x52>
		dev->cb.irq_handler(dev, CAN_IRQ_EW);
	}

	if (ir & CAN_IR_EP) {
     bea:	0223      	lsls	r3, r4, #8
     bec:	d507      	bpl.n	bfe <CAN0_Handler+0x2e>
		dev->cb.irq_handler(dev, hri_can_get_PSR_EP_bit(dev->hw) ? CAN_IRQ_EP : CAN_IRQ_EA);
     bee:	682b      	ldr	r3, [r5, #0]
	return (((Can *)hw)->PSR.reg & CAN_PSR_EP) >> CAN_PSR_EP_Pos;
     bf0:	6c59      	ldr	r1, [r3, #68]	; 0x44
     bf2:	0689      	lsls	r1, r1, #26
     bf4:	0fc9      	lsrs	r1, r1, #31
     bf6:	3101      	adds	r1, #1
     bf8:	0028      	movs	r0, r5
     bfa:	68eb      	ldr	r3, [r5, #12]
     bfc:	4798      	blx	r3
	}

	if (ir & CAN_IR_RF0L) {
     bfe:	0723      	lsls	r3, r4, #28
     c00:	d414      	bmi.n	c2c <CAN0_Handler+0x5c>
		dev->cb.irq_handler(dev, CAN_IRQ_DO);
	}

	hri_can_write_IR_reg(dev->hw, ir);
     c02:	682b      	ldr	r3, [r5, #0]
	((Can *)hw)->IR.reg = data;
     c04:	651c      	str	r4, [r3, #80]	; 0x50
}
     c06:	bd70      	pop	{r4, r5, r6, pc}
		dev->cb.rx_done(dev);
     c08:	0028      	movs	r0, r5
     c0a:	68ab      	ldr	r3, [r5, #8]
     c0c:	4798      	blx	r3
     c0e:	e7e6      	b.n	bde <CAN0_Handler+0xe>
		dev->cb.tx_done(dev);
     c10:	0028      	movs	r0, r5
     c12:	686b      	ldr	r3, [r5, #4]
     c14:	4798      	blx	r3
     c16:	e7e4      	b.n	be2 <CAN0_Handler+0x12>
		dev->cb.irq_handler(dev, CAN_IRQ_BO);
     c18:	2103      	movs	r1, #3
     c1a:	0028      	movs	r0, r5
     c1c:	68eb      	ldr	r3, [r5, #12]
     c1e:	4798      	blx	r3
     c20:	e7e1      	b.n	be6 <CAN0_Handler+0x16>
		dev->cb.irq_handler(dev, CAN_IRQ_EW);
     c22:	2100      	movs	r1, #0
     c24:	0028      	movs	r0, r5
     c26:	68eb      	ldr	r3, [r5, #12]
     c28:	4798      	blx	r3
     c2a:	e7de      	b.n	bea <CAN0_Handler+0x1a>
		dev->cb.irq_handler(dev, CAN_IRQ_DO);
     c2c:	2104      	movs	r1, #4
     c2e:	0028      	movs	r0, r5
     c30:	68eb      	ldr	r3, [r5, #12]
     c32:	4798      	blx	r3
     c34:	e7e5      	b.n	c02 <CAN0_Handler+0x32>
     c36:	46c0      	nop			; (mov r8, r8)
     c38:	2000003c 	.word	0x2000003c

00000c3c <_get_cycles_for_ms>:

/**
 * \brief Retrieve the amount of cycles to delay for the given amount of ms
 */
uint32_t _get_cycles_for_ms(const uint16_t ms)
{
     c3c:	b510      	push	{r4, lr}
     c3e:	0003      	movs	r3, r0
		return (ms * (freq / 10000) + 2) / 3 * 10;
     c40:	20c8      	movs	r0, #200	; 0xc8
     c42:	0040      	lsls	r0, r0, #1
     c44:	4358      	muls	r0, r3
     c46:	3002      	adds	r0, #2
     c48:	2103      	movs	r1, #3
     c4a:	4b03      	ldr	r3, [pc, #12]	; (c58 <_get_cycles_for_ms+0x1c>)
     c4c:	4798      	blx	r3
     c4e:	0003      	movs	r3, r0
     c50:	0080      	lsls	r0, r0, #2
     c52:	18c0      	adds	r0, r0, r3
     c54:	0040      	lsls	r0, r0, #1
	return _get_cycles_for_ms_internal(ms, CONF_CPU_FREQUENCY, CPU_FREQ_POWER);
}
     c56:	bd10      	pop	{r4, pc}
     c58:	00000cb3 	.word	0x00000cb3

00000c5c <_delay_cycles>:
{
#ifndef _UNIT_TEST_
	(void)hw;
	(void)cycles;
#if defined __GNUC__
	__asm(".syntax unified\n"
     c5c:	3901      	subs	r1, #1
     c5e:	d8fd      	bhi.n	c5c <_delay_cycles>
	__asm("__delay:\n"
	      "subs r1, r1, #1\n"
	      "bhi __delay\n");
#endif
#endif
}
     c60:	4770      	bx	lr
	...

00000c64 <_init_chip>:

/**
 * \brief Initialize the hardware abstraction layer
 */
void _init_chip(void)
{
     c64:	b510      	push	{r4, lr}
}

static inline void hri_nvmctrl_set_CTRLB_RWS_bf(const void *const hw, hri_nvmctrl_ctrlb_reg_t mask)
{
	NVMCTRL_CRITICAL_SECTION_ENTER();
	((Nvmctrl *)hw)->CTRLB.reg |= NVMCTRL_CTRLB_RWS(mask);
     c66:	4b08      	ldr	r3, [pc, #32]	; (c88 <_init_chip+0x24>)
     c68:	685a      	ldr	r2, [r3, #4]
     c6a:	605a      	str	r2, [r3, #4]
	hri_nvmctrl_set_CTRLB_RWS_bf(NVMCTRL, CONF_NVM_WAIT_STATE);

	_osc32kctrl_init_sources();
     c6c:	4b07      	ldr	r3, [pc, #28]	; (c8c <_init_chip+0x28>)
     c6e:	4798      	blx	r3
	_oscctrl_init_sources();
     c70:	4b07      	ldr	r3, [pc, #28]	; (c90 <_init_chip+0x2c>)
     c72:	4798      	blx	r3
	_mclk_init();
     c74:	4b07      	ldr	r3, [pc, #28]	; (c94 <_init_chip+0x30>)
     c76:	4798      	blx	r3
#if _GCLK_INIT_1ST
	_gclk_init_generators_by_fref(_GCLK_INIT_1ST);
#endif
	_oscctrl_init_referenced_generators();
     c78:	4b07      	ldr	r3, [pc, #28]	; (c98 <_init_chip+0x34>)
     c7a:	4798      	blx	r3
	_gclk_init_generators_by_fref(_GCLK_INIT_LAST);
     c7c:	20ff      	movs	r0, #255	; 0xff
     c7e:	4b07      	ldr	r3, [pc, #28]	; (c9c <_init_chip+0x38>)
     c80:	4798      	blx	r3

	_div_init();
     c82:	4b07      	ldr	r3, [pc, #28]	; (ca0 <_init_chip+0x3c>)
     c84:	4798      	blx	r3
#endif

#if (CONF_PORT_EVCTRL_PORT_0 | CONF_PORT_EVCTRL_PORT_1 | CONF_PORT_EVCTRL_PORT_2 | CONF_PORT_EVCTRL_PORT_3)
	_port_event_init();
#endif
}
     c86:	bd10      	pop	{r4, pc}
     c88:	41004000 	.word	0x41004000
     c8c:	00000d19 	.word	0x00000d19
     c90:	00000d31 	.word	0x00000d31
     c94:	00000d0d 	.word	0x00000d0d
     c98:	00000d71 	.word	0x00000d71
     c9c:	00000ce9 	.word	0x00000ce9
     ca0:	00000ca5 	.word	0x00000ca5

00000ca4 <_div_init>:

static inline void hri_divas_write_CTRLA_DLZ_bit(const void *const hw, bool value)
{
	uint8_t tmp;
	DIVAS_CRITICAL_SECTION_ENTER();
	tmp = ((Divas *)hw)->CTRLA.reg;
     ca4:	2290      	movs	r2, #144	; 0x90
     ca6:	05d2      	lsls	r2, r2, #23
     ca8:	7813      	ldrb	r3, [r2, #0]
	tmp &= ~DIVAS_CTRLA_DLZ;
     caa:	2102      	movs	r1, #2
     cac:	438b      	bics	r3, r1
	tmp |= value << DIVAS_CTRLA_DLZ_Pos;
	((Divas *)hw)->CTRLA.reg = tmp;
     cae:	7013      	strb	r3, [r2, #0]
 * \brief Initialize hardware for division operation
 */
void _div_init(void)
{
	hri_divas_write_CTRLA_DLZ_bit(DIVAS, CONF_DIVAS_DLZ);
}
     cb0:	4770      	bx	lr

00000cb2 <__aeabi_uidiv>:

/**
 * \brief Do unsigned division
 */
uint32_t __aeabi_uidiv(uint32_t numerator, uint32_t denominator)
{
     cb2:	b510      	push	{r4, lr}
     cb4:	b082      	sub	sp, #8
  __ASM volatile ("MRS %0, primask" : "=r" (result) );
     cb6:	f3ef 8310 	mrs	r3, PRIMASK
	uint32_t res;
	_DIVAS_CRITICAL_ENTER();
     cba:	9301      	str	r3, [sp, #4]
  __ASM volatile ("cpsid i" : : : "memory");
     cbc:	b672      	cpsid	i
	DIVAS->CTRLA.bit.SIGNED = s;
     cbe:	2390      	movs	r3, #144	; 0x90
     cc0:	05db      	lsls	r3, r3, #23
     cc2:	781a      	ldrb	r2, [r3, #0]
     cc4:	2401      	movs	r4, #1
     cc6:	43a2      	bics	r2, r4
     cc8:	701a      	strb	r2, [r3, #0]
	DIVAS->DIVIDEND.reg     = n;
     cca:	6098      	str	r0, [r3, #8]
	DIVAS->DIVISOR.reg      = d;
     ccc:	60d9      	str	r1, [r3, #12]
	while (DIVAS->STATUS.bit.BUSY) {
     cce:	001a      	movs	r2, r3
     cd0:	7913      	ldrb	r3, [r2, #4]
     cd2:	07db      	lsls	r3, r3, #31
     cd4:	d4fc      	bmi.n	cd0 <__aeabi_uidiv+0x1e>
	_divas_div(0, numerator, denominator);
	res = _divas_result32();
     cd6:	2390      	movs	r3, #144	; 0x90
     cd8:	05db      	lsls	r3, r3, #23
     cda:	6918      	ldr	r0, [r3, #16]
	_DIVAS_CRITICAL_LEAVE();
     cdc:	9b01      	ldr	r3, [sp, #4]
  __ASM volatile ("MSR primask, %0" : : "r" (priMask) : "memory");
     cde:	f383 8810 	msr	PRIMASK, r3
	return res;
}
     ce2:	b002      	add	sp, #8
     ce4:	bd10      	pop	{r4, pc}
	...

00000ce8 <_gclk_init_generators_by_fref>:

void _gclk_init_generators_by_fref(uint32_t bm)
{

#if CONF_GCLK_GENERATOR_0_CONFIG == 1
	if (bm & (1ul << 0)) {
     ce8:	07c3      	lsls	r3, r0, #31
     cea:	d507      	bpl.n	cfc <_gclk_init_generators_by_fref+0x14>
	((Gclk *)hw)->GENCTRL[index].reg = data;
     cec:	4a04      	ldr	r2, [pc, #16]	; (d00 <_gclk_init_generators_by_fref+0x18>)
     cee:	4b05      	ldr	r3, [pc, #20]	; (d04 <_gclk_init_generators_by_fref+0x1c>)
     cf0:	621a      	str	r2, [r3, #32]
	while (((Gclk *)hw)->SYNCBUSY.reg & reg) {
     cf2:	0019      	movs	r1, r3
     cf4:	4a04      	ldr	r2, [pc, #16]	; (d08 <_gclk_init_generators_by_fref+0x20>)
     cf6:	684b      	ldr	r3, [r1, #4]
     cf8:	4213      	tst	r3, r2
     cfa:	d1fc      	bne.n	cf6 <_gclk_init_generators_by_fref+0xe>
		        | (CONF_GCLK_GEN_8_DIVSEL << GCLK_GENCTRL_DIVSEL_Pos) | (CONF_GCLK_GEN_8_OE << GCLK_GENCTRL_OE_Pos)
		        | (CONF_GCLK_GEN_8_OOV << GCLK_GENCTRL_OOV_Pos) | (CONF_GCLK_GEN_8_IDC << GCLK_GENCTRL_IDC_Pos)
		        | (CONF_GCLK_GENERATOR_8_CONFIG << GCLK_GENCTRL_GENEN_Pos) | CONF_GCLK_GEN_8_SOURCE);
	}
#endif
}
     cfc:	4770      	bx	lr
     cfe:	46c0      	nop			; (mov r8, r8)
     d00:	00010106 	.word	0x00010106
     d04:	40001c00 	.word	0x40001c00
     d08:	000007fd 	.word	0x000007fd

00000d0c <_mclk_init>:
	((Mclk *)hw)->CPUDIV.reg = data;
     d0c:	2201      	movs	r2, #1
     d0e:	4b01      	ldr	r3, [pc, #4]	; (d14 <_mclk_init+0x8>)
     d10:	711a      	strb	r2, [r3, #4]
 */
void _mclk_init(void)
{
	void *hw = (void *)MCLK;
	hri_mclk_write_CPUDIV_reg(hw, MCLK_CPUDIV_CPUDIV(CONF_MCLK_CPUDIV));
}
     d12:	4770      	bx	lr
     d14:	40000800 	.word	0x40000800

00000d18 <_osc32kctrl_init_sources>:
}

static inline hri_osc32kctrl_osculp32k_reg_t hri_osc32kctrl_read_OSCULP32K_CALIB_bf(const void *const hw)
{
	uint32_t tmp;
	tmp = ((Osc32kctrl *)hw)->OSCULP32K.reg;
     d18:	4b04      	ldr	r3, [pc, #16]	; (d2c <_osc32kctrl_init_sources+0x14>)
     d1a:	69da      	ldr	r2, [r3, #28]
	calib = hri_osc32kctrl_read_OSCULP32K_CALIB_bf(hw);
	hri_osc32kctrl_write_OSCULP32K_reg(hw,
#if CONF_OSC32K_CALIB_ENABLE == 1
	                                   OSC32KCTRL_OSCULP32K_CALIB(CONF_OSC32K_CALIB)
#else
	                                   OSC32KCTRL_OSCULP32K_CALIB(calib)
     d1c:	21f8      	movs	r1, #248	; 0xf8
     d1e:	0149      	lsls	r1, r1, #5
     d20:	400a      	ands	r2, r1
}

static inline void hri_osc32kctrl_write_OSCULP32K_reg(const void *const hw, hri_osc32kctrl_osculp32k_reg_t data)
{
	OSC32KCTRL_CRITICAL_SECTION_ENTER();
	((Osc32kctrl *)hw)->OSCULP32K.reg = data;
     d22:	61da      	str	r2, [r3, #28]
	((Osc32kctrl *)hw)->RTCCTRL.reg = data;
     d24:	2200      	movs	r2, #0
     d26:	611a      	str	r2, [r3, #16]
		;
#endif
#endif
	hri_osc32kctrl_write_RTCCTRL_reg(hw, OSC32KCTRL_RTCCTRL_RTCSEL(CONF_RTCCTRL));
	(void)calib;
}
     d28:	4770      	bx	lr
     d2a:	46c0      	nop			; (mov r8, r8)
     d2c:	40001400 	.word	0x40001400

00000d30 <_oscctrl_init_sources>:
}

static inline void hri_oscctrl_write_OSC48MCTRL_reg(const void *const hw, hri_oscctrl_osc48mctrl_reg_t data)
{
	OSCCTRL_CRITICAL_SECTION_ENTER();
	((Oscctrl *)hw)->OSC48MCTRL.reg = data;
     d30:	4b0e      	ldr	r3, [pc, #56]	; (d6c <_oscctrl_init_sources+0x3c>)
     d32:	2202      	movs	r2, #2
     d34:	751a      	strb	r2, [r3, #20]
}

static inline void hri_oscctrl_write_OSC48MDIV_reg(const void *const hw, hri_oscctrl_osc48mdiv_reg_t data)
{
	OSCCTRL_CRITICAL_SECTION_ENTER();
	((Oscctrl *)hw)->OSC48MDIV.reg = data;
     d36:	3209      	adds	r2, #9
     d38:	755a      	strb	r2, [r3, #21]
	while (((Oscctrl *)hw)->OSC48MSYNCBUSY.reg & reg) {
     d3a:	0019      	movs	r1, r3
     d3c:	3a07      	subs	r2, #7
     d3e:	698b      	ldr	r3, [r1, #24]
     d40:	421a      	tst	r2, r3
     d42:	d1fc      	bne.n	d3e <_oscctrl_init_sources+0xe>
	return (((Oscctrl *)hw)->OSC48MSYNCBUSY.reg & OSCCTRL_OSC48MSYNCBUSY_OSC48MDIV)
     d44:	4909      	ldr	r1, [pc, #36]	; (d6c <_oscctrl_init_sources+0x3c>)
#if CONF_OSC48M_CONFIG == 1
	hri_oscctrl_write_OSC48MCTRL_reg(hw,
	                                 (CONF_OSC48M_RUNSTDBY << OSCCTRL_OSC48MCTRL_RUNSTDBY_Pos)
	                                     | (CONF_OSC48M_ENABLE << OSCCTRL_OSC48MCTRL_ENABLE_Pos));
	hri_oscctrl_write_OSC48MDIV_reg(hw, OSCCTRL_OSC48MDIV_DIV(CONF_OSC48M_DIV));
	while (hri_oscctrl_get_OSC48MSYNCBUSY_OSC48MDIV_bit(hw))
     d46:	2204      	movs	r2, #4
     d48:	698b      	ldr	r3, [r1, #24]
     d4a:	421a      	tst	r2, r3
     d4c:	d1fc      	bne.n	d48 <_oscctrl_init_sources+0x18>
}

static inline void hri_oscctrl_write_OSC48MSTUP_reg(const void *const hw, hri_oscctrl_osc48mstup_reg_t data)
{
	OSCCTRL_CRITICAL_SECTION_ENTER();
	((Oscctrl *)hw)->OSC48MSTUP.reg = data;
     d4e:	2207      	movs	r2, #7
     d50:	4b06      	ldr	r3, [pc, #24]	; (d6c <_oscctrl_init_sources+0x3c>)
     d52:	759a      	strb	r2, [r3, #22]
	return (((Oscctrl *)hw)->STATUS.reg & OSCCTRL_STATUS_OSC48MRDY) >> OSCCTRL_STATUS_OSC48MRDY_Pos;
     d54:	0019      	movs	r1, r3
#endif
#endif

#if CONF_OSC48M_CONFIG == 1
#if CONF_OSC48M_ENABLE == 1
	while (!hri_oscctrl_get_STATUS_OSC48MRDY_bit(hw))
     d56:	3209      	adds	r2, #9
     d58:	68cb      	ldr	r3, [r1, #12]
     d5a:	421a      	tst	r2, r3
     d5c:	d0fc      	beq.n	d58 <_oscctrl_init_sources+0x28>
	((Oscctrl *)hw)->OSC48MCTRL.reg |= OSCCTRL_OSC48MCTRL_ONDEMAND;
     d5e:	4a03      	ldr	r2, [pc, #12]	; (d6c <_oscctrl_init_sources+0x3c>)
     d60:	7d13      	ldrb	r3, [r2, #20]
     d62:	2180      	movs	r1, #128	; 0x80
     d64:	430b      	orrs	r3, r1
     d66:	7513      	strb	r3, [r2, #20]
#if CONF_OSC48M_ONDEMAND == 1
	hri_oscctrl_set_OSC48MCTRL_ONDEMAND_bit(hw);
#endif
#endif
	(void)hw;
}
     d68:	4770      	bx	lr
     d6a:	46c0      	nop			; (mov r8, r8)
     d6c:	40001000 	.word	0x40001000

00000d70 <_oscctrl_init_referenced_generators>:
#if CONF_DPLL_ONDEMAND == 1
	hri_oscctrl_set_DPLLCTRLA_ONDEMAND_bit(hw);
#endif
#endif
	(void)hw;
}
     d70:	4770      	bx	lr
	...

00000d74 <_sercom_get_hardware_index>:

/**
 * \brief Retrieve ordinal number of the given sercom hardware instance
 */
static uint8_t _sercom_get_hardware_index(const void *const hw)
{
     d74:	b530      	push	{r4, r5, lr}
     d76:	b089      	sub	sp, #36	; 0x24
	Sercom *const sercom_modules[] = SERCOM_INSTS;
     d78:	4b0c      	ldr	r3, [pc, #48]	; (dac <_sercom_get_hardware_index+0x38>)
     d7a:	466a      	mov	r2, sp
     d7c:	cb32      	ldmia	r3!, {r1, r4, r5}
     d7e:	c232      	stmia	r2!, {r1, r4, r5}
     d80:	cb32      	ldmia	r3!, {r1, r4, r5}
     d82:	c232      	stmia	r2!, {r1, r4, r5}
     d84:	cb12      	ldmia	r3!, {r1, r4}
     d86:	c212      	stmia	r2!, {r1, r4}
	/* Find index for SERCOM instance. */
	for (uint32_t i = 0; i < SERCOM_INST_NUM; i++) {
		if ((uint32_t)hw == (uint32_t)sercom_modules[i]) {
     d88:	9b00      	ldr	r3, [sp, #0]
     d8a:	4283      	cmp	r3, r0
     d8c:	d00b      	beq.n	da6 <_sercom_get_hardware_index+0x32>
     d8e:	2301      	movs	r3, #1
     d90:	009a      	lsls	r2, r3, #2
     d92:	4669      	mov	r1, sp
     d94:	5852      	ldr	r2, [r2, r1]
     d96:	4282      	cmp	r2, r0
     d98:	d006      	beq.n	da8 <_sercom_get_hardware_index+0x34>
	for (uint32_t i = 0; i < SERCOM_INST_NUM; i++) {
     d9a:	3301      	adds	r3, #1
     d9c:	2b08      	cmp	r3, #8
     d9e:	d1f7      	bne.n	d90 <_sercom_get_hardware_index+0x1c>
			return i;
		}
	}
	return 0;
     da0:	2000      	movs	r0, #0
}
     da2:	b009      	add	sp, #36	; 0x24
     da4:	bd30      	pop	{r4, r5, pc}
	for (uint32_t i = 0; i < SERCOM_INST_NUM; i++) {
     da6:	2300      	movs	r3, #0
			return i;
     da8:	b2d8      	uxtb	r0, r3
     daa:	e7fa      	b.n	da2 <_sercom_get_hardware_index+0x2e>
     dac:	000028d0 	.word	0x000028d0

00000db0 <_sercom_get_irq_num>:

/**
 * \brief Retrieve IRQ number for the given hardware instance
 */
static uint8_t _sercom_get_irq_num(const void *const hw)
{
     db0:	b510      	push	{r4, lr}
	if (SERCOM6 == hw || SERCOM7 == hw) {
     db2:	2386      	movs	r3, #134	; 0x86
     db4:	05db      	lsls	r3, r3, #23
     db6:	4298      	cmp	r0, r3
     db8:	d007      	beq.n	dca <_sercom_get_irq_num+0x1a>
     dba:	4b08      	ldr	r3, [pc, #32]	; (ddc <_sercom_get_irq_num+0x2c>)
     dbc:	4298      	cmp	r0, r3
     dbe:	d004      	beq.n	dca <_sercom_get_irq_num+0x1a>
		return SERCOM6_IRQn + (((uint32_t)hw - (uint32_t)SERCOM6) >> 10);
	} else {
		return SERCOM0_IRQn + _sercom_get_hardware_index(hw);
     dc0:	4b07      	ldr	r3, [pc, #28]	; (de0 <_sercom_get_irq_num+0x30>)
     dc2:	4798      	blx	r3
     dc4:	3009      	adds	r0, #9
     dc6:	b2c0      	uxtb	r0, r0
	}
}
     dc8:	bd10      	pop	{r4, pc}
		return SERCOM6_IRQn + (((uint32_t)hw - (uint32_t)SERCOM6) >> 10);
     dca:	23bd      	movs	r3, #189	; 0xbd
     dcc:	061b      	lsls	r3, r3, #24
     dce:	469c      	mov	ip, r3
     dd0:	4460      	add	r0, ip
     dd2:	0a80      	lsrs	r0, r0, #10
     dd4:	3009      	adds	r0, #9
     dd6:	b2c0      	uxtb	r0, r0
     dd8:	e7f6      	b.n	dc8 <_sercom_get_irq_num+0x18>
     dda:	46c0      	nop			; (mov r8, r8)
     ddc:	43000400 	.word	0x43000400
     de0:	00000d75 	.word	0x00000d75

00000de4 <_usart_init>:
{
     de4:	b510      	push	{r4, lr}
     de6:	0004      	movs	r4, r0
	uint8_t sercom_offset = _sercom_get_hardware_index(hw);
     de8:	4b1e      	ldr	r3, [pc, #120]	; (e64 <_usart_init+0x80>)
     dea:	4798      	blx	r3
		if (_usarts[i].number == sercom_offset) {
     dec:	2804      	cmp	r0, #4
     dee:	d004      	beq.n	dfa <_usart_init+0x16>
	ASSERT(false);
     df0:	4a1d      	ldr	r2, [pc, #116]	; (e68 <_usart_init+0x84>)
     df2:	491e      	ldr	r1, [pc, #120]	; (e6c <_usart_init+0x88>)
     df4:	2000      	movs	r0, #0
     df6:	4b1e      	ldr	r3, [pc, #120]	; (e70 <_usart_init+0x8c>)
     df8:	4798      	blx	r3
	};
}

static inline bool hri_sercomusart_is_syncing(const void *const hw, hri_sercomusart_syncbusy_reg_t reg)
{
	return ((Sercom *)hw)->USART.SYNCBUSY.reg & reg;
     dfa:	69e3      	ldr	r3, [r4, #28]
	if (!hri_sercomusart_is_syncing(hw, SERCOM_USART_SYNCBUSY_SWRST)) {
     dfc:	07db      	lsls	r3, r3, #31
     dfe:	d418      	bmi.n	e32 <_usart_init+0x4e>
	while (((Sercom *)hw)->USART.SYNCBUSY.reg & reg) {
     e00:	2203      	movs	r2, #3
     e02:	69e3      	ldr	r3, [r4, #28]
     e04:	421a      	tst	r2, r3
     e06:	d1fc      	bne.n	e02 <_usart_init+0x1e>
static inline hri_sercomusart_ctrla_reg_t hri_sercomusart_get_CTRLA_reg(const void *const           hw,
                                                                        hri_sercomusart_ctrla_reg_t mask)
{
	uint32_t tmp;
	hri_sercomusart_wait_for_sync(hw, SERCOM_USART_SYNCBUSY_SWRST | SERCOM_USART_SYNCBUSY_ENABLE);
	tmp = ((Sercom *)hw)->USART.CTRLA.reg;
     e08:	6823      	ldr	r3, [r4, #0]
		if (hri_sercomusart_get_CTRLA_reg(hw, SERCOM_USART_CTRLA_ENABLE)) {
     e0a:	079b      	lsls	r3, r3, #30
     e0c:	d50b      	bpl.n	e26 <_usart_init+0x42>
	((Sercom *)hw)->USART.CTRLA.reg &= ~SERCOM_USART_CTRLA_ENABLE;
     e0e:	6823      	ldr	r3, [r4, #0]
     e10:	2202      	movs	r2, #2
     e12:	4393      	bics	r3, r2
     e14:	6023      	str	r3, [r4, #0]
	while (((Sercom *)hw)->USART.SYNCBUSY.reg & reg) {
     e16:	3201      	adds	r2, #1
     e18:	69e3      	ldr	r3, [r4, #28]
     e1a:	421a      	tst	r2, r3
     e1c:	d1fc      	bne.n	e18 <_usart_init+0x34>
     e1e:	2202      	movs	r2, #2
     e20:	69e3      	ldr	r3, [r4, #28]
     e22:	421a      	tst	r2, r3
     e24:	d1fc      	bne.n	e20 <_usart_init+0x3c>
}

static inline void hri_sercomusart_write_CTRLA_reg(const void *const hw, hri_sercomusart_ctrla_reg_t data)
{
	SERCOM_CRITICAL_SECTION_ENTER();
	((Sercom *)hw)->USART.CTRLA.reg = data;
     e26:	2305      	movs	r3, #5
     e28:	6023      	str	r3, [r4, #0]
	while (((Sercom *)hw)->USART.SYNCBUSY.reg & reg) {
     e2a:	2203      	movs	r2, #3
     e2c:	69e3      	ldr	r3, [r4, #28]
     e2e:	421a      	tst	r2, r3
     e30:	d1fc      	bne.n	e2c <_usart_init+0x48>
     e32:	2201      	movs	r2, #1
     e34:	69e3      	ldr	r3, [r4, #28]
     e36:	421a      	tst	r2, r3
     e38:	d1fc      	bne.n	e34 <_usart_init+0x50>
	((Sercom *)hw)->USART.CTRLA.reg = data;
     e3a:	4b0e      	ldr	r3, [pc, #56]	; (e74 <_usart_init+0x90>)
     e3c:	6023      	str	r3, [r4, #0]
	while (((Sercom *)hw)->USART.SYNCBUSY.reg & reg) {
     e3e:	2203      	movs	r2, #3
     e40:	69e3      	ldr	r3, [r4, #28]
     e42:	421a      	tst	r2, r3
     e44:	d1fc      	bne.n	e40 <_usart_init+0x5c>
}

static inline void hri_sercomusart_write_CTRLB_reg(const void *const hw, hri_sercomusart_ctrlb_reg_t data)
{
	SERCOM_CRITICAL_SECTION_ENTER();
	((Sercom *)hw)->USART.CTRLB.reg = data;
     e46:	23c0      	movs	r3, #192	; 0xc0
     e48:	029b      	lsls	r3, r3, #10
     e4a:	6063      	str	r3, [r4, #4]
	while (((Sercom *)hw)->USART.SYNCBUSY.reg & reg) {
     e4c:	2207      	movs	r2, #7
     e4e:	69e3      	ldr	r3, [r4, #28]
     e50:	421a      	tst	r2, r3
     e52:	d1fc      	bne.n	e4e <_usart_init+0x6a>
}

static inline void hri_sercomusart_write_BAUD_reg(const void *const hw, hri_sercomusart_baud_reg_t data)
{
	SERCOM_CRITICAL_SECTION_ENTER();
	((Sercom *)hw)->USART.BAUD.reg = data;
     e54:	4b08      	ldr	r3, [pc, #32]	; (e78 <_usart_init+0x94>)
     e56:	81a3      	strh	r3, [r4, #12]
}

static inline void hri_sercomusart_write_RXPL_reg(const void *const hw, hri_sercomusart_rxpl_reg_t data)
{
	SERCOM_CRITICAL_SECTION_ENTER();
	((Sercom *)hw)->USART.RXPL.reg = data;
     e58:	2300      	movs	r3, #0
     e5a:	73a3      	strb	r3, [r4, #14]
}

static inline void hri_sercomusart_write_DBGCTRL_reg(const void *const hw, hri_sercomusart_dbgctrl_reg_t data)
{
	SERCOM_CRITICAL_SECTION_ENTER();
	((Sercom *)hw)->USART.DBGCTRL.reg = data;
     e5c:	2230      	movs	r2, #48	; 0x30
     e5e:	54a3      	strb	r3, [r4, r2]
}
     e60:	2000      	movs	r0, #0
     e62:	bd10      	pop	{r4, pc}
     e64:	00000d75 	.word	0x00000d75
     e68:	00000261 	.word	0x00000261
     e6c:	00002908 	.word	0x00002908
     e70:	000007ad 	.word	0x000007ad
     e74:	40310004 	.word	0x40310004
     e78:	fffff62b 	.word	0xfffff62b

00000e7c <_usart_async_init>:
{
     e7c:	b570      	push	{r4, r5, r6, lr}
     e7e:	0006      	movs	r6, r0
     e80:	000c      	movs	r4, r1
	ASSERT(device);
     e82:	1e43      	subs	r3, r0, #1
     e84:	4198      	sbcs	r0, r3
     e86:	b2c0      	uxtb	r0, r0
     e88:	22c4      	movs	r2, #196	; 0xc4
     e8a:	4913      	ldr	r1, [pc, #76]	; (ed8 <_usart_async_init+0x5c>)
     e8c:	4b13      	ldr	r3, [pc, #76]	; (edc <_usart_async_init+0x60>)
     e8e:	4798      	blx	r3
	init_status = _usart_init(hw);
     e90:	0020      	movs	r0, r4
     e92:	4b13      	ldr	r3, [pc, #76]	; (ee0 <_usart_async_init+0x64>)
     e94:	4798      	blx	r3
     e96:	1e05      	subs	r5, r0, #0
	if (init_status) {
     e98:	d001      	beq.n	e9e <_usart_async_init+0x22>
}
     e9a:	0028      	movs	r0, r5
     e9c:	bd70      	pop	{r4, r5, r6, pc}
	device->hw = hw;
     e9e:	61b4      	str	r4, [r6, #24]
	if (hw == SERCOM4) {
     ea0:	4b10      	ldr	r3, [pc, #64]	; (ee4 <_usart_async_init+0x68>)
     ea2:	429c      	cmp	r4, r3
     ea4:	d014      	beq.n	ed0 <_usart_async_init+0x54>
	NVIC_DisableIRQ((IRQn_Type)_sercom_get_irq_num(hw));
     ea6:	0020      	movs	r0, r4
     ea8:	4b0f      	ldr	r3, [pc, #60]	; (ee8 <_usart_async_init+0x6c>)
     eaa:	4798      	blx	r3
  if ((int32_t)(IRQn) >= 0)
     eac:	0603      	lsls	r3, r0, #24
     eae:	d4f4      	bmi.n	e9a <_usart_async_init+0x1e>
    NVIC->ICER[0U] = (uint32_t)(1UL << (((uint32_t)(int32_t)IRQn) & 0x1FUL));
     eb0:	231f      	movs	r3, #31
     eb2:	4018      	ands	r0, r3
     eb4:	3b1e      	subs	r3, #30
     eb6:	4083      	lsls	r3, r0
     eb8:	4a0c      	ldr	r2, [pc, #48]	; (eec <_usart_async_init+0x70>)
     eba:	2180      	movs	r1, #128	; 0x80
     ebc:	5053      	str	r3, [r2, r1]
  __ASM volatile ("dsb 0xF":::"memory");
     ebe:	f3bf 8f4f 	dsb	sy
  __ASM volatile ("isb 0xF":::"memory");
     ec2:	f3bf 8f6f 	isb	sy
    NVIC->ICPR[0U] = (uint32_t)(1UL << (((uint32_t)(int32_t)IRQn) & 0x1FUL));
     ec6:	3101      	adds	r1, #1
     ec8:	31ff      	adds	r1, #255	; 0xff
     eca:	5053      	str	r3, [r2, r1]
    NVIC->ISER[0U] = (uint32_t)(1UL << (((uint32_t)(int32_t)IRQn) & 0x1FUL));
     ecc:	6013      	str	r3, [r2, #0]
     ece:	e7e4      	b.n	e9a <_usart_async_init+0x1e>
		_sercom4_dev = (struct _usart_async_device *)dev;
     ed0:	4b07      	ldr	r3, [pc, #28]	; (ef0 <_usart_async_init+0x74>)
     ed2:	601e      	str	r6, [r3, #0]
     ed4:	e7e7      	b.n	ea6 <_usart_async_init+0x2a>
     ed6:	46c0      	nop			; (mov r8, r8)
     ed8:	00002908 	.word	0x00002908
     edc:	000007ad 	.word	0x000007ad
     ee0:	00000de5 	.word	0x00000de5
     ee4:	42001400 	.word	0x42001400
     ee8:	00000db1 	.word	0x00000db1
     eec:	e000e100 	.word	0xe000e100
     ef0:	20000058 	.word	0x20000058

00000ef4 <_usart_async_enable>:
	hri_sercomusart_set_CTRLA_ENABLE_bit(device->hw);
     ef4:	6982      	ldr	r2, [r0, #24]
	((Sercom *)hw)->USART.CTRLA.reg |= SERCOM_USART_CTRLA_ENABLE;
     ef6:	6813      	ldr	r3, [r2, #0]
     ef8:	2102      	movs	r1, #2
     efa:	430b      	orrs	r3, r1
     efc:	6013      	str	r3, [r2, #0]
	while (((Sercom *)hw)->USART.SYNCBUSY.reg & reg) {
     efe:	3101      	adds	r1, #1
     f00:	69d3      	ldr	r3, [r2, #28]
     f02:	4219      	tst	r1, r3
     f04:	d1fc      	bne.n	f00 <_usart_async_enable+0xc>
}
     f06:	4770      	bx	lr

00000f08 <_usart_async_write_byte>:
	hri_sercomusart_write_DATA_reg(device->hw, data);
     f08:	6983      	ldr	r3, [r0, #24]
     f0a:	b289      	uxth	r1, r1
	((Sercom *)hw)->USART.DATA.reg = data;
     f0c:	8519      	strh	r1, [r3, #40]	; 0x28
}
     f0e:	4770      	bx	lr

00000f10 <_usart_async_enable_byte_sent_irq>:
	hri_sercomusart_set_INTEN_DRE_bit(device->hw);
     f10:	6983      	ldr	r3, [r0, #24]
	((Sercom *)hw)->USART.INTENSET.reg = SERCOM_USART_INTENSET_DRE;
     f12:	2201      	movs	r2, #1
     f14:	759a      	strb	r2, [r3, #22]
}
     f16:	4770      	bx	lr

00000f18 <_usart_async_enable_tx_done_irq>:
	hri_sercomusart_set_INTEN_TXC_bit(device->hw);
     f18:	6983      	ldr	r3, [r0, #24]
	((Sercom *)hw)->USART.INTENSET.reg = SERCOM_USART_INTENSET_TXC;
     f1a:	2202      	movs	r2, #2
     f1c:	759a      	strb	r2, [r3, #22]
}
     f1e:	4770      	bx	lr

00000f20 <_usart_async_set_irq_state>:
{
     f20:	b570      	push	{r4, r5, r6, lr}
     f22:	0004      	movs	r4, r0
     f24:	000d      	movs	r5, r1
     f26:	0016      	movs	r6, r2
	ASSERT(device);
     f28:	1e43      	subs	r3, r0, #1
     f2a:	4198      	sbcs	r0, r3
     f2c:	b2c0      	uxtb	r0, r0
     f2e:	4a16      	ldr	r2, [pc, #88]	; (f88 <_usart_async_set_irq_state+0x68>)
     f30:	4916      	ldr	r1, [pc, #88]	; (f8c <_usart_async_set_irq_state+0x6c>)
     f32:	4b17      	ldr	r3, [pc, #92]	; (f90 <_usart_async_set_irq_state+0x70>)
     f34:	4798      	blx	r3
	if (USART_ASYNC_BYTE_SENT == type || USART_ASYNC_TX_DONE == type) {
     f36:	2302      	movs	r3, #2
     f38:	002a      	movs	r2, r5
     f3a:	439a      	bics	r2, r3
     f3c:	d10e      	bne.n	f5c <_usart_async_set_irq_state+0x3c>
		hri_sercomusart_write_INTEN_DRE_bit(device->hw, state);
     f3e:	69a3      	ldr	r3, [r4, #24]
	if (value == 0x0) {
     f40:	2e00      	cmp	r6, #0
     f42:	d105      	bne.n	f50 <_usart_async_set_irq_state+0x30>
		((Sercom *)hw)->USART.INTENCLR.reg = SERCOM_USART_INTENSET_DRE;
     f44:	2201      	movs	r2, #1
     f46:	751a      	strb	r2, [r3, #20]
		hri_sercomusart_write_INTEN_TXC_bit(device->hw, state);
     f48:	69a3      	ldr	r3, [r4, #24]
		((Sercom *)hw)->USART.INTENCLR.reg = SERCOM_USART_INTENSET_TXC;
     f4a:	3201      	adds	r2, #1
     f4c:	751a      	strb	r2, [r3, #20]
}
     f4e:	bd70      	pop	{r4, r5, r6, pc}
		((Sercom *)hw)->USART.INTENSET.reg = SERCOM_USART_INTENSET_DRE;
     f50:	2201      	movs	r2, #1
     f52:	759a      	strb	r2, [r3, #22]
		hri_sercomusart_write_INTEN_TXC_bit(device->hw, state);
     f54:	69a3      	ldr	r3, [r4, #24]
		((Sercom *)hw)->USART.INTENSET.reg = SERCOM_USART_INTENSET_TXC;
     f56:	3201      	adds	r2, #1
     f58:	759a      	strb	r2, [r3, #22]
     f5a:	e7f8      	b.n	f4e <_usart_async_set_irq_state+0x2e>
	} else if (USART_ASYNC_RX_DONE == type) {
     f5c:	2d01      	cmp	r5, #1
     f5e:	d007      	beq.n	f70 <_usart_async_set_irq_state+0x50>
	} else if (USART_ASYNC_ERROR == type) {
     f60:	2d03      	cmp	r5, #3
     f62:	d1f4      	bne.n	f4e <_usart_async_set_irq_state+0x2e>
		hri_sercomusart_write_INTEN_ERROR_bit(device->hw, state);
     f64:	69a3      	ldr	r3, [r4, #24]
	if (value == 0x0) {
     f66:	2e00      	cmp	r6, #0
     f68:	d00b      	beq.n	f82 <_usart_async_set_irq_state+0x62>
		((Sercom *)hw)->USART.INTENSET.reg = SERCOM_USART_INTENSET_ERROR;
     f6a:	2280      	movs	r2, #128	; 0x80
     f6c:	759a      	strb	r2, [r3, #22]
}
     f6e:	e7ee      	b.n	f4e <_usart_async_set_irq_state+0x2e>
		hri_sercomusart_write_INTEN_RXC_bit(device->hw, state);
     f70:	69a3      	ldr	r3, [r4, #24]
	if (value == 0x0) {
     f72:	2e00      	cmp	r6, #0
     f74:	d102      	bne.n	f7c <_usart_async_set_irq_state+0x5c>
		((Sercom *)hw)->USART.INTENCLR.reg = SERCOM_USART_INTENSET_RXC;
     f76:	2204      	movs	r2, #4
     f78:	751a      	strb	r2, [r3, #20]
     f7a:	e7e8      	b.n	f4e <_usart_async_set_irq_state+0x2e>
		((Sercom *)hw)->USART.INTENSET.reg = SERCOM_USART_INTENSET_RXC;
     f7c:	2204      	movs	r2, #4
     f7e:	759a      	strb	r2, [r3, #22]
     f80:	e7e5      	b.n	f4e <_usart_async_set_irq_state+0x2e>
		((Sercom *)hw)->USART.INTENCLR.reg = SERCOM_USART_INTENSET_ERROR;
     f82:	2280      	movs	r2, #128	; 0x80
     f84:	751a      	strb	r2, [r3, #20]
     f86:	e7e2      	b.n	f4e <_usart_async_set_irq_state+0x2e>
     f88:	00000221 	.word	0x00000221
     f8c:	00002908 	.word	0x00002908
     f90:	000007ad 	.word	0x000007ad

00000f94 <SERCOM4_Handler>:

	return NULL;
}

void SERCOM4_Handler(void)
{
     f94:	b510      	push	{r4, lr}
	_sercom_usart_interrupt_handler(_sercom4_dev);
     f96:	4b19      	ldr	r3, [pc, #100]	; (ffc <SERCOM4_Handler+0x68>)
     f98:	6818      	ldr	r0, [r3, #0]
	void *hw = device->hw;
     f9a:	6984      	ldr	r4, [r0, #24]
	return (((Sercom *)hw)->USART.INTFLAG.reg & SERCOM_USART_INTFLAG_DRE) >> SERCOM_USART_INTFLAG_DRE_Pos;
     f9c:	7e23      	ldrb	r3, [r4, #24]
	if (hri_sercomusart_get_interrupt_DRE_bit(hw) && hri_sercomusart_get_INTEN_DRE_bit(hw)) {
     f9e:	07db      	lsls	r3, r3, #31
     fa0:	d502      	bpl.n	fa8 <SERCOM4_Handler+0x14>
	return (((Sercom *)hw)->USART.INTENSET.reg & SERCOM_USART_INTENSET_DRE) >> SERCOM_USART_INTENSET_DRE_Pos;
     fa2:	7da3      	ldrb	r3, [r4, #22]
     fa4:	07db      	lsls	r3, r3, #31
     fa6:	d40f      	bmi.n	fc8 <SERCOM4_Handler+0x34>
	return (((Sercom *)hw)->USART.INTFLAG.reg & SERCOM_USART_INTFLAG_TXC) >> SERCOM_USART_INTFLAG_TXC_Pos;
     fa8:	7e23      	ldrb	r3, [r4, #24]
	} else if (hri_sercomusart_get_interrupt_TXC_bit(hw) && hri_sercomusart_get_INTEN_TXC_bit(hw)) {
     faa:	079b      	lsls	r3, r3, #30
     fac:	d502      	bpl.n	fb4 <SERCOM4_Handler+0x20>
	return (((Sercom *)hw)->USART.INTENSET.reg & SERCOM_USART_INTENSET_TXC) >> SERCOM_USART_INTENSET_TXC_Pos;
     fae:	7da3      	ldrb	r3, [r4, #22]
     fb0:	079b      	lsls	r3, r3, #30
     fb2:	d40e      	bmi.n	fd2 <SERCOM4_Handler+0x3e>
	return (((Sercom *)hw)->USART.INTFLAG.reg & SERCOM_USART_INTFLAG_RXC) >> SERCOM_USART_INTFLAG_RXC_Pos;
     fb4:	7e23      	ldrb	r3, [r4, #24]
	} else if (hri_sercomusart_get_interrupt_RXC_bit(hw)) {
     fb6:	075b      	lsls	r3, r3, #29
     fb8:	d515      	bpl.n	fe6 <SERCOM4_Handler+0x52>
	SERCOM_CRITICAL_SECTION_LEAVE();
}

static inline hri_sercomusart_status_reg_t hri_sercomusart_read_STATUS_reg(const void *const hw)
{
	return ((Sercom *)hw)->USART.STATUS.reg;
     fba:	8b62      	ldrh	r2, [r4, #26]
		if (hri_sercomusart_read_STATUS_reg(hw)
     fbc:	2337      	movs	r3, #55	; 0x37
     fbe:	421a      	tst	r2, r3
     fc0:	d00c      	beq.n	fdc <SERCOM4_Handler+0x48>
	((Sercom *)hw)->USART.STATUS.reg = mask;
     fc2:	3348      	adds	r3, #72	; 0x48
     fc4:	8363      	strh	r3, [r4, #26]
}
     fc6:	bd10      	pop	{r4, pc}
	((Sercom *)hw)->USART.INTENCLR.reg = SERCOM_USART_INTENSET_DRE;
     fc8:	2301      	movs	r3, #1
     fca:	7523      	strb	r3, [r4, #20]
		device->usart_cb.tx_byte_sent(device);
     fcc:	6803      	ldr	r3, [r0, #0]
     fce:	4798      	blx	r3
     fd0:	e7f9      	b.n	fc6 <SERCOM4_Handler+0x32>
	((Sercom *)hw)->USART.INTENCLR.reg = SERCOM_USART_INTENSET_TXC;
     fd2:	2302      	movs	r3, #2
     fd4:	7523      	strb	r3, [r4, #20]
		device->usart_cb.tx_done_cb(device);
     fd6:	6883      	ldr	r3, [r0, #8]
     fd8:	4798      	blx	r3
     fda:	e7f4      	b.n	fc6 <SERCOM4_Handler+0x32>
	return ((Sercom *)hw)->USART.DATA.reg;
     fdc:	8d21      	ldrh	r1, [r4, #40]	; 0x28
		device->usart_cb.rx_done_cb(device, hri_sercomusart_read_DATA_reg(hw));
     fde:	b2c9      	uxtb	r1, r1
     fe0:	6843      	ldr	r3, [r0, #4]
     fe2:	4798      	blx	r3
     fe4:	e7ef      	b.n	fc6 <SERCOM4_Handler+0x32>
	return (((Sercom *)hw)->USART.INTFLAG.reg & SERCOM_USART_INTFLAG_ERROR) >> SERCOM_USART_INTFLAG_ERROR_Pos;
     fe6:	7e23      	ldrb	r3, [r4, #24]
	} else if (hri_sercomusart_get_interrupt_ERROR_bit(hw)) {
     fe8:	09db      	lsrs	r3, r3, #7
     fea:	d0ec      	beq.n	fc6 <SERCOM4_Handler+0x32>
	((Sercom *)hw)->USART.INTFLAG.reg = SERCOM_USART_INTFLAG_ERROR;
     fec:	2380      	movs	r3, #128	; 0x80
     fee:	7623      	strb	r3, [r4, #24]
		device->usart_cb.error_cb(device);
     ff0:	68c3      	ldr	r3, [r0, #12]
     ff2:	4798      	blx	r3
	return ((Sercom *)hw)->USART.STATUS.reg;
     ff4:	8b63      	ldrh	r3, [r4, #26]
     ff6:	b29b      	uxth	r3, r3
	((Sercom *)hw)->USART.STATUS.reg = mask;
     ff8:	8363      	strh	r3, [r4, #26]
}
     ffa:	e7e4      	b.n	fc6 <SERCOM4_Handler+0x32>
     ffc:	20000058 	.word	0x20000058

00001000 <main>:




int main(void)
{
    1000:	b510      	push	{r4, lr}
	atmel_start_init();
    1002:	4b05      	ldr	r3, [pc, #20]	; (1018 <main+0x18>)
    1004:	4798      	blx	r3
	
	app_init();
    1006:	4b05      	ldr	r3, [pc, #20]	; (101c <main+0x1c>)
    1008:	4798      	blx	r3
	can_init();
    100a:	4b05      	ldr	r3, [pc, #20]	; (1020 <main+0x20>)
    100c:	4798      	blx	r3
	
	vTaskStartScheduler();
    100e:	4b05      	ldr	r3, [pc, #20]	; (1024 <main+0x24>)
    1010:	4798      	blx	r3

	return 0;
}
    1012:	2000      	movs	r0, #0
    1014:	bd10      	pop	{r4, pc}
    1016:	46c0      	nop			; (mov r8, r8)
    1018:	0000011d 	.word	0x0000011d
    101c:	00002331 	.word	0x00002331
    1020:	0000258d 	.word	0x0000258d
    1024:	00001d29 	.word	0x00001d29

00001028 <sem_init>:

/**
 * \brief Semaphore initialization
 */
int32_t sem_init(sem_t *sem, uint32_t count)
{
    1028:	b570      	push	{r4, r5, r6, lr}
    102a:	0005      	movs	r5, r0
    102c:	000c      	movs	r4, r1
	ASSERT(count <= SEMAPHORE_MAX_COUNT);
    102e:	2000      	movs	r0, #0
    1030:	2301      	movs	r3, #1
    1032:	428b      	cmp	r3, r1
    1034:	4140      	adcs	r0, r0
    1036:	b2c0      	uxtb	r0, r0
    1038:	222b      	movs	r2, #43	; 0x2b
    103a:	4907      	ldr	r1, [pc, #28]	; (1058 <sem_init+0x30>)
    103c:	4b07      	ldr	r3, [pc, #28]	; (105c <sem_init+0x34>)
    103e:	4798      	blx	r3

	*sem = xSemaphoreCreateCounting((uint32_t)SEMAPHORE_MAX_COUNT, count);
    1040:	0021      	movs	r1, r4
    1042:	2001      	movs	r0, #1
    1044:	4b06      	ldr	r3, [pc, #24]	; (1060 <sem_init+0x38>)
    1046:	4798      	blx	r3
    1048:	6028      	str	r0, [r5, #0]

	return *sem ? ERR_NONE : ERR_NOT_INITIALIZED;
    104a:	2300      	movs	r3, #0
    104c:	2800      	cmp	r0, #0
    104e:	d001      	beq.n	1054 <sem_init+0x2c>
}
    1050:	0018      	movs	r0, r3
    1052:	bd70      	pop	{r4, r5, r6, pc}
	return *sem ? ERR_NONE : ERR_NOT_INITIALIZED;
    1054:	3b14      	subs	r3, #20
    1056:	e7fb      	b.n	1050 <sem_init+0x28>
    1058:	00002924 	.word	0x00002924
    105c:	000007ad 	.word	0x000007ad
    1060:	00001695 	.word	0x00001695

00001064 <sem_up>:

/**
 * \brief Semaphore up
 */
int32_t sem_up(sem_t *sem)
{
    1064:	b510      	push	{r4, lr}
 * \brief Check if it's in ISR handling
 * \return \c true if it's in ISR
 */
static inline bool _is_in_isr(void)
{
	return (SCB->ICSR & SCB_ICSR_VECTACTIVE_Msk);
    1066:	4b0d      	ldr	r3, [pc, #52]	; (109c <sem_up+0x38>)
    1068:	685b      	ldr	r3, [r3, #4]
    106a:	05db      	lsls	r3, r3, #23
	return is_in_isr() ? (xSemaphoreGiveFromISR(*sem, pdFALSE) ? 0 : ERR_ABORTED)
	                   : (xSemaphoreGive(*sem) ? ERR_NONE : ERR_ABORTED);
    106c:	d00a      	beq.n	1084 <sem_up+0x20>
	return is_in_isr() ? (xSemaphoreGiveFromISR(*sem, pdFALSE) ? 0 : ERR_ABORTED)
    106e:	6800      	ldr	r0, [r0, #0]
    1070:	2100      	movs	r1, #0
    1072:	4b0b      	ldr	r3, [pc, #44]	; (10a0 <sem_up+0x3c>)
    1074:	4798      	blx	r3
	                   : (xSemaphoreGive(*sem) ? ERR_NONE : ERR_ABORTED);
    1076:	2300      	movs	r3, #0
    1078:	2800      	cmp	r0, #0
    107a:	d001      	beq.n	1080 <sem_up+0x1c>
}
    107c:	0018      	movs	r0, r3
    107e:	bd10      	pop	{r4, pc}
	                   : (xSemaphoreGive(*sem) ? ERR_NONE : ERR_ABORTED);
    1080:	3b03      	subs	r3, #3
    1082:	e7fb      	b.n	107c <sem_up+0x18>
    1084:	6800      	ldr	r0, [r0, #0]
    1086:	2300      	movs	r3, #0
    1088:	2200      	movs	r2, #0
    108a:	2100      	movs	r1, #0
    108c:	4c05      	ldr	r4, [pc, #20]	; (10a4 <sem_up+0x40>)
    108e:	47a0      	blx	r4
    1090:	2300      	movs	r3, #0
    1092:	2800      	cmp	r0, #0
    1094:	d1f2      	bne.n	107c <sem_up+0x18>
    1096:	3b03      	subs	r3, #3
    1098:	e7f0      	b.n	107c <sem_up+0x18>
    109a:	46c0      	nop			; (mov r8, r8)
    109c:	e000ed00 	.word	0xe000ed00
    10a0:	00001881 	.word	0x00001881
    10a4:	000016c1 	.word	0x000016c1

000010a8 <sem_down>:

/**
 * \brief Semaphore down, may suspend the caller thread
 */
int32_t sem_down(sem_t *sem, uint32_t timeout)
{
    10a8:	b510      	push	{r4, lr}
    10aa:	000a      	movs	r2, r1
	return xSemaphoreTake(*sem, timeout) ? ERR_NONE : ERR_TIMEOUT;
    10ac:	6800      	ldr	r0, [r0, #0]
    10ae:	2300      	movs	r3, #0
    10b0:	2100      	movs	r1, #0
    10b2:	4c04      	ldr	r4, [pc, #16]	; (10c4 <sem_down+0x1c>)
    10b4:	47a0      	blx	r4
    10b6:	2300      	movs	r3, #0
    10b8:	2800      	cmp	r0, #0
    10ba:	d001      	beq.n	10c0 <sem_down+0x18>
}
    10bc:	0018      	movs	r0, r3
    10be:	bd10      	pop	{r4, pc}
	return xSemaphoreTake(*sem, timeout) ? ERR_NONE : ERR_TIMEOUT;
    10c0:	3b08      	subs	r3, #8
    10c2:	e7fb      	b.n	10bc <sem_down+0x14>
    10c4:	0000192d 	.word	0x0000192d

000010c8 <sem_deinit>:

/**
 * \brief Semaphore deinitialization
 */
int32_t sem_deinit(sem_t *sem)
{
    10c8:	b510      	push	{r4, lr}
    10ca:	0004      	movs	r4, r0
	if (*sem != NULL) {
    10cc:	6800      	ldr	r0, [r0, #0]
    10ce:	2800      	cmp	r0, #0
    10d0:	d003      	beq.n	10da <sem_deinit+0x12>
		vSemaphoreDelete(*sem);
    10d2:	4b03      	ldr	r3, [pc, #12]	; (10e0 <sem_deinit+0x18>)
    10d4:	4798      	blx	r3
		*sem = NULL;
    10d6:	2300      	movs	r3, #0
    10d8:	6023      	str	r3, [r4, #0]
	}

	return ERR_NONE;
}
    10da:	2000      	movs	r0, #0
    10dc:	bd10      	pop	{r4, pc}
    10de:	46c0      	nop			; (mov r8, r8)
    10e0:	00001aa5 	.word	0x00001aa5

000010e4 <vListInitialise>:
void vListInitialise(List_t *const pxList)
{
	/* The list structure contains a list item which is used to mark the
	end of the list.  To initialise the list the list end is inserted
	as the only list entry. */
	pxList->pxIndex = (ListItem_t *)&(
    10e4:	0003      	movs	r3, r0
    10e6:	3308      	adds	r3, #8
    10e8:	6043      	str	r3, [r0, #4]
	    pxList->xListEnd); /*lint !e826 !e740 The mini list structure is used as the list end to save RAM.  This is
	                          checked and valid. */

	/* The list end value is the highest possible value in the list to
	ensure it remains at the end of the list. */
	pxList->xListEnd.xItemValue = portMAX_DELAY;
    10ea:	2201      	movs	r2, #1
    10ec:	4252      	negs	r2, r2
    10ee:	6082      	str	r2, [r0, #8]

	/* The list end next and previous pointers point to itself so we know
	when the list is empty. */
	pxList->xListEnd.pxNext = (ListItem_t *)&(pxList->xListEnd); /*lint !e826 !e740 The mini list structure is used as
    10f0:	60c3      	str	r3, [r0, #12]
	                                                                the list end to save RAM.  This is checked and
	                                                                valid. */
	pxList->xListEnd.pxPrevious = (ListItem_t *)&(
    10f2:	6103      	str	r3, [r0, #16]
	    pxList->xListEnd); /*lint !e826 !e740 The mini list structure is used as the list end to save RAM.  This is
	                          checked and valid. */

	pxList->uxNumberOfItems = (UBaseType_t)0U;
    10f4:	2300      	movs	r3, #0
    10f6:	6003      	str	r3, [r0, #0]

	/* Write known values into the list if
	configUSE_LIST_DATA_INTEGRITY_CHECK_BYTES is set to 1. */
	listSET_LIST_INTEGRITY_CHECK_1_VALUE(pxList);
	listSET_LIST_INTEGRITY_CHECK_2_VALUE(pxList);
}
    10f8:	4770      	bx	lr

000010fa <vListInitialiseItem>:
/*-----------------------------------------------------------*/

void vListInitialiseItem(ListItem_t *const pxItem)
{
	/* Make sure the list item is not recorded as being on a list. */
	pxItem->pvContainer = NULL;
    10fa:	2300      	movs	r3, #0
    10fc:	6103      	str	r3, [r0, #16]

	/* Write known values into the list item if
	configUSE_LIST_DATA_INTEGRITY_CHECK_BYTES is set to 1. */
	listSET_FIRST_LIST_ITEM_INTEGRITY_CHECK_VALUE(pxItem);
	listSET_SECOND_LIST_ITEM_INTEGRITY_CHECK_VALUE(pxItem);
}
    10fe:	4770      	bx	lr

00001100 <vListInsertEnd>:
/*-----------------------------------------------------------*/

void vListInsertEnd(List_t *const pxList, ListItem_t *const pxNewListItem)
{
	ListItem_t *const pxIndex = pxList->pxIndex;
    1100:	6843      	ldr	r3, [r0, #4]
	listTEST_LIST_ITEM_INTEGRITY(pxNewListItem);

	/* Insert a new list item into pxList, but rather than sort the list,
	makes the new list item the last item to be removed by a call to
	listGET_OWNER_OF_NEXT_ENTRY(). */
	pxNewListItem->pxNext     = pxIndex;
    1102:	604b      	str	r3, [r1, #4]
	pxNewListItem->pxPrevious = pxIndex->pxPrevious;
    1104:	689a      	ldr	r2, [r3, #8]
    1106:	608a      	str	r2, [r1, #8]

	/* Only used during decision coverage testing. */
	mtCOVERAGE_TEST_DELAY();

	pxIndex->pxPrevious->pxNext = pxNewListItem;
    1108:	689a      	ldr	r2, [r3, #8]
    110a:	6051      	str	r1, [r2, #4]
	pxIndex->pxPrevious         = pxNewListItem;
    110c:	6099      	str	r1, [r3, #8]

	/* Remember which list the item is in. */
	pxNewListItem->pvContainer = (void *)pxList;
    110e:	6108      	str	r0, [r1, #16]

	(pxList->uxNumberOfItems)++;
    1110:	6803      	ldr	r3, [r0, #0]
    1112:	3301      	adds	r3, #1
    1114:	6003      	str	r3, [r0, #0]
}
    1116:	4770      	bx	lr

00001118 <vListInsert>:
/*-----------------------------------------------------------*/

void vListInsert(List_t *const pxList, ListItem_t *const pxNewListItem)
{
    1118:	b530      	push	{r4, r5, lr}
	ListItem_t *     pxIterator;
	const TickType_t xValueOfInsertion = pxNewListItem->xItemValue;
    111a:	680c      	ldr	r4, [r1, #0]
		    4) Using a queue or semaphore before it has been initialised or
		       before the scheduler has been started (are interrupts firing
		       before vTaskStartScheduler() has been called?).
		**********************************************************************/

		for (pxIterator = (ListItem_t *)&(pxList->xListEnd); pxIterator->pxNext->xItemValue <= xValueOfInsertion;
    111c:	0002      	movs	r2, r0
    111e:	3208      	adds	r2, #8
	if (xValueOfInsertion == portMAX_DELAY) {
    1120:	1c63      	adds	r3, r4, #1
    1122:	d102      	bne.n	112a <vListInsert+0x12>
		pxIterator = pxList->xListEnd.pxPrevious;
    1124:	6902      	ldr	r2, [r0, #16]
    1126:	e004      	b.n	1132 <vListInsert+0x1a>
		     pxIterator
		     = pxIterator
    1128:	001a      	movs	r2, r3
		for (pxIterator = (ListItem_t *)&(pxList->xListEnd); pxIterator->pxNext->xItemValue <= xValueOfInsertion;
    112a:	6853      	ldr	r3, [r2, #4]
    112c:	681d      	ldr	r5, [r3, #0]
    112e:	42ac      	cmp	r4, r5
    1130:	d2fa      	bcs.n	1128 <vListInsert+0x10>
			/* There is nothing to do here, just iterating to the wanted
			insertion position. */
		}
	}

	pxNewListItem->pxNext             = pxIterator->pxNext;
    1132:	6853      	ldr	r3, [r2, #4]
    1134:	604b      	str	r3, [r1, #4]
	pxNewListItem->pxNext->pxPrevious = pxNewListItem;
    1136:	6099      	str	r1, [r3, #8]
	pxNewListItem->pxPrevious         = pxIterator;
    1138:	608a      	str	r2, [r1, #8]
	pxIterator->pxNext                = pxNewListItem;
    113a:	6051      	str	r1, [r2, #4]

	/* Remember which list the item is in.  This allows fast removal of the
	item later. */
	pxNewListItem->pvContainer = (void *)pxList;
    113c:	6108      	str	r0, [r1, #16]

	(pxList->uxNumberOfItems)++;
    113e:	6803      	ldr	r3, [r0, #0]
    1140:	3301      	adds	r3, #1
    1142:	6003      	str	r3, [r0, #0]
}
    1144:	bd30      	pop	{r4, r5, pc}

00001146 <uxListRemove>:

UBaseType_t uxListRemove(ListItem_t *const pxItemToRemove)
{
	/* The list item knows which list it is in.  Obtain the list from the list
	item. */
	List_t *const pxList = (List_t *)pxItemToRemove->pvContainer;
    1146:	6903      	ldr	r3, [r0, #16]

	pxItemToRemove->pxNext->pxPrevious = pxItemToRemove->pxPrevious;
    1148:	6842      	ldr	r2, [r0, #4]
    114a:	6881      	ldr	r1, [r0, #8]
    114c:	6091      	str	r1, [r2, #8]
	pxItemToRemove->pxPrevious->pxNext = pxItemToRemove->pxNext;
    114e:	6882      	ldr	r2, [r0, #8]
    1150:	6841      	ldr	r1, [r0, #4]
    1152:	6051      	str	r1, [r2, #4]

	/* Only used during decision coverage testing. */
	mtCOVERAGE_TEST_DELAY();

	/* Make sure the index is left pointing to a valid item. */
	if (pxList->pxIndex == pxItemToRemove) {
    1154:	685a      	ldr	r2, [r3, #4]
    1156:	4290      	cmp	r0, r2
    1158:	d005      	beq.n	1166 <uxListRemove+0x20>
		pxList->pxIndex = pxItemToRemove->pxPrevious;
	} else {
		mtCOVERAGE_TEST_MARKER();
	}

	pxItemToRemove->pvContainer = NULL;
    115a:	2200      	movs	r2, #0
    115c:	6102      	str	r2, [r0, #16]
	(pxList->uxNumberOfItems)--;
    115e:	681a      	ldr	r2, [r3, #0]
    1160:	1e50      	subs	r0, r2, #1
    1162:	6018      	str	r0, [r3, #0]

	return pxList->uxNumberOfItems;
}
    1164:	4770      	bx	lr
		pxList->pxIndex = pxItemToRemove->pxPrevious;
    1166:	6882      	ldr	r2, [r0, #8]
    1168:	605a      	str	r2, [r3, #4]
    116a:	e7f6      	b.n	115a <uxListRemove+0x14>

0000116c <prvTaskExitError>:
	its caller as there is nothing to return to.  If a task wants to exit it
	should instead call vTaskDelete( NULL ).

	Artificially force an assert() to be triggered if configASSERT() is
	defined, then stop here so application writers can catch the error. */
	configASSERT(uxCriticalNesting == ~0UL);
    116c:	4b03      	ldr	r3, [pc, #12]	; (117c <prvTaskExitError+0x10>)
    116e:	681b      	ldr	r3, [r3, #0]
    1170:	3301      	adds	r3, #1
    1172:	d001      	beq.n	1178 <prvTaskExitError+0xc>
    1174:	b672      	cpsid	i
    1176:	e7fe      	b.n	1176 <prvTaskExitError+0xa>
	portDISABLE_INTERRUPTS();
    1178:	b672      	cpsid	i
    117a:	e7fe      	b.n	117a <prvTaskExitError+0xe>
    117c:	20000014 	.word	0x20000014

00001180 <vPortStartFirstTask>:
void vPortStartFirstTask(void)
{
	/* The MSP stack is not reset as, unlike on M3/4 parts, there is no vector
	table offset register that can be used to locate the initial stack value.
	Not all M0 parts have the application vector table at address 0. */
	__asm volatile(
    1180:	4a06      	ldr	r2, [pc, #24]	; (119c <pxCurrentTCBConst2>)
    1182:	6813      	ldr	r3, [r2, #0]
    1184:	6818      	ldr	r0, [r3, #0]
    1186:	3020      	adds	r0, #32
    1188:	f380 8809 	msr	PSP, r0
    118c:	2002      	movs	r0, #2
    118e:	f380 8814 	msr	CONTROL, r0
    1192:	bc3f      	pop	{r0, r1, r2, r3, r4, r5}
    1194:	46ae      	mov	lr, r5
    1196:	b662      	cpsie	i
    1198:	bd00      	pop	{pc}
    119a:	46c0      	nop			; (mov r8, r8)

0000119c <pxCurrentTCBConst2>:
    119c:	20000a64 	.word	0x20000a64

000011a0 <pxPortInitialiseStack>:
{
    11a0:	b510      	push	{r4, lr}
	*pxTopOfStack = portINITIAL_XPSR; /* xPSR */
    11a2:	1f03      	subs	r3, r0, #4
    11a4:	2480      	movs	r4, #128	; 0x80
    11a6:	0464      	lsls	r4, r4, #17
    11a8:	601c      	str	r4, [r3, #0]
	*pxTopOfStack = (StackType_t)pxCode; /* PC */
    11aa:	3b04      	subs	r3, #4
    11ac:	6019      	str	r1, [r3, #0]
	*pxTopOfStack = (StackType_t)portTASK_RETURN_ADDRESS; /* LR */
    11ae:	3b04      	subs	r3, #4
    11b0:	4902      	ldr	r1, [pc, #8]	; (11bc <pxPortInitialiseStack+0x1c>)
    11b2:	6019      	str	r1, [r3, #0]
	*pxTopOfStack = (StackType_t)pvParameters;            /* R0 */
    11b4:	3b14      	subs	r3, #20
    11b6:	601a      	str	r2, [r3, #0]
	pxTopOfStack -= 8;                                    /* R11..R4. */
    11b8:	3840      	subs	r0, #64	; 0x40
}
    11ba:	bd10      	pop	{r4, pc}
    11bc:	0000116d 	.word	0x0000116d

000011c0 <SVCall_Handler>:
}
    11c0:	4770      	bx	lr
	...

000011c4 <xPortStartScheduler>:

/*
 * See header file for description.
 */
BaseType_t xPortStartScheduler(void)
{
    11c4:	b510      	push	{r4, lr}
	/* Make PendSV, CallSV and SysTick the same priroity as the kernel. */
	*(portNVIC_SYSPRI2) |= portNVIC_PENDSV_PRI;
    11c6:	4b0c      	ldr	r3, [pc, #48]	; (11f8 <xPortStartScheduler+0x34>)
    11c8:	6819      	ldr	r1, [r3, #0]
    11ca:	22ff      	movs	r2, #255	; 0xff
    11cc:	0412      	lsls	r2, r2, #16
    11ce:	430a      	orrs	r2, r1
    11d0:	601a      	str	r2, [r3, #0]
	*(portNVIC_SYSPRI2) |= portNVIC_SYSTICK_PRI;
    11d2:	6819      	ldr	r1, [r3, #0]
    11d4:	22ff      	movs	r2, #255	; 0xff
    11d6:	0612      	lsls	r2, r2, #24
    11d8:	430a      	orrs	r2, r1
    11da:	601a      	str	r2, [r3, #0]
 * frequency.
 */
void prvSetupTimerInterrupt(void)
{
	/* Configure SysTick to interrupt at the requested rate. */
	*(portNVIC_SYSTICK_LOAD) = (configCPU_CLOCK_HZ / configTICK_RATE_HZ) - 1UL;
    11dc:	4a07      	ldr	r2, [pc, #28]	; (11fc <xPortStartScheduler+0x38>)
    11de:	4b08      	ldr	r3, [pc, #32]	; (1200 <xPortStartScheduler+0x3c>)
    11e0:	601a      	str	r2, [r3, #0]
	*(portNVIC_SYSTICK_CTRL) = portNVIC_SYSTICK_CLK | portNVIC_SYSTICK_INT | portNVIC_SYSTICK_ENABLE;
    11e2:	2207      	movs	r2, #7
    11e4:	4b07      	ldr	r3, [pc, #28]	; (1204 <xPortStartScheduler+0x40>)
    11e6:	601a      	str	r2, [r3, #0]
	uxCriticalNesting = 0;
    11e8:	2200      	movs	r2, #0
    11ea:	4b07      	ldr	r3, [pc, #28]	; (1208 <xPortStartScheduler+0x44>)
    11ec:	601a      	str	r2, [r3, #0]
	vPortStartFirstTask();
    11ee:	4b07      	ldr	r3, [pc, #28]	; (120c <xPortStartScheduler+0x48>)
    11f0:	4798      	blx	r3
	prvTaskExitError();
    11f2:	4b07      	ldr	r3, [pc, #28]	; (1210 <xPortStartScheduler+0x4c>)
    11f4:	4798      	blx	r3
    11f6:	46c0      	nop			; (mov r8, r8)
    11f8:	e000ed20 	.word	0xe000ed20
    11fc:	00000f9f 	.word	0x00000f9f
    1200:	e000e014 	.word	0xe000e014
    1204:	e000e010 	.word	0xe000e010
    1208:	20000014 	.word	0x20000014
    120c:	00001181 	.word	0x00001181
    1210:	0000116d 	.word	0x0000116d

00001214 <vPortYield>:
	*(portNVIC_INT_CTRL) = portNVIC_PENDSVSET;
    1214:	2280      	movs	r2, #128	; 0x80
    1216:	0552      	lsls	r2, r2, #21
    1218:	4b03      	ldr	r3, [pc, #12]	; (1228 <vPortYield+0x14>)
    121a:	601a      	str	r2, [r3, #0]
	__asm volatile("dsb");
    121c:	f3bf 8f4f 	dsb	sy
	__asm volatile("isb");
    1220:	f3bf 8f6f 	isb	sy
}
    1224:	4770      	bx	lr
    1226:	46c0      	nop			; (mov r8, r8)
    1228:	e000ed04 	.word	0xe000ed04

0000122c <vPortEnterCritical>:
	portDISABLE_INTERRUPTS();
    122c:	b672      	cpsid	i
	uxCriticalNesting++;
    122e:	4a04      	ldr	r2, [pc, #16]	; (1240 <vPortEnterCritical+0x14>)
    1230:	6813      	ldr	r3, [r2, #0]
    1232:	3301      	adds	r3, #1
    1234:	6013      	str	r3, [r2, #0]
	__asm volatile("dsb");
    1236:	f3bf 8f4f 	dsb	sy
	__asm volatile("isb");
    123a:	f3bf 8f6f 	isb	sy
}
    123e:	4770      	bx	lr
    1240:	20000014 	.word	0x20000014

00001244 <vPortExitCritical>:
	configASSERT(uxCriticalNesting);
    1244:	4b06      	ldr	r3, [pc, #24]	; (1260 <vPortExitCritical+0x1c>)
    1246:	681b      	ldr	r3, [r3, #0]
    1248:	2b00      	cmp	r3, #0
    124a:	d101      	bne.n	1250 <vPortExitCritical+0xc>
    124c:	b672      	cpsid	i
    124e:	e7fe      	b.n	124e <vPortExitCritical+0xa>
	uxCriticalNesting--;
    1250:	3b01      	subs	r3, #1
    1252:	4a03      	ldr	r2, [pc, #12]	; (1260 <vPortExitCritical+0x1c>)
    1254:	6013      	str	r3, [r2, #0]
	if (uxCriticalNesting == 0) {
    1256:	2b00      	cmp	r3, #0
    1258:	d100      	bne.n	125c <vPortExitCritical+0x18>
		portENABLE_INTERRUPTS();
    125a:	b662      	cpsie	i
}
    125c:	4770      	bx	lr
    125e:	46c0      	nop			; (mov r8, r8)
    1260:	20000014 	.word	0x20000014

00001264 <ulSetInterruptMaskFromISR>:
	__asm volatile(" mrs r0, PRIMASK	\n"
    1264:	f3ef 8010 	mrs	r0, PRIMASK
    1268:	b672      	cpsid	i
    126a:	4770      	bx	lr
}
    126c:	2000      	movs	r0, #0

0000126e <vClearInterruptMaskFromISR>:
	__asm volatile(" msr PRIMASK, r0	\n"
    126e:	f380 8810 	msr	PRIMASK, r0
    1272:	4770      	bx	lr

00001274 <PendSV_Handler>:
	__asm volatile(
    1274:	f3ef 8009 	mrs	r0, PSP
    1278:	4b0e      	ldr	r3, [pc, #56]	; (12b4 <pxCurrentTCBConst>)
    127a:	681a      	ldr	r2, [r3, #0]
    127c:	3820      	subs	r0, #32
    127e:	6010      	str	r0, [r2, #0]
    1280:	c0f0      	stmia	r0!, {r4, r5, r6, r7}
    1282:	4644      	mov	r4, r8
    1284:	464d      	mov	r5, r9
    1286:	4656      	mov	r6, sl
    1288:	465f      	mov	r7, fp
    128a:	c0f0      	stmia	r0!, {r4, r5, r6, r7}
    128c:	b508      	push	{r3, lr}
    128e:	b672      	cpsid	i
    1290:	f000 fea4 	bl	1fdc <vTaskSwitchContext>
    1294:	b662      	cpsie	i
    1296:	bc0c      	pop	{r2, r3}
    1298:	6811      	ldr	r1, [r2, #0]
    129a:	6808      	ldr	r0, [r1, #0]
    129c:	3010      	adds	r0, #16
    129e:	c8f0      	ldmia	r0!, {r4, r5, r6, r7}
    12a0:	46a0      	mov	r8, r4
    12a2:	46a9      	mov	r9, r5
    12a4:	46b2      	mov	sl, r6
    12a6:	46bb      	mov	fp, r7
    12a8:	f380 8809 	msr	PSP, r0
    12ac:	3820      	subs	r0, #32
    12ae:	c8f0      	ldmia	r0!, {r4, r5, r6, r7}
    12b0:	4718      	bx	r3
    12b2:	46c0      	nop			; (mov r8, r8)

000012b4 <pxCurrentTCBConst>:
    12b4:	20000a64 	.word	0x20000a64

000012b8 <SysTick_Handler>:
{
    12b8:	b510      	push	{r4, lr}
	ulPreviousMask = portSET_INTERRUPT_MASK_FROM_ISR();
    12ba:	4b07      	ldr	r3, [pc, #28]	; (12d8 <SysTick_Handler+0x20>)
    12bc:	4798      	blx	r3
    12be:	0004      	movs	r4, r0
		if (xTaskIncrementTick() != pdFALSE) {
    12c0:	4b06      	ldr	r3, [pc, #24]	; (12dc <SysTick_Handler+0x24>)
    12c2:	4798      	blx	r3
    12c4:	2800      	cmp	r0, #0
    12c6:	d003      	beq.n	12d0 <SysTick_Handler+0x18>
			*(portNVIC_INT_CTRL) = portNVIC_PENDSVSET;
    12c8:	2280      	movs	r2, #128	; 0x80
    12ca:	0552      	lsls	r2, r2, #21
    12cc:	4b04      	ldr	r3, [pc, #16]	; (12e0 <SysTick_Handler+0x28>)
    12ce:	601a      	str	r2, [r3, #0]
	portCLEAR_INTERRUPT_MASK_FROM_ISR(ulPreviousMask);
    12d0:	0020      	movs	r0, r4
    12d2:	4b04      	ldr	r3, [pc, #16]	; (12e4 <SysTick_Handler+0x2c>)
    12d4:	4798      	blx	r3
}
    12d6:	bd10      	pop	{r4, pc}
    12d8:	00001265 	.word	0x00001265
    12dc:	00001d91 	.word	0x00001d91
    12e0:	e000ed04 	.word	0xe000ed04
    12e4:	0000126f 	.word	0x0000126f

000012e8 <pvPortMalloc>:
		pxIterator->pxNextFreeBlock      = pxBlockToInsert;                                                            \
	}
/*-----------------------------------------------------------*/

void *pvPortMalloc(size_t xWantedSize)
{
    12e8:	b570      	push	{r4, r5, r6, lr}
    12ea:	0004      	movs	r4, r0
	BlockLink_t *     pxBlock, *pxPreviousBlock, *pxNewBlockLink;
	static BaseType_t xHeapHasBeenInitialised = pdFALSE;
	void *            pvReturn                = NULL;

	vTaskSuspendAll();
    12ec:	4b2a      	ldr	r3, [pc, #168]	; (1398 <pvPortMalloc+0xb0>)
    12ee:	4798      	blx	r3
	{
		/* If this is the first call to malloc then the heap will require
		initialisation to setup the list of free blocks. */
		if (xHeapHasBeenInitialised == pdFALSE) {
    12f0:	4b2a      	ldr	r3, [pc, #168]	; (139c <pvPortMalloc+0xb4>)
    12f2:	689b      	ldr	r3, [r3, #8]
    12f4:	2b00      	cmp	r3, #0
    12f6:	d011      	beq.n	131c <pvPortMalloc+0x34>
	void *            pvReturn                = NULL;
    12f8:	2500      	movs	r5, #0
			xHeapHasBeenInitialised = pdTRUE;
		}

		/* The wanted size is increased so it can contain a BlockLink_t
		structure in addition to the requested amount of bytes. */
		if (xWantedSize > 0) {
    12fa:	2c00      	cmp	r4, #0
    12fc:	d046      	beq.n	138c <pvPortMalloc+0xa4>
			xWantedSize += heapSTRUCT_SIZE;
    12fe:	0020      	movs	r0, r4
    1300:	3008      	adds	r0, #8

			/* Ensure that blocks are always aligned to the required number of bytes. */
			if ((xWantedSize & portBYTE_ALIGNMENT_MASK) != 0) {
    1302:	0743      	lsls	r3, r0, #29
    1304:	d002      	beq.n	130c <pvPortMalloc+0x24>
				/* Byte alignment required. */
				xWantedSize += (portBYTE_ALIGNMENT - (xWantedSize & portBYTE_ALIGNMENT_MASK));
    1306:	2307      	movs	r3, #7
    1308:	4398      	bics	r0, r3
    130a:	3008      	adds	r0, #8
			}
		}

		if ((xWantedSize > 0) && (xWantedSize < configADJUSTED_HEAP_SIZE)) {
    130c:	1e43      	subs	r3, r0, #1
    130e:	4a24      	ldr	r2, [pc, #144]	; (13a0 <pvPortMalloc+0xb8>)
	void *            pvReturn                = NULL;
    1310:	2500      	movs	r5, #0
		if ((xWantedSize > 0) && (xWantedSize < configADJUSTED_HEAP_SIZE)) {
    1312:	4293      	cmp	r3, r2
    1314:	d83a      	bhi.n	138c <pvPortMalloc+0xa4>
			/* Blocks are stored in byte order - traverse the list from the start
			(smallest) block until one of adequate size is found. */
			pxPreviousBlock = &xStart;
			pxBlock         = xStart.pxNextFreeBlock;
    1316:	4921      	ldr	r1, [pc, #132]	; (139c <pvPortMalloc+0xb4>)
    1318:	680b      	ldr	r3, [r1, #0]
			while ((pxBlock->xBlockSize < xWantedSize) && (pxBlock->pxNextFreeBlock != NULL)) {
    131a:	e013      	b.n	1344 <pvPortMalloc+0x5c>
{
	BlockLink_t *pxFirstFreeBlock;
	uint8_t *    pucAlignedHeap;

	/* Ensure the heap starts on a correctly aligned boundary. */
	pucAlignedHeap = (uint8_t *)(((portPOINTER_SIZE_TYPE)&ucHeap[portBYTE_ALIGNMENT])
    131c:	491f      	ldr	r1, [pc, #124]	; (139c <pvPortMalloc+0xb4>)
    131e:	000b      	movs	r3, r1
    1320:	3314      	adds	r3, #20
	                             & (~((portPOINTER_SIZE_TYPE)portBYTE_ALIGNMENT_MASK)));
    1322:	2207      	movs	r2, #7
    1324:	4393      	bics	r3, r2

	/* xStart is used to hold a pointer to the first item in the list of free
	blocks.  The void cast is used to prevent compiler warnings. */
	xStart.pxNextFreeBlock = (void *)pucAlignedHeap;
    1326:	600b      	str	r3, [r1, #0]
	xStart.xBlockSize      = (size_t)0;
    1328:	2500      	movs	r5, #0
    132a:	604d      	str	r5, [r1, #4]

	/* xEnd is used to mark the end of the list of free blocks. */
	xEnd.xBlockSize      = configADJUSTED_HEAP_SIZE;
    132c:	4a1d      	ldr	r2, [pc, #116]	; (13a4 <pvPortMalloc+0xbc>)
    132e:	481e      	ldr	r0, [pc, #120]	; (13a8 <pvPortMalloc+0xc0>)
    1330:	6710      	str	r0, [r2, #112]	; 0x70
	xEnd.pxNextFreeBlock = NULL;
    1332:	66d5      	str	r5, [r2, #108]	; 0x6c

	/* To start with there is a single free block that is sized to take up the
	entire heap space. */
	pxFirstFreeBlock                  = (void *)pucAlignedHeap;
	pxFirstFreeBlock->xBlockSize      = configADJUSTED_HEAP_SIZE;
    1334:	6058      	str	r0, [r3, #4]
	pxFirstFreeBlock->pxNextFreeBlock = &xEnd;
    1336:	326c      	adds	r2, #108	; 0x6c
    1338:	601a      	str	r2, [r3, #0]
			xHeapHasBeenInitialised = pdTRUE;
    133a:	2301      	movs	r3, #1
    133c:	608b      	str	r3, [r1, #8]
    133e:	e7db      	b.n	12f8 <pvPortMalloc+0x10>
    1340:	0019      	movs	r1, r3
				pxBlock         = pxBlock->pxNextFreeBlock;
    1342:	0013      	movs	r3, r2
			while ((pxBlock->xBlockSize < xWantedSize) && (pxBlock->pxNextFreeBlock != NULL)) {
    1344:	685a      	ldr	r2, [r3, #4]
    1346:	4290      	cmp	r0, r2
    1348:	d902      	bls.n	1350 <pvPortMalloc+0x68>
    134a:	681a      	ldr	r2, [r3, #0]
    134c:	2a00      	cmp	r2, #0
    134e:	d1f7      	bne.n	1340 <pvPortMalloc+0x58>
			if (pxBlock != &xEnd) {
    1350:	4a14      	ldr	r2, [pc, #80]	; (13a4 <pvPortMalloc+0xbc>)
    1352:	326c      	adds	r2, #108	; 0x6c
    1354:	4293      	cmp	r3, r2
    1356:	d01d      	beq.n	1394 <pvPortMalloc+0xac>
				pvReturn = (void *)(((uint8_t *)pxPreviousBlock->pxNextFreeBlock) + heapSTRUCT_SIZE);
    1358:	680d      	ldr	r5, [r1, #0]
    135a:	3508      	adds	r5, #8
				pxPreviousBlock->pxNextFreeBlock = pxBlock->pxNextFreeBlock;
    135c:	681a      	ldr	r2, [r3, #0]
    135e:	600a      	str	r2, [r1, #0]
				if ((pxBlock->xBlockSize - xWantedSize) > heapMINIMUM_BLOCK_SIZE) {
    1360:	685a      	ldr	r2, [r3, #4]
    1362:	1a12      	subs	r2, r2, r0
    1364:	2a10      	cmp	r2, #16
    1366:	d90c      	bls.n	1382 <pvPortMalloc+0x9a>
					pxNewBlockLink = (void *)(((uint8_t *)pxBlock) + xWantedSize);
    1368:	181c      	adds	r4, r3, r0
					pxNewBlockLink->xBlockSize = pxBlock->xBlockSize - xWantedSize;
    136a:	6062      	str	r2, [r4, #4]
					pxBlock->xBlockSize        = xWantedSize;
    136c:	6058      	str	r0, [r3, #4]
					prvInsertBlockIntoFreeList((pxNewBlockLink));
    136e:	6860      	ldr	r0, [r4, #4]
    1370:	490a      	ldr	r1, [pc, #40]	; (139c <pvPortMalloc+0xb4>)
    1372:	e000      	b.n	1376 <pvPortMalloc+0x8e>
    1374:	0011      	movs	r1, r2
    1376:	680a      	ldr	r2, [r1, #0]
    1378:	6856      	ldr	r6, [r2, #4]
    137a:	42b0      	cmp	r0, r6
    137c:	d8fa      	bhi.n	1374 <pvPortMalloc+0x8c>
    137e:	6022      	str	r2, [r4, #0]
    1380:	600c      	str	r4, [r1, #0]
				xFreeBytesRemaining -= pxBlock->xBlockSize;
    1382:	4a0a      	ldr	r2, [pc, #40]	; (13ac <pvPortMalloc+0xc4>)
    1384:	685b      	ldr	r3, [r3, #4]
    1386:	6811      	ldr	r1, [r2, #0]
    1388:	1acb      	subs	r3, r1, r3
    138a:	6013      	str	r3, [r2, #0]
	(void)xTaskResumeAll();
    138c:	4b08      	ldr	r3, [pc, #32]	; (13b0 <pvPortMalloc+0xc8>)
    138e:	4798      	blx	r3
}
    1390:	0028      	movs	r0, r5
    1392:	bd70      	pop	{r4, r5, r6, pc}
	void *            pvReturn                = NULL;
    1394:	2500      	movs	r5, #0
    1396:	e7f9      	b.n	138c <pvPortMalloc+0xa4>
    1398:	00001d81 	.word	0x00001d81
    139c:	2000005c 	.word	0x2000005c
    13a0:	00000956 	.word	0x00000956
    13a4:	2000095c 	.word	0x2000095c
    13a8:	00000958 	.word	0x00000958
    13ac:	20000018 	.word	0x20000018
    13b0:	00001e9d 	.word	0x00001e9d

000013b4 <vPortFree>:
{
    13b4:	b570      	push	{r4, r5, r6, lr}
    13b6:	1e04      	subs	r4, r0, #0
	if (pv != NULL) {
    13b8:	d016      	beq.n	13e8 <vPortFree+0x34>
		puc -= heapSTRUCT_SIZE;
    13ba:	0005      	movs	r5, r0
    13bc:	3d08      	subs	r5, #8
		vTaskSuspendAll();
    13be:	4b0b      	ldr	r3, [pc, #44]	; (13ec <vPortFree+0x38>)
    13c0:	4798      	blx	r3
			prvInsertBlockIntoFreeList(((BlockLink_t *)pxLink));
    13c2:	6869      	ldr	r1, [r5, #4]
    13c4:	4a0a      	ldr	r2, [pc, #40]	; (13f0 <vPortFree+0x3c>)
    13c6:	e000      	b.n	13ca <vPortFree+0x16>
    13c8:	001a      	movs	r2, r3
    13ca:	6813      	ldr	r3, [r2, #0]
    13cc:	6858      	ldr	r0, [r3, #4]
    13ce:	4281      	cmp	r1, r0
    13d0:	d8fa      	bhi.n	13c8 <vPortFree+0x14>
    13d2:	3c08      	subs	r4, #8
    13d4:	6023      	str	r3, [r4, #0]
    13d6:	6015      	str	r5, [r2, #0]
			xFreeBytesRemaining += pxLink->xBlockSize;
    13d8:	4a06      	ldr	r2, [pc, #24]	; (13f4 <vPortFree+0x40>)
    13da:	6863      	ldr	r3, [r4, #4]
    13dc:	6811      	ldr	r1, [r2, #0]
    13de:	468c      	mov	ip, r1
    13e0:	4463      	add	r3, ip
    13e2:	6013      	str	r3, [r2, #0]
		(void)xTaskResumeAll();
    13e4:	4b04      	ldr	r3, [pc, #16]	; (13f8 <vPortFree+0x44>)
    13e6:	4798      	blx	r3
}
    13e8:	bd70      	pop	{r4, r5, r6, pc}
    13ea:	46c0      	nop			; (mov r8, r8)
    13ec:	00001d81 	.word	0x00001d81
    13f0:	2000005c 	.word	0x2000005c
    13f4:	20000018 	.word	0x20000018
    13f8:	00001e9d 	.word	0x00001e9d

000013fc <prvCopyDataToQueue>:

#endif /* configUSE_TRACE_FACILITY */
/*-----------------------------------------------------------*/

static BaseType_t prvCopyDataToQueue(Queue_t *const pxQueue, const void *pvItemToQueue, const BaseType_t xPosition)
{
    13fc:	b570      	push	{r4, r5, r6, lr}
    13fe:	0004      	movs	r4, r0
    1400:	0015      	movs	r5, r2
	BaseType_t xReturn = pdFALSE;

	if (pxQueue->uxItemSize == (UBaseType_t)0) {
    1402:	6c02      	ldr	r2, [r0, #64]	; 0x40
    1404:	2a00      	cmp	r2, #0
    1406:	d10c      	bne.n	1422 <prvCopyDataToQueue+0x26>
	BaseType_t xReturn = pdFALSE;
    1408:	2000      	movs	r0, #0
#if (configUSE_MUTEXES == 1)
		{
			if (pxQueue->uxQueueType == queueQUEUE_IS_MUTEX) {
    140a:	6823      	ldr	r3, [r4, #0]
    140c:	4283      	cmp	r3, r0
    140e:	d104      	bne.n	141a <prvCopyDataToQueue+0x1e>
				/* The mutex is no longer being held. */
				xReturn                = xTaskPriorityDisinherit((void *)pxQueue->pxMutexHolder);
    1410:	6860      	ldr	r0, [r4, #4]
    1412:	4b19      	ldr	r3, [pc, #100]	; (1478 <prvCopyDataToQueue+0x7c>)
    1414:	4798      	blx	r3
				pxQueue->pxMutexHolder = NULL;
    1416:	2300      	movs	r3, #0
    1418:	6063      	str	r3, [r4, #4]
		} else {
			mtCOVERAGE_TEST_MARKER();
		}
	}

	++(pxQueue->uxMessagesWaiting);
    141a:	6ba3      	ldr	r3, [r4, #56]	; 0x38
    141c:	3301      	adds	r3, #1
    141e:	63a3      	str	r3, [r4, #56]	; 0x38

	return xReturn;
}
    1420:	bd70      	pop	{r4, r5, r6, pc}
	} else if (xPosition == queueSEND_TO_BACK) {
    1422:	2d00      	cmp	r5, #0
    1424:	d10e      	bne.n	1444 <prvCopyDataToQueue+0x48>
		(void)memcpy((void *)pxQueue->pcWriteTo,
    1426:	6880      	ldr	r0, [r0, #8]
    1428:	4b14      	ldr	r3, [pc, #80]	; (147c <prvCopyDataToQueue+0x80>)
    142a:	4798      	blx	r3
		pxQueue->pcWriteTo += pxQueue->uxItemSize;
    142c:	68a3      	ldr	r3, [r4, #8]
    142e:	6c22      	ldr	r2, [r4, #64]	; 0x40
    1430:	4694      	mov	ip, r2
    1432:	4463      	add	r3, ip
    1434:	60a3      	str	r3, [r4, #8]
	BaseType_t xReturn = pdFALSE;
    1436:	2000      	movs	r0, #0
		if (pxQueue->pcWriteTo >= pxQueue->pcTail) /*lint !e946 MISRA exception justified as comparison of pointers is
    1438:	6862      	ldr	r2, [r4, #4]
    143a:	4293      	cmp	r3, r2
    143c:	d3ed      	bcc.n	141a <prvCopyDataToQueue+0x1e>
			pxQueue->pcWriteTo = pxQueue->pcHead;
    143e:	6823      	ldr	r3, [r4, #0]
    1440:	60a3      	str	r3, [r4, #8]
    1442:	e7ea      	b.n	141a <prvCopyDataToQueue+0x1e>
		(void)memcpy((void *)pxQueue->u.pcReadFrom,
    1444:	68c0      	ldr	r0, [r0, #12]
    1446:	4b0d      	ldr	r3, [pc, #52]	; (147c <prvCopyDataToQueue+0x80>)
    1448:	4798      	blx	r3
		pxQueue->u.pcReadFrom -= pxQueue->uxItemSize;
    144a:	6c23      	ldr	r3, [r4, #64]	; 0x40
    144c:	425b      	negs	r3, r3
    144e:	68e2      	ldr	r2, [r4, #12]
    1450:	18d2      	adds	r2, r2, r3
    1452:	60e2      	str	r2, [r4, #12]
		if (pxQueue->u.pcReadFrom
    1454:	6821      	ldr	r1, [r4, #0]
    1456:	428a      	cmp	r2, r1
    1458:	d203      	bcs.n	1462 <prvCopyDataToQueue+0x66>
			pxQueue->u.pcReadFrom = (pxQueue->pcTail - pxQueue->uxItemSize);
    145a:	6862      	ldr	r2, [r4, #4]
    145c:	4694      	mov	ip, r2
    145e:	4463      	add	r3, ip
    1460:	60e3      	str	r3, [r4, #12]
	BaseType_t xReturn = pdFALSE;
    1462:	2000      	movs	r0, #0
		if (xPosition == queueOVERWRITE) {
    1464:	2d02      	cmp	r5, #2
    1466:	d1d8      	bne.n	141a <prvCopyDataToQueue+0x1e>
			if (pxQueue->uxMessagesWaiting > (UBaseType_t)0) {
    1468:	6ba3      	ldr	r3, [r4, #56]	; 0x38
    146a:	4283      	cmp	r3, r0
    146c:	d0d5      	beq.n	141a <prvCopyDataToQueue+0x1e>
				--(pxQueue->uxMessagesWaiting);
    146e:	6ba3      	ldr	r3, [r4, #56]	; 0x38
    1470:	3b01      	subs	r3, #1
    1472:	63a3      	str	r3, [r4, #56]	; 0x38
    1474:	e7d1      	b.n	141a <prvCopyDataToQueue+0x1e>
    1476:	46c0      	nop			; (mov r8, r8)
    1478:	0000225d 	.word	0x0000225d
    147c:	00002831 	.word	0x00002831

00001480 <prvNotifyQueueSetContainer>:
	/*-----------------------------------------------------------*/

#if (configUSE_QUEUE_SETS == 1)

static BaseType_t prvNotifyQueueSetContainer(const Queue_t *const pxQueue, const BaseType_t xCopyPosition)
{
    1480:	b530      	push	{r4, r5, lr}
    1482:	b083      	sub	sp, #12
    1484:	9001      	str	r0, [sp, #4]
    1486:	000a      	movs	r2, r1
	Queue_t *  pxQueueSetContainer = pxQueue->pxQueueSetContainer;
    1488:	6d44      	ldr	r4, [r0, #84]	; 0x54
	BaseType_t xReturn             = pdFALSE;

	/* This function must be called form a critical section. */

	configASSERT(pxQueueSetContainer);
    148a:	2c00      	cmp	r4, #0
    148c:	d005      	beq.n	149a <prvNotifyQueueSetContainer+0x1a>
	configASSERT(pxQueueSetContainer->uxMessagesWaiting < pxQueueSetContainer->uxLength);
    148e:	6ba1      	ldr	r1, [r4, #56]	; 0x38
    1490:	6be3      	ldr	r3, [r4, #60]	; 0x3c
    1492:	4299      	cmp	r1, r3
    1494:	d303      	bcc.n	149e <prvNotifyQueueSetContainer+0x1e>
    1496:	b672      	cpsid	i
    1498:	e7fe      	b.n	1498 <prvNotifyQueueSetContainer+0x18>
	configASSERT(pxQueueSetContainer);
    149a:	b672      	cpsid	i
    149c:	e7fe      	b.n	149c <prvNotifyQueueSetContainer+0x1c>

	if (pxQueueSetContainer->uxMessagesWaiting < pxQueueSetContainer->uxLength) {
    149e:	6ba1      	ldr	r1, [r4, #56]	; 0x38
	BaseType_t xReturn             = pdFALSE;
    14a0:	2500      	movs	r5, #0
	if (pxQueueSetContainer->uxMessagesWaiting < pxQueueSetContainer->uxLength) {
    14a2:	428b      	cmp	r3, r1
    14a4:	d802      	bhi.n	14ac <prvNotifyQueueSetContainer+0x2c>
	} else {
		mtCOVERAGE_TEST_MARKER();
	}

	return xReturn;
}
    14a6:	0028      	movs	r0, r5
    14a8:	b003      	add	sp, #12
    14aa:	bd30      	pop	{r4, r5, pc}
		xReturn = prvCopyDataToQueue(pxQueueSetContainer, &pxQueue, xCopyPosition);
    14ac:	a901      	add	r1, sp, #4
    14ae:	0020      	movs	r0, r4
    14b0:	4b0a      	ldr	r3, [pc, #40]	; (14dc <prvNotifyQueueSetContainer+0x5c>)
    14b2:	4798      	blx	r3
    14b4:	0005      	movs	r5, r0
		if (pxQueueSetContainer->xTxLock == queueUNLOCKED) {
    14b6:	6ca3      	ldr	r3, [r4, #72]	; 0x48
    14b8:	3301      	adds	r3, #1
    14ba:	d10a      	bne.n	14d2 <prvNotifyQueueSetContainer+0x52>
			if (listLIST_IS_EMPTY(&(pxQueueSetContainer->xTasksWaitingToReceive)) == pdFALSE) {
    14bc:	6a63      	ldr	r3, [r4, #36]	; 0x24
    14be:	2b00      	cmp	r3, #0
    14c0:	d0f1      	beq.n	14a6 <prvNotifyQueueSetContainer+0x26>
				if (xTaskRemoveFromEventList(&(pxQueueSetContainer->xTasksWaitingToReceive)) != pdFALSE) {
    14c2:	0020      	movs	r0, r4
    14c4:	3024      	adds	r0, #36	; 0x24
    14c6:	4b06      	ldr	r3, [pc, #24]	; (14e0 <prvNotifyQueueSetContainer+0x60>)
    14c8:	4798      	blx	r3
    14ca:	2800      	cmp	r0, #0
    14cc:	d0eb      	beq.n	14a6 <prvNotifyQueueSetContainer+0x26>
					xReturn = pdTRUE;
    14ce:	2501      	movs	r5, #1
    14d0:	e7e9      	b.n	14a6 <prvNotifyQueueSetContainer+0x26>
			(pxQueueSetContainer->xTxLock)++;
    14d2:	6ca3      	ldr	r3, [r4, #72]	; 0x48
    14d4:	3301      	adds	r3, #1
    14d6:	64a3      	str	r3, [r4, #72]	; 0x48
    14d8:	e7e5      	b.n	14a6 <prvNotifyQueueSetContainer+0x26>
    14da:	46c0      	nop			; (mov r8, r8)
    14dc:	000013fd 	.word	0x000013fd
    14e0:	000020d1 	.word	0x000020d1

000014e4 <prvCopyDataFromQueue>:
{
    14e4:	b510      	push	{r4, lr}
    14e6:	000c      	movs	r4, r1
	if (pxQueue->uxItemSize != (UBaseType_t)0) {
    14e8:	6c02      	ldr	r2, [r0, #64]	; 0x40
    14ea:	2a00      	cmp	r2, #0
    14ec:	d00b      	beq.n	1506 <prvCopyDataFromQueue+0x22>
		pxQueue->u.pcReadFrom += pxQueue->uxItemSize;
    14ee:	68c3      	ldr	r3, [r0, #12]
    14f0:	189b      	adds	r3, r3, r2
    14f2:	60c3      	str	r3, [r0, #12]
		if (pxQueue->u.pcReadFrom >= pxQueue->pcTail) /*lint !e946 MISRA exception justified as use of the relational
    14f4:	6841      	ldr	r1, [r0, #4]
    14f6:	428b      	cmp	r3, r1
    14f8:	d301      	bcc.n	14fe <prvCopyDataFromQueue+0x1a>
			pxQueue->u.pcReadFrom = pxQueue->pcHead;
    14fa:	6803      	ldr	r3, [r0, #0]
    14fc:	60c3      	str	r3, [r0, #12]
		(void)memcpy((void *)pvBuffer,
    14fe:	68c1      	ldr	r1, [r0, #12]
    1500:	0020      	movs	r0, r4
    1502:	4b01      	ldr	r3, [pc, #4]	; (1508 <prvCopyDataFromQueue+0x24>)
    1504:	4798      	blx	r3
}
    1506:	bd10      	pop	{r4, pc}
    1508:	00002831 	.word	0x00002831

0000150c <prvUnlockQueue>:
{
    150c:	b5f8      	push	{r3, r4, r5, r6, r7, lr}
    150e:	0004      	movs	r4, r0
	taskENTER_CRITICAL();
    1510:	4b25      	ldr	r3, [pc, #148]	; (15a8 <prvUnlockQueue+0x9c>)
    1512:	4798      	blx	r3
		while (pxQueue->xTxLock > queueLOCKED_UNMODIFIED) {
    1514:	6ca3      	ldr	r3, [r4, #72]	; 0x48
    1516:	2b00      	cmp	r3, #0
    1518:	dd1e      	ble.n	1558 <prvUnlockQueue+0x4c>
					if (prvNotifyQueueSetContainer(pxQueue, queueSEND_TO_BACK) == pdTRUE) {
    151a:	4d24      	ldr	r5, [pc, #144]	; (15ac <prvUnlockQueue+0xa0>)
						if (xTaskRemoveFromEventList(&(pxQueue->xTasksWaitingToReceive)) != pdFALSE) {
    151c:	4e24      	ldr	r6, [pc, #144]	; (15b0 <prvUnlockQueue+0xa4>)
    151e:	e00d      	b.n	153c <prvUnlockQueue+0x30>
					if (listLIST_IS_EMPTY(&(pxQueue->xTasksWaitingToReceive)) == pdFALSE) {
    1520:	6a63      	ldr	r3, [r4, #36]	; 0x24
    1522:	2b00      	cmp	r3, #0
    1524:	d018      	beq.n	1558 <prvUnlockQueue+0x4c>
						if (xTaskRemoveFromEventList(&(pxQueue->xTasksWaitingToReceive)) != pdFALSE) {
    1526:	0020      	movs	r0, r4
    1528:	3024      	adds	r0, #36	; 0x24
    152a:	47b0      	blx	r6
    152c:	2800      	cmp	r0, #0
    152e:	d110      	bne.n	1552 <prvUnlockQueue+0x46>
			--(pxQueue->xTxLock);
    1530:	6ca3      	ldr	r3, [r4, #72]	; 0x48
    1532:	3b01      	subs	r3, #1
    1534:	64a3      	str	r3, [r4, #72]	; 0x48
		while (pxQueue->xTxLock > queueLOCKED_UNMODIFIED) {
    1536:	6ca3      	ldr	r3, [r4, #72]	; 0x48
    1538:	2b00      	cmp	r3, #0
    153a:	dd0d      	ble.n	1558 <prvUnlockQueue+0x4c>
				if (pxQueue->pxQueueSetContainer != NULL) {
    153c:	6d63      	ldr	r3, [r4, #84]	; 0x54
    153e:	2b00      	cmp	r3, #0
    1540:	d0ee      	beq.n	1520 <prvUnlockQueue+0x14>
					if (prvNotifyQueueSetContainer(pxQueue, queueSEND_TO_BACK) == pdTRUE) {
    1542:	2100      	movs	r1, #0
    1544:	0020      	movs	r0, r4
    1546:	47a8      	blx	r5
    1548:	2801      	cmp	r0, #1
    154a:	d1f1      	bne.n	1530 <prvUnlockQueue+0x24>
						vTaskMissedYield();
    154c:	4b19      	ldr	r3, [pc, #100]	; (15b4 <prvUnlockQueue+0xa8>)
    154e:	4798      	blx	r3
    1550:	e7ee      	b.n	1530 <prvUnlockQueue+0x24>
							vTaskMissedYield();
    1552:	4b18      	ldr	r3, [pc, #96]	; (15b4 <prvUnlockQueue+0xa8>)
    1554:	4798      	blx	r3
    1556:	e7eb      	b.n	1530 <prvUnlockQueue+0x24>
		pxQueue->xTxLock = queueUNLOCKED;
    1558:	2301      	movs	r3, #1
    155a:	425b      	negs	r3, r3
    155c:	64a3      	str	r3, [r4, #72]	; 0x48
	taskEXIT_CRITICAL();
    155e:	4b16      	ldr	r3, [pc, #88]	; (15b8 <prvUnlockQueue+0xac>)
    1560:	4798      	blx	r3
	taskENTER_CRITICAL();
    1562:	4b11      	ldr	r3, [pc, #68]	; (15a8 <prvUnlockQueue+0x9c>)
    1564:	4798      	blx	r3
		while (pxQueue->xRxLock > queueLOCKED_UNMODIFIED) {
    1566:	6c63      	ldr	r3, [r4, #68]	; 0x44
    1568:	2b00      	cmp	r3, #0
    156a:	dd16      	ble.n	159a <prvUnlockQueue+0x8e>
			if (listLIST_IS_EMPTY(&(pxQueue->xTasksWaitingToSend)) == pdFALSE) {
    156c:	6923      	ldr	r3, [r4, #16]
    156e:	2b00      	cmp	r3, #0
    1570:	d013      	beq.n	159a <prvUnlockQueue+0x8e>
				if (xTaskRemoveFromEventList(&(pxQueue->xTasksWaitingToSend)) != pdFALSE) {
    1572:	0025      	movs	r5, r4
    1574:	3510      	adds	r5, #16
    1576:	4f0e      	ldr	r7, [pc, #56]	; (15b0 <prvUnlockQueue+0xa4>)
					vTaskMissedYield();
    1578:	4e0e      	ldr	r6, [pc, #56]	; (15b4 <prvUnlockQueue+0xa8>)
    157a:	e008      	b.n	158e <prvUnlockQueue+0x82>
				--(pxQueue->xRxLock);
    157c:	6c63      	ldr	r3, [r4, #68]	; 0x44
    157e:	3b01      	subs	r3, #1
    1580:	6463      	str	r3, [r4, #68]	; 0x44
		while (pxQueue->xRxLock > queueLOCKED_UNMODIFIED) {
    1582:	6c63      	ldr	r3, [r4, #68]	; 0x44
    1584:	2b00      	cmp	r3, #0
    1586:	dd08      	ble.n	159a <prvUnlockQueue+0x8e>
			if (listLIST_IS_EMPTY(&(pxQueue->xTasksWaitingToSend)) == pdFALSE) {
    1588:	6923      	ldr	r3, [r4, #16]
    158a:	2b00      	cmp	r3, #0
    158c:	d005      	beq.n	159a <prvUnlockQueue+0x8e>
				if (xTaskRemoveFromEventList(&(pxQueue->xTasksWaitingToSend)) != pdFALSE) {
    158e:	0028      	movs	r0, r5
    1590:	47b8      	blx	r7
    1592:	2800      	cmp	r0, #0
    1594:	d0f2      	beq.n	157c <prvUnlockQueue+0x70>
					vTaskMissedYield();
    1596:	47b0      	blx	r6
    1598:	e7f0      	b.n	157c <prvUnlockQueue+0x70>
		pxQueue->xRxLock = queueUNLOCKED;
    159a:	2301      	movs	r3, #1
    159c:	425b      	negs	r3, r3
    159e:	6463      	str	r3, [r4, #68]	; 0x44
	taskEXIT_CRITICAL();
    15a0:	4b05      	ldr	r3, [pc, #20]	; (15b8 <prvUnlockQueue+0xac>)
    15a2:	4798      	blx	r3
}
    15a4:	bdf8      	pop	{r3, r4, r5, r6, r7, pc}
    15a6:	46c0      	nop			; (mov r8, r8)
    15a8:	0000122d 	.word	0x0000122d
    15ac:	00001481 	.word	0x00001481
    15b0:	000020d1 	.word	0x000020d1
    15b4:	000021d1 	.word	0x000021d1
    15b8:	00001245 	.word	0x00001245

000015bc <xQueueGenericReset>:
{
    15bc:	b570      	push	{r4, r5, r6, lr}
    15be:	0004      	movs	r4, r0
    15c0:	000d      	movs	r5, r1
	configASSERT(pxQueue);
    15c2:	2800      	cmp	r0, #0
    15c4:	d020      	beq.n	1608 <xQueueGenericReset+0x4c>
	taskENTER_CRITICAL();
    15c6:	4b17      	ldr	r3, [pc, #92]	; (1624 <xQueueGenericReset+0x68>)
    15c8:	4798      	blx	r3
		pxQueue->pcTail            = pxQueue->pcHead + (pxQueue->uxLength * pxQueue->uxItemSize);
    15ca:	6822      	ldr	r2, [r4, #0]
    15cc:	6c21      	ldr	r1, [r4, #64]	; 0x40
    15ce:	6be3      	ldr	r3, [r4, #60]	; 0x3c
    15d0:	434b      	muls	r3, r1
    15d2:	18d0      	adds	r0, r2, r3
    15d4:	6060      	str	r0, [r4, #4]
		pxQueue->uxMessagesWaiting = (UBaseType_t)0U;
    15d6:	2000      	movs	r0, #0
    15d8:	63a0      	str	r0, [r4, #56]	; 0x38
		pxQueue->pcWriteTo         = pxQueue->pcHead;
    15da:	60a2      	str	r2, [r4, #8]
		pxQueue->u.pcReadFrom      = pxQueue->pcHead + ((pxQueue->uxLength - (UBaseType_t)1U) * pxQueue->uxItemSize);
    15dc:	1a5b      	subs	r3, r3, r1
    15de:	18d3      	adds	r3, r2, r3
    15e0:	60e3      	str	r3, [r4, #12]
		pxQueue->xRxLock           = queueUNLOCKED;
    15e2:	2301      	movs	r3, #1
    15e4:	425b      	negs	r3, r3
    15e6:	6463      	str	r3, [r4, #68]	; 0x44
		pxQueue->xTxLock           = queueUNLOCKED;
    15e8:	64a3      	str	r3, [r4, #72]	; 0x48
		if (xNewQueue == pdFALSE) {
    15ea:	2d00      	cmp	r5, #0
    15ec:	d111      	bne.n	1612 <xQueueGenericReset+0x56>
			if (listLIST_IS_EMPTY(&(pxQueue->xTasksWaitingToSend)) == pdFALSE) {
    15ee:	6923      	ldr	r3, [r4, #16]
    15f0:	2b00      	cmp	r3, #0
    15f2:	d005      	beq.n	1600 <xQueueGenericReset+0x44>
				if (xTaskRemoveFromEventList(&(pxQueue->xTasksWaitingToSend)) == pdTRUE) {
    15f4:	0020      	movs	r0, r4
    15f6:	3010      	adds	r0, #16
    15f8:	4b0b      	ldr	r3, [pc, #44]	; (1628 <xQueueGenericReset+0x6c>)
    15fa:	4798      	blx	r3
    15fc:	2801      	cmp	r0, #1
    15fe:	d005      	beq.n	160c <xQueueGenericReset+0x50>
	taskEXIT_CRITICAL();
    1600:	4b0a      	ldr	r3, [pc, #40]	; (162c <xQueueGenericReset+0x70>)
    1602:	4798      	blx	r3
}
    1604:	2001      	movs	r0, #1
    1606:	bd70      	pop	{r4, r5, r6, pc}
	configASSERT(pxQueue);
    1608:	b672      	cpsid	i
    160a:	e7fe      	b.n	160a <xQueueGenericReset+0x4e>
					queueYIELD_IF_USING_PREEMPTION();
    160c:	4b08      	ldr	r3, [pc, #32]	; (1630 <xQueueGenericReset+0x74>)
    160e:	4798      	blx	r3
    1610:	e7f6      	b.n	1600 <xQueueGenericReset+0x44>
			vListInitialise(&(pxQueue->xTasksWaitingToSend));
    1612:	0020      	movs	r0, r4
    1614:	3010      	adds	r0, #16
    1616:	4d07      	ldr	r5, [pc, #28]	; (1634 <xQueueGenericReset+0x78>)
    1618:	47a8      	blx	r5
			vListInitialise(&(pxQueue->xTasksWaitingToReceive));
    161a:	0020      	movs	r0, r4
    161c:	3024      	adds	r0, #36	; 0x24
    161e:	47a8      	blx	r5
    1620:	e7ee      	b.n	1600 <xQueueGenericReset+0x44>
    1622:	46c0      	nop			; (mov r8, r8)
    1624:	0000122d 	.word	0x0000122d
    1628:	000020d1 	.word	0x000020d1
    162c:	00001245 	.word	0x00001245
    1630:	00001215 	.word	0x00001215
    1634:	000010e5 	.word	0x000010e5

00001638 <xQueueGenericCreate>:
{
    1638:	b5f8      	push	{r3, r4, r5, r6, r7, lr}
    163a:	0006      	movs	r6, r0
    163c:	000d      	movs	r5, r1
    163e:	0017      	movs	r7, r2
	configASSERT(uxQueueLength > (UBaseType_t)0);
    1640:	2800      	cmp	r0, #0
    1642:	d101      	bne.n	1648 <xQueueGenericCreate+0x10>
    1644:	b672      	cpsid	i
    1646:	e7fe      	b.n	1646 <xQueueGenericCreate+0xe>
	if (uxItemSize == (UBaseType_t)0) {
    1648:	2900      	cmp	r1, #0
    164a:	d008      	beq.n	165e <xQueueGenericCreate+0x26>
		xQueueSizeInBytes = (size_t)(uxQueueLength * uxItemSize)
    164c:	0008      	movs	r0, r1
    164e:	4370      	muls	r0, r6
	pxNewQueue = (Queue_t *)pvPortMalloc(sizeof(Queue_t) + xQueueSizeInBytes);
    1650:	3059      	adds	r0, #89	; 0x59
    1652:	4b0e      	ldr	r3, [pc, #56]	; (168c <xQueueGenericCreate+0x54>)
    1654:	4798      	blx	r3
    1656:	1e04      	subs	r4, r0, #0
	if (pxNewQueue != NULL) {
    1658:	d113      	bne.n	1682 <xQueueGenericCreate+0x4a>
	configASSERT(xReturn);
    165a:	b672      	cpsid	i
    165c:	e7fe      	b.n	165c <xQueueGenericCreate+0x24>
	pxNewQueue = (Queue_t *)pvPortMalloc(sizeof(Queue_t) + xQueueSizeInBytes);
    165e:	2058      	movs	r0, #88	; 0x58
    1660:	4b0a      	ldr	r3, [pc, #40]	; (168c <xQueueGenericCreate+0x54>)
    1662:	4798      	blx	r3
    1664:	1e04      	subs	r4, r0, #0
	if (pxNewQueue != NULL) {
    1666:	d0f8      	beq.n	165a <xQueueGenericCreate+0x22>
			pxNewQueue->pcHead = (int8_t *)pxNewQueue;
    1668:	6020      	str	r0, [r4, #0]
		pxNewQueue->uxLength   = uxQueueLength;
    166a:	63e6      	str	r6, [r4, #60]	; 0x3c
		pxNewQueue->uxItemSize = uxItemSize;
    166c:	6425      	str	r5, [r4, #64]	; 0x40
		(void)xQueueGenericReset(pxNewQueue, pdTRUE);
    166e:	2101      	movs	r1, #1
    1670:	0020      	movs	r0, r4
    1672:	4b07      	ldr	r3, [pc, #28]	; (1690 <xQueueGenericCreate+0x58>)
    1674:	4798      	blx	r3
			pxNewQueue->ucQueueType = ucQueueType;
    1676:	2350      	movs	r3, #80	; 0x50
    1678:	54e7      	strb	r7, [r4, r3]
			pxNewQueue->pxQueueSetContainer = NULL;
    167a:	2300      	movs	r3, #0
    167c:	6563      	str	r3, [r4, #84]	; 0x54
}
    167e:	0020      	movs	r0, r4
    1680:	bdf8      	pop	{r3, r4, r5, r6, r7, pc}
			pxNewQueue->pcHead = ((int8_t *)pxNewQueue) + sizeof(Queue_t);
    1682:	0003      	movs	r3, r0
    1684:	3358      	adds	r3, #88	; 0x58
    1686:	6003      	str	r3, [r0, #0]
    1688:	e7ef      	b.n	166a <xQueueGenericCreate+0x32>
    168a:	46c0      	nop			; (mov r8, r8)
    168c:	000012e9 	.word	0x000012e9
    1690:	000015bd 	.word	0x000015bd

00001694 <xQueueCreateCountingSemaphore>:
{
    1694:	b510      	push	{r4, lr}
    1696:	000c      	movs	r4, r1
	configASSERT(uxMaxCount != 0);
    1698:	2800      	cmp	r0, #0
    169a:	d101      	bne.n	16a0 <xQueueCreateCountingSemaphore+0xc>
    169c:	b672      	cpsid	i
    169e:	e7fe      	b.n	169e <xQueueCreateCountingSemaphore+0xa>
	configASSERT(uxInitialCount <= uxMaxCount);
    16a0:	4288      	cmp	r0, r1
    16a2:	d201      	bcs.n	16a8 <xQueueCreateCountingSemaphore+0x14>
    16a4:	b672      	cpsid	i
    16a6:	e7fe      	b.n	16a6 <xQueueCreateCountingSemaphore+0x12>
	xHandle = xQueueGenericCreate(uxMaxCount, queueSEMAPHORE_QUEUE_ITEM_LENGTH, queueQUEUE_TYPE_COUNTING_SEMAPHORE);
    16a8:	2202      	movs	r2, #2
    16aa:	2100      	movs	r1, #0
    16ac:	4b03      	ldr	r3, [pc, #12]	; (16bc <xQueueCreateCountingSemaphore+0x28>)
    16ae:	4798      	blx	r3
	if (xHandle != NULL) {
    16b0:	2800      	cmp	r0, #0
    16b2:	d001      	beq.n	16b8 <xQueueCreateCountingSemaphore+0x24>
		((Queue_t *)xHandle)->uxMessagesWaiting = uxInitialCount;
    16b4:	6384      	str	r4, [r0, #56]	; 0x38
}
    16b6:	bd10      	pop	{r4, pc}
	configASSERT(xHandle);
    16b8:	b672      	cpsid	i
    16ba:	e7fe      	b.n	16ba <xQueueCreateCountingSemaphore+0x26>
    16bc:	00001639 	.word	0x00001639

000016c0 <xQueueGenericSend>:
{
    16c0:	b5f0      	push	{r4, r5, r6, r7, lr}
    16c2:	46ce      	mov	lr, r9
    16c4:	4647      	mov	r7, r8
    16c6:	b580      	push	{r7, lr}
    16c8:	b085      	sub	sp, #20
    16ca:	0004      	movs	r4, r0
    16cc:	000f      	movs	r7, r1
    16ce:	9201      	str	r2, [sp, #4]
    16d0:	001d      	movs	r5, r3
	configASSERT(pxQueue);
    16d2:	2800      	cmp	r0, #0
    16d4:	d007      	beq.n	16e6 <xQueueGenericSend+0x26>
	configASSERT(!((pvItemToQueue == NULL) && (pxQueue->uxItemSize != (UBaseType_t)0U)));
    16d6:	2900      	cmp	r1, #0
    16d8:	d007      	beq.n	16ea <xQueueGenericSend+0x2a>
    16da:	2600      	movs	r6, #0
	configASSERT(!((xCopyPosition == queueOVERWRITE) && (pxQueue->uxLength != 1)));
    16dc:	2d02      	cmp	r5, #2
    16de:	d009      	beq.n	16f4 <xQueueGenericSend+0x34>
		taskENTER_CRITICAL();
    16e0:	4b46      	ldr	r3, [pc, #280]	; (17fc <xQueueGenericSend+0x13c>)
    16e2:	4698      	mov	r8, r3
    16e4:	e04a      	b.n	177c <xQueueGenericSend+0xbc>
	configASSERT(pxQueue);
    16e6:	b672      	cpsid	i
    16e8:	e7fe      	b.n	16e8 <xQueueGenericSend+0x28>
	configASSERT(!((pvItemToQueue == NULL) && (pxQueue->uxItemSize != (UBaseType_t)0U)));
    16ea:	6c03      	ldr	r3, [r0, #64]	; 0x40
    16ec:	2b00      	cmp	r3, #0
    16ee:	d0f4      	beq.n	16da <xQueueGenericSend+0x1a>
    16f0:	b672      	cpsid	i
    16f2:	e7fe      	b.n	16f2 <xQueueGenericSend+0x32>
	configASSERT(!((xCopyPosition == queueOVERWRITE) && (pxQueue->uxLength != 1)));
    16f4:	6be3      	ldr	r3, [r4, #60]	; 0x3c
    16f6:	2b01      	cmp	r3, #1
    16f8:	d001      	beq.n	16fe <xQueueGenericSend+0x3e>
    16fa:	b672      	cpsid	i
    16fc:	e7fe      	b.n	16fc <xQueueGenericSend+0x3c>
    16fe:	2600      	movs	r6, #0
    1700:	e7ee      	b.n	16e0 <xQueueGenericSend+0x20>
				xYieldRequired = prvCopyDataToQueue(pxQueue, pvItemToQueue, xCopyPosition);
    1702:	002a      	movs	r2, r5
    1704:	0039      	movs	r1, r7
    1706:	0020      	movs	r0, r4
    1708:	4b3d      	ldr	r3, [pc, #244]	; (1800 <xQueueGenericSend+0x140>)
    170a:	4798      	blx	r3
					if (pxQueue->pxQueueSetContainer != NULL) {
    170c:	6d63      	ldr	r3, [r4, #84]	; 0x54
    170e:	2b00      	cmp	r3, #0
    1710:	d00f      	beq.n	1732 <xQueueGenericSend+0x72>
						if (prvNotifyQueueSetContainer(pxQueue, xCopyPosition) == pdTRUE) {
    1712:	0029      	movs	r1, r5
    1714:	0020      	movs	r0, r4
    1716:	4b3b      	ldr	r3, [pc, #236]	; (1804 <xQueueGenericSend+0x144>)
    1718:	4798      	blx	r3
    171a:	2801      	cmp	r0, #1
    171c:	d101      	bne.n	1722 <xQueueGenericSend+0x62>
							queueYIELD_IF_USING_PREEMPTION();
    171e:	4b3a      	ldr	r3, [pc, #232]	; (1808 <xQueueGenericSend+0x148>)
    1720:	4798      	blx	r3
				taskEXIT_CRITICAL();
    1722:	4b3a      	ldr	r3, [pc, #232]	; (180c <xQueueGenericSend+0x14c>)
    1724:	4798      	blx	r3
				return pdPASS;
    1726:	2001      	movs	r0, #1
}
    1728:	b005      	add	sp, #20
    172a:	bc0c      	pop	{r2, r3}
    172c:	4690      	mov	r8, r2
    172e:	4699      	mov	r9, r3
    1730:	bdf0      	pop	{r4, r5, r6, r7, pc}
						if (listLIST_IS_EMPTY(&(pxQueue->xTasksWaitingToReceive)) == pdFALSE) {
    1732:	6a63      	ldr	r3, [r4, #36]	; 0x24
    1734:	2b00      	cmp	r3, #0
    1736:	d008      	beq.n	174a <xQueueGenericSend+0x8a>
							if (xTaskRemoveFromEventList(&(pxQueue->xTasksWaitingToReceive)) == pdTRUE) {
    1738:	0020      	movs	r0, r4
    173a:	3024      	adds	r0, #36	; 0x24
    173c:	4b34      	ldr	r3, [pc, #208]	; (1810 <xQueueGenericSend+0x150>)
    173e:	4798      	blx	r3
    1740:	2801      	cmp	r0, #1
    1742:	d1ee      	bne.n	1722 <xQueueGenericSend+0x62>
								queueYIELD_IF_USING_PREEMPTION();
    1744:	4b30      	ldr	r3, [pc, #192]	; (1808 <xQueueGenericSend+0x148>)
    1746:	4798      	blx	r3
    1748:	e7eb      	b.n	1722 <xQueueGenericSend+0x62>
						} else if (xYieldRequired != pdFALSE) {
    174a:	2800      	cmp	r0, #0
    174c:	d0e9      	beq.n	1722 <xQueueGenericSend+0x62>
							queueYIELD_IF_USING_PREEMPTION();
    174e:	4b2e      	ldr	r3, [pc, #184]	; (1808 <xQueueGenericSend+0x148>)
    1750:	4798      	blx	r3
    1752:	e7e6      	b.n	1722 <xQueueGenericSend+0x62>
					taskEXIT_CRITICAL();
    1754:	4b2d      	ldr	r3, [pc, #180]	; (180c <xQueueGenericSend+0x14c>)
    1756:	4798      	blx	r3
					return errQUEUE_FULL;
    1758:	2000      	movs	r0, #0
    175a:	e7e5      	b.n	1728 <xQueueGenericSend+0x68>
					vTaskSetTimeOutState(&xTimeOut);
    175c:	a802      	add	r0, sp, #8
    175e:	4b2d      	ldr	r3, [pc, #180]	; (1814 <xQueueGenericSend+0x154>)
    1760:	4798      	blx	r3
    1762:	e017      	b.n	1794 <xQueueGenericSend+0xd4>
		prvLockQueue(pxQueue);
    1764:	2300      	movs	r3, #0
    1766:	6463      	str	r3, [r4, #68]	; 0x44
    1768:	e01d      	b.n	17a6 <xQueueGenericSend+0xe6>
    176a:	2300      	movs	r3, #0
    176c:	64a3      	str	r3, [r4, #72]	; 0x48
    176e:	e01d      	b.n	17ac <xQueueGenericSend+0xec>
				prvUnlockQueue(pxQueue);
    1770:	0020      	movs	r0, r4
    1772:	4b29      	ldr	r3, [pc, #164]	; (1818 <xQueueGenericSend+0x158>)
    1774:	4798      	blx	r3
				(void)xTaskResumeAll();
    1776:	4b29      	ldr	r3, [pc, #164]	; (181c <xQueueGenericSend+0x15c>)
    1778:	4798      	blx	r3
    177a:	2601      	movs	r6, #1
		taskENTER_CRITICAL();
    177c:	47c0      	blx	r8
			if ((pxQueue->uxMessagesWaiting < pxQueue->uxLength) || (xCopyPosition == queueOVERWRITE)) {
    177e:	6ba3      	ldr	r3, [r4, #56]	; 0x38
    1780:	6be2      	ldr	r2, [r4, #60]	; 0x3c
    1782:	4293      	cmp	r3, r2
    1784:	d3bd      	bcc.n	1702 <xQueueGenericSend+0x42>
    1786:	2d02      	cmp	r5, #2
    1788:	d0bb      	beq.n	1702 <xQueueGenericSend+0x42>
				if (xTicksToWait == (TickType_t)0) {
    178a:	9b01      	ldr	r3, [sp, #4]
    178c:	2b00      	cmp	r3, #0
    178e:	d0e1      	beq.n	1754 <xQueueGenericSend+0x94>
				} else if (xEntryTimeSet == pdFALSE) {
    1790:	2e00      	cmp	r6, #0
    1792:	d0e3      	beq.n	175c <xQueueGenericSend+0x9c>
		taskEXIT_CRITICAL();
    1794:	4b1d      	ldr	r3, [pc, #116]	; (180c <xQueueGenericSend+0x14c>)
    1796:	4798      	blx	r3
		vTaskSuspendAll();
    1798:	4b21      	ldr	r3, [pc, #132]	; (1820 <xQueueGenericSend+0x160>)
    179a:	4798      	blx	r3
		prvLockQueue(pxQueue);
    179c:	4b17      	ldr	r3, [pc, #92]	; (17fc <xQueueGenericSend+0x13c>)
    179e:	4798      	blx	r3
    17a0:	6c63      	ldr	r3, [r4, #68]	; 0x44
    17a2:	3301      	adds	r3, #1
    17a4:	d0de      	beq.n	1764 <xQueueGenericSend+0xa4>
    17a6:	6ca3      	ldr	r3, [r4, #72]	; 0x48
    17a8:	3301      	adds	r3, #1
    17aa:	d0de      	beq.n	176a <xQueueGenericSend+0xaa>
    17ac:	4b17      	ldr	r3, [pc, #92]	; (180c <xQueueGenericSend+0x14c>)
    17ae:	4798      	blx	r3
		if (xTaskCheckForTimeOut(&xTimeOut, &xTicksToWait) == pdFALSE) {
    17b0:	a901      	add	r1, sp, #4
    17b2:	a802      	add	r0, sp, #8
    17b4:	4b1b      	ldr	r3, [pc, #108]	; (1824 <xQueueGenericSend+0x164>)
    17b6:	4798      	blx	r3
    17b8:	2800      	cmp	r0, #0
    17ba:	d117      	bne.n	17ec <xQueueGenericSend+0x12c>
	taskENTER_CRITICAL();
    17bc:	4b0f      	ldr	r3, [pc, #60]	; (17fc <xQueueGenericSend+0x13c>)
    17be:	4798      	blx	r3
		if (pxQueue->uxMessagesWaiting == pxQueue->uxLength) {
    17c0:	6ba3      	ldr	r3, [r4, #56]	; 0x38
    17c2:	4699      	mov	r9, r3
    17c4:	6be6      	ldr	r6, [r4, #60]	; 0x3c
	taskEXIT_CRITICAL();
    17c6:	4b11      	ldr	r3, [pc, #68]	; (180c <xQueueGenericSend+0x14c>)
    17c8:	4798      	blx	r3
			if (prvIsQueueFull(pxQueue) != pdFALSE) {
    17ca:	45b1      	cmp	r9, r6
    17cc:	d1d0      	bne.n	1770 <xQueueGenericSend+0xb0>
				vTaskPlaceOnEventList(&(pxQueue->xTasksWaitingToSend), xTicksToWait);
    17ce:	0020      	movs	r0, r4
    17d0:	3010      	adds	r0, #16
    17d2:	9901      	ldr	r1, [sp, #4]
    17d4:	4b14      	ldr	r3, [pc, #80]	; (1828 <xQueueGenericSend+0x168>)
    17d6:	4798      	blx	r3
				prvUnlockQueue(pxQueue);
    17d8:	0020      	movs	r0, r4
    17da:	4b0f      	ldr	r3, [pc, #60]	; (1818 <xQueueGenericSend+0x158>)
    17dc:	4798      	blx	r3
				if (xTaskResumeAll() == pdFALSE) {
    17de:	4b0f      	ldr	r3, [pc, #60]	; (181c <xQueueGenericSend+0x15c>)
    17e0:	4798      	blx	r3
    17e2:	2800      	cmp	r0, #0
    17e4:	d1c9      	bne.n	177a <xQueueGenericSend+0xba>
					portYIELD_WITHIN_API();
    17e6:	4b08      	ldr	r3, [pc, #32]	; (1808 <xQueueGenericSend+0x148>)
    17e8:	4798      	blx	r3
    17ea:	e7c6      	b.n	177a <xQueueGenericSend+0xba>
			prvUnlockQueue(pxQueue);
    17ec:	0020      	movs	r0, r4
    17ee:	4b0a      	ldr	r3, [pc, #40]	; (1818 <xQueueGenericSend+0x158>)
    17f0:	4798      	blx	r3
			(void)xTaskResumeAll();
    17f2:	4b0a      	ldr	r3, [pc, #40]	; (181c <xQueueGenericSend+0x15c>)
    17f4:	4798      	blx	r3
			return errQUEUE_FULL;
    17f6:	2000      	movs	r0, #0
    17f8:	e796      	b.n	1728 <xQueueGenericSend+0x68>
    17fa:	46c0      	nop			; (mov r8, r8)
    17fc:	0000122d 	.word	0x0000122d
    1800:	000013fd 	.word	0x000013fd
    1804:	00001481 	.word	0x00001481
    1808:	00001215 	.word	0x00001215
    180c:	00001245 	.word	0x00001245
    1810:	000020d1 	.word	0x000020d1
    1814:	0000214d 	.word	0x0000214d
    1818:	0000150d 	.word	0x0000150d
    181c:	00001e9d 	.word	0x00001e9d
    1820:	00001d81 	.word	0x00001d81
    1824:	00002165 	.word	0x00002165
    1828:	0000207d 	.word	0x0000207d

0000182c <xQueueCreateMutex>:
{
    182c:	b570      	push	{r4, r5, r6, lr}
    182e:	0005      	movs	r5, r0
	pxNewQueue = (Queue_t *)pvPortMalloc(sizeof(Queue_t));
    1830:	2058      	movs	r0, #88	; 0x58
    1832:	4b10      	ldr	r3, [pc, #64]	; (1874 <xQueueCreateMutex+0x48>)
    1834:	4798      	blx	r3
    1836:	1e04      	subs	r4, r0, #0
	if (pxNewQueue != NULL) {
    1838:	d01a      	beq.n	1870 <xQueueCreateMutex+0x44>
		pxNewQueue->pxMutexHolder = NULL;
    183a:	2300      	movs	r3, #0
    183c:	6043      	str	r3, [r0, #4]
		pxNewQueue->uxQueueType   = queueQUEUE_IS_MUTEX;
    183e:	6003      	str	r3, [r0, #0]
		pxNewQueue->pcWriteTo    = NULL;
    1840:	6083      	str	r3, [r0, #8]
		pxNewQueue->u.pcReadFrom = NULL;
    1842:	60c3      	str	r3, [r0, #12]
		pxNewQueue->uxMessagesWaiting = (UBaseType_t)0U;
    1844:	6383      	str	r3, [r0, #56]	; 0x38
		pxNewQueue->uxLength          = (UBaseType_t)1U;
    1846:	2201      	movs	r2, #1
    1848:	63c2      	str	r2, [r0, #60]	; 0x3c
		pxNewQueue->uxItemSize        = (UBaseType_t)0U;
    184a:	6403      	str	r3, [r0, #64]	; 0x40
		pxNewQueue->xRxLock           = queueUNLOCKED;
    184c:	3a02      	subs	r2, #2
    184e:	6442      	str	r2, [r0, #68]	; 0x44
		pxNewQueue->xTxLock           = queueUNLOCKED;
    1850:	6482      	str	r2, [r0, #72]	; 0x48
			pxNewQueue->ucQueueType = ucQueueType;
    1852:	3251      	adds	r2, #81	; 0x51
    1854:	5485      	strb	r5, [r0, r2]
			pxNewQueue->pxQueueSetContainer = NULL;
    1856:	6543      	str	r3, [r0, #84]	; 0x54
		vListInitialise(&(pxNewQueue->xTasksWaitingToSend));
    1858:	3010      	adds	r0, #16
    185a:	4d07      	ldr	r5, [pc, #28]	; (1878 <xQueueCreateMutex+0x4c>)
    185c:	47a8      	blx	r5
		vListInitialise(&(pxNewQueue->xTasksWaitingToReceive));
    185e:	0020      	movs	r0, r4
    1860:	3024      	adds	r0, #36	; 0x24
    1862:	47a8      	blx	r5
		(void)xQueueGenericSend(pxNewQueue, NULL, (TickType_t)0U, queueSEND_TO_BACK);
    1864:	2300      	movs	r3, #0
    1866:	2200      	movs	r2, #0
    1868:	2100      	movs	r1, #0
    186a:	0020      	movs	r0, r4
    186c:	4d03      	ldr	r5, [pc, #12]	; (187c <xQueueCreateMutex+0x50>)
    186e:	47a8      	blx	r5
}
    1870:	0020      	movs	r0, r4
    1872:	bd70      	pop	{r4, r5, r6, pc}
    1874:	000012e9 	.word	0x000012e9
    1878:	000010e5 	.word	0x000010e5
    187c:	000016c1 	.word	0x000016c1

00001880 <xQueueGiveFromISR>:
{
    1880:	b5f8      	push	{r3, r4, r5, r6, r7, lr}
    1882:	0004      	movs	r4, r0
    1884:	000e      	movs	r6, r1
	configASSERT(pxQueue);
    1886:	2800      	cmp	r0, #0
    1888:	d004      	beq.n	1894 <xQueueGiveFromISR+0x14>
	configASSERT(pxQueue->uxItemSize == 0);
    188a:	6c03      	ldr	r3, [r0, #64]	; 0x40
    188c:	2b00      	cmp	r3, #0
    188e:	d003      	beq.n	1898 <xQueueGiveFromISR+0x18>
    1890:	b672      	cpsid	i
    1892:	e7fe      	b.n	1892 <xQueueGiveFromISR+0x12>
	configASSERT(pxQueue);
    1894:	b672      	cpsid	i
    1896:	e7fe      	b.n	1896 <xQueueGiveFromISR+0x16>
	configASSERT(!((pxQueue->uxQueueType == queueQUEUE_IS_MUTEX) && (pxQueue->pxMutexHolder != NULL)));
    1898:	6803      	ldr	r3, [r0, #0]
    189a:	2b00      	cmp	r3, #0
    189c:	d020      	beq.n	18e0 <xQueueGiveFromISR+0x60>
	uxSavedInterruptStatus = portSET_INTERRUPT_MASK_FROM_ISR();
    189e:	4b1f      	ldr	r3, [pc, #124]	; (191c <xQueueGiveFromISR+0x9c>)
    18a0:	4798      	blx	r3
    18a2:	0007      	movs	r7, r0
		if (pxQueue->uxMessagesWaiting < pxQueue->uxLength) {
    18a4:	6ba3      	ldr	r3, [r4, #56]	; 0x38
			xReturn = errQUEUE_FULL;
    18a6:	2500      	movs	r5, #0
		if (pxQueue->uxMessagesWaiting < pxQueue->uxLength) {
    18a8:	6be2      	ldr	r2, [r4, #60]	; 0x3c
    18aa:	4293      	cmp	r3, r2
    18ac:	d213      	bcs.n	18d6 <xQueueGiveFromISR+0x56>
			++(pxQueue->uxMessagesWaiting);
    18ae:	6ba3      	ldr	r3, [r4, #56]	; 0x38
    18b0:	3301      	adds	r3, #1
    18b2:	63a3      	str	r3, [r4, #56]	; 0x38
			if (pxQueue->xTxLock == queueUNLOCKED) {
    18b4:	6ca3      	ldr	r3, [r4, #72]	; 0x48
    18b6:	3301      	adds	r3, #1
    18b8:	d126      	bne.n	1908 <xQueueGiveFromISR+0x88>
					if (pxQueue->pxQueueSetContainer != NULL) {
    18ba:	6d63      	ldr	r3, [r4, #84]	; 0x54
    18bc:	2b00      	cmp	r3, #0
    18be:	d014      	beq.n	18ea <xQueueGiveFromISR+0x6a>
						if (prvNotifyQueueSetContainer(pxQueue, queueSEND_TO_BACK) == pdTRUE) {
    18c0:	2100      	movs	r1, #0
    18c2:	0020      	movs	r0, r4
    18c4:	4b16      	ldr	r3, [pc, #88]	; (1920 <xQueueGiveFromISR+0xa0>)
    18c6:	4798      	blx	r3
			xReturn = pdPASS;
    18c8:	3501      	adds	r5, #1
						if (prvNotifyQueueSetContainer(pxQueue, queueSEND_TO_BACK) == pdTRUE) {
    18ca:	2801      	cmp	r0, #1
    18cc:	d103      	bne.n	18d6 <xQueueGiveFromISR+0x56>
							if (pxHigherPriorityTaskWoken != NULL) {
    18ce:	2e00      	cmp	r6, #0
    18d0:	d01f      	beq.n	1912 <xQueueGiveFromISR+0x92>
								*pxHigherPriorityTaskWoken = pdTRUE;
    18d2:	2301      	movs	r3, #1
    18d4:	6033      	str	r3, [r6, #0]
	portCLEAR_INTERRUPT_MASK_FROM_ISR(uxSavedInterruptStatus);
    18d6:	0038      	movs	r0, r7
    18d8:	4b12      	ldr	r3, [pc, #72]	; (1924 <xQueueGiveFromISR+0xa4>)
    18da:	4798      	blx	r3
}
    18dc:	0028      	movs	r0, r5
    18de:	bdf8      	pop	{r3, r4, r5, r6, r7, pc}
	configASSERT(!((pxQueue->uxQueueType == queueQUEUE_IS_MUTEX) && (pxQueue->pxMutexHolder != NULL)));
    18e0:	6843      	ldr	r3, [r0, #4]
    18e2:	2b00      	cmp	r3, #0
    18e4:	d0db      	beq.n	189e <xQueueGiveFromISR+0x1e>
    18e6:	b672      	cpsid	i
    18e8:	e7fe      	b.n	18e8 <xQueueGiveFromISR+0x68>
			xReturn = pdPASS;
    18ea:	2501      	movs	r5, #1
						if (listLIST_IS_EMPTY(&(pxQueue->xTasksWaitingToReceive)) == pdFALSE) {
    18ec:	6a63      	ldr	r3, [r4, #36]	; 0x24
    18ee:	2b00      	cmp	r3, #0
    18f0:	d0f1      	beq.n	18d6 <xQueueGiveFromISR+0x56>
							if (xTaskRemoveFromEventList(&(pxQueue->xTasksWaitingToReceive)) != pdFALSE) {
    18f2:	0020      	movs	r0, r4
    18f4:	3024      	adds	r0, #36	; 0x24
    18f6:	4b0c      	ldr	r3, [pc, #48]	; (1928 <xQueueGiveFromISR+0xa8>)
    18f8:	4798      	blx	r3
    18fa:	2800      	cmp	r0, #0
    18fc:	d0eb      	beq.n	18d6 <xQueueGiveFromISR+0x56>
								if (pxHigherPriorityTaskWoken != NULL) {
    18fe:	2e00      	cmp	r6, #0
    1900:	d009      	beq.n	1916 <xQueueGiveFromISR+0x96>
									*pxHigherPriorityTaskWoken = pdTRUE;
    1902:	2301      	movs	r3, #1
    1904:	6033      	str	r3, [r6, #0]
    1906:	e7e6      	b.n	18d6 <xQueueGiveFromISR+0x56>
				++(pxQueue->xTxLock);
    1908:	6ca3      	ldr	r3, [r4, #72]	; 0x48
    190a:	3301      	adds	r3, #1
    190c:	64a3      	str	r3, [r4, #72]	; 0x48
			xReturn = pdPASS;
    190e:	2501      	movs	r5, #1
    1910:	e7e1      	b.n	18d6 <xQueueGiveFromISR+0x56>
    1912:	2501      	movs	r5, #1
    1914:	e7df      	b.n	18d6 <xQueueGiveFromISR+0x56>
    1916:	2501      	movs	r5, #1
    1918:	e7dd      	b.n	18d6 <xQueueGiveFromISR+0x56>
    191a:	46c0      	nop			; (mov r8, r8)
    191c:	00001265 	.word	0x00001265
    1920:	00001481 	.word	0x00001481
    1924:	0000126f 	.word	0x0000126f
    1928:	000020d1 	.word	0x000020d1

0000192c <xQueueGenericReceive>:
{
    192c:	b5f0      	push	{r4, r5, r6, r7, lr}
    192e:	46c6      	mov	lr, r8
    1930:	b500      	push	{lr}
    1932:	b084      	sub	sp, #16
    1934:	0004      	movs	r4, r0
    1936:	000e      	movs	r6, r1
    1938:	9201      	str	r2, [sp, #4]
    193a:	001f      	movs	r7, r3
	configASSERT(pxQueue);
    193c:	2800      	cmp	r0, #0
    193e:	d005      	beq.n	194c <xQueueGenericReceive+0x20>
    1940:	2500      	movs	r5, #0
	configASSERT(!((pvBuffer == NULL) && (pxQueue->uxItemSize != (UBaseType_t)0U)));
    1942:	2900      	cmp	r1, #0
    1944:	d004      	beq.n	1950 <xQueueGenericReceive+0x24>
		taskENTER_CRITICAL();
    1946:	4b4a      	ldr	r3, [pc, #296]	; (1a70 <xQueueGenericReceive+0x144>)
    1948:	4698      	mov	r8, r3
    194a:	e053      	b.n	19f4 <xQueueGenericReceive+0xc8>
	configASSERT(pxQueue);
    194c:	b672      	cpsid	i
    194e:	e7fe      	b.n	194e <xQueueGenericReceive+0x22>
	configASSERT(!((pvBuffer == NULL) && (pxQueue->uxItemSize != (UBaseType_t)0U)));
    1950:	6c03      	ldr	r3, [r0, #64]	; 0x40
    1952:	2b00      	cmp	r3, #0
    1954:	d001      	beq.n	195a <xQueueGenericReceive+0x2e>
    1956:	b672      	cpsid	i
    1958:	e7fe      	b.n	1958 <xQueueGenericReceive+0x2c>
    195a:	2500      	movs	r5, #0
    195c:	e7f3      	b.n	1946 <xQueueGenericReceive+0x1a>
				pcOriginalReadPosition = pxQueue->u.pcReadFrom;
    195e:	68e5      	ldr	r5, [r4, #12]
				prvCopyDataFromQueue(pxQueue, pvBuffer);
    1960:	0031      	movs	r1, r6
    1962:	0020      	movs	r0, r4
    1964:	4b43      	ldr	r3, [pc, #268]	; (1a74 <xQueueGenericReceive+0x148>)
    1966:	4798      	blx	r3
				if (xJustPeeking == pdFALSE) {
    1968:	2f00      	cmp	r7, #0
    196a:	d11a      	bne.n	19a2 <xQueueGenericReceive+0x76>
					--(pxQueue->uxMessagesWaiting);
    196c:	6ba3      	ldr	r3, [r4, #56]	; 0x38
    196e:	3b01      	subs	r3, #1
    1970:	63a3      	str	r3, [r4, #56]	; 0x38
						if (pxQueue->uxQueueType == queueQUEUE_IS_MUTEX) {
    1972:	6823      	ldr	r3, [r4, #0]
    1974:	2b00      	cmp	r3, #0
    1976:	d102      	bne.n	197e <xQueueGenericReceive+0x52>
							    = (int8_t *)pvTaskIncrementMutexHeldCount(); /*lint !e961 Cast is not redundant as
    1978:	4b3f      	ldr	r3, [pc, #252]	; (1a78 <xQueueGenericReceive+0x14c>)
    197a:	4798      	blx	r3
    197c:	6060      	str	r0, [r4, #4]
					if (listLIST_IS_EMPTY(&(pxQueue->xTasksWaitingToSend)) == pdFALSE) {
    197e:	6923      	ldr	r3, [r4, #16]
    1980:	2b00      	cmp	r3, #0
    1982:	d007      	beq.n	1994 <xQueueGenericReceive+0x68>
						if (xTaskRemoveFromEventList(&(pxQueue->xTasksWaitingToSend)) == pdTRUE) {
    1984:	0020      	movs	r0, r4
    1986:	3010      	adds	r0, #16
    1988:	4b3c      	ldr	r3, [pc, #240]	; (1a7c <xQueueGenericReceive+0x150>)
    198a:	4798      	blx	r3
    198c:	2801      	cmp	r0, #1
    198e:	d101      	bne.n	1994 <xQueueGenericReceive+0x68>
							queueYIELD_IF_USING_PREEMPTION();
    1990:	4b3b      	ldr	r3, [pc, #236]	; (1a80 <xQueueGenericReceive+0x154>)
    1992:	4798      	blx	r3
				taskEXIT_CRITICAL();
    1994:	4b3b      	ldr	r3, [pc, #236]	; (1a84 <xQueueGenericReceive+0x158>)
    1996:	4798      	blx	r3
				return pdPASS;
    1998:	2001      	movs	r0, #1
}
    199a:	b004      	add	sp, #16
    199c:	bc04      	pop	{r2}
    199e:	4690      	mov	r8, r2
    19a0:	bdf0      	pop	{r4, r5, r6, r7, pc}
					pxQueue->u.pcReadFrom = pcOriginalReadPosition;
    19a2:	60e5      	str	r5, [r4, #12]
					if (listLIST_IS_EMPTY(&(pxQueue->xTasksWaitingToReceive)) == pdFALSE) {
    19a4:	6a63      	ldr	r3, [r4, #36]	; 0x24
    19a6:	2b00      	cmp	r3, #0
    19a8:	d0f4      	beq.n	1994 <xQueueGenericReceive+0x68>
						if (xTaskRemoveFromEventList(&(pxQueue->xTasksWaitingToReceive)) != pdFALSE) {
    19aa:	0020      	movs	r0, r4
    19ac:	3024      	adds	r0, #36	; 0x24
    19ae:	4b33      	ldr	r3, [pc, #204]	; (1a7c <xQueueGenericReceive+0x150>)
    19b0:	4798      	blx	r3
    19b2:	2800      	cmp	r0, #0
    19b4:	d0ee      	beq.n	1994 <xQueueGenericReceive+0x68>
							queueYIELD_IF_USING_PREEMPTION();
    19b6:	4b32      	ldr	r3, [pc, #200]	; (1a80 <xQueueGenericReceive+0x154>)
    19b8:	4798      	blx	r3
    19ba:	e7eb      	b.n	1994 <xQueueGenericReceive+0x68>
					taskEXIT_CRITICAL();
    19bc:	4b31      	ldr	r3, [pc, #196]	; (1a84 <xQueueGenericReceive+0x158>)
    19be:	4798      	blx	r3
					return errQUEUE_EMPTY;
    19c0:	2000      	movs	r0, #0
    19c2:	e7ea      	b.n	199a <xQueueGenericReceive+0x6e>
					vTaskSetTimeOutState(&xTimeOut);
    19c4:	a802      	add	r0, sp, #8
    19c6:	4b30      	ldr	r3, [pc, #192]	; (1a88 <xQueueGenericReceive+0x15c>)
    19c8:	4798      	blx	r3
    19ca:	e01c      	b.n	1a06 <xQueueGenericReceive+0xda>
		prvLockQueue(pxQueue);
    19cc:	2300      	movs	r3, #0
    19ce:	6463      	str	r3, [r4, #68]	; 0x44
    19d0:	e022      	b.n	1a18 <xQueueGenericReceive+0xec>
    19d2:	2300      	movs	r3, #0
    19d4:	64a3      	str	r3, [r4, #72]	; 0x48
    19d6:	e022      	b.n	1a1e <xQueueGenericReceive+0xf2>
						taskENTER_CRITICAL();
    19d8:	4b25      	ldr	r3, [pc, #148]	; (1a70 <xQueueGenericReceive+0x144>)
    19da:	4798      	blx	r3
							vTaskPriorityInherit((void *)pxQueue->pxMutexHolder);
    19dc:	6860      	ldr	r0, [r4, #4]
    19de:	4b2b      	ldr	r3, [pc, #172]	; (1a8c <xQueueGenericReceive+0x160>)
    19e0:	4798      	blx	r3
						taskEXIT_CRITICAL();
    19e2:	4b28      	ldr	r3, [pc, #160]	; (1a84 <xQueueGenericReceive+0x158>)
    19e4:	4798      	blx	r3
    19e6:	e02c      	b.n	1a42 <xQueueGenericReceive+0x116>
				prvUnlockQueue(pxQueue);
    19e8:	0020      	movs	r0, r4
    19ea:	4b29      	ldr	r3, [pc, #164]	; (1a90 <xQueueGenericReceive+0x164>)
    19ec:	4798      	blx	r3
				(void)xTaskResumeAll();
    19ee:	4b29      	ldr	r3, [pc, #164]	; (1a94 <xQueueGenericReceive+0x168>)
    19f0:	4798      	blx	r3
    19f2:	2501      	movs	r5, #1
		taskENTER_CRITICAL();
    19f4:	47c0      	blx	r8
			if (pxQueue->uxMessagesWaiting > (UBaseType_t)0) {
    19f6:	6ba3      	ldr	r3, [r4, #56]	; 0x38
    19f8:	2b00      	cmp	r3, #0
    19fa:	d1b0      	bne.n	195e <xQueueGenericReceive+0x32>
				if (xTicksToWait == (TickType_t)0) {
    19fc:	9b01      	ldr	r3, [sp, #4]
    19fe:	2b00      	cmp	r3, #0
    1a00:	d0dc      	beq.n	19bc <xQueueGenericReceive+0x90>
				} else if (xEntryTimeSet == pdFALSE) {
    1a02:	2d00      	cmp	r5, #0
    1a04:	d0de      	beq.n	19c4 <xQueueGenericReceive+0x98>
		taskEXIT_CRITICAL();
    1a06:	4b1f      	ldr	r3, [pc, #124]	; (1a84 <xQueueGenericReceive+0x158>)
    1a08:	4798      	blx	r3
		vTaskSuspendAll();
    1a0a:	4b23      	ldr	r3, [pc, #140]	; (1a98 <xQueueGenericReceive+0x16c>)
    1a0c:	4798      	blx	r3
		prvLockQueue(pxQueue);
    1a0e:	4b18      	ldr	r3, [pc, #96]	; (1a70 <xQueueGenericReceive+0x144>)
    1a10:	4798      	blx	r3
    1a12:	6c63      	ldr	r3, [r4, #68]	; 0x44
    1a14:	3301      	adds	r3, #1
    1a16:	d0d9      	beq.n	19cc <xQueueGenericReceive+0xa0>
    1a18:	6ca3      	ldr	r3, [r4, #72]	; 0x48
    1a1a:	3301      	adds	r3, #1
    1a1c:	d0d9      	beq.n	19d2 <xQueueGenericReceive+0xa6>
    1a1e:	4b19      	ldr	r3, [pc, #100]	; (1a84 <xQueueGenericReceive+0x158>)
    1a20:	4798      	blx	r3
		if (xTaskCheckForTimeOut(&xTimeOut, &xTicksToWait) == pdFALSE) {
    1a22:	a901      	add	r1, sp, #4
    1a24:	a802      	add	r0, sp, #8
    1a26:	4b1d      	ldr	r3, [pc, #116]	; (1a9c <xQueueGenericReceive+0x170>)
    1a28:	4798      	blx	r3
    1a2a:	2800      	cmp	r0, #0
    1a2c:	d118      	bne.n	1a60 <xQueueGenericReceive+0x134>
	taskENTER_CRITICAL();
    1a2e:	4b10      	ldr	r3, [pc, #64]	; (1a70 <xQueueGenericReceive+0x144>)
    1a30:	4798      	blx	r3
		if (pxQueue->uxMessagesWaiting == (UBaseType_t)0) {
    1a32:	6ba5      	ldr	r5, [r4, #56]	; 0x38
	taskEXIT_CRITICAL();
    1a34:	4b13      	ldr	r3, [pc, #76]	; (1a84 <xQueueGenericReceive+0x158>)
    1a36:	4798      	blx	r3
			if (prvIsQueueEmpty(pxQueue) != pdFALSE) {
    1a38:	2d00      	cmp	r5, #0
    1a3a:	d1d5      	bne.n	19e8 <xQueueGenericReceive+0xbc>
					if (pxQueue->uxQueueType == queueQUEUE_IS_MUTEX) {
    1a3c:	6823      	ldr	r3, [r4, #0]
    1a3e:	2b00      	cmp	r3, #0
    1a40:	d0ca      	beq.n	19d8 <xQueueGenericReceive+0xac>
				vTaskPlaceOnEventList(&(pxQueue->xTasksWaitingToReceive), xTicksToWait);
    1a42:	0020      	movs	r0, r4
    1a44:	3024      	adds	r0, #36	; 0x24
    1a46:	9901      	ldr	r1, [sp, #4]
    1a48:	4b15      	ldr	r3, [pc, #84]	; (1aa0 <xQueueGenericReceive+0x174>)
    1a4a:	4798      	blx	r3
				prvUnlockQueue(pxQueue);
    1a4c:	0020      	movs	r0, r4
    1a4e:	4b10      	ldr	r3, [pc, #64]	; (1a90 <xQueueGenericReceive+0x164>)
    1a50:	4798      	blx	r3
				if (xTaskResumeAll() == pdFALSE) {
    1a52:	4b10      	ldr	r3, [pc, #64]	; (1a94 <xQueueGenericReceive+0x168>)
    1a54:	4798      	blx	r3
    1a56:	2800      	cmp	r0, #0
    1a58:	d1cb      	bne.n	19f2 <xQueueGenericReceive+0xc6>
					portYIELD_WITHIN_API();
    1a5a:	4b09      	ldr	r3, [pc, #36]	; (1a80 <xQueueGenericReceive+0x154>)
    1a5c:	4798      	blx	r3
    1a5e:	e7c8      	b.n	19f2 <xQueueGenericReceive+0xc6>
			prvUnlockQueue(pxQueue);
    1a60:	0020      	movs	r0, r4
    1a62:	4b0b      	ldr	r3, [pc, #44]	; (1a90 <xQueueGenericReceive+0x164>)
    1a64:	4798      	blx	r3
			(void)xTaskResumeAll();
    1a66:	4b0b      	ldr	r3, [pc, #44]	; (1a94 <xQueueGenericReceive+0x168>)
    1a68:	4798      	blx	r3
			return errQUEUE_EMPTY;
    1a6a:	2000      	movs	r0, #0
    1a6c:	e795      	b.n	199a <xQueueGenericReceive+0x6e>
    1a6e:	46c0      	nop			; (mov r8, r8)
    1a70:	0000122d 	.word	0x0000122d
    1a74:	000014e5 	.word	0x000014e5
    1a78:	000022d9 	.word	0x000022d9
    1a7c:	000020d1 	.word	0x000020d1
    1a80:	00001215 	.word	0x00001215
    1a84:	00001245 	.word	0x00001245
    1a88:	0000214d 	.word	0x0000214d
    1a8c:	000021dd 	.word	0x000021dd
    1a90:	0000150d 	.word	0x0000150d
    1a94:	00001e9d 	.word	0x00001e9d
    1a98:	00001d81 	.word	0x00001d81
    1a9c:	00002165 	.word	0x00002165
    1aa0:	0000207d 	.word	0x0000207d

00001aa4 <vQueueDelete>:
{
    1aa4:	b510      	push	{r4, lr}
	configASSERT(pxQueue);
    1aa6:	2800      	cmp	r0, #0
    1aa8:	d101      	bne.n	1aae <vQueueDelete+0xa>
    1aaa:	b672      	cpsid	i
    1aac:	e7fe      	b.n	1aac <vQueueDelete+0x8>
	vPortFree(pxQueue);
    1aae:	4b01      	ldr	r3, [pc, #4]	; (1ab4 <vQueueDelete+0x10>)
    1ab0:	4798      	blx	r3
}
    1ab2:	bd10      	pop	{r4, pc}
    1ab4:	000013b5 	.word	0x000013b5

00001ab8 <prvResetNextTaskUnblockTime>:

static void prvResetNextTaskUnblockTime(void)
{
	TCB_t *pxTCB;

	if (listLIST_IS_EMPTY(pxDelayedTaskList) != pdFALSE) {
    1ab8:	4b08      	ldr	r3, [pc, #32]	; (1adc <prvResetNextTaskUnblockTime+0x24>)
    1aba:	6a9b      	ldr	r3, [r3, #40]	; 0x28
    1abc:	681b      	ldr	r3, [r3, #0]
    1abe:	2b00      	cmp	r3, #0
    1ac0:	d006      	beq.n	1ad0 <prvResetNextTaskUnblockTime+0x18>
	} else {
		/* The new current delayed list is not empty, get the value of
		the item at the head of the delayed list.  This is the time at
		which the task at the head of the delayed list should be removed
		from the Blocked state. */
		(pxTCB)              = (TCB_t *)listGET_OWNER_OF_HEAD_ENTRY(pxDelayedTaskList);
    1ac2:	4b06      	ldr	r3, [pc, #24]	; (1adc <prvResetNextTaskUnblockTime+0x24>)
    1ac4:	6a9a      	ldr	r2, [r3, #40]	; 0x28
    1ac6:	68d2      	ldr	r2, [r2, #12]
		xNextTaskUnblockTime = listGET_LIST_ITEM_VALUE(&((pxTCB)->xGenericListItem));
    1ac8:	68d2      	ldr	r2, [r2, #12]
    1aca:	6852      	ldr	r2, [r2, #4]
    1acc:	62da      	str	r2, [r3, #44]	; 0x2c
	}
}
    1ace:	4770      	bx	lr
		xNextTaskUnblockTime = portMAX_DELAY;
    1ad0:	2201      	movs	r2, #1
    1ad2:	4252      	negs	r2, r2
    1ad4:	4b01      	ldr	r3, [pc, #4]	; (1adc <prvResetNextTaskUnblockTime+0x24>)
    1ad6:	62da      	str	r2, [r3, #44]	; 0x2c
    1ad8:	e7f9      	b.n	1ace <prvResetNextTaskUnblockTime+0x16>
    1ada:	46c0      	nop			; (mov r8, r8)
    1adc:	200009d0 	.word	0x200009d0

00001ae0 <prvIdleTask>:
{
    1ae0:	b570      	push	{r4, r5, r6, lr}
			if (listCURRENT_LIST_LENGTH(&(pxReadyTasksLists[tskIDLE_PRIORITY])) > (UBaseType_t)1) {
    1ae2:	4d03      	ldr	r5, [pc, #12]	; (1af0 <prvIdleTask+0x10>)
				taskYIELD();
    1ae4:	4c03      	ldr	r4, [pc, #12]	; (1af4 <prvIdleTask+0x14>)
			if (listCURRENT_LIST_LENGTH(&(pxReadyTasksLists[tskIDLE_PRIORITY])) > (UBaseType_t)1) {
    1ae6:	6b2b      	ldr	r3, [r5, #48]	; 0x30
    1ae8:	2b01      	cmp	r3, #1
    1aea:	d9fd      	bls.n	1ae8 <prvIdleTask+0x8>
				taskYIELD();
    1aec:	47a0      	blx	r4
    1aee:	e7fa      	b.n	1ae6 <prvIdleTask+0x6>
    1af0:	200009d0 	.word	0x200009d0
    1af4:	00001215 	.word	0x00001215

00001af8 <prvAddCurrentTaskToDelayedList>:
{
    1af8:	b570      	push	{r4, r5, r6, lr}
    1afa:	0004      	movs	r4, r0
	listSET_LIST_ITEM_VALUE(&(pxCurrentTCB->xGenericListItem), xTimeToWake);
    1afc:	4b0c      	ldr	r3, [pc, #48]	; (1b30 <prvAddCurrentTaskToDelayedList+0x38>)
    1afe:	695a      	ldr	r2, [r3, #20]
    1b00:	6050      	str	r0, [r2, #4]
	if (xTimeToWake < xTickCount) {
    1b02:	699b      	ldr	r3, [r3, #24]
    1b04:	4298      	cmp	r0, r3
    1b06:	d30c      	bcc.n	1b22 <prvAddCurrentTaskToDelayedList+0x2a>
		vListInsert(pxDelayedTaskList, &(pxCurrentTCB->xGenericListItem));
    1b08:	4d0a      	ldr	r5, [pc, #40]	; (1b34 <prvAddCurrentTaskToDelayedList+0x3c>)
    1b0a:	6aa8      	ldr	r0, [r5, #40]	; 0x28
    1b0c:	4b08      	ldr	r3, [pc, #32]	; (1b30 <prvAddCurrentTaskToDelayedList+0x38>)
    1b0e:	6959      	ldr	r1, [r3, #20]
    1b10:	3104      	adds	r1, #4
    1b12:	4b09      	ldr	r3, [pc, #36]	; (1b38 <prvAddCurrentTaskToDelayedList+0x40>)
    1b14:	4798      	blx	r3
		if (xTimeToWake < xNextTaskUnblockTime) {
    1b16:	6aeb      	ldr	r3, [r5, #44]	; 0x2c
    1b18:	429c      	cmp	r4, r3
    1b1a:	d208      	bcs.n	1b2e <prvAddCurrentTaskToDelayedList+0x36>
			xNextTaskUnblockTime = xTimeToWake;
    1b1c:	4b05      	ldr	r3, [pc, #20]	; (1b34 <prvAddCurrentTaskToDelayedList+0x3c>)
    1b1e:	62dc      	str	r4, [r3, #44]	; 0x2c
}
    1b20:	e005      	b.n	1b2e <prvAddCurrentTaskToDelayedList+0x36>
		vListInsert(pxOverflowDelayedTaskList, &(pxCurrentTCB->xGenericListItem));
    1b22:	4b03      	ldr	r3, [pc, #12]	; (1b30 <prvAddCurrentTaskToDelayedList+0x38>)
    1b24:	69d8      	ldr	r0, [r3, #28]
    1b26:	6959      	ldr	r1, [r3, #20]
    1b28:	3104      	adds	r1, #4
    1b2a:	4b03      	ldr	r3, [pc, #12]	; (1b38 <prvAddCurrentTaskToDelayedList+0x40>)
    1b2c:	4798      	blx	r3
}
    1b2e:	bd70      	pop	{r4, r5, r6, pc}
    1b30:	20000a50 	.word	0x20000a50
    1b34:	200009d0 	.word	0x200009d0
    1b38:	00001119 	.word	0x00001119

00001b3c <xTaskGenericCreate>:
{
    1b3c:	b5f0      	push	{r4, r5, r6, r7, lr}
    1b3e:	46de      	mov	lr, fp
    1b40:	4657      	mov	r7, sl
    1b42:	4646      	mov	r6, r8
    1b44:	b5c0      	push	{r6, r7, lr}
    1b46:	b084      	sub	sp, #16
    1b48:	9002      	str	r0, [sp, #8]
    1b4a:	000e      	movs	r6, r1
    1b4c:	0017      	movs	r7, r2
    1b4e:	9303      	str	r3, [sp, #12]
    1b50:	9b0c      	ldr	r3, [sp, #48]	; 0x30
    1b52:	4698      	mov	r8, r3
	configASSERT(pxTaskCode);
    1b54:	2800      	cmp	r0, #0
    1b56:	d004      	beq.n	1b62 <xTaskGenericCreate+0x26>
	configASSERT(((uxPriority & (UBaseType_t)(~portPRIVILEGE_BIT)) < (UBaseType_t)configMAX_PRIORITIES));
    1b58:	4643      	mov	r3, r8
    1b5a:	2b04      	cmp	r3, #4
    1b5c:	d903      	bls.n	1b66 <xTaskGenericCreate+0x2a>
    1b5e:	b672      	cpsid	i
    1b60:	e7fe      	b.n	1b60 <xTaskGenericCreate+0x24>
	configASSERT(pxTaskCode);
    1b62:	b672      	cpsid	i
    1b64:	e7fe      	b.n	1b64 <xTaskGenericCreate+0x28>
		pxStack = (StackType_t *)pvPortMallocAligned(
    1b66:	9d0e      	ldr	r5, [sp, #56]	; 0x38
    1b68:	2d00      	cmp	r5, #0
    1b6a:	d105      	bne.n	1b78 <xTaskGenericCreate+0x3c>
    1b6c:	0090      	lsls	r0, r2, #2
    1b6e:	4b61      	ldr	r3, [pc, #388]	; (1cf4 <xTaskGenericCreate+0x1b8>)
    1b70:	4798      	blx	r3
    1b72:	1e05      	subs	r5, r0, #0
		if (pxStack != NULL) {
    1b74:	d100      	bne.n	1b78 <xTaskGenericCreate+0x3c>
    1b76:	e09c      	b.n	1cb2 <xTaskGenericCreate+0x176>
			pxNewTCB = (TCB_t *)pvPortMalloc(sizeof(TCB_t));
    1b78:	2054      	movs	r0, #84	; 0x54
    1b7a:	4b5e      	ldr	r3, [pc, #376]	; (1cf4 <xTaskGenericCreate+0x1b8>)
    1b7c:	4798      	blx	r3
    1b7e:	1e04      	subs	r4, r0, #0
			if (pxNewTCB != NULL) {
    1b80:	d100      	bne.n	1b84 <xTaskGenericCreate+0x48>
    1b82:	e093      	b.n	1cac <xTaskGenericCreate+0x170>
				pxNewTCB->pxStack = pxStack;
    1b84:	6305      	str	r5, [r0, #48]	; 0x30
			(void)memset(pxNewTCB->pxStack, (int)tskSTACK_FILL_BYTE, (size_t)usStackDepth * sizeof(StackType_t));
    1b86:	00ba      	lsls	r2, r7, #2
    1b88:	21a5      	movs	r1, #165	; 0xa5
    1b8a:	0028      	movs	r0, r5
    1b8c:	4b5a      	ldr	r3, [pc, #360]	; (1cf8 <xTaskGenericCreate+0x1bc>)
    1b8e:	4798      	blx	r3
			pxTopOfStack = pxNewTCB->pxStack + (usStackDepth - (uint16_t)1);
    1b90:	4b5a      	ldr	r3, [pc, #360]	; (1cfc <xTaskGenericCreate+0x1c0>)
    1b92:	18fb      	adds	r3, r7, r3
    1b94:	009b      	lsls	r3, r3, #2
    1b96:	6b22      	ldr	r2, [r4, #48]	; 0x30
    1b98:	4694      	mov	ip, r2
    1b9a:	4463      	add	r3, ip
			                      & (~((portPOINTER_SIZE_TYPE)
    1b9c:	2207      	movs	r2, #7
    1b9e:	4393      	bics	r3, r2
    1ba0:	001f      	movs	r7, r3
		pxTCB->pcTaskName[x] = pcName[x];
    1ba2:	7832      	ldrb	r2, [r6, #0]
    1ba4:	2334      	movs	r3, #52	; 0x34
    1ba6:	54e2      	strb	r2, [r4, r3]
		if (pcName[x] == 0x00) {
    1ba8:	7833      	ldrb	r3, [r6, #0]
    1baa:	2b00      	cmp	r3, #0
    1bac:	d000      	beq.n	1bb0 <xTaskGenericCreate+0x74>
    1bae:	e083      	b.n	1cb8 <xTaskGenericCreate+0x17c>
	pxTCB->pcTaskName[configMAX_TASK_NAME_LEN - 1] = '\0';
    1bb0:	2600      	movs	r6, #0
    1bb2:	233b      	movs	r3, #59	; 0x3b
    1bb4:	54e6      	strb	r6, [r4, r3]
	pxTCB->uxPriority = uxPriority;
    1bb6:	4643      	mov	r3, r8
    1bb8:	62e3      	str	r3, [r4, #44]	; 0x2c
		pxTCB->uxBasePriority = uxPriority;
    1bba:	6463      	str	r3, [r4, #68]	; 0x44
		pxTCB->uxMutexesHeld  = 0;
    1bbc:	64a6      	str	r6, [r4, #72]	; 0x48
	vListInitialiseItem(&(pxTCB->xGenericListItem));
    1bbe:	1d23      	adds	r3, r4, #4
    1bc0:	9301      	str	r3, [sp, #4]
    1bc2:	0018      	movs	r0, r3
    1bc4:	4d4e      	ldr	r5, [pc, #312]	; (1d00 <xTaskGenericCreate+0x1c4>)
    1bc6:	47a8      	blx	r5
	vListInitialiseItem(&(pxTCB->xEventListItem));
    1bc8:	0020      	movs	r0, r4
    1bca:	3018      	adds	r0, #24
    1bcc:	47a8      	blx	r5
	listSET_LIST_ITEM_OWNER(&(pxTCB->xGenericListItem), pxTCB);
    1bce:	6124      	str	r4, [r4, #16]
	listSET_LIST_ITEM_VALUE(
    1bd0:	2305      	movs	r3, #5
    1bd2:	4642      	mov	r2, r8
    1bd4:	1a9b      	subs	r3, r3, r2
    1bd6:	61a3      	str	r3, [r4, #24]
	listSET_LIST_ITEM_OWNER(&(pxTCB->xEventListItem), pxTCB);
    1bd8:	6264      	str	r4, [r4, #36]	; 0x24
		pxTCB->ulNotifiedValue = 0;
    1bda:	64e6      	str	r6, [r4, #76]	; 0x4c
		pxTCB->eNotifyState    = eNotWaitingNotification;
    1bdc:	2350      	movs	r3, #80	; 0x50
    1bde:	54e6      	strb	r6, [r4, r3]
			pxNewTCB->pxTopOfStack = pxPortInitialiseStack(pxTopOfStack, pxTaskCode, pvParameters);
    1be0:	9a03      	ldr	r2, [sp, #12]
    1be2:	9902      	ldr	r1, [sp, #8]
    1be4:	0038      	movs	r0, r7
    1be6:	4b47      	ldr	r3, [pc, #284]	; (1d04 <xTaskGenericCreate+0x1c8>)
    1be8:	4798      	blx	r3
    1bea:	6020      	str	r0, [r4, #0]
		if ((void *)pxCreatedTask != NULL) {
    1bec:	9b0d      	ldr	r3, [sp, #52]	; 0x34
    1bee:	2b00      	cmp	r3, #0
    1bf0:	d000      	beq.n	1bf4 <xTaskGenericCreate+0xb8>
			*pxCreatedTask = (TaskHandle_t)pxNewTCB;
    1bf2:	601c      	str	r4, [r3, #0]
		taskENTER_CRITICAL();
    1bf4:	4b44      	ldr	r3, [pc, #272]	; (1d08 <xTaskGenericCreate+0x1cc>)
    1bf6:	4798      	blx	r3
			uxCurrentNumberOfTasks++;
    1bf8:	4b44      	ldr	r3, [pc, #272]	; (1d0c <xTaskGenericCreate+0x1d0>)
    1bfa:	6a1a      	ldr	r2, [r3, #32]
    1bfc:	3201      	adds	r2, #1
    1bfe:	621a      	str	r2, [r3, #32]
			if (pxCurrentTCB == NULL) {
    1c00:	695b      	ldr	r3, [r3, #20]
    1c02:	2b00      	cmp	r3, #0
    1c04:	d169      	bne.n	1cda <xTaskGenericCreate+0x19e>
				pxCurrentTCB = pxNewTCB;
    1c06:	4b41      	ldr	r3, [pc, #260]	; (1d0c <xTaskGenericCreate+0x1d0>)
    1c08:	615c      	str	r4, [r3, #20]
				if (uxCurrentNumberOfTasks == (UBaseType_t)1) {
    1c0a:	6a1b      	ldr	r3, [r3, #32]
    1c0c:	2b01      	cmp	r3, #1
    1c0e:	d124      	bne.n	1c5a <xTaskGenericCreate+0x11e>
		vListInitialise(&(pxReadyTasksLists[uxPriority]));
    1c10:	4f3f      	ldr	r7, [pc, #252]	; (1d10 <xTaskGenericCreate+0x1d4>)
    1c12:	0038      	movs	r0, r7
    1c14:	3030      	adds	r0, #48	; 0x30
