:10000000282B00202D0100002901000029010000FB
:1000100000000000000000000000000000000000E0
:10002000000000000000000000000000ED0B0000D8
:100030000000000000000000A10C0000E50C000022
:100040002901000029010000290100002901000008
:1000500029010000290100002901000029010000F8
:1000600029010000290100002901000029010000E8
:1000700029010000B9090000290100002901000040
:1000800029010000290100002901000029010000C8
:1000900029010000290100002901000029010000B8
:1000A00029010000290100002901000029010000A8
:1000B00029010000290100002901000010B5064CAB
:1000C0002378002B07D1054B002B02D0044800E019
:1000D00000BF0123237010BD0800002000000000B5
:1000E0003C2B0000084B10B5002B03D007490848F3
:1000F00000E000BF07480368002B00D110BD064B8D
:10010000002BFBD09847F9E7000000000C0000200E
:100110003C2B00003C2B00000000000010B5014B00
:10012000984710BD5D020000FEE7000010B5174AB9
:10013000174B9A4211D01A00164B9A420DD2164A0A
:1001400003339B1A9B0801339B00002210480F4980
:100150008C58845004329A42FAD1104A104B9A4279
:100160000AD2D3430E495B1803218B4304339B18F7
:10017000002102C29342FCD10A4AFF210A4B8B4361
:1001800093600A4B98470A4B9847FEE73C2B0000C8
:1001900000000020080000200400002008000020CB
:1001A000280B002000ED00E000000000DD2700002B
:1001B000250A000030B58223DB05CA22995C01259F
:1001C000A94301242143C9B29954B520195CBB3A13
:1001D00091430C3A11431954CB215A5CAA43224350
:1001E000D2B25A541A5CBC390A4021310A431A541B
:1001F00030BD0000064B4021DC2299500331143AF7
:100200009950044AD36923390B43D3617047C046E0
:10021000001C00400008004030B583B0084B9847F0
:10022000084C002300931033074A08492000084D6A
:10023000A8472000074B9847074B984703B030BDAD
:10024000F5010000DC0A0020CC0A00200014004266
:100250008104000089050000B501000010B50E4BB7
:100260009847C023DB0520228C2149005A501039C1
:100270005A508223DB050932FF3208499950C021C8
:10028000090699504621FF315A5C012082435A5495
:10029000034B984710BDC046BD060000200000403B
:1002A00019020000EFF31083036072B6BFF35F8F93
:1002B0007047BFF35F8F036883F3108870470000B7
:1002C00070B506000C00150000280DD00800431E74
:1002D0009841C0B234220549054B984733682A003B
:1002E00021003000984770BD0020F3E7642800002B
:1002F000B505000010B53C30014B984710BDC04615
:10030000910A000010B54030014B984710BDC0461F
:10031000910A000070B5C26A002A0AD00300048E58
:10032000651C05861155028E083B5B8F9A4204D2EC
:1003300070BD1C30044B9847FAE70022C2623C3083
:10034000024B9847F4E7C04659060000910A0000A6
:1003500070B50400038F428F9A420DD00200416BAA
:10036000083A5D1C40201552C95C2000044B984798
:100370002000044B984770BD034B9847FBE7C046ED
:100380002D090000350900003D09000070B504008A
:100390001500C1634223E2520022023BC2520830E0
:1003A000074B98472000483001214942054B9847A8
:1003B000002801D1280070BD08204042FBE7C0465C
:1003C00035090000D50A0000F0B585B004000E0024
:1003D00017000800431E9841C0B2922252002149E2
:1003E000214B984724239C46A444634601936046CE
:1003F0001E4B9847B84210D3002F0BD034007B1E01
:100400009BB20133F6181A4D21000198A847013418
:10041000B442F9D1380005B0F0BD03A8154B984798
:100420000023238767876663104E114D07E0218FF5
:100430004B1C2387636B9C4661440198A847019835
:10044000B0470028F3D103A80B4B98472000443055
:1004500001214942094B98470028DBD0082040423F
:10046000D9E7C04678280000B505000099060000CD
:1004700011060000A5020000B3020000D50A00002A
:10048000F0B583B007000D0014001E0000284DD009
:1004900000294DD0002A4DD01800431E984140221B
:1004A0002C492D4B984738002430320021002B4B2B
:1004B000984700284AD13E00443600213000284B9E
:1004C0009847041E2FDB48239C46BC446346009398
:1004D00000216046224B9847041E2DDB08239C46D2
:1004E000BC4463460193290060461E4B9847041E96
:1004F00026D100237B633B877B871B4B7B601B4B99
:100500003B601B4BBB601B4BFB601B4B3B611B4BA6
:100510007B6101220121019E3000194DA847012273
:1005200003213000A847200003B0F0BD0020B6E74B
:100530000020B4E70020B2E70098124B9847F2E79A
:100540000098104DA8473000A847ECE70D246442FE
:10055000E9E7C04678280000B5050000BD050000A9
:10056000550A0000A1080000C90300008D03000027
:10057000510300001503000005030000F502000010
:1005800045090000F50A000010B50400431E98411B
:10059000C0B27B220449054B984720000830044B29
:1005A0009847002010BDC04678280000B50500001F
:1005B00019090000002800D100BE704770B5040082
:1005C0000E00150000280BD0002918D00120002AA9
:1005D00007D128220C4900200C4B98476B1E07E0DE
:1005E000002028220849094B98476B1E2B4208D14E
:1005F00063600023A360E3602660002070BD0020DC
:10060000EFE70D204042F9E794280000B50500000F
:1006100070B504000D00002815D00800431E984155
:10062000C0B240220A490B4B9847A368E2689A423D
:100630000BD0626813402268D35C2B70A36801332F
:10064000A360002070BD0020EBE70A204042F9E7DC
:1006500094280000B505000070B504000D00431E8D
:100660009841C0B251220A490A4B98476368E26830
:1006700013402268D554E3686168A2689A1A8A42D6
:1006800001D9591AA1600133E360002070BDC04652
:1006900094280000B505000010B50400431E9841E1
:1006A000C0B267220349044B9847E068A368C01AA8
:1006B00010BDC04694280000B505000010B5084BD9
:1006C0005A685A60074B9847074B9847074B98471B
:1006D000074B9847FF20074B9847074B984710BD9B
:1006E000004000413D0700005507000031070000B1
:1006F000950700000D070000FD0600009022D205BE
:10070000137802218B43137070470000C30707D58D
:10071000044A054B1A621900044A4B681342FCD183
:100720007047C04606010100001C0040FD070000A4
:100730000122014B1A71704700080040044BDA692E
:10074000F82149010A40DA6100221A617047C04667
:10075000001400400E4B02221A7509325A75190016
:10076000073A8B691A42FCD1094904228B691A4263
:10077000FCD10722064B9A7519000932CB681A4240
:10078000FCD0034A137D80210B4313757047C0468C
:10079000001000407047000030B589B00C4B6A462D
:1007A00032CB32C232CB32C212CB12C2009B834256
:1007B0000BD001239A0069465258824206D0013379
:1007C000082BF7D1002009B030BD0023D8B2FAE7DA
:1007D000B828000010B58623DB05984207D0084BE7
:1007E000984204D0074B98470930C0B210BDBD23D2
:1007F0001B069C466044800A0930C0B2F6E7C0463A
:10080000000400439907000010B504001E4B9847F0
:10081000042804D01D4A1E4900201E4B9847E36956
:10082000DB0718D40322E3691A42FCD123689B0733
:100830000BD523680222934323600132E3691A42F5
:10084000FCD10222E3691A42FCD105232360032272
:10085000E3691A42FCD10122E3691A42FCD10E4B32
:1008600023600322E3691A42FCD1C0239B02636028
:100870000722E3691A42FCD1084BA3810023A3732A
:100880003022A354002010BD99070000610200002F
:10089000F0280000B5050000040031402BF6FFFFF2
:1008A00070B506000C00431E9841C0B2C422134923
:1008B000134B98472000134B9847051E01D0280082
:1008C00070BDB461104B9C4214D020000F4B984770
:1008D0000306F4D41F2318401E3B83400C4A80219A
:1008E0005350BFF34F8FBFF36F8F0131FF31535020
:1008F0001360E4E7074B1E60E7E7C046F0280000FE
:10090000B50500000908000000140042D5070000EA
:1009100000E100E0240000208269136802210B43FB
:1009200013600131D3691942FCD17047836989B2E0
:1009300019857047836901229A757047836902227D
:100940009A75704770B504000D001600431E98415B
:10095000C0B2164A1649174B984702232A009A43F9
:100960000ED1A369002E05D101221A75A3690132A7
:100970001A7570BD01229A75A36901329A75F8E75C
:10098000012D07D0032DF4D1A369002E0BD08022B6
:100990009A75EEE7A369002E02D104221A75E8E7E2
:1009A00004229A75E5E780221A75E2E72102000029
:1009B000F0280000B505000010B5194B18688469CF
:1009C000237EDB0702D5A37DDB070FD4237E9B07A5
:1009D00002D5A37D9B070ED4237E5B0715D5628BC2
:1009E00037231A420CD04833638310BD012323758B
:1009F00003689847F9E70223237583689847F4E76B
:100A0000218DC9B243689847EFE7237EDB09ECD01C
:100A100080232376C3689847638B9BB26383E4E7A4
:100A20002400002010B5064B9847064B9847064B0C
:100A30009847064B9847064B9847002010BDC04684
:100A40001D010000E524000019260000DD2500003E
:100A50005526000070B505000C00002001238B42D4
:100A60004041C0B22B220749074B98472100012083
:100A7000064B984728600023002801D0180070BD5D
:100A8000143BFBE70C290000B5050000C110000075
:100A900010B50D4B5B68DB050AD0006800210B4BDD
:100AA00098470023002801D0180010BD033BFBE746
:100AB0000068002300220021054CA04700230028E5
:100AC000F2D1033BF0E7C04600ED00E089130000DF
:100AD000ED10000010B50A00006800230021044C4E
:100AE000A0470023002801D0180010BD083BFBE7F9
:100AF0003514000010B504000068002803D0034B33
:100B0000984700232360002010BDC046BD1500009B
:100B1000030008334360012252428260C3600361D4
:100B200000230360704700230361704743684B60F4
:100B30009A688A609A685160996008610368013315
:100B40000360704730B50C6802000832631C02D1A4
:100B5000026904E01A0053681D68AC42FAD2536877
:100B60004B6099608A6051600861036801330360DB
:100B700030BD036942688168916082684168516054
:100B80005A68904205D0002202611A68501E18600F
:100B9000704782685A60F6E7034B1B68013301D047
:100BA00072B6FEE772B6FEE700000020064A136840
:100BB0001868203080F30988022080F314883FBC35
:100BC000AE4662B600BDC046300A002010B5031F15
:100BD000802464041C60043B1960043B02491960D2
:100BE000143B1A60403810BD990B0000704700009C
:100BF00010B50C4B1968FF2212040A431A601968D9
:100C0000FF2212060A431A60074A084B1A6007229D
:100C1000074B1A600022074B1A60074B9847074B97
:100C20009847C04620ED00E09F0F000014E000E070
:100C300010E000E000000020AD0B0000990B000068
:100C400080225205034B1A60BFF34F8FBFF36F8FA3
:100C50007047C04604ED00E072B6044A13680133E1
:100C60001360BFF34F8FBFF36F8F704700000020FA
:100C7000064B1B68002B01D172B6FEE7013B034A0D
:100C80001360002B00D162B67047C0460000002000
:100C9000EFF3108072B67047002080F31088704721
:100CA000EFF309800E4B1A6820381060F0C04446FC
:100CB0004D4656465F46F0C008B572B600F0FAFFE2
:100CC00062B60CBC116808681030F0C8A046A9468E
:100CD000B246BB4680F309882038F0C81847C046A2
:100CE000300A002010B5074B98470400064B984780
:100CF000002803D080225205044B1A602000044BC8
:100D0000984710BD910C0000D119000004ED00E0DF
:100D10009B0C000070B504002A4B98472A4B9B6837
:100D2000002B11D00025002C46D0200008304307AE
:100D300002D0072398430830431E244A00259342DB
:100D40003AD821490B6813E01F490B0014330722DE
:100D500093430B6000254D601D4A1E481067D56601
:100D600058606C321A6001238B60DBE719001300B6
:100D70005A68904202D91A68002AF7D1144A6C3294
:100D800093421DD00D6808351A680A605A68121A15
:100D9000102A0CD91C186260586060680A4900E08B
:100DA00011000A685668B042FAD822600C600A4AFC
:100DB0005B681168CB1A1360084B9847280070BD18
:100DC0000025F9E7A91900002800002056090000B5
:100DD000280900205809000004000020DD1A000046
:100DE00070B5041E16D00500083D0B4B9847696886
:100DF0000A4A00E01A00136858688142FAD8083C91
:100E000023601560064A636811688C46634413606A
:100E1000044B984770BDC046A91900002800002067
:100E200004000020DD1A000070B504001500026CFB
:100E3000002A0CD100202368834204D16068194B3A
:100E4000984700236360A36B0133A36370BD002D3B
:100E50000ED18068144B9847A368226C9446634473
:100E6000A360002062689342EDD32368A360EAE7A1
:100E7000C0680D4B9847236C5B42E268D218E26071
:100E800021688A4203D2626894466344E36000208A
:100E9000022DD8D1A36B8342D5D0A36B013BA363B2
:100EA000D1E7C046A51F00002528000030B583B05B
:100EB00001900A00446D002C05D0A16BE36B9942B0
:100EC00003D372B6FEE772B6FEE7A16B00258B4234
:100ED00002D8280003B030BD01A920000A4B984772
:100EE0000500A36C01330AD1636A002BF1D0200006
:100EF0002430064B98470028EBD00125E9E7A36C86
:100F00000133A364E5E7C046290E0000FD1D000083
:100F100010B50C00026C002A0BD0C3689B18C3608C
:100F200041688B4201D30368C360C1682000014B54
:100F3000984710BD25280000F8B50400254B9847B8
:100F4000A36C002B1EDD244D244E0DE0636A002BA4
:100F500018D020002430B047002810D1A36C013BEA
:100F6000A364A36C002B0DDD636D002BEED000217C
:100F70002000A8470128F1D1194B9847EEE7184BFC
:100F80009847EBE701235B42A364164B9847114B4C
:100F90009847636C002B16DD2369002B13D02500C6
:100FA00010350E4F0E4E08E0636C013B6364636CBA
:100FB000002B08DD2369002B05D02800B847002846
:100FC000F2D0B047F0E701235B426364054B9847DA
:100FD000F8BDC046590C0000AD0E0000FD1D00001C
:100FE000FD1E0000710C000070B504000D0000280B
:100FF00020D0174B98472268216CE36B4B43D018E5
:1010000060600020A063A2605B1AD318E360012334
:101010005B426364A364002D11D12369002B05D0CA
:10102000200010300B4B9847012805D00A4B9847F9
:10103000012070BD72B6FEE7084B9847F6E7200026
:101040001030074DA84720002430A847EEE7C046DF
:10105000590C0000FD1D0000710C0000410C000047
:10106000110B0000F8B506000D001700002801D193
:1010700072B6FEE7002908D00800704359300E4BC5
:101080009847041E13D172B6FEE758200A4B9847C2
:10109000041EF8D02060E663256401212000074B80
:1010A00098475023E754002363652000F8BD0300F0
:1010B00058330360EFE7C046150D0000E90F00004C
:1010C00010B50C00002801D172B6FEE7884201D2AB
:1010D00072B6FEE702220021034B9847002801D098
:1010E000846310BD72B6FEE765100000F0B5CE4611
:1010F000474680B585B004000F0001921D0000280E
:101100000CD000290CD0022D0FD04B4B9847002853
:1011100010D1019B002B11D072B6FEE772B6FEE72C
:10112000036C002BEFD072B6FEE7E36B012BECD023
:1011300072B6FEE70026414B98464CE00026FAE7DF
:101140002A00390020003E4B9847636D002B0FD0DA
:10115000290020003B4B9847012801D13A4B984782
:101160003A4B9847012005B00CBC90469946F0BD1B
:10117000636A002B08D020002430354B98470128A3
:10118000EED1314B9847EBE70028E9D02E4B98473A
:10119000E6E72E4B98470020E5E72C4B984701A93E
:1011A00002A82C4B984700283ED1244B9847A36BAC
:1011B0009946E66B254B9847B1452FD1200010305A
:1011C0000199254B98472000244B9847244B98477A
:1011D000002820D00126C047A36BE26B9342AFD317
:1011E000022DADD0019B002BD3D0002E02D102A83E
:1011F0001C4B9847154B98471B4B98470F4B9847EC
:10120000636C013301D100236364A36C0133C4D147
:101210000023A364C1E70C4B9847DBE720000F4B8A
:1012200098470F4B9847D5E720000C4B98470C4B3D
:101230009847002097E7C046091F0000590C00009E
:10124000290E0000AD0E0000410C0000710C0000E2
:10125000FD1D0000911E0000551D0000390F00000B
:10126000DD1A0000791E0000A919000070B5050004
:101270005820104B9847041E1AD000234360036087
:101280008360C36083630122C2630364023A4264E1
:1012900082645132855443651030074DA8472000C1
:1012A0002430A8470023002200212000034DA84736
:1012B000200070BD150D0000110B0000ED100000A6
:1012C000F0B583B004000F0016001D00002811D0F7
:1012D000002911D0022D14D0264B98470190A36B02
:1012E000E26B9A422ED800250198234B984728009C
:1012F00003B0F0BD72B6FEE7036C002BEAD072B605
:10130000FEE7E36B012B19D072B6FEE70125636A95
:10131000002BE9D020002430184B98470028E3D058
:10132000002E09D001233360DEE7A36C0133A364F0
:101330000125D9E70125D7E70125D5E70D4B9847CA
:101340000190A36B2A00390020000D4B9847A36C35
:101350000133EAD1636D002BD8D029002000094B5E
:10136000984701250128BFD1002EE3D00123336027
:10137000BAE7C046910C00009B0C0000FD1D000068
:10138000290E0000AD0E0000F8B504000E00002884
:1013900004D0036C002B03D072B6FEE772B6FEE7F2
:1013A0000368002B20D01F4B98470700A36B002534
:1013B000E26B934213D2A36B0133A363A36C01339B
:1013C00026D1636D002B14D000212000164B9847C6
:1013D0000135012803D1002E1FD0012333603800CE
:1013E000124B98472800F8BD4368002BDBD072B63B
:1013F000FEE70125636A002BF1D0200024300C4B5E
:1014000098470028EBD0002E09D001233360E6E78F
:10141000A36C0133A3640125E1E70125DFE7012582
:10142000DDE7C046910C0000AD0E00009B0C0000F3
:10143000FD1D0000F0B5C64600B584B004000E00E6
:1014400001921F0000280AD000290AD04D4B98476E
:1014500000280BD1019B002B0CD072B6FEE772B6B0
:10146000FEE7036C002BF1D072B6FEE70025464B79
:10147000984642E00025FAE7E56831002000434B3A
:101480009847002F1AD1A36B013BA3632368002B5D
:1014900002D13F4B984760602369002B07D02000A2
:1014A00010303C4B9847012801D13B4B98473B4BB0
:1014B0009847012004B004BC9046F0BDE560636A23
:1014C000002BF4D020002430324B98470028EED077
:1014D000314B9847EBE7314B98470020EAE72A4B1E
:1014E000984760682E4B98472C4B984733E0200074
:1014F0002C4B98472C4B98470125C047A36B002BDA
:10150000BAD1019B002BE6D0002D02D102A8274BB7
:101510009847224B9847264B98471B4B9847636C3C
:10152000013301D100236364A36C013301D1002393
:10153000A3641A4B984701A902A81E4B984700289C
:1015400018D1114B9847A56B144B9847002DCED15D
:101550002368002BC3D0200024300199164B9847F4
:101560002000104B9847104B98470028C4D10A4BD5
:101570009847C1E720000B4B98470B4B984700203A
:1015800098E7C046091F0000590C0000110F000029
:1015900029210000FD1D0000410C0000710C00001D
:1015A000251F0000390F0000DD1A0000791E000021
:1015B000A9190000911E0000551D000010B500285B
:1015C00001D172B6FEE7014B984710BDE10D000056
:1015D00070B504000D0016000E4B9847636C013384
:1015E0000BD0A36C01330BD00B4B9847A36B002B94
:1015F00009D02000094B984770BD00236364F0E7D1
:101600000023A364F0E72000243032002900044BBB
:101610009847EEE7590C0000710C0000390F0000EC
:10162000A91D0000F0B5DE4657464E464546E0B5DA
:10163000050093460868002846D04B685B684B60FD
:10164000082292468A44534508D04B68DB689C4682
:101650000020022398460023994618E0CB684B608F
:10166000F3E7CB684B6017E07B6C73614B46B3616B
:101670003A6B1378A52B25D100230133D45CA52C1C
:10168000FBD09B08B38301302035BC451CD04B6890
:101690005B684B609A45E4D04B68DF682E002F6092
:1016A0003B0034336B60FB6BAB605B462B73FB6AB8
:1016B0002B615B46032BD7D1BB6A002BD4D04346AA
:1016C0002B73D1E70023DCE73CBC90469946A24649
:1016D000AB46F0BD084B9B6A1B68002B06D0064B3F
:1016E0009A6AD268D2685268DA627047012252421E
:1016F000014BDA62F9E7C0469C09002070B5034D42
:10170000034C2B6B012BFDD9A047FAE79C09002065
:10171000410C000070B504000C4B5A6950609B6985
:1017200098420CD30A4DA86A084B59690431094BF9
:101730009847EB6A9C4208D2054BDC6205E0034BFC
:10174000D86959690431034B984770BD1C0A0020C1
:101750009C090020450B0000F0B5DE465746464682
:10176000C0B584B002900E00170003930C9B9846FE
:10177000002804D04346042B03D972B6FEE772B6A4
:10178000FEE70E9D002D05D19000614B9847051E88
:1017900000D19CE054205E4B9847041E00D193E09A
:1017A0000563BA00A52128005A4B98475A4BFB18ED
:1017B0009B00226B94466344072293431F003278B8
:1017C0003423E2543378002B00D083E000263B23FF
:1017D000E6544346E3626364A664231D0193180044
:1017E0004E4DA84720001830A847246105234246E3
:1017F0009B1AA3616462E6645023E654039A02993B
:101800003800474B984720600D9B002B00D01C6090
:10181000444B9847444B1A6A01321A625B69002BA9
:1018200069D1414B5C611B6A012B24D13F4F3800C9
:1018300030303F4EB04738004430B0473800583061
:10184000B04738006C30B04738008030B047364D74
:1018500024239B46AB445846B04738239A46AA44B3
:101860005046B04738001430B0473800B0475B46A8
:10187000BB625346EB612C4A136D01331365E3637E
:10188000E36A526D934201D9274A53659800C31801
:101890009B0026483030C0180199264B9847264BAC
:1018A0009847214BDB6C0120002B07D01E4B5B6956
:1018B000DB6A984502D9214B9847012004B01CBC33
:1018C00090469A46A346F0BD28001D4B984701203C
:1018D0004042F3E7731C2200353221003C3104E022
:1018E000013301328A4200D170E7187810701878FD
:1018F0000028F5D16AE70C4BDB6C002BBBD10A4BFF
:101900005B69DB6A9845B6D3074B5C61B3E7C046B9
:10191000150D000037280000FFFFFF3F270B0000D8
:10192000CD0B0000590C00001C0A00209C0900206F
:10193000110B00002D0B0000710C0000410C000089
:10194000E10D000010B584B00023039302930193CE
:10195000009340220D490E480E4CA047012803D0A9
:10196000002811D172B6FEE70B4B98470128F7D13A
:1019700072B601225242094BDA62094B0232DA6432
:1019800000229A61074B984704B010BD442900001B
:10199000FD16000059170000E12100009C090020FD
:1019A0001C0A0020F10B0000024A936D013393657D
:1019B0007047C0461C0A0020014B98697047C0461A
:1019C0001C0A0020014B186A7047C0461C0A002000
:1019D000F0B5CE4600B582B03B4B9B6D002B64D179
:1019E000394B9A6901329A619D69002D11D1374BAB
:1019F0009B6A1B68002B01D072B6FEE7334A916ADE
:101A0000314BD8699062D961DA6D0132DA65304BB9
:101A100098472E4BDB6A00249D4236D300242B4B83
:101A200099461F0030374B469B6A1B68002B28D015
:101A3000264B9B6ADB68DE6873689D4232D3331D98
:101A400001931800234B9847B36A002B03D0300052
:101A50001830204B9847F36A1B4A526D934201D9C4
:101A6000194A53659800C0188000381801991A4B1C
:101A70009847154B5B69F26ADB6A9A42D3D301241B
:101A8000D1E701225242114BDA620F4B5B69DA6AED
:101A900093009B189B000D4AD3181B6B012B09D98F
:101AA000012407E0094AD362EFE7074A136E0133C6
:101AB00013660024044B5B6E002B00D00124200031
:101AC00002B004BC9146F0BD1C0A00209C09002015
:101AD000D5160000730B00002D0B0000F0B583B08D
:101AE000324B9B6D002B01D172B6FEE7304B98470D
:101AF0002E4B9A6D013A9A659B6D0024002B03D101
:101B00002A4B1B6A002B2CD12A4B9847200003B08C
:101B1000F0BD9800C018800030180199264B9847F6
:101B2000224B5B69EA6ADB6A9A4215D27B69002B19
:101B30001AD0224B1B6ADD6828001830204CA047C1
:101B40002B1D01931800A047EB6A184A526D93426F
:101B5000DFD9164A5365DCE70122144B5A66174F4A
:101B6000E4E7164E3036FAE7104B1B6E002B13D00D
:101B70000E4B1B6E002B0FD0124E0C4D2C0005E0AF
:101B8000236E013B2366236E002B05D0B04700284F
:101B9000F6D001236B66F3E7044B5B6E0024012B48
:101BA000B2D1094B98470134AEE7C0461C0A002069
:101BB000590C0000710C00002D0B00009C09002046
:101BC000730B0000D1190000410C000010B5041E79
:101BD00015D00C4B9B6D002B01D072B6FEE70A4B63
:101BE0009847084B9A69A41858690430074B9847DE
:101BF0002000074B9847074B9847002801D1064B18
:101C0000984710BD1C0A0020A9190000730B0000A2
:101C100015170000DD1A0000410C0000F8B5CE4693
:101C2000474680B507000C0091461D4B98471D4B59
:101C30001B6A0025A3422BD81B4B1C0080341C229E
:101C400090469844194E6801381801222100B04787
:101C50002D18143C4445F6D1134B9846996A6801F7
:101C600038180222114CA0472D180E4BD969680173
:101C700038180222A0472D1868013818032241465F
:101C8000A0472D184B46002B02D000234A46136074
:101C9000074B984728000CBC90469946F8BDC046B3
:101CA000A91900001C0A00209C090020251600002C
:101CB000DD1A000010B5254B9B6D002B22D1234B64
:101CC00000225A665A6D93009B189B00204AD31835
:101CD0001B6B002B1AD11D4B5B6D002B10D01B4AC8
:101CE0001B4C1000536D013B5365516D8B005B180D
:101CF0009B00E3181B6B002B08D1436D002BF1D127
:101D000072B6FEE70122114B5A6610BD0F4B5B6D98
:101D10000F4A9900C81880001018446B6468446327
:101D2000C918890002003832944209D09A00D318A9
:101D30009B00074AD3185B6BDA68044B5A61E4E7EF
:101D400060680A0002498A185063EFE71C0A002005
:101D50009C09002070B50C00002810D00C4D69695A
:101D600018310C4B9847686904300B4B9847631C3B
:101D700007D0074B98692018084B984770BD72B67A
:101D8000FEE7034B596904310548064B9847F5E7D0
:101D90001C0A0020450B0000730B00001517000003
:101DA0009C0900202D0B000070B50D0016000028C6
:101DB00010D00D4C616918310C4B984760690430A4
:101DC0000B4B9847012E07D0074B98694019094BD8
:101DD000984770BD72B6FEE7034B59690431064857
:101DE000024B9847F5E7C0461C0A00202D0B000067
:101DF000730B0000151700009C09002070B5C36824
:101E0000DC68002C28D0250018352800164B984790
:101E1000164B9B6D002B21D1251D2800124B984796
:101E2000E36A124A526D934201D9104A53659800F1
:101E3000C3189B000E483030C01829000D4B98473E
:101E40000A4B5B69E26ADB6A00209A4203D90122ED
:101E5000064B5A66013070BD72B6FEE72900044891
:101E60001430044B9847EBE7730B00001C0A00206A
:101E70009C0900202D0B0000002805D0034BDA6DD3
:101E800002609B694360704772B6FEE71C0A00203F
:101E900070B504000E0000281AD000291AD0134B88
:101EA0009847134B9A693368591C1DD01049C96D66
:101EB0002068884203D0012561688A4204D26168A3
:101EC000501A0125834207D80A4B9847280070BD55
:101ED00072B6FEE772B6FEE79B1A5B18336020000D
:101EE000054B98470025EFE70025EDE7590C00006A
:101EF0001C0A0020710C0000791E00000122014B19
:101F00005A6670471C0A0020054BDB6C0120002B31
:101F100004D0034B986D4342584140007047C0467F
:101F20001C0A002070B5041E1BD0C16A194B5B69E6
:101F3000DB6A994215D28369002B05DB154B5B697F
:101F4000DA6A05239B1A83618B0059188900124BAA
:101F500030335B1862699A4204D00E4B5B69DB6ACE
:101F6000E36270BD251D28000C4B9847094B5A6948
:101F7000D26AE2625B6D9A4201D9064B5A659000C3
:101F8000821892000448303080182900044B98478A
:101F9000E7E7C0461C0A00209C090020730B0000E4
:101FA0002D0B000070B5041E2DD0194B5B699842B3
:101FB00001D072B6FEE7836C002B01D172B6FEE74A
:101FC000013B8364C26A416C8A421ED00020002B10
:101FD00018D1251D28000F4B9847636CE36205223A
:101FE000D21AA2610A4A526D934201D9084A536536
:101FF0009800C3189B0008483030C0182900074BD0
:102000009847012070BD0020FCE70020FAE7C04699
:102010001C0A0020730B00009C0900202D0B0000FF
:10202000F0B5CE46474680B585B004000023037066
:10203000354B1A6A0392186A4001344B9847061EC2
:102040005CD003990022324B9847039000230293FF
:10205000029A039B9A424ED200272E4B99462E4B52
:10206000984635E05225012B41D1029B5B01F318C4
:1020700059682000C8472000C0470300062807D839
:102080002018E11D2022027001308142FBD107237C
:10209000E4182770029B029A02995B01F3181B69EE
:1020A00049017118896801915201B218928B00920E
:1020B0002A001A4920001A4DA8472000164B9847BD
:1020C0002418029B01330293029A039B9A4212D274
:1020D000029B5B01F3181B7B022B0AD0DAB2022AA7
:1020E000C0D95325032BC0D00F3D042BBDD03D00DC
:1020F000BBE74225B9E730000A4B984705B00CBC56
:1021000090469946F0BDC0461C0A0020150D0000FF
:102110001D1C000047280000572800004C29000023
:1021200009270000E10D0000054B5B69002B04D07E
:10213000034B5A69936C01339364014B58697047A0
:102140001C0A002010B54160006191420BD8D21AE0
:10215000012483699A4211D2011D094B1868094B69
:10216000984700240AE09A4202D20124994205D2FB
:10217000011D034B5868034B98470024200010BDF5
:10218000840A0020450B0000F8B5104B9847104B0F
:102190009B68002B02D00F4B9847F8BD0C4C2600D3
:1021A0000C3630000C4FB847250020352800B847C2
:1021B0006660256000220C210220084B9847002809
:1021C00002D0034B9860E6E772B6FEE7590C0000B8
:1021D000840A0020710C0000110B00006510000043
:1021E00010B584B00B4B98470B4B9B68002B0FD05E
:1021F00000230393029301930233009300234022B0
:1022000006490748074CA047002801D004B010BD7C
:1022100072B6FEE789210000840A002084290000AC
:10222000452300005917000030B585B004001D009B
:10223000002814D0134B9868002821D001910292F5
:102240000394052915DC104B9847022809D00D4B43
:1022500098680023002201A90C4CA0470EE072B63A
:10226000FEE7084B98680023089A01A9074CA0478D
:1022700004E000232A0001A9054CA04705B030BDA9
:102280000020FBE7840A0020091F0000ED10000079
:10229000C1120000F0B5D6464F464646C0B582B0E2
:1022A0008146234B98478046224B5B6B984217D35D
:1022B00000234A4613601F4B42465A63404602B011
:1022C0001CBC90469946A246F0BD0023009352469E
:1022D00000212000184CA047002803D172B6FEE769
:1022E000144E164F73681A68002A18D0DB681A68F3
:1022F0009246DC68251D2800B8472000636A98478D
:10230000E369012BEED1A36953449A45DDD26360A2
:102310002461084B58682900094B9847E2E7054AB1
:1023200011685160136001234A461360C3E7C04639
:10233000B9190000840A002029220000730B000054
:10234000450B0000F0B589B0534F544B5B681A68D9
:10235000002A0ED0DB681C68514B984705A8514BEA
:1023600098470500059B002B60D1A04237D2002280
:102370000FE04B4B984705A84A4B98470500059B33
:10238000002B53D1454B1B681B685A425A41D2B2AD
:102390000024611B414B9868434B9847434B984737
:1023A000002840D03D4D424C0023002205A9A868DA
:1023B000A0470028C9D0059B0393002BF4DB079EA0
:1023C0007369002B01D0301DB84704A8354B9847DE
:1023D000059B092BE8D89B00364AD3589F46334BC0
:1023E00098472E4B5B68DB68DE68301D2A4B9847A8
:1023F000F369012B03D0736A30009847D2E7B369C1
:10240000E11823002A0030002B4DA8470128F2D103
:1024100000230093220000213000284CA047002810
:10242000E9D172B6FEE7264B9847BBE71F4B9847AA
:10243000B8E7069BB269944663441900069B020004
:1024400030001D4CA0470128ADD13000736A984779
:10245000F369012BA7D1069BB1698C4663441A002E
:102460000023009300213000144CA04700289AD18B
:1024700072B6FEE70699B161002906D04118030043
:10248000020030000C4CA0478DE772B6FEE730002A
:102490000C4B984787E7C046730B0000840A002066
:1024A000A919000095220000D1150000DD1A0000D6
:1024B000351400005C29000045210000292200009D
:1024C000410C0000E10D0000F8B5C025ED058E2798
:1024D0007F002026024CEE51FA204000A047FAE788
:1024E000CD1B000010B50120034B9847034B18602B
:1024F000002800D010BDFEE76D120000BC0A0020CD
:1025000010B5064B18680023012252420021044CEA
:10251000A047431E9841C0B210BDC046BC0A00206F
:102520003514000010B5044B186800230022002168
:10253000024CA04710BDC046BC0A0020ED100000B0
:1025400030B5A3B04A230193183B009329331B22D3
:102550000D4902A80D4DA84702A80D4CA0470D4BF0
:10256000984702000C4902A8A84702A8A0470B48B8
:10257000A0470B48A04702A80A4B984702A8A047CB
:102580000948A04723B030BD8C290000092700006E
:1025900061260000C519000098290000B429000038
:1025A000D429000021200000FC29000070B5064C51
:1025B000064E074D02E00748074B9847A047002802
:1025C000F9D0B047A847F6E70125000041250000F3
:1025D0002525000010270000CD1B000010B584B099
:1025E000002303930293084B0433019301230093C8
:1025F00000231B2205490648064CA047012800D0AD
:10260000FEE704B010BDC046BC0A0020642A0000EA
:10261000C92400005917000010B584B000230393AB
:102620000293084B083301930223009300234B22AB
:1026300005490648064CA047012800D0FEE704B033
:1026400010BDC046BC0A0020682A0000AD2500006D
:102650005917000010B5014B984710BD45190000EF
:10266000F8B50400064E074D2000B04782B22100A5
:102670000548A84707002000B0478742F4D3F8BDBB
:1026800057280000C1020000DC0A0020F0B585B028
:102690000024002902D01B4F01AD08E03023037055
:1026A0002F3B2BE03033735501340A2C0ED026001B
:1026B000A300DA5900239142F4D3891A01238A42F4
:1026C000F0D8891A01330A2BF9D1EBE701AB1B785B
:1026D000302B09D1012201A9535C302B05D10132E5
:1026E0000A2AF9D1002309E00022002301A98C184D
:1026F000E15CC154013399180929F9DD180005B0CE
:10270000F0BDC046F42A00000EB4F0B582B004005B
:1027100007AB20CB019300262B78002B54D0252B20
:1027200004D02370013401350136F5E76B78642B52
:102730001AD00ED9732B2ED0752B40D1019B1A1DA8
:10274000019219682000244B984736182418023546
:10275000E2E7632B33D1019B1A1D01921B682370A2
:10276000013402350136D7E7019B1A1D0192196821
:10277000002906DB2000184B98472418361802352C
:10278000CAE7671C2D232370013649423800124BDB
:1027900098473C00F1E7019B1A1D019219680B78DC
:1027A000002B0AD032008E1B237001340132B35C3F
:1027B000002BF9D102351600AEE73200FAE723709C
:1027C000013402350136A7E72370300002B0F0BCB7
:1027D00008BC03B01847C0468D26000070B500261F
:1027E0000C4D0D4C641BA410A64209D1002600F02C
:1027F00095F90A4D0A4C641BA410A64205D170BD80
:10280000B300EB5898470136EEE7B300EB58984712
:102810000136F2E7282B0000282B0000282B0000AF
:102820002C2B0000002310B59A4200D110BDCC5CC7
:10283000C4540133F8E703008218934200D1704773
:1028400019700133F9E7031C0A7801311A7001335A
:10285000002AF9D170470023C25C0133002AFBD162
:10286000581E70472E2E2F68616C2F7372632F686D
:10287000616C5F696F2E63002E2E2F68616C2F7361
:1028800072632F68616C5F75736172745F6F732E12
:10289000630000002E2E2F68616C2F7574696C73B5
:1028A0002F7372632F7574696C735F72696E6762E0
:1028B00075666665722E63000004004200080042DF
:1028C000000C0042001000420014004200180042B8
:1028D000000000430004004300000000000000006E
:1028E00000000000000000000000000000000000E8
:1028F0002E2E2F68706C2F736572636F6D2F68704A
:102900006C5F736572636F6D2E6300002E2E2F74E3
:102910006869726470617274792F52544F532F66D4
:1029200072656572746F732F4672656552544F53AA
:1029300056382E322E332F72746F735F706F72742D
:102940002E63000049444C4500000000092563093E
:1029500025750925750925750D0A0000322400002A
:102960003224000032240000A82300007424000058
:102970008E2400003224000032240000A82300002E
:1029800074240000546D7220537663000A0A0A25ED
:1029900063256325632563002D2D2D204E756D6203
:1029A0006572206F66207461736B733A2025750D14
:1029B0000A0000003E205461736B73095374617404
:1029C000650950726909537461636B094E756D0D29
:1029D0000A0000002A2A2A2A2A2A2A2A2A2A2A2AF5
:1029E0002A2A2A2A2A2A2A2A2A2A2A2A2A2A2A2A47
:1029F0002A2A2A2A2A2A2A0D0A0000002D2D2D20F3
:102A000050726573732061206B65793A0D0A2061FD
:102A10003A204C454420626C696E6B207461736B84
:102A2000206163746976650D0A20733A204C454431
:102A3000204F464620616E6420626C696E6B207484
:102A400061736B2073757370656E640D0A206F740B
:102A5000686572733A204563686F206261636B0D2D
:102A60000A2300004C6564004D6F6E69746F72003C
:102A70002D204C454420626C696E6B207461736B31
:102A8000206163746976652E0D0A00002D204C4587
:102A900044204F464620616E6420626C696E6B2054
:102AA0007461736B2073757370656E6465642E0D4D
:102AB0000A0000002D204D6F6E69746F72207461E2
:102AC000736B206163746976652E0D0A0000000047
:102AD0002D204D6F6E69746F72207461736B20735B
:102AE000757370656E6465642E0D0A00436F6E73B6
:102AF0006F6C650000CA9A3B00E1F505809698006E
:102B000040420F00A086010010270000E8030000EB
:102B1000640000000A00000001000000F8B5C04693
:102B2000F8BC08BC9E467047E5000000F8B5C046FA
:0C2B3000F8BC08BC9E467047BD000000C9
:082B3C00AAAAAAAA5809000088
:00000001FF
